{
  "_format": "hh-sol-artifact-1",
  "contractName": "Deployer",
  "sourceName": "contracts/Deployer.sol",
  "abi": [
    {
      "inputs": [],
      "stateMutability": "nonpayable",
      "type": "constructor"
    },
    {
      "inputs": [
        {
          "internalType": "address",
          "name": "owner",
          "type": "address"
        }
      ],
      "name": "OwnableInvalidOwner",
      "type": "error"
    },
    {
      "inputs": [
        {
          "internalType": "address",
          "name": "account",
          "type": "address"
        }
      ],
      "name": "OwnableUnauthorizedAccount",
      "type": "error"
    },
    {
      "anonymous": false,
      "inputs": [
        {
          "indexed": false,
          "internalType": "address",
          "name": "certificateContract",
          "type": "address"
        },
        {
          "indexed": false,
          "internalType": "address",
          "name": "batchContract",
          "type": "address"
        }
      ],
      "name": "ContractsDeployed",
      "type": "event"
    },
    {
      "anonymous": false,
      "inputs": [
        {
          "indexed": true,
          "internalType": "address",
          "name": "previousOwner",
          "type": "address"
        },
        {
          "indexed": true,
          "internalType": "address",
          "name": "newOwner",
          "type": "address"
        }
      ],
      "name": "OwnershipTransferred",
      "type": "event"
    },
    {
      "inputs": [],
      "name": "batchContract",
      "outputs": [
        {
          "internalType": "contract BatchNFT",
          "name": "",
          "type": "address"
        }
      ],
      "stateMutability": "view",
      "type": "function"
    },
    {
      "inputs": [],
      "name": "certificateContract",
      "outputs": [
        {
          "internalType": "contract CertificateNFT",
          "name": "",
          "type": "address"
        }
      ],
      "stateMutability": "view",
      "type": "function"
    },
    {
      "inputs": [],
      "name": "deployContracts",
      "outputs": [],
      "stateMutability": "nonpayable",
      "type": "function"
    },
    {
      "inputs": [
        {
          "internalType": "address",
          "name": "certifier",
          "type": "address"
        }
      ],
      "name": "isCertifier",
      "outputs": [
        {
          "internalType": "bool",
          "name": "",
          "type": "bool"
        }
      ],
      "stateMutability": "view",
      "type": "function"
    },
    {
      "inputs": [
        {
          "internalType": "address",
          "name": "producer",
          "type": "address"
        }
      ],
      "name": "isProducer",
      "outputs": [
        {
          "internalType": "bool",
          "name": "",
          "type": "bool"
        }
      ],
      "stateMutability": "view",
      "type": "function"
    },
    {
      "inputs": [
        {
          "internalType": "address",
          "name": "verifier",
          "type": "address"
        }
      ],
      "name": "isVerifier",
      "outputs": [
        {
          "internalType": "bool",
          "name": "",
          "type": "bool"
        }
      ],
      "stateMutability": "view",
      "type": "function"
    },
    {
      "inputs": [],
      "name": "owner",
      "outputs": [
        {
          "internalType": "address",
          "name": "",
          "type": "address"
        }
      ],
      "stateMutability": "view",
      "type": "function"
    },
    {
      "inputs": [
        {
          "internalType": "address",
          "name": "certifier",
          "type": "address"
        }
      ],
      "name": "registerCertifier",
      "outputs": [],
      "stateMutability": "nonpayable",
      "type": "function"
    },
    {
      "inputs": [
        {
          "internalType": "address",
          "name": "producer",
          "type": "address"
        }
      ],
      "name": "registerProducer",
      "outputs": [],
      "stateMutability": "nonpayable",
      "type": "function"
    },
    {
      "inputs": [
        {
          "internalType": "address",
          "name": "verifier",
          "type": "address"
        }
      ],
      "name": "registerVerifier",
      "outputs": [],
      "stateMutability": "nonpayable",
      "type": "function"
    },
    {
      "inputs": [
        {
          "internalType": "address",
          "name": "certifier",
          "type": "address"
        }
      ],
      "name": "removeCertifier",
      "outputs": [],
      "stateMutability": "nonpayable",
      "type": "function"
    },
    {
      "inputs": [],
      "name": "renounceOwnership",
      "outputs": [],
      "stateMutability": "nonpayable",
      "type": "function"
    },
    {
      "inputs": [
        {
          "internalType": "address",
          "name": "newOwner",
          "type": "address"
        }
      ],
      "name": "transferOwnership",
      "outputs": [],
      "stateMutability": "nonpayable",
      "type": "function"
    }
  ],
  "bytecode": "0x6080604052348015600f57600080fd5b503380603557604051631e4fbdf760e01b81526000600482015260240160405180910390fd5b603c816041565b506091565b600080546001600160a01b038381166001600160a01b0319831681178455604051919092169283917f8be0079c531659141344cd1fd0a4f28419497f9722a3daafe3b4186f6b6457e09190a35050565b61618c806100a06000396000f3fe608060405234801561001057600080fd5b50600436106100ae5760003560e01c806266753e146100b35780631081259e146100c85780631c2353e1146100d057806333105218146100f85780633c530ace1461010b5780635e66bdb31461011e578063715018a61461013e578063779c7ac3146101465780638da5cb5b14610159578063a8f0619314610161578063c639e8c514610174578063f2fde38b14610187578063f55210221461019a575b600080fd5b6100c66100c13660046107bd565b6101ad565b005b6100c661024b565b6100e36100de3660046107bd565b610385565b60405190151581526020015b60405180910390f35b6100e36101063660046107bd565b610417565b6100c66101193660046107bd565b610462565b600254610131906001600160a01b031681565b6040516100ef91906107ed565b6100c6610513565b600154610131906001600160a01b031681565b610131610527565b6100c661016f3660046107bd565b610536565b6100c66101823660046107bd565b6105e8565b6100c66101953660046107bd565b610699565b6100e36101a83660046107bd565b6106d7565b6101b5610721565b6001546001600160a01b03166101e65760405162461bcd60e51b81526004016101dd90610801565b60405180910390fd5b60015460405163190dbc6d60e31b81526001600160a01b039091169063c86de368906102169084906004016107ed565b600060405180830381600087803b15801561023057600080fd5b505af1158015610244573d6000803e3d6000fd5b5050505050565b610253610721565b6001546001600160a01b0316156102a95760405162461bcd60e51b815260206004820152601a60248201527910dbdb9d1c9858dd1cc8185b1c9958591e4819195c1b1bde595960321b60448201526064016101dd565b6040516102b5906107a3565b604051809103906000f0801580156102d1573d6000803e3d6000fd5b50600180546001600160a01b0319166001600160a01b039290921691821790556040516102fd906107b0565b61030791906107ed565b604051809103906000f080158015610323573d6000803e3d6000fd5b50600280546001600160a01b0319166001600160a01b039283169081179091556001546040805191909316815260208101919091527fe465fea41ee621d19c8553bf4782d6aa9f4eb649f66a8229b494ce59e0cc1166910160405180910390a1565b6001546000906001600160a01b03166103a057506000919050565b600154604051633e72171f60e01b81526001600160a01b0390911690633e72171f906103d09085906004016107ed565b602060405180830381865afa1580156103ed573d6000803e3d6000fd5b505050506040513d601f19601f820116820180604052508101906104119190610831565b92915050565b6002546000906001600160a01b031661043257506000919050565b6002546040516306cacbf360e41b81526001600160a01b0390911690636cacbf30906103d09085906004016107ed565b61046a610721565b6001600160a01b0381166104bb5760405162461bcd60e51b8152602060048201526018602482015277496e76616c69642070726f6475636572206164647265737360401b60448201526064016101dd565b6002546001600160a01b03166104e35760405162461bcd60e51b81526004016101dd90610801565b60025460405163f98f5c5560e01b81526001600160a01b039091169063f98f5c55906102169084906004016107ed565b61051b610721565b6105256000610753565b565b6000546001600160a01b031690565b61053e610721565b6001600160a01b0381166105905760405162461bcd60e51b8152602060048201526019602482015278496e76616c696420636572746966696572206164647265737360381b60448201526064016101dd565b6001546001600160a01b03166105b85760405162461bcd60e51b81526004016101dd90610801565b60015460405163be72014760e01b81526001600160a01b039091169063be720147906102169084906004016107ed565b6105f0610721565b6001600160a01b0381166106415760405162461bcd60e51b8152602060048201526018602482015277496e76616c6964207665726966696572206164647265737360401b60448201526064016101dd565b6002546001600160a01b03166106695760405162461bcd60e51b81526004016101dd90610801565b6002546040516320ad8cab60e01b81526001600160a01b03909116906320ad8cab906102169084906004016107ed565b6106a1610721565b6001600160a01b0381166106cb576000604051631e4fbdf760e01b81526004016101dd91906107ed565b6106d481610753565b50565b6002546000906001600160a01b03166106f257506000919050565b60025460405162837bcf60e31b81526001600160a01b039091169063041bde78906103d09085906004016107ed565b3361072a610527565b6001600160a01b031614610525573360405163118cdaa760e01b81526004016101dd91906107ed565b600080546001600160a01b038381166001600160a01b0319831681178455604051919092169283917f8be0079c531659141344cd1fd0a4f28419497f9722a3daafe3b4186f6b6457e09190a35050565b6124f48061085483390190565b61340f80612d4883390190565b6000602082840312156107cf57600080fd5b81356001600160a01b03811681146107e657600080fd5b9392505050565b6001600160a01b0391909116815260200190565b60208082526016908201527510dbdb9d1c9858dd1cc81b9bdd0819195c1b1bde595960521b604082015260600190565b60006020828403121561084357600080fd5b815180151581146107e657600080fdfe608060405234801561001057600080fd5b50336040518060400160405280601181526020017048616c616c20436572746966696361746560781b81525060405180604001604052806005815260200164121053105360da1b815250816000908161006991906101fc565b50600161007682826101fc565b5050506001600160a01b0381166100ac576000604051631e4fbdf760e01b81526004016100a391906102ba565b60405180910390fd5b6100b58161010b565b50336000818152600a602052604090819020805460ff19166001179055517fcbcf22dcb2331e843873a8ef89eab2451c503015fb28d984e14c4acc9f762771916100fe916102ba565b60405180910390a16102ce565b600780546001600160a01b038381166001600160a01b0319831681179093556040519116919082907f8be0079c531659141344cd1fd0a4f28419497f9722a3daafe3b4186f6b6457e090600090a35050565b634e487b7160e01b600052604160045260246000fd5b600181811c9082168061018757607f821691505b6020821081036101a757634e487b7160e01b600052602260045260246000fd5b50919050565b601f8211156101f757806000526020600020601f840160051c810160208510156101d45750805b601f840160051c820191505b818110156101f457600081556001016101e0565b50505b505050565b81516001600160401b038111156102155761021561015d565b610229816102238454610173565b846101ad565b6020601f82116001811461025d57600083156102455750848201515b600019600385901b1c1916600184901b1784556101f4565b600084815260208120601f198516915b8281101561028d578785015182556020948501946001909201910161026d565b50848210156102ab5786840151600019600387901b60f8161c191681555b50505050600190811b01905550565b6001600160a01b0391909116815260200190565b612217806102dd6000396000f3fe608060405234801561001057600080fd5b506004361061011d5760003560e01c806301ffc9a71461012257806306fdde031461014a578063081812fc1461015f578063095ea7b31461017f57806323b872dd146101945780633e72171f146101a757806342842e0e146101d357806351640fee146101e65780636352211e1461020657806370a0823114610219578063715018a61461023a5780638da5cb5b1461024257806395d89b411461024a578063a22cb46514610252578063aeb05a2114610265578063b1466d1d14610278578063b88d4fde1461028b578063be7201471461029e578063c86de368146102b1578063c87b56dd146102c4578063e985e9c5146102d7578063f2fde38b146102ea578063f577a500146102fd575b600080fd5b610135610130366004611aba565b610310565b60405190151581526020015b60405180910390f35b61015261033b565b6040516101419190611b27565b61017261016d366004611b3a565b6103cd565b6040516101419190611b60565b61019261018d366004611b90565b6103e2565b005b6101926101a2366004611bba565b6103f1565b6101356101b5366004611bf7565b6001600160a01b03166000908152600a602052604090205460ff1690565b6101926101e1366004611bba565b610485565b6101f96101f4366004611b3a565b6104a5565b6040516101419190611c4a565b610172610214366004611b3a565b61073c565b61022c610227366004611bf7565b610747565b604051908152602001610141565b61019261078f565b6101726107a3565b6101526107b2565b610192610260366004611cfa565b6107c1565b61022c610273366004611de4565b6107cc565b610192610286366004611e90565b610abe565b610192610299366004611ed6565b610bf1565b6101926102ac366004611bf7565b610c09565b6101926102bf366004611bf7565b610d1f565b6101526102d2366004611b3a565b610ddd565b6101356102e5366004611f51565b610eee565b6101926102f8366004611bf7565b610f1c565b61013561030b366004611b3a565b610f5a565b60006001600160e01b03198216632483248360e11b14806103355750610335826111d6565b92915050565b60606000805461034a90611f84565b80601f016020809104026020016040519081016040528092919081815260200182805461037690611f84565b80156103c35780601f10610398576101008083540402835291602001916103c3565b820191906000526020600020905b8154815290600101906020018083116103a657829003601f168201915b5050505050905090565b60006103d882611226565b506103358261125e565b6103ed828233611279565b5050565b6001600160a01b038216610424576000604051633250574960e11b815260040161041b9190611b60565b60405180910390fd5b6000610431838333611286565b9050836001600160a01b0316816001600160a01b03161461047f576040516364283d7b60e01b81526001600160a01b038086166004830152602482018490528216604482015260640161041b565b50505050565b6104a083838360405180602001604052806000815250610bf1565b505050565b6104ad611a3c565b6104b68261137a565b6104ff5760405162461bcd60e51b815260206004820152601a60248201527910d95c9d1a599a58d85d1948191bd95cc81b9bdd08195e1a5cdd60321b604482015260640161041b565b600082815260096020526040908190208151610100810190925280548290829061052890611f84565b80601f016020809104026020016040519081016040528092919081815260200182805461055490611f84565b80156105a15780601f10610576576101008083540402835291602001916105a1565b820191906000526020600020905b81548152906001019060200180831161058457829003601f168201915b505050505081526020016001820180546105ba90611f84565b80601f01602080910402602001604051908101604052809291908181526020018280546105e690611f84565b80156106335780601f1061060857610100808354040283529160200191610633565b820191906000526020600020905b81548152906001019060200180831161061657829003601f168201915b50505091835250506002828101546001600160a01b03908116602084015260038401541660408301526004830154606083015260058301546080830152600683015460a09092019160ff169081111561068e5761068e611c12565b600281111561069f5761069f611c12565b81526020016007820180546106b390611f84565b80601f01602080910402602001604051908101604052809291908181526020018280546106df90611f84565b801561072c5780601f106107015761010080835404028352916020019161072c565b820191906000526020600020905b81548152906001019060200180831161070f57829003601f168201915b5050505050815250509050919050565b600061033582611226565b60006001600160a01b0382166107735760006040516322718ad960e21b815260040161041b9190611b60565b506001600160a01b031660009081526003602052604090205490565b610797611397565b6107a160006113c9565b565b6007546001600160a01b031690565b60606001805461034a90611f84565b6103ed33838361141b565b336000908152600a602052604081205460ff166108295760405162461bcd60e51b815260206004820152601b60248201527a2737ba1030baba3437b934bd32b21030b99031b2b93a34b334b2b960291b604482015260640161041b565b600086511161087a5760405162461bcd60e51b815260206004820152601e60248201527f43657274696669636174652049442063616e6e6f7420626520656d7074790000604482015260640161041b565b6001600160a01b0384166108d05760405162461bcd60e51b815260206004820181905260248201527f496e76616c69642063657274696669656420656e746974792061646472657373604482015260640161041b565b6000831161092f5760405162461bcd60e51b815260206004820152602660248201527f56616c696469747920706572696f64206d75737420626520677265617465722060448201526507468616e20360d41b606482015260840161041b565b600880546000918261094083611fd4565b91905055905061095085826114b1565b61095a8184611516565b604051806101000160405280888152602001878152602001336001600160a01b03168152602001866001600160a01b0316815260200142815260200185426109a29190611fed565b81526000602080830182905260409283018790528482526009905220815181906109cc9082612047565b50602082015160018201906109e19082612047565b506040820151600280830180546001600160a01b039384166001600160a01b0319918216179091556060850151600385018054919094169116179091556080830151600483015560a0830151600583015560c08301516006830180549192909160ff1916906001908490811115610a5a57610a5a611c12565b021790555060e08201516007820190610a739082612047565b509050507f60469ec7c6ee62537e37b986f9f7be5bb53b61f0d662dd0e088fb274421e3c6d81883388604051610aac9493929190612105565b60405180910390a19695505050505050565b600082815260096020526040902060028101546001600160a01b0316331480610af6575033610aeb6107a3565b6001600160a01b0316145b610b425760405162461bcd60e51b815260206004820152601f60248201527f4f6e6c7920697373756572206f72206f776e65722063616e207265766f6b6500604482015260640161041b565b6000600682015460ff166002811115610b5d57610b5d611c12565b14610ba35760405162461bcd60e51b81526020600482015260166024820152754365727469666963617465206e6f742061637469766560501b604482015260640161041b565b60068101805460ff191660021790556040517f65032d3cc955c731f4c2a4178f663dbcc6c08e5163bad5a3149773f3894548d390610be4908590859061213f565b60405180910390a1505050565b610bfc8484846103f1565b61047f3385858585611566565b610c11611397565b6001600160a01b038116610c635760405162461bcd60e51b8152602060048201526019602482015278496e76616c696420636572746966696572206164647265737360381b604482015260640161041b565b6001600160a01b0381166000908152600a602052604090205460ff1615610cc15760405162461bcd60e51b8152602060048201526012602482015271105b1c9958591e48185d5d1a1bdc9a5e995960721b604482015260640161041b565b6001600160a01b0381166000908152600a602052604090819020805460ff19166001179055517fcbcf22dcb2331e843873a8ef89eab2451c503015fb28d984e14c4acc9f76277190610d14908390611b60565b60405180910390a150565b610d27611397565b6001600160a01b0381166000908152600a602052604090205460ff16610d8d5760405162461bcd60e51b815260206004820152601b60248201527a2737ba1030b71030baba3437b934bd32b21031b2b93a34b334b2b960291b604482015260640161041b565b6001600160a01b0381166000908152600a602052604090819020805460ff19169055517facb594097a8aa89d56ff24dffeb0a4669090559f677cc6842ff41d20a142621990610d14908390611b60565b6060610de882611226565b5060008281526006602052604081208054610e0290611f84565b80601f0160208091040260200160405190810160405280929190818152602001828054610e2e90611f84565b8015610e7b5780601f10610e5057610100808354040283529160200191610e7b565b820191906000526020600020905b815481529060010190602001808311610e5e57829003601f168201915b505050505090506000610e9960408051602081019091526000815290565b90508051600003610eab575092915050565b815115610edd578082604051602001610ec5929190612158565b60405160208183030381529060405292505050919050565b610ee68461167f565b949350505050565b6001600160a01b03918216600090815260056020908152604080832093909416825291909152205460ff1690565b610f24611397565b6001600160a01b038116610f4e576000604051631e4fbdf760e01b815260040161041b9190611b60565b610f57816113c9565b50565b6000818152600960205260408082208151610100810190925280548392919082908290610f8690611f84565b80601f0160208091040260200160405190810160405280929190818152602001828054610fb290611f84565b8015610fff5780601f10610fd457610100808354040283529160200191610fff565b820191906000526020600020905b815481529060010190602001808311610fe257829003601f168201915b5050505050815260200160018201805461101890611f84565b80601f016020809104026020016040519081016040528092919081815260200182805461104490611f84565b80156110915780601f1061106657610100808354040283529160200191611091565b820191906000526020600020905b81548152906001019060200180831161107457829003601f168201915b50505091835250506002828101546001600160a01b03908116602084015260038401541660408301526004830154606083015260058301546080830152600683015460a09092019160ff16908111156110ec576110ec611c12565b60028111156110fd576110fd611c12565b815260200160078201805461111190611f84565b80601f016020809104026020016040519081016040528092919081815260200182805461113d90611f84565b801561118a5780601f1061115f5761010080835404028352916020019161118a565b820191906000526020600020905b81548152906001019060200180831161116d57829003601f168201915b5050505050815250509050600060028111156111a8576111a8611c12565b8160c0015160028111156111be576111be611c12565b1480156111cf57508060a001514211155b9392505050565b60006001600160e01b031982166380ac58cd60e01b148061120757506001600160e01b03198216635b5e139f60e01b145b8061033557506301ffc9a760e01b6001600160e01b0319831614610335565b600080611232836116f3565b90506001600160a01b03811661033557604051637e27328960e01b81526004810184905260240161041b565b6000908152600460205260409020546001600160a01b031690565b6104a0838383600161170e565b600080611292846116f3565b90506001600160a01b038316156112ae576112ae81848661180b565b6001600160a01b038116156112ec576112cb60008560008061170e565b6001600160a01b038116600090815260036020526040902080546000190190555b6001600160a01b0385161561131b576001600160a01b0385166000908152600360205260409020805460010190555b60008481526002602052604080822080546001600160a01b0319166001600160a01b0389811691821790925591518793918516917fddf252ad1be2c89b69c2b068fc378daa952ba7f163c4a11628f55a4df523b3ef91a4949350505050565b600080611386836116f3565b6001600160a01b0316141592915050565b336113a06107a3565b6001600160a01b0316146107a1573360405163118cdaa760e01b815260040161041b9190611b60565b600780546001600160a01b038381166001600160a01b0319831681179093556040519116919082907f8be0079c531659141344cd1fd0a4f28419497f9722a3daafe3b4186f6b6457e090600090a35050565b6001600160a01b0382166114445781604051630b61174360e31b815260040161041b9190611b60565b6001600160a01b03838116600081815260056020908152604080832094871680845294825291829020805460ff191686151590811790915591519182527f17307eab39ab6107e8899845ad3d59bd9653f200f220920489ca2b5937696c31910160405180910390a3505050565b6001600160a01b0382166114db576000604051633250574960e11b815260040161041b9190611b60565b60006114e983836000611286565b90506001600160a01b038116156104a05760006040516339e3563760e11b815260040161041b9190611b60565b600082815260066020526040902061152e8282612047565b506040518281527ff8e1a15aba9398e019f0b49df1a4fde98ee17ae345cb5f6b5e2c27f5033e8ce79060200160405180910390a15050565b6001600160a01b0383163b1561167857604051630a85bd0160e11b81526001600160a01b0384169063150b7a02906115a8908890889087908790600401612187565b6020604051808303816000875af19250505080156115e3575060408051601f3d908101601f191682019092526115e0918101906121c4565b60015b611643573d808015611611576040519150601f19603f3d011682016040523d82523d6000602084013e611616565b606091505b50805160000361163b5783604051633250574960e11b815260040161041b9190611b60565b805181602001fd5b6001600160e01b03198116630a85bd0160e11b146116765783604051633250574960e11b815260040161041b9190611b60565b505b5050505050565b606061168a82611226565b5060006116a260408051602081019091526000815290565b905060008151116116c257604051806020016040528060008152506111cf565b806116cc8461186f565b6040516020016116dd929190612158565b6040516020818303038152906040529392505050565b6000908152600260205260409020546001600160a01b031690565b808061172257506001600160a01b03821615155b156117db57600061173284611226565b90506001600160a01b0383161580159061175e5750826001600160a01b0316816001600160a01b031614155b8015611771575061176f8184610eee565b155b15611791578260405163a9fbf51f60e01b815260040161041b9190611b60565b81156117d95783856001600160a01b0316826001600160a01b03167f8c5be1e5ebec7d5bd14f71427d1e84f3dd0314c0f7b2291e5b200ac8c7c3b92560405160405180910390a45b505b5050600090815260046020526040902080546001600160a01b0319166001600160a01b0392909216919091179055565b611816838383611901565b6104a0576001600160a01b03831661184457604051637e27328960e01b81526004810182905260240161041b565b60405163177e802f60e01b81526001600160a01b03831660048201526024810182905260440161041b565b6060600061187c83611966565b60010190506000816001600160401b0381111561189b5761189b611d36565b6040519080825280601f01601f1916602001820160405280156118c5576020820181803683370190505b5090508181016020015b600019016f181899199a1a9b1b9c1cb0b131b232b360811b600a86061a8153600a85049450846118cf57509392505050565b60006001600160a01b03831615801590610ee65750826001600160a01b0316846001600160a01b0316148061193b575061193b8484610eee565b80610ee65750826001600160a01b03166119548361125e565b6001600160a01b031614949350505050565b60008072184f03e93ff9f4daa797ed6e38ed64bf6a1f0160401b83106119a55772184f03e93ff9f4daa797ed6e38ed64bf6a1f0160401b830492506040015b6904ee2d6d415b85acef8160201b83106119cf576904ee2d6d415b85acef8160201b830492506020015b662386f26fc1000083106119ed57662386f26fc10000830492506010015b6305f5e1008310611a05576305f5e100830492506008015b6127108310611a1957612710830492506004015b60648310611a2b576064830492506002015b600a83106103355760010192915050565b604051806101000160405280606081526020016060815260200160006001600160a01b0316815260200160006001600160a01b03168152602001600081526020016000815260200160006002811115611a9757611a97611c12565b8152602001606081525090565b6001600160e01b031981168114610f5757600080fd5b600060208284031215611acc57600080fd5b81356111cf81611aa4565b60005b83811015611af2578181015183820152602001611ada565b50506000910152565b60008151808452611b13816020860160208601611ad7565b601f01601f19169290920160200192915050565b6020815260006111cf6020830184611afb565b600060208284031215611b4c57600080fd5b5035919050565b6001600160a01b03169052565b6001600160a01b0391909116815260200190565b80356001600160a01b0381168114611b8b57600080fd5b919050565b60008060408385031215611ba357600080fd5b611bac83611b74565b946020939093013593505050565b600080600060608486031215611bcf57600080fd5b611bd884611b74565b9250611be660208501611b74565b929592945050506040919091013590565b600060208284031215611c0957600080fd5b6111cf82611b74565b634e487b7160e01b600052602160045260246000fd5b60038110611c4657634e487b7160e01b600052602160045260246000fd5b9052565b60208152600082516101006020840152611c68610120840182611afb565b90506020840151601f19848303016040850152611c858282611afb565b9150506040840151611c9a6060850182611b53565b506060840151611cad6080850182611b53565b50608084015160a084015260a084015160c084015260c0840151611cd460e0850182611c28565b5060e0840151838203601f1901610100850152611cf18282611afb565b95945050505050565b60008060408385031215611d0d57600080fd5b611d1683611b74565b915060208301358015158114611d2b57600080fd5b809150509250929050565b634e487b7160e01b600052604160045260246000fd5b6000806001600160401b03841115611d6657611d66611d36565b50604051601f19601f85018116603f011681018181106001600160401b0382111715611d9457611d94611d36565b604052838152905080828401851015611dac57600080fd5b83836020830137600060208583010152509392505050565b600082601f830112611dd557600080fd5b6111cf83833560208501611d4c565b600080600080600060a08688031215611dfc57600080fd5b85356001600160401b03811115611e1257600080fd5b611e1e88828901611dc4565b95505060208601356001600160401b03811115611e3a57600080fd5b611e4688828901611dc4565b945050611e5560408701611b74565b92506060860135915060808601356001600160401b03811115611e7757600080fd5b611e8388828901611dc4565b9150509295509295909350565b60008060408385031215611ea357600080fd5b8235915060208301356001600160401b03811115611ec057600080fd5b611ecc85828601611dc4565b9150509250929050565b60008060008060808587031215611eec57600080fd5b611ef585611b74565b9350611f0360208601611b74565b92506040850135915060608501356001600160401b03811115611f2557600080fd5b8501601f81018713611f3657600080fd5b611f4587823560208401611d4c565b91505092959194509250565b60008060408385031215611f6457600080fd5b611f6d83611b74565b9150611f7b60208401611b74565b90509250929050565b600181811c90821680611f9857607f821691505b602082108103611fb857634e487b7160e01b600052602260045260246000fd5b50919050565b634e487b7160e01b600052601160045260246000fd5b600060018201611fe657611fe6611fbe565b5060010190565b8082018082111561033557610335611fbe565b601f8211156104a057806000526020600020601f840160051c810160208510156120275750805b601f840160051c820191505b818110156116785760008155600101612033565b81516001600160401b0381111561206057612060611d36565b6120748161206e8454611f84565b84612000565b6020601f8211600181146120a857600083156120905750848201515b600019600385901b1c1916600184901b178455611678565b600084815260208120601f198516915b828110156120d857878501518255602094850194600190920191016120b8565b50848210156120f65786840151600019600387901b60f8161c191681555b50505050600190811b01905550565b84815260806020820152600061211e6080830186611afb565b6001600160a01b039485166040840152929093166060909101529392505050565b828152604060208201526000610ee66040830184611afb565b6000835161216a818460208801611ad7565b83519083019061217e818360208801611ad7565b01949350505050565b6001600160a01b03858116825284166020820152604081018390526080606082018190526000906121ba90830184611afb565b9695505050505050565b6000602082840312156121d657600080fd5b81516111cf81611aa456fea2646970667358221220102fb3d55f486775b5326bade5e488d9a39c5daa2e0ac2628d5d1eada533615964736f6c634300081c0033608060405234801561001057600080fd5b5060405161340f38038061340f83398101604081905261002f91610245565b336040518060400160405280600d81526020016c0a0e4dec8eac6e84084c2e8c6d609b1b8152506040518060400160405280600581526020016408482a886960db1b81525081600090816100839190610314565b5060016100908282610314565b5050506001600160a01b0381166100c6576000604051631e4fbdf760e01b81526004016100bd91906103d2565b60405180910390fd5b6100cf816101f3565b506001600160a01b0381166101325760405162461bcd60e51b8152602060048201526024808201527f496e76616c696420636572746966696361746520636f6e7472616374206164646044820152637265737360e01b60648201526084016100bd565b600980546001600160a01b0319166001600160a01b038316179055336000818152600b60209081526040808320805460ff199081166001908117909255600c9093529281902080549092169092179055517fa09c6df0c632a53152bcdbf11806efa608c66c3eb90020ab6f6a3c0fa10a65a6916101ae916103d2565b60405180910390a17f40f8611cb3470e9d255c7ea6d08e5625d635123c46e7c303e5321b1fb69bb8c9336040516101e591906103d2565b60405180910390a1506103e6565b600780546001600160a01b038381166001600160a01b0319831681179093556040519116919082907f8be0079c531659141344cd1fd0a4f28419497f9722a3daafe3b4186f6b6457e090600090a35050565b60006020828403121561025757600080fd5b81516001600160a01b038116811461026e57600080fd5b9392505050565b634e487b7160e01b600052604160045260246000fd5b600181811c9082168061029f57607f821691505b6020821081036102bf57634e487b7160e01b600052602260045260246000fd5b50919050565b601f82111561030f57806000526020600020601f840160051c810160208510156102ec5750805b601f840160051c820191505b8181101561030c57600081556001016102f8565b50505b505050565b81516001600160401b0381111561032d5761032d610275565b6103418161033b845461028b565b846102c5565b6020601f821160018114610375576000831561035d5750848201515b600019600385901b1c1916600184901b17845561030c565b600084815260208120601f198516915b828110156103a55787850151825560209485019460019092019101610385565b50848210156103c35786840151600019600387901b60f8161c191681555b50505050600190811b01905550565b6001600160a01b0391909116815260200190565b61301a806103f56000396000f3fe608060405234801561001057600080fd5b506004361061016a5760003560e01c806301ffc9a71461016f578063041bde781461019757806305beaad5146101c357806306fdde03146101d8578063081812fc146101ed578063095ea7b31461020d57806320ad8cab1461022057806323b872dd1461023357806342842e0e146102465780634e61b6b3146102595780635ac442821461027a578063621f2b0e1461029a5780636352211e146102ad5780636cacbf30146102c057806370a08231146102ec578063715018a6146102ff5780638da5cb5b1461030757806395d89b411461030f578063a22cb46514610317578063b27562851461032a578063b88d4fde1461033d578063bd02a23514610350578063c87b56dd14610363578063d59317d614610376578063dfe3a3ae1461038b578063e985e9c51461039e578063f2fde38b146103b1578063f6a11cef146103c4578063f98f5c55146103d7578063f9f8904a146103ea575b600080fd5b61018261017d366004612585565b6103fd565b60405190151581526020015b60405180910390f35b6101826101a53660046125be565b6001600160a01b03166000908152600b602052604090205460ff1690565b6101d66101d136600461269a565b610428565b005b6101e061059c565b60405161018e9190612730565b6102006101fb366004612743565b61062e565b60405161018e9190612769565b6101d661021b36600461277d565b610643565b6101d661022e3660046125be565b610652565b6101d66102413660046127a7565b610742565b6101d66102543660046127a7565b6107b9565b61026c610267366004612866565b6107d9565b60405190815260200161018e565b61028d610288366004612743565b610ba1565b60405161018e91906129ff565b6101d66102a8366004612b1b565b610f9f565b6102006102bb366004612743565b611158565b6101826102ce3660046125be565b6001600160a01b03166000908152600c602052604090205460ff1690565b61026c6102fa3660046125be565b611163565b6101d66111ab565b6102006111bf565b6101e06111ce565b6101d6610325366004612b55565b6111dd565b6101d6610338366004612743565b6111e8565b6101d661034b366004612b8c565b6112b7565b6101d661035e3660046125be565b6112cf565b6101e0610371366004612743565b61138c565b61037e61149d565b60405161018e9190612c07565b6101d6610399366004612743565b6115b5565b6101826103ac366004612c1a565b611767565b6101d66103bf3660046125be565b611795565b6101d66103d2366004612c44565b6117d3565b6101d66103e53660046125be565b6119f8565b6101d66103f83660046125be565b611add565b60006001600160e01b03198216632483248360e11b1480610422575061042282611b9a565b92915050565b61043182611bea565b6104565760405162461bcd60e51b815260040161044d90612c66565b60405180910390fd5b6000828152600a6020526040902060018101546001600160a01b031633148061048b5750600a8101546001600160a01b031633145b806104a557503361049a6111bf565b6001600160a01b0316145b6104ec5760405162461bcd60e51b8152602060048201526018602482015277139bdd08185d5d1a1bdc9a5e9959081d1bc818d85b98d95b60421b604482015260640161044d565b6004600882015460ff1660048111156105075761050761298b565b0361054e5760405162461bcd60e51b815260206004820152601760248201527610985d18da08185b1c9958591e4818d85b98d95b1b1959604a1b604482015260640161044d565b60088101805460ff191660041790556040517fccf418ed53819932f1f3042a183d967aac668aec6103d5953192c2c08072bf3f9061058f9085908590612c94565b60405180910390a1505050565b6060600080546105ab90612cad565b80601f01602080910402602001604051908101604052809291908181526020018280546105d790612cad565b80156106245780601f106105f957610100808354040283529160200191610624565b820191906000526020600020905b81548152906001019060200180831161060757829003601f168201915b5050505050905090565b600061063982611c07565b5061042282611c3f565b61064e828233611c5a565b5050565b61065a611c67565b6001600160a01b0381166106ab5760405162461bcd60e51b8152602060048201526018602482015277496e76616c6964207665726966696572206164647265737360401b604482015260640161044d565b6001600160a01b0381166000908152600c602052604090205460ff16156106e45760405162461bcd60e51b815260040161044d90612ce7565b6001600160a01b0381166000908152600c602052604090819020805460ff19166001179055517f40f8611cb3470e9d255c7ea6d08e5625d635123c46e7c303e5321b1fb69bb8c990610737908390612769565b60405180910390a150565b6001600160a01b03821661076c576000604051633250574960e11b815260040161044d9190612769565b6000610779838333611c99565b9050836001600160a01b0316816001600160a01b0316146107b3578382826040516364283d7b60e01b815260040161044d93929190612d13565b50505050565b6107d4838383604051806020016040528060008152506112b7565b505050565b336000908152600b602052604081205460ff166108355760405162461bcd60e51b815260206004820152601a6024820152792737ba1030baba3437b934bd32b21030b990383937b23ab1b2b960311b604482015260640161044d565b60008951116108815760405162461bcd60e51b815260206004820152601860248201527742617463682049442063616e6e6f7420626520656d70747960401b604482015260640161044d565b600087116108d15760405162461bcd60e51b815260206004820152601f60248201527f5175616e74697479206d7573742062652067726561746572207468616e203000604482015260640161044d565b60005b83518110156109915760095484516001600160a01b039091169063f577a5009086908490811061090657610906612d36565b60200260200101516040518263ffffffff1660e01b815260040161092c91815260200190565b602060405180830381865afa158015610949573d6000803e3d6000fd5b505050506040513d601f19601f8201168201806040525081019061096d9190612d4c565b6109895760405162461bcd60e51b815260040161044d90612d69565b6001016108d4565b5060088054600091826109a383612da0565b9190505590506040518061018001604052808b8152602001336001600160a01b031681526020018a815260200189815260200188815260200142815260200187815260200186815260200160006004811115610a0157610a0161298b565b815260208082018790523360408084019190915260609092018690526000848152600a9091522081518190610a369082612e0e565b5060208201516001820180546001600160a01b0319166001600160a01b0390921691909117905560408201516002820190610a719082612e0e565b506060820151600382015560808201516004820190610a909082612e0e565b5060a0820151600582015560c0820151600682015560e08201516007820190610ab99082612e0e565b5061010082015160088201805460ff19166001836004811115610ade57610ade61298b565b02179055506101208201518051610aff916009840191602090910190612496565b50610140820151600a820180546001600160a01b0319166001600160a01b03909216919091179055610160820151600b820190610b3c9082612e0e565b5050506000818152600d602052604090819020805460ff19166001179055517f195a26ecf0c9b8fb957ecc3a7c029ce84849279de600e16f205ee789052052b690610b8c9083908d903390612ecc565b60405180910390a19998505050505050505050565b610ba96124e1565b610bb282611bea565b610bce5760405162461bcd60e51b815260040161044d90612c66565b6000828152600a60205260409081902081516101808101909252805482908290610bf790612cad565b80601f0160208091040260200160405190810160405280929190818152602001828054610c2390612cad565b8015610c705780601f10610c4557610100808354040283529160200191610c70565b820191906000526020600020905b815481529060010190602001808311610c5357829003601f168201915b505050918352505060018201546001600160a01b03166020820152600282018054604090920191610ca090612cad565b80601f0160208091040260200160405190810160405280929190818152602001828054610ccc90612cad565b8015610d195780601f10610cee57610100808354040283529160200191610d19565b820191906000526020600020905b815481529060010190602001808311610cfc57829003601f168201915b5050505050815260200160038201548152602001600482018054610d3c90612cad565b80601f0160208091040260200160405190810160405280929190818152602001828054610d6890612cad565b8015610db55780601f10610d8a57610100808354040283529160200191610db5565b820191906000526020600020905b815481529060010190602001808311610d9857829003601f168201915b505050505081526020016005820154815260200160068201548152602001600782018054610de290612cad565b80601f0160208091040260200160405190810160405280929190818152602001828054610e0e90612cad565b8015610e5b5780601f10610e3057610100808354040283529160200191610e5b565b820191906000526020600020905b815481529060010190602001808311610e3e57829003601f168201915b5050509183525050600882015460209091019060ff166004811115610e8257610e8261298b565b6004811115610e9357610e9361298b565b815260200160098201805480602002602001604051908101604052809291908181526020018280548015610ee657602002820191906000526020600020905b815481526020019060010190808311610ed2575b5050509183525050600a8201546001600160a01b03166020820152600b82018054604090920191610f1690612cad565b80601f0160208091040260200160405190810160405280929190818152602001828054610f4290612cad565b8015610f8f5780601f10610f6457610100808354040283529160200191610f8f565b820191906000526020600020905b815481529060010190602001808311610f7257829003601f168201915b5050505050815250509050919050565b610fa882611bea565b610fc45760405162461bcd60e51b815260040161044d90612c66565b33610fce83611158565b6001600160a01b031614610ff45760405162461bcd60e51b815260040161044d90612efd565b6001600160a01b0381166110465760405162461bcd60e51b8152602060048201526019602482015278496e76616c696420726563697069656e74206164647265737360381b604482015260640161044d565b6000828152600a602052604090206001600882015460ff16600481111561106f5761106f61298b565b148061109357506002600882015460ff1660048111156110915761109161298b565b145b6110df5760405162461bcd60e51b815260206004820152601e60248201527f4261746368206e6f7420616374697665206f7220696e207472616e7369740000604482015260640161044d565b6110ea338385611d8d565b60088101805460ff19166003179055600a810180546001600160a01b0384166001600160a01b0319909116811790915560408051858152336020820152908101919091527fb9f31d1b8db0327a09cde76de6662ee23a4ecd72fbb0411cdfa7969fed7abe449060600161058f565b600061042282611c07565b60006001600160a01b03821661118f5760006040516322718ad960e21b815260040161044d9190612769565b506001600160a01b031660009081526003602052604090205490565b6111b3611c67565b6111bd6000611e29565b565b6007546001600160a01b031690565b6060600180546105ab90612cad565b61064e338383611e7b565b6111f181611bea565b61120d5760405162461bcd60e51b815260040161044d90612c66565b3361121782611158565b6001600160a01b03161461123d5760405162461bcd60e51b815260040161044d90612efd565b6000818152600a602052604090206001600882015460ff1660048111156112665761126661298b565b146112a65760405162461bcd60e51b815260206004820152601060248201526f4261746368206e6f742061637469766560801b604482015260640161044d565b600801805460ff1916600217905550565b6112c2848484610742565b6107b33385858585611f11565b6112d7611c67565b6001600160a01b0381166000908152600c602052604090205460ff1661133c5760405162461bcd60e51b815260206004820152601a6024820152792737ba1030b71030baba3437b934bd32b2103b32b934b334b2b960311b604482015260640161044d565b6001600160a01b0381166000908152600c602052604090819020805460ff19169055517fb48d1366d07d4afdd2b73cbb6f7c9c23d71c2c9478252d6b97492dfd3819e7c790610737908390612769565b606061139782611c07565b50600082815260066020526040812080546113b190612cad565b80601f01602080910402602001604051908101604052809291908181526020018280546113dd90612cad565b801561142a5780601f106113ff5761010080835404028352916020019161142a565b820191906000526020600020905b81548152906001019060200180831161140d57829003601f168201915b50505050509050600061144860408051602081019091526000815290565b9050805160000361145a575092915050565b81511561148c578082604051602001611474929190612f31565b60405160208183030381529060405292505050919050565b6114958461202a565b949350505050565b336000908152600c602052604090205460609060ff166114cf5760405162461bcd60e51b815260040161044d90612f60565b600060015b60085481101561150b576000818152600d602052604090205460ff161561150357816114ff81612da0565b9250505b6001016114d4565b506000816001600160401b03811115611526576115266125d9565b60405190808252806020026020018201604052801561154f578160200160208202803683370190505b509050600060015b6008548110156115ac576000818152600d602052604090205460ff16156115a4578083838151811061158b5761158b612d36565b6020908102919091010152816115a081612da0565b9250505b600101611557565b50909250505090565b336000908152600c602052604090205460ff166115e45760405162461bcd60e51b815260040161044d90612f60565b6000818152600d602052604090205460ff166116425760405162461bcd60e51b815260206004820152601e60248201527f4261746368206e6f742070656e64696e6720766572696669636174696f6e0000604482015260640161044d565b6000818152600a602052604090206001810154611668906001600160a01b03168361209f565b6116fe8282600b01805461167b90612cad565b80601f01602080910402602001604051908101604052809291908181526020018280546116a790612cad565b80156116f45780601f106116c9576101008083540402835291602001916116f4565b820191906000526020600020905b8154815290600101906020018083116116d757829003601f168201915b5050505050612104565b60088101805460ff199081166001179091556000838152600d60209081526040918290208054909316909255805184815233928101929092527f5e4f9a3d8e8d8fc42bbe98104b324b50682ae0e3f892f0294dd16a226d48c21c91015b60405180910390a15050565b6001600160a01b03918216600090815260056020908152604080832093909416825291909152205460ff1690565b61179d611c67565b6001600160a01b0381166117c7576000604051631e4fbdf760e01b815260040161044d9190612769565b6117d081611e29565b50565b6117dc82611bea565b6117f85760405162461bcd60e51b815260040161044d90612c66565b6000828152600a6020526040902060018101546001600160a01b031633148061182d5750600a8101546001600160a01b031633145b6118845760405162461bcd60e51b815260206004820152602260248201527f4e6f7420617574686f72697a656420746f206c696e6b20636572746966696361604482015261746560f01b606482015260840161044d565b60095460405162f577a560e81b8152600481018490526001600160a01b039091169063f577a50090602401602060405180830381865afa1580156118cc573d6000803e3d6000fd5b505050506040513d601f19601f820116820180604052508101906118f09190612d4c565b61190c5760405162461bcd60e51b815260040161044d90612d69565b6000805b6009830154811015611953578383600901828154811061193257611932612d36565b90600052602060002001540361194b5760019150611953565b600101611910565b50801561199f5760405162461bcd60e51b815260206004820152601a60248201527910d95c9d1a599a58d85d1948185b1c9958591e481b1a5b9ad95960321b604482015260640161044d565b600982018054600181018255600091825260209182902001849055604080518681529182018590527f0870aa9a0cce7d456adbc65186945fcd60bf61aa63807273df4bdf886fbd4576910160405180910390a150505050565b611a00611c67565b6001600160a01b038116611a515760405162461bcd60e51b8152602060048201526018602482015277496e76616c69642070726f6475636572206164647265737360401b604482015260640161044d565b6001600160a01b0381166000908152600b602052604090205460ff1615611a8a5760405162461bcd60e51b815260040161044d90612ce7565b6001600160a01b0381166000908152600b602052604090819020805460ff19166001179055517fa09c6df0c632a53152bcdbf11806efa608c66c3eb90020ab6f6a3c0fa10a65a690610737908390612769565b611ae5611c67565b6001600160a01b0381166000908152600b602052604090205460ff16611b4a5760405162461bcd60e51b815260206004820152601a6024820152792737ba1030b71030baba3437b934bd32b210383937b23ab1b2b960311b604482015260640161044d565b6001600160a01b0381166000908152600b602052604090819020805460ff19169055517f290f04b7d7ee3d8e9c131ae3e752b8c881c7155098267e78bff5f3c88f2f058790610737908390612769565b60006001600160e01b031982166380ac58cd60e01b1480611bcb57506001600160e01b03198216635b5e139f60e01b145b8061042257506301ffc9a760e01b6001600160e01b0319831614610422565b600080611bf68361214d565b6001600160a01b0316141592915050565b600080611c138361214d565b90506001600160a01b03811661042257604051637e27328960e01b81526004810184905260240161044d565b6000908152600460205260409020546001600160a01b031690565b6107d48383836001612168565b33611c706111bf565b6001600160a01b0316146111bd573360405163118cdaa760e01b815260040161044d9190612769565b600080611ca58461214d565b90506001600160a01b03831615611cc157611cc1818486612265565b6001600160a01b03811615611cff57611cde600085600080612168565b6001600160a01b038116600090815260036020526040902080546000190190555b6001600160a01b03851615611d2e576001600160a01b0385166000908152600360205260409020805460010190555b60008481526002602052604080822080546001600160a01b0319166001600160a01b0389811691821790925591518793918516917fddf252ad1be2c89b69c2b068fc378daa952ba7f163c4a11628f55a4df523b3ef91a4949350505050565b6001600160a01b038216611db7576000604051633250574960e11b815260040161044d9190612769565b6000611dc583836000611c99565b90506001600160a01b038116611df157604051637e27328960e01b81526004810183905260240161044d565b836001600160a01b0316816001600160a01b0316146107b3578382826040516364283d7b60e01b815260040161044d93929190612d13565b600780546001600160a01b038381166001600160a01b0319831681179093556040519116919082907f8be0079c531659141344cd1fd0a4f28419497f9722a3daafe3b4186f6b6457e090600090a35050565b6001600160a01b038216611ea45781604051630b61174360e31b815260040161044d9190612769565b6001600160a01b03838116600081815260056020908152604080832094871680845294825291829020805460ff191686151590811790915591519182527f17307eab39ab6107e8899845ad3d59bd9653f200f220920489ca2b5937696c31910160405180910390a3505050565b6001600160a01b0383163b1561202357604051630a85bd0160e11b81526001600160a01b0384169063150b7a0290611f53908890889087908790600401612f94565b6020604051808303816000875af1925050508015611f8e575060408051601f3d908101601f19168201909252611f8b91810190612fc7565b60015b611fee573d808015611fbc576040519150601f19603f3d011682016040523d82523d6000602084013e611fc1565b606091505b508051600003611fe65783604051633250574960e11b815260040161044d9190612769565b805181602001fd5b6001600160e01b03198116630a85bd0160e11b146120215783604051633250574960e11b815260040161044d9190612769565b505b5050505050565b606061203582611c07565b50600061204d60408051602081019091526000815290565b9050600081511161206d5760405180602001604052806000815250612098565b80612077846122c9565b604051602001612088929190612f31565b6040516020818303038152906040525b9392505050565b6001600160a01b0382166120c9576000604051633250574960e11b815260040161044d9190612769565b60006120d783836000611c99565b90506001600160a01b038116156107d45760006040516339e3563760e11b815260040161044d9190612769565b600082815260066020526040902061211c8282612e0e565b506040518281527ff8e1a15aba9398e019f0b49df1a4fde98ee17ae345cb5f6b5e2c27f5033e8ce79060200161175b565b6000908152600260205260409020546001600160a01b031690565b808061217c57506001600160a01b03821615155b1561223557600061218c84611c07565b90506001600160a01b038316158015906121b85750826001600160a01b0316816001600160a01b031614155b80156121cb57506121c98184611767565b155b156121eb578260405163a9fbf51f60e01b815260040161044d9190612769565b81156122335783856001600160a01b0316826001600160a01b03167f8c5be1e5ebec7d5bd14f71427d1e84f3dd0314c0f7b2291e5b200ac8c7c3b92560405160405180910390a45b505b5050600090815260046020526040902080546001600160a01b0319166001600160a01b0392909216919091179055565b61227083838361235b565b6107d4576001600160a01b03831661229e57604051637e27328960e01b81526004810182905260240161044d565b60405163177e802f60e01b81526001600160a01b03831660048201526024810182905260440161044d565b606060006122d6836123c0565b60010190506000816001600160401b038111156122f5576122f56125d9565b6040519080825280601f01601f19166020018201604052801561231f576020820181803683370190505b5090508181016020015b600019016f181899199a1a9b1b9c1cb0b131b232b360811b600a86061a8153600a850494508461232957509392505050565b60006001600160a01b038316158015906114955750826001600160a01b0316846001600160a01b0316148061239557506123958484611767565b806114955750826001600160a01b03166123ae83611c3f565b6001600160a01b031614949350505050565b60008072184f03e93ff9f4daa797ed6e38ed64bf6a1f0160401b83106123ff5772184f03e93ff9f4daa797ed6e38ed64bf6a1f0160401b830492506040015b6904ee2d6d415b85acef8160201b8310612429576904ee2d6d415b85acef8160201b830492506020015b662386f26fc10000831061244757662386f26fc10000830492506010015b6305f5e100831061245f576305f5e100830492506008015b612710831061247357612710830492506004015b60648310612485576064830492506002015b600a83106104225760010192915050565b8280548282559060005260206000209081019282156124d1579160200282015b828111156124d15782518255916020019190600101906124b6565b506124dd92915061255a565b5090565b6040518061018001604052806060815260200160006001600160a01b03168152602001606081526020016000815260200160608152602001600081526020016000815260200160608152602001600060048111156125415761254161298b565b8152606060208201819052600060408301529081015290565b5b808211156124dd576000815560010161255b565b6001600160e01b0319811681146117d057600080fd5b60006020828403121561259757600080fd5b81356120988161256f565b80356001600160a01b03811681146125b957600080fd5b919050565b6000602082840312156125d057600080fd5b612098826125a2565b634e487b7160e01b600052604160045260246000fd5b604051601f8201601f191681016001600160401b0381118282101715612617576126176125d9565b604052919050565b6000806001600160401b03841115612639576126396125d9565b50601f8301601f191660200161264e816125ef565b91505082815283838301111561266357600080fd5b828260208301376000602084830101529392505050565b600082601f83011261268b57600080fd5b6120988383356020850161261f565b600080604083850312156126ad57600080fd5b8235915060208301356001600160401b038111156126ca57600080fd5b6126d68582860161267a565b9150509250929050565b60005b838110156126fb5781810151838201526020016126e3565b50506000910152565b6000815180845261271c8160208601602086016126e0565b601f01601f19169290920160200192915050565b6020815260006120986020830184612704565b60006020828403121561275557600080fd5b5035919050565b6001600160a01b03169052565b6001600160a01b0391909116815260200190565b6000806040838503121561279057600080fd5b612799836125a2565b946020939093013593505050565b6000806000606084860312156127bc57600080fd5b6127c5846125a2565b92506127d3602085016125a2565b929592945050506040919091013590565b600082601f8301126127f557600080fd5b81356001600160401b0381111561280e5761280e6125d9565b8060051b61281e602082016125ef565b9182526020818501810192908101908684111561283a57600080fd5b6020860192505b8383101561285c578235825260209283019290910190612841565b9695505050505050565b600080600080600080600080610100898b03121561288357600080fd5b88356001600160401b0381111561289957600080fd5b6128a58b828c0161267a565b98505060208901356001600160401b038111156128c157600080fd5b6128cd8b828c0161267a565b9750506040890135955060608901356001600160401b038111156128f057600080fd5b6128fc8b828c0161267a565b9550506080890135935060a08901356001600160401b0381111561291f57600080fd5b61292b8b828c0161267a565b93505060c08901356001600160401b0381111561294757600080fd5b6129538b828c016127e4565b92505060e08901356001600160401b0381111561296f57600080fd5b61297b8b828c0161267a565b9150509295985092959890939650565b634e487b7160e01b600052602160045260246000fd5b600581106129bf57634e487b7160e01b600052602160045260246000fd5b9052565b600081518084526020840193506020830160005b828110156129f55781518652602095860195909101906001016129d7565b5093949350505050565b60208152600082516101806020840152612a1d6101a0840182612704565b90506020840151612a31604085018261275c565b506040840151838203601f19016060850152612a4d8282612704565b915050606084015160808401526080840151601f198483030160a0850152612a758282612704565b91505060a084015160c084015260c084015160e084015260e0840151601f1984830301610100850152612aa88282612704565b915050610100840151612abf6101208501826129a1565b50610120840151838203601f1901610140850152612add82826129c3565b915050610140840151612af461016085018261275c565b50610160840151838203601f1901610180850152612b128282612704565b95945050505050565b60008060408385031215612b2e57600080fd5b82359150612b3e602084016125a2565b90509250929050565b80151581146117d057600080fd5b60008060408385031215612b6857600080fd5b612b71836125a2565b91506020830135612b8181612b47565b809150509250929050565b60008060008060808587031215612ba257600080fd5b612bab856125a2565b9350612bb9602086016125a2565b92506040850135915060608501356001600160401b03811115612bdb57600080fd5b8501601f81018713612bec57600080fd5b612bfb8782356020840161261f565b91505092959194509250565b60208152600061209860208301846129c3565b60008060408385031215612c2d57600080fd5b612c36836125a2565b9150612b3e602084016125a2565b60008060408385031215612c5757600080fd5b50508035926020909101359150565b60208082526014908201527310985d18da08191bd95cc81b9bdd08195e1a5cdd60621b604082015260600190565b8281526040602082015260006114956040830184612704565b600181811c90821680612cc157607f821691505b602082108103612ce157634e487b7160e01b600052602260045260246000fd5b50919050565b602080825260129082015271105b1c9958591e48185d5d1a1bdc9a5e995960721b604082015260600190565b6001600160a01b0393841681526020810192909252909116604082015260600190565b634e487b7160e01b600052603260045260246000fd5b600060208284031215612d5e57600080fd5b815161209881612b47565b6020808252601e908201527f496e76616c6964206f7220657870697265642063657274696669636174650000604082015260600190565b600060018201612dc057634e487b7160e01b600052601160045260246000fd5b5060010190565b601f8211156107d457806000526020600020601f840160051c81016020851015612dee5750805b601f840160051c820191505b818110156120235760008155600101612dfa565b81516001600160401b03811115612e2757612e276125d9565b612e3b81612e358454612cad565b84612dc7565b6020601f821160018114612e6f5760008315612e575750848201515b600019600385901b1c1916600184901b178455612023565b600084815260208120601f198516915b82811015612e9f5787850151825560209485019460019092019101612e7f565b5084821015612ebd5786840151600019600387901b60f8161c191681555b50505050600190811b01905550565b838152606060208201526000612ee56060830185612704565b905060018060a01b0383166040830152949350505050565b6020808252601a908201527909cdee840e8d0ca40deeedccae440decc40e8d0ca40c4c2e8c6d60331b604082015260600190565b60008351612f438184602088016126e0565b835190830190612f578183602088016126e0565b01949350505050565b6020808252601a90820152792737ba1030baba3437b934bd32b21030b9903b32b934b334b2b960311b604082015260600190565b6001600160a01b038581168252841660208201526040810183905260806060820181905260009061285c90830184612704565b600060208284031215612fd957600080fd5b81516120988161256f56fea264697066735822122059c68be9737fb880ac64539d603ab0560b5cc7fe0a07d6803dfd0bd45f685b6364736f6c634300081c0033a264697066735822122067d0ea4b9bcf58bb28b4ca35b07a514ab6abda64541bc5dcfd1d7fba924b2c0164736f6c634300081c0033",
  "linkReferences": {},
  "deployedLinkReferences": {}
}