{"contracts/BatchNFT.sol":{"BatchNFT":{"abi":[{"inputs":[{"internalType":"address","name":"certificateContractAddress","type":"address"}],"stateMutability":"nonpayable","type":"constructor"},{"inputs":[{"internalType":"address","name":"sender","type":"address"},{"internalType":"uint256","name":"tokenId","type":"uint256"},{"internalType":"address","name":"owner","type":"address"}],"name":"ERC721IncorrectOwner","type":"error"},{"inputs":[{"internalType":"address","name":"operator","type":"address"},{"internalType":"uint256","name":"tokenId","type":"uint256"}],"name":"ERC721InsufficientApproval","type":"error"},{"inputs":[{"internalType":"address","name":"approver","type":"address"}],"name":"ERC721InvalidApprover","type":"error"},{"inputs":[{"internalType":"address","name":"operator","type":"address"}],"name":"ERC721InvalidOperator","type":"error"},{"inputs":[{"internalType":"address","name":"owner","type":"address"}],"name":"ERC721InvalidOwner","type":"error"},{"inputs":[{"internalType":"address","name":"receiver","type":"address"}],"name":"ERC721InvalidReceiver","type":"error"},{"inputs":[{"internalType":"address","name":"sender","type":"address"}],"name":"ERC721InvalidSender","type":"error"},{"inputs":[{"internalType":"uint256","name":"tokenId","type":"uint256"}],"name":"ERC721NonexistentToken","type":"error"},{"inputs":[{"internalType":"address","name":"owner","type":"address"}],"name":"OwnableInvalidOwner","type":"error"},{"inputs":[{"internalType":"address","name":"account","type":"address"}],"name":"OwnableUnauthorizedAccount","type":"error"},{"anonymous":false,"inputs":[{"indexed":true,"internalType":"address","name":"owner","type":"address"},{"indexed":true,"internalType":"address","name":"approved","type":"address"},{"indexed":true,"internalType":"uint256","name":"tokenId","type":"uint256"}],"name":"Approval","type":"event"},{"anonymous":false,"inputs":[{"indexed":true,"internalType":"address","name":"owner","type":"address"},{"indexed":true,"internalType":"address","name":"operator","type":"address"},{"indexed":false,"internalType":"bool","name":"approved","type":"bool"}],"name":"ApprovalForAll","type":"event"},{"anonymous":false,"inputs":[{"indexed":false,"internalType":"uint256","name":"tokenId","type":"uint256"},{"indexed":false,"internalType":"string","name":"reason","type":"string"}],"name":"BatchCancelled","type":"event"},{"anonymous":false,"inputs":[{"indexed":false,"internalType":"uint256","name":"tokenId","type":"uint256"},{"indexed":false,"internalType":"string","name":"batchId","type":"string"},{"indexed":false,"internalType":"address","name":"creator","type":"address"}],"name":"BatchCreated","type":"event"},{"anonymous":false,"inputs":[{"indexed":false,"internalType":"uint256","name":"_fromTokenId","type":"uint256"},{"indexed":false,"internalType":"uint256","name":"_toTokenId","type":"uint256"}],"name":"BatchMetadataUpdate","type":"event"},{"anonymous":false,"inputs":[{"indexed":false,"internalType":"uint256","name":"tokenId","type":"uint256"},{"indexed":false,"internalType":"address","name":"from","type":"address"},{"indexed":false,"internalType":"address","name":"to","type":"address"}],"name":"BatchTransferred","type":"event"},{"anonymous":false,"inputs":[{"indexed":false,"internalType":"uint256","name":"tokenId","type":"uint256"},{"indexed":false,"internalType":"address","name":"verifier","type":"address"}],"name":"BatchVerified","type":"event"},{"anonymous":false,"inputs":[{"indexed":false,"internalType":"uint256","name":"batchId","type":"uint256"},{"indexed":false,"internalType":"uint256","name":"certificateId","type":"uint256"}],"name":"CertificateLinked","type":"event"},{"anonymous":false,"inputs":[{"indexed":false,"internalType":"uint256","name":"_tokenId","type":"uint256"}],"name":"MetadataUpdate","type":"event"},{"anonymous":false,"inputs":[{"indexed":true,"internalType":"address","name":"previousOwner","type":"address"},{"indexed":true,"internalType":"address","name":"newOwner","type":"address"}],"name":"OwnershipTransferred","type":"event"},{"anonymous":false,"inputs":[{"indexed":false,"internalType":"address","name":"producer","type":"address"}],"name":"ProducerAuthorized","type":"event"},{"anonymous":false,"inputs":[{"indexed":false,"internalType":"address","name":"producer","type":"address"}],"name":"ProducerRevoked","type":"event"},{"anonymous":false,"inputs":[{"indexed":true,"internalType":"address","name":"from","type":"address"},{"indexed":true,"internalType":"address","name":"to","type":"address"},{"indexed":true,"internalType":"uint256","name":"tokenId","type":"uint256"}],"name":"Transfer","type":"event"},{"anonymous":false,"inputs":[{"indexed":false,"internalType":"address","name":"verifier","type":"address"}],"name":"VerifierAuthorized","type":"event"},{"anonymous":false,"inputs":[{"indexed":false,"internalType":"address","name":"verifier","type":"address"}],"name":"VerifierRevoked","type":"event"},{"inputs":[{"internalType":"address","name":"to","type":"address"},{"internalType":"uint256","name":"tokenId","type":"uint256"}],"name":"approve","outputs":[],"stateMutability":"nonpayable","type":"function"},{"inputs":[{"internalType":"address","name":"producer","type":"address"}],"name":"authorizeProducer","outputs":[],"stateMutability":"nonpayable","type":"function"},{"inputs":[{"internalType":"address","name":"verifier","type":"address"}],"name":"authorizeVerifier","outputs":[],"stateMutability":"nonpayable","type":"function"},{"inputs":[{"internalType":"address","name":"owner","type":"address"}],"name":"balanceOf","outputs":[{"internalType":"uint256","name":"","type":"uint256"}],"stateMutability":"view","type":"function"},{"inputs":[{"internalType":"uint256","name":"tokenId","type":"uint256"},{"internalType":"string","name":"reason","type":"string"}],"name":"cancelBatch","outputs":[],"stateMutability":"nonpayable","type":"function"},{"inputs":[{"internalType":"string","name":"batchId","type":"string"},{"internalType":"string","name":"productType","type":"string"},{"internalType":"uint256","name":"quantity","type":"uint256"},{"internalType":"string","name":"unit","type":"string"},{"internalType":"uint256","name":"harvestTimestamp","type":"uint256"},{"internalType":"string","name":"originInfo","type":"string"},{"internalType":"uint256[]","name":"linkedCertificateIds","type":"uint256[]"},{"internalType":"string","name":"metadataURI","type":"string"}],"name":"createBatch","outputs":[{"internalType":"uint256","name":"","type":"uint256"}],"stateMutability":"nonpayable","type":"function"},{"inputs":[{"internalType":"uint256","name":"tokenId","type":"uint256"}],"name":"getApproved","outputs":[{"internalType":"address","name":"","type":"address"}],"stateMutability":"view","type":"function"},{"inputs":[{"internalType":"uint256","name":"tokenId","type":"uint256"}],"name":"getBatch","outputs":[{"components":[{"internalType":"string","name":"batchId","type":"string"},{"internalType":"address","name":"creator","type":"address"},{"internalType":"string","name":"productType","type":"string"},{"internalType":"uint256","name":"quantity","type":"uint256"},{"internalType":"string","name":"unit","type":"string"},{"internalType":"uint256","name":"creationTimestamp","type":"uint256"},{"internalType":"uint256","name":"harvestTimestamp","type":"uint256"},{"internalType":"string","name":"originInfo","type":"string"},{"internalType":"enum BatchNFT.BatchStatus","name":"status","type":"uint8"},{"internalType":"uint256[]","name":"linkedCertificateIds","type":"uint256[]"},{"internalType":"address","name":"currentOwner","type":"address"},{"internalType":"string","name":"metadataURI","type":"string"}],"internalType":"struct BatchNFT.Batch","name":"","type":"tuple"}],"stateMutability":"view","type":"function"},{"inputs":[],"name":"getPendingBatches","outputs":[{"internalType":"uint256[]","name":"","type":"uint256[]"}],"stateMutability":"view","type":"function"},{"inputs":[{"internalType":"address","name":"owner","type":"address"},{"internalType":"address","name":"operator","type":"address"}],"name":"isApprovedForAll","outputs":[{"internalType":"bool","name":"","type":"bool"}],"stateMutability":"view","type":"function"},{"inputs":[{"internalType":"address","name":"producer","type":"address"}],"name":"isAuthorizedProducer","outputs":[{"internalType":"bool","name":"","type":"bool"}],"stateMutability":"view","type":"function"},{"inputs":[{"internalType":"address","name":"verifier","type":"address"}],"name":"isAuthorizedVerifier","outputs":[{"internalType":"bool","name":"","type":"bool"}],"stateMutability":"view","type":"function"},{"inputs":[{"internalType":"uint256","name":"tokenId","type":"uint256"},{"internalType":"uint256","name":"certificateId","type":"uint256"}],"name":"linkCertificate","outputs":[],"stateMutability":"nonpayable","type":"function"},{"inputs":[{"internalType":"uint256","name":"tokenId","type":"uint256"}],"name":"markAsInTransit","outputs":[],"stateMutability":"nonpayable","type":"function"},{"inputs":[],"name":"name","outputs":[{"internalType":"string","name":"","type":"string"}],"stateMutability":"view","type":"function"},{"inputs":[],"name":"owner","outputs":[{"internalType":"address","name":"","type":"address"}],"stateMutability":"view","type":"function"},{"inputs":[{"internalType":"uint256","name":"tokenId","type":"uint256"}],"name":"ownerOf","outputs":[{"internalType":"address","name":"","type":"address"}],"stateMutability":"view","type":"function"},{"inputs":[],"name":"renounceOwnership","outputs":[],"stateMutability":"nonpayable","type":"function"},{"inputs":[{"internalType":"address","name":"producer","type":"address"}],"name":"revokeProducer","outputs":[],"stateMutability":"nonpayable","type":"function"},{"inputs":[{"internalType":"address","name":"verifier","type":"address"}],"name":"revokeVerifier","outputs":[],"stateMutability":"nonpayable","type":"function"},{"inputs":[{"internalType":"address","name":"from","type":"address"},{"internalType":"address","name":"to","type":"address"},{"internalType":"uint256","name":"tokenId","type":"uint256"}],"name":"safeTransferFrom","outputs":[],"stateMutability":"nonpayable","type":"function"},{"inputs":[{"internalType":"address","name":"from","type":"address"},{"internalType":"address","name":"to","type":"address"},{"internalType":"uint256","name":"tokenId","type":"uint256"},{"internalType":"bytes","name":"data","type":"bytes"}],"name":"safeTransferFrom","outputs":[],"stateMutability":"nonpayable","type":"function"},{"inputs":[{"internalType":"address","name":"operator","type":"address"},{"internalType":"bool","name":"approved","type":"bool"}],"name":"setApprovalForAll","outputs":[],"stateMutability":"nonpayable","type":"function"},{"inputs":[{"internalType":"bytes4","name":"interfaceId","type":"bytes4"}],"name":"supportsInterface","outputs":[{"internalType":"bool","name":"","type":"bool"}],"stateMutability":"view","type":"function"},{"inputs":[],"name":"symbol","outputs":[{"internalType":"string","name":"","type":"string"}],"stateMutability":"view","type":"function"},{"inputs":[{"internalType":"uint256","name":"tokenId","type":"uint256"}],"name":"tokenURI","outputs":[{"internalType":"string","name":"","type":"string"}],"stateMutability":"view","type":"function"},{"inputs":[{"internalType":"uint256","name":"tokenId","type":"uint256"},{"internalType":"address","name":"to","type":"address"}],"name":"transferBatch","outputs":[],"stateMutability":"nonpayable","type":"function"},{"inputs":[{"internalType":"address","name":"from","type":"address"},{"internalType":"address","name":"to","type":"address"},{"internalType":"uint256","name":"tokenId","type":"uint256"}],"name":"transferFrom","outputs":[],"stateMutability":"nonpayable","type":"function"},{"inputs":[{"internalType":"address","name":"newOwner","type":"address"}],"name":"transferOwnership","outputs":[],"stateMutability":"nonpayable","type":"function"},{"inputs":[{"internalType":"uint256","name":"tokenId","type":"uint256"}],"name":"verifyBatch","outputs":[],"stateMutability":"nonpayable","type":"function"}],"evm":{"bytecode":{"linkReferences":{},"object":"608060405234801561001057600080fd5b5060405161340f38038061340f83398101604081905261002f91610245565b336040518060400160405280600d81526020016c0a0e4dec8eac6e84084c2e8c6d609b1b8152506040518060400160405280600581526020016408482a886960db1b81525081600090816100839190610314565b5060016100908282610314565b5050506001600160a01b0381166100c6576000604051631e4fbdf760e01b81526004016100bd91906103d2565b60405180910390fd5b6100cf816101f3565b506001600160a01b0381166101325760405162461bcd60e51b8152602060048201526024808201527f496e76616c696420636572746966696361746520636f6e7472616374206164646044820152637265737360e01b60648201526084016100bd565b600980546001600160a01b0319166001600160a01b038316179055336000818152600b60209081526040808320805460ff199081166001908117909255600c9093529281902080549092169092179055517fa09c6df0c632a53152bcdbf11806efa608c66c3eb90020ab6f6a3c0fa10a65a6916101ae916103d2565b60405180910390a17f40f8611cb3470e9d255c7ea6d08e5625d635123c46e7c303e5321b1fb69bb8c9336040516101e591906103d2565b60405180910390a1506103e6565b600780546001600160a01b038381166001600160a01b0319831681179093556040519116919082907f8be0079c531659141344cd1fd0a4f28419497f9722a3daafe3b4186f6b6457e090600090a35050565b60006020828403121561025757600080fd5b81516001600160a01b038116811461026e57600080fd5b9392505050565b634e487b7160e01b600052604160045260246000fd5b600181811c9082168061029f57607f821691505b6020821081036102bf57634e487b7160e01b600052602260045260246000fd5b50919050565b601f82111561030f57806000526020600020601f840160051c810160208510156102ec5750805b601f840160051c820191505b8181101561030c57600081556001016102f8565b50505b505050565b81516001600160401b0381111561032d5761032d610275565b6103418161033b845461028b565b846102c5565b6020601f821160018114610375576000831561035d5750848201515b600019600385901b1c1916600184901b17845561030c565b600084815260208120601f198516915b828110156103a55787850151825560209485019460019092019101610385565b50848210156103c35786840151600019600387901b60f8161c191681555b50505050600190811b01905550565b6001600160a01b0391909116815260200190565b61301a806103f56000396000f3fe608060405234801561001057600080fd5b506004361061016a5760003560e01c806301ffc9a71461016f578063041bde781461019757806305beaad5146101c357806306fdde03146101d8578063081812fc146101ed578063095ea7b31461020d57806320ad8cab1461022057806323b872dd1461023357806342842e0e146102465780634e61b6b3146102595780635ac442821461027a578063621f2b0e1461029a5780636352211e146102ad5780636cacbf30146102c057806370a08231146102ec578063715018a6146102ff5780638da5cb5b1461030757806395d89b411461030f578063a22cb46514610317578063b27562851461032a578063b88d4fde1461033d578063bd02a23514610350578063c87b56dd14610363578063d59317d614610376578063dfe3a3ae1461038b578063e985e9c51461039e578063f2fde38b146103b1578063f6a11cef146103c4578063f98f5c55146103d7578063f9f8904a146103ea575b600080fd5b61018261017d366004612585565b6103fd565b60405190151581526020015b60405180910390f35b6101826101a53660046125be565b6001600160a01b03166000908152600b602052604090205460ff1690565b6101d66101d136600461269a565b610428565b005b6101e061059c565b60405161018e9190612730565b6102006101fb366004612743565b61062e565b60405161018e9190612769565b6101d661021b36600461277d565b610643565b6101d661022e3660046125be565b610652565b6101d66102413660046127a7565b610742565b6101d66102543660046127a7565b6107b9565b61026c610267366004612866565b6107d9565b60405190815260200161018e565b61028d610288366004612743565b610ba1565b60405161018e91906129ff565b6101d66102a8366004612b1b565b610f9f565b6102006102bb366004612743565b611158565b6101826102ce3660046125be565b6001600160a01b03166000908152600c602052604090205460ff1690565b61026c6102fa3660046125be565b611163565b6101d66111ab565b6102006111bf565b6101e06111ce565b6101d6610325366004612b55565b6111dd565b6101d6610338366004612743565b6111e8565b6101d661034b366004612b8c565b6112b7565b6101d661035e3660046125be565b6112cf565b6101e0610371366004612743565b61138c565b61037e61149d565b60405161018e9190612c07565b6101d6610399366004612743565b6115b5565b6101826103ac366004612c1a565b611767565b6101d66103bf3660046125be565b611795565b6101d66103d2366004612c44565b6117d3565b6101d66103e53660046125be565b6119f8565b6101d66103f83660046125be565b611add565b60006001600160e01b03198216632483248360e11b1480610422575061042282611b9a565b92915050565b61043182611bea565b6104565760405162461bcd60e51b815260040161044d90612c66565b60405180910390fd5b6000828152600a6020526040902060018101546001600160a01b031633148061048b5750600a8101546001600160a01b031633145b806104a557503361049a6111bf565b6001600160a01b0316145b6104ec5760405162461bcd60e51b8152602060048201526018602482015277139bdd08185d5d1a1bdc9a5e9959081d1bc818d85b98d95b60421b604482015260640161044d565b6004600882015460ff1660048111156105075761050761298b565b0361054e5760405162461bcd60e51b815260206004820152601760248201527610985d18da08185b1c9958591e4818d85b98d95b1b1959604a1b604482015260640161044d565b60088101805460ff191660041790556040517fccf418ed53819932f1f3042a183d967aac668aec6103d5953192c2c08072bf3f9061058f9085908590612c94565b60405180910390a1505050565b6060600080546105ab90612cad565b80601f01602080910402602001604051908101604052809291908181526020018280546105d790612cad565b80156106245780601f106105f957610100808354040283529160200191610624565b820191906000526020600020905b81548152906001019060200180831161060757829003601f168201915b5050505050905090565b600061063982611c07565b5061042282611c3f565b61064e828233611c5a565b5050565b61065a611c67565b6001600160a01b0381166106ab5760405162461bcd60e51b8152602060048201526018602482015277496e76616c6964207665726966696572206164647265737360401b604482015260640161044d565b6001600160a01b0381166000908152600c602052604090205460ff16156106e45760405162461bcd60e51b815260040161044d90612ce7565b6001600160a01b0381166000908152600c602052604090819020805460ff19166001179055517f40f8611cb3470e9d255c7ea6d08e5625d635123c46e7c303e5321b1fb69bb8c990610737908390612769565b60405180910390a150565b6001600160a01b03821661076c576000604051633250574960e11b815260040161044d9190612769565b6000610779838333611c99565b9050836001600160a01b0316816001600160a01b0316146107b3578382826040516364283d7b60e01b815260040161044d93929190612d13565b50505050565b6107d4838383604051806020016040528060008152506112b7565b505050565b336000908152600b602052604081205460ff166108355760405162461bcd60e51b815260206004820152601a6024820152792737ba1030baba3437b934bd32b21030b990383937b23ab1b2b960311b604482015260640161044d565b60008951116108815760405162461bcd60e51b815260206004820152601860248201527742617463682049442063616e6e6f7420626520656d70747960401b604482015260640161044d565b600087116108d15760405162461bcd60e51b815260206004820152601f60248201527f5175616e74697479206d7573742062652067726561746572207468616e203000604482015260640161044d565b60005b83518110156109915760095484516001600160a01b039091169063f577a5009086908490811061090657610906612d36565b60200260200101516040518263ffffffff1660e01b815260040161092c91815260200190565b602060405180830381865afa158015610949573d6000803e3d6000fd5b505050506040513d601f19601f8201168201806040525081019061096d9190612d4c565b6109895760405162461bcd60e51b815260040161044d90612d69565b6001016108d4565b5060088054600091826109a383612da0565b9190505590506040518061018001604052808b8152602001336001600160a01b031681526020018a815260200189815260200188815260200142815260200187815260200186815260200160006004811115610a0157610a0161298b565b815260208082018790523360408084019190915260609092018690526000848152600a9091522081518190610a369082612e0e565b5060208201516001820180546001600160a01b0319166001600160a01b0390921691909117905560408201516002820190610a719082612e0e565b506060820151600382015560808201516004820190610a909082612e0e565b5060a0820151600582015560c0820151600682015560e08201516007820190610ab99082612e0e565b5061010082015160088201805460ff19166001836004811115610ade57610ade61298b565b02179055506101208201518051610aff916009840191602090910190612496565b50610140820151600a820180546001600160a01b0319166001600160a01b03909216919091179055610160820151600b820190610b3c9082612e0e565b5050506000818152600d602052604090819020805460ff19166001179055517f195a26ecf0c9b8fb957ecc3a7c029ce84849279de600e16f205ee789052052b690610b8c9083908d903390612ecc565b60405180910390a19998505050505050505050565b610ba96124e1565b610bb282611bea565b610bce5760405162461bcd60e51b815260040161044d90612c66565b6000828152600a60205260409081902081516101808101909252805482908290610bf790612cad565b80601f0160208091040260200160405190810160405280929190818152602001828054610c2390612cad565b8015610c705780601f10610c4557610100808354040283529160200191610c70565b820191906000526020600020905b815481529060010190602001808311610c5357829003601f168201915b505050918352505060018201546001600160a01b03166020820152600282018054604090920191610ca090612cad565b80601f0160208091040260200160405190810160405280929190818152602001828054610ccc90612cad565b8015610d195780601f10610cee57610100808354040283529160200191610d19565b820191906000526020600020905b815481529060010190602001808311610cfc57829003601f168201915b5050505050815260200160038201548152602001600482018054610d3c90612cad565b80601f0160208091040260200160405190810160405280929190818152602001828054610d6890612cad565b8015610db55780601f10610d8a57610100808354040283529160200191610db5565b820191906000526020600020905b815481529060010190602001808311610d9857829003601f168201915b505050505081526020016005820154815260200160068201548152602001600782018054610de290612cad565b80601f0160208091040260200160405190810160405280929190818152602001828054610e0e90612cad565b8015610e5b5780601f10610e3057610100808354040283529160200191610e5b565b820191906000526020600020905b815481529060010190602001808311610e3e57829003601f168201915b5050509183525050600882015460209091019060ff166004811115610e8257610e8261298b565b6004811115610e9357610e9361298b565b815260200160098201805480602002602001604051908101604052809291908181526020018280548015610ee657602002820191906000526020600020905b815481526020019060010190808311610ed2575b5050509183525050600a8201546001600160a01b03166020820152600b82018054604090920191610f1690612cad565b80601f0160208091040260200160405190810160405280929190818152602001828054610f4290612cad565b8015610f8f5780601f10610f6457610100808354040283529160200191610f8f565b820191906000526020600020905b815481529060010190602001808311610f7257829003601f168201915b5050505050815250509050919050565b610fa882611bea565b610fc45760405162461bcd60e51b815260040161044d90612c66565b33610fce83611158565b6001600160a01b031614610ff45760405162461bcd60e51b815260040161044d90612efd565b6001600160a01b0381166110465760405162461bcd60e51b8152602060048201526019602482015278496e76616c696420726563697069656e74206164647265737360381b604482015260640161044d565b6000828152600a602052604090206001600882015460ff16600481111561106f5761106f61298b565b148061109357506002600882015460ff1660048111156110915761109161298b565b145b6110df5760405162461bcd60e51b815260206004820152601e60248201527f4261746368206e6f7420616374697665206f7220696e207472616e7369740000604482015260640161044d565b6110ea338385611d8d565b60088101805460ff19166003179055600a810180546001600160a01b0384166001600160a01b0319909116811790915560408051858152336020820152908101919091527fb9f31d1b8db0327a09cde76de6662ee23a4ecd72fbb0411cdfa7969fed7abe449060600161058f565b600061042282611c07565b60006001600160a01b03821661118f5760006040516322718ad960e21b815260040161044d9190612769565b506001600160a01b031660009081526003602052604090205490565b6111b3611c67565b6111bd6000611e29565b565b6007546001600160a01b031690565b6060600180546105ab90612cad565b61064e338383611e7b565b6111f181611bea565b61120d5760405162461bcd60e51b815260040161044d90612c66565b3361121782611158565b6001600160a01b03161461123d5760405162461bcd60e51b815260040161044d90612efd565b6000818152600a602052604090206001600882015460ff1660048111156112665761126661298b565b146112a65760405162461bcd60e51b815260206004820152601060248201526f4261746368206e6f742061637469766560801b604482015260640161044d565b600801805460ff1916600217905550565b6112c2848484610742565b6107b33385858585611f11565b6112d7611c67565b6001600160a01b0381166000908152600c602052604090205460ff1661133c5760405162461bcd60e51b815260206004820152601a6024820152792737ba1030b71030baba3437b934bd32b2103b32b934b334b2b960311b604482015260640161044d565b6001600160a01b0381166000908152600c602052604090819020805460ff19169055517fb48d1366d07d4afdd2b73cbb6f7c9c23d71c2c9478252d6b97492dfd3819e7c790610737908390612769565b606061139782611c07565b50600082815260066020526040812080546113b190612cad565b80601f01602080910402602001604051908101604052809291908181526020018280546113dd90612cad565b801561142a5780601f106113ff5761010080835404028352916020019161142a565b820191906000526020600020905b81548152906001019060200180831161140d57829003601f168201915b50505050509050600061144860408051602081019091526000815290565b9050805160000361145a575092915050565b81511561148c578082604051602001611474929190612f31565b60405160208183030381529060405292505050919050565b6114958461202a565b949350505050565b336000908152600c602052604090205460609060ff166114cf5760405162461bcd60e51b815260040161044d90612f60565b600060015b60085481101561150b576000818152600d602052604090205460ff161561150357816114ff81612da0565b9250505b6001016114d4565b506000816001600160401b03811115611526576115266125d9565b60405190808252806020026020018201604052801561154f578160200160208202803683370190505b509050600060015b6008548110156115ac576000818152600d602052604090205460ff16156115a4578083838151811061158b5761158b612d36565b6020908102919091010152816115a081612da0565b9250505b600101611557565b50909250505090565b336000908152600c602052604090205460ff166115e45760405162461bcd60e51b815260040161044d90612f60565b6000818152600d602052604090205460ff166116425760405162461bcd60e51b815260206004820152601e60248201527f4261746368206e6f742070656e64696e6720766572696669636174696f6e0000604482015260640161044d565b6000818152600a602052604090206001810154611668906001600160a01b03168361209f565b6116fe8282600b01805461167b90612cad565b80601f01602080910402602001604051908101604052809291908181526020018280546116a790612cad565b80156116f45780601f106116c9576101008083540402835291602001916116f4565b820191906000526020600020905b8154815290600101906020018083116116d757829003601f168201915b5050505050612104565b60088101805460ff199081166001179091556000838152600d60209081526040918290208054909316909255805184815233928101929092527f5e4f9a3d8e8d8fc42bbe98104b324b50682ae0e3f892f0294dd16a226d48c21c91015b60405180910390a15050565b6001600160a01b03918216600090815260056020908152604080832093909416825291909152205460ff1690565b61179d611c67565b6001600160a01b0381166117c7576000604051631e4fbdf760e01b815260040161044d9190612769565b6117d081611e29565b50565b6117dc82611bea565b6117f85760405162461bcd60e51b815260040161044d90612c66565b6000828152600a6020526040902060018101546001600160a01b031633148061182d5750600a8101546001600160a01b031633145b6118845760405162461bcd60e51b815260206004820152602260248201527f4e6f7420617574686f72697a656420746f206c696e6b20636572746966696361604482015261746560f01b606482015260840161044d565b60095460405162f577a560e81b8152600481018490526001600160a01b039091169063f577a50090602401602060405180830381865afa1580156118cc573d6000803e3d6000fd5b505050506040513d601f19601f820116820180604052508101906118f09190612d4c565b61190c5760405162461bcd60e51b815260040161044d90612d69565b6000805b6009830154811015611953578383600901828154811061193257611932612d36565b90600052602060002001540361194b5760019150611953565b600101611910565b50801561199f5760405162461bcd60e51b815260206004820152601a60248201527910d95c9d1a599a58d85d1948185b1c9958591e481b1a5b9ad95960321b604482015260640161044d565b600982018054600181018255600091825260209182902001849055604080518681529182018590527f0870aa9a0cce7d456adbc65186945fcd60bf61aa63807273df4bdf886fbd4576910160405180910390a150505050565b611a00611c67565b6001600160a01b038116611a515760405162461bcd60e51b8152602060048201526018602482015277496e76616c69642070726f6475636572206164647265737360401b604482015260640161044d565b6001600160a01b0381166000908152600b602052604090205460ff1615611a8a5760405162461bcd60e51b815260040161044d90612ce7565b6001600160a01b0381166000908152600b602052604090819020805460ff19166001179055517fa09c6df0c632a53152bcdbf11806efa608c66c3eb90020ab6f6a3c0fa10a65a690610737908390612769565b611ae5611c67565b6001600160a01b0381166000908152600b602052604090205460ff16611b4a5760405162461bcd60e51b815260206004820152601a6024820152792737ba1030b71030baba3437b934bd32b210383937b23ab1b2b960311b604482015260640161044d565b6001600160a01b0381166000908152600b602052604090819020805460ff19169055517f290f04b7d7ee3d8e9c131ae3e752b8c881c7155098267e78bff5f3c88f2f058790610737908390612769565b60006001600160e01b031982166380ac58cd60e01b1480611bcb57506001600160e01b03198216635b5e139f60e01b145b8061042257506301ffc9a760e01b6001600160e01b0319831614610422565b600080611bf68361214d565b6001600160a01b0316141592915050565b600080611c138361214d565b90506001600160a01b03811661042257604051637e27328960e01b81526004810184905260240161044d565b6000908152600460205260409020546001600160a01b031690565b6107d48383836001612168565b33611c706111bf565b6001600160a01b0316146111bd573360405163118cdaa760e01b815260040161044d9190612769565b600080611ca58461214d565b90506001600160a01b03831615611cc157611cc1818486612265565b6001600160a01b03811615611cff57611cde600085600080612168565b6001600160a01b038116600090815260036020526040902080546000190190555b6001600160a01b03851615611d2e576001600160a01b0385166000908152600360205260409020805460010190555b60008481526002602052604080822080546001600160a01b0319166001600160a01b0389811691821790925591518793918516917fddf252ad1be2c89b69c2b068fc378daa952ba7f163c4a11628f55a4df523b3ef91a4949350505050565b6001600160a01b038216611db7576000604051633250574960e11b815260040161044d9190612769565b6000611dc583836000611c99565b90506001600160a01b038116611df157604051637e27328960e01b81526004810183905260240161044d565b836001600160a01b0316816001600160a01b0316146107b3578382826040516364283d7b60e01b815260040161044d93929190612d13565b600780546001600160a01b038381166001600160a01b0319831681179093556040519116919082907f8be0079c531659141344cd1fd0a4f28419497f9722a3daafe3b4186f6b6457e090600090a35050565b6001600160a01b038216611ea45781604051630b61174360e31b815260040161044d9190612769565b6001600160a01b03838116600081815260056020908152604080832094871680845294825291829020805460ff191686151590811790915591519182527f17307eab39ab6107e8899845ad3d59bd9653f200f220920489ca2b5937696c31910160405180910390a3505050565b6001600160a01b0383163b1561202357604051630a85bd0160e11b81526001600160a01b0384169063150b7a0290611f53908890889087908790600401612f94565b6020604051808303816000875af1925050508015611f8e575060408051601f3d908101601f19168201909252611f8b91810190612fc7565b60015b611fee573d808015611fbc576040519150601f19603f3d011682016040523d82523d6000602084013e611fc1565b606091505b508051600003611fe65783604051633250574960e11b815260040161044d9190612769565b805181602001fd5b6001600160e01b03198116630a85bd0160e11b146120215783604051633250574960e11b815260040161044d9190612769565b505b5050505050565b606061203582611c07565b50600061204d60408051602081019091526000815290565b9050600081511161206d5760405180602001604052806000815250612098565b80612077846122c9565b604051602001612088929190612f31565b6040516020818303038152906040525b9392505050565b6001600160a01b0382166120c9576000604051633250574960e11b815260040161044d9190612769565b60006120d783836000611c99565b90506001600160a01b038116156107d45760006040516339e3563760e11b815260040161044d9190612769565b600082815260066020526040902061211c8282612e0e565b506040518281527ff8e1a15aba9398e019f0b49df1a4fde98ee17ae345cb5f6b5e2c27f5033e8ce79060200161175b565b6000908152600260205260409020546001600160a01b031690565b808061217c57506001600160a01b03821615155b1561223557600061218c84611c07565b90506001600160a01b038316158015906121b85750826001600160a01b0316816001600160a01b031614155b80156121cb57506121c98184611767565b155b156121eb578260405163a9fbf51f60e01b815260040161044d9190612769565b81156122335783856001600160a01b0316826001600160a01b03167f8c5be1e5ebec7d5bd14f71427d1e84f3dd0314c0f7b2291e5b200ac8c7c3b92560405160405180910390a45b505b5050600090815260046020526040902080546001600160a01b0319166001600160a01b0392909216919091179055565b61227083838361235b565b6107d4576001600160a01b03831661229e57604051637e27328960e01b81526004810182905260240161044d565b60405163177e802f60e01b81526001600160a01b03831660048201526024810182905260440161044d565b606060006122d6836123c0565b60010190506000816001600160401b038111156122f5576122f56125d9565b6040519080825280601f01601f19166020018201604052801561231f576020820181803683370190505b5090508181016020015b600019016f181899199a1a9b1b9c1cb0b131b232b360811b600a86061a8153600a850494508461232957509392505050565b60006001600160a01b038316158015906114955750826001600160a01b0316846001600160a01b0316148061239557506123958484611767565b806114955750826001600160a01b03166123ae83611c3f565b6001600160a01b031614949350505050565b60008072184f03e93ff9f4daa797ed6e38ed64bf6a1f0160401b83106123ff5772184f03e93ff9f4daa797ed6e38ed64bf6a1f0160401b830492506040015b6904ee2d6d415b85acef8160201b8310612429576904ee2d6d415b85acef8160201b830492506020015b662386f26fc10000831061244757662386f26fc10000830492506010015b6305f5e100831061245f576305f5e100830492506008015b612710831061247357612710830492506004015b60648310612485576064830492506002015b600a83106104225760010192915050565b8280548282559060005260206000209081019282156124d1579160200282015b828111156124d15782518255916020019190600101906124b6565b506124dd92915061255a565b5090565b6040518061018001604052806060815260200160006001600160a01b03168152602001606081526020016000815260200160608152602001600081526020016000815260200160608152602001600060048111156125415761254161298b565b8152606060208201819052600060408301529081015290565b5b808211156124dd576000815560010161255b565b6001600160e01b0319811681146117d057600080fd5b60006020828403121561259757600080fd5b81356120988161256f565b80356001600160a01b03811681146125b957600080fd5b919050565b6000602082840312156125d057600080fd5b612098826125a2565b634e487b7160e01b600052604160045260246000fd5b604051601f8201601f191681016001600160401b0381118282101715612617576126176125d9565b604052919050565b6000806001600160401b03841115612639576126396125d9565b50601f8301601f191660200161264e816125ef565b91505082815283838301111561266357600080fd5b828260208301376000602084830101529392505050565b600082601f83011261268b57600080fd5b6120988383356020850161261f565b600080604083850312156126ad57600080fd5b8235915060208301356001600160401b038111156126ca57600080fd5b6126d68582860161267a565b9150509250929050565b60005b838110156126fb5781810151838201526020016126e3565b50506000910152565b6000815180845261271c8160208601602086016126e0565b601f01601f19169290920160200192915050565b6020815260006120986020830184612704565b60006020828403121561275557600080fd5b5035919050565b6001600160a01b03169052565b6001600160a01b0391909116815260200190565b6000806040838503121561279057600080fd5b612799836125a2565b946020939093013593505050565b6000806000606084860312156127bc57600080fd5b6127c5846125a2565b92506127d3602085016125a2565b929592945050506040919091013590565b600082601f8301126127f557600080fd5b81356001600160401b0381111561280e5761280e6125d9565b8060051b61281e602082016125ef565b9182526020818501810192908101908684111561283a57600080fd5b6020860192505b8383101561285c578235825260209283019290910190612841565b9695505050505050565b600080600080600080600080610100898b03121561288357600080fd5b88356001600160401b0381111561289957600080fd5b6128a58b828c0161267a565b98505060208901356001600160401b038111156128c157600080fd5b6128cd8b828c0161267a565b9750506040890135955060608901356001600160401b038111156128f057600080fd5b6128fc8b828c0161267a565b9550506080890135935060a08901356001600160401b0381111561291f57600080fd5b61292b8b828c0161267a565b93505060c08901356001600160401b0381111561294757600080fd5b6129538b828c016127e4565b92505060e08901356001600160401b0381111561296f57600080fd5b61297b8b828c0161267a565b9150509295985092959890939650565b634e487b7160e01b600052602160045260246000fd5b600581106129bf57634e487b7160e01b600052602160045260246000fd5b9052565b600081518084526020840193506020830160005b828110156129f55781518652602095860195909101906001016129d7565b5093949350505050565b60208152600082516101806020840152612a1d6101a0840182612704565b90506020840151612a31604085018261275c565b506040840151838203601f19016060850152612a4d8282612704565b915050606084015160808401526080840151601f198483030160a0850152612a758282612704565b91505060a084015160c084015260c084015160e084015260e0840151601f1984830301610100850152612aa88282612704565b915050610100840151612abf6101208501826129a1565b50610120840151838203601f1901610140850152612add82826129c3565b915050610140840151612af461016085018261275c565b50610160840151838203601f1901610180850152612b128282612704565b95945050505050565b60008060408385031215612b2e57600080fd5b82359150612b3e602084016125a2565b90509250929050565b80151581146117d057600080fd5b60008060408385031215612b6857600080fd5b612b71836125a2565b91506020830135612b8181612b47565b809150509250929050565b60008060008060808587031215612ba257600080fd5b612bab856125a2565b9350612bb9602086016125a2565b92506040850135915060608501356001600160401b03811115612bdb57600080fd5b8501601f81018713612bec57600080fd5b612bfb8782356020840161261f565b91505092959194509250565b60208152600061209860208301846129c3565b60008060408385031215612c2d57600080fd5b612c36836125a2565b9150612b3e602084016125a2565b60008060408385031215612c5757600080fd5b50508035926020909101359150565b60208082526014908201527310985d18da08191bd95cc81b9bdd08195e1a5cdd60621b604082015260600190565b8281526040602082015260006114956040830184612704565b600181811c90821680612cc157607f821691505b602082108103612ce157634e487b7160e01b600052602260045260246000fd5b50919050565b602080825260129082015271105b1c9958591e48185d5d1a1bdc9a5e995960721b604082015260600190565b6001600160a01b0393841681526020810192909252909116604082015260600190565b634e487b7160e01b600052603260045260246000fd5b600060208284031215612d5e57600080fd5b815161209881612b47565b6020808252601e908201527f496e76616c6964206f7220657870697265642063657274696669636174650000604082015260600190565b600060018201612dc057634e487b7160e01b600052601160045260246000fd5b5060010190565b601f8211156107d457806000526020600020601f840160051c81016020851015612dee5750805b601f840160051c820191505b818110156120235760008155600101612dfa565b81516001600160401b03811115612e2757612e276125d9565b612e3b81612e358454612cad565b84612dc7565b6020601f821160018114612e6f5760008315612e575750848201515b600019600385901b1c1916600184901b178455612023565b600084815260208120601f198516915b82811015612e9f5787850151825560209485019460019092019101612e7f565b5084821015612ebd5786840151600019600387901b60f8161c191681555b50505050600190811b01905550565b838152606060208201526000612ee56060830185612704565b905060018060a01b0383166040830152949350505050565b6020808252601a908201527909cdee840e8d0ca40deeedccae440decc40e8d0ca40c4c2e8c6d60331b604082015260600190565b60008351612f438184602088016126e0565b835190830190612f578183602088016126e0565b01949350505050565b6020808252601a90820152792737ba1030baba3437b934bd32b21030b9903b32b934b334b2b960311b604082015260600190565b6001600160a01b038581168252841660208201526040810183905260806060820181905260009061285c90830184612704565b600060208284031215612fd957600080fd5b81516120988161256f56fea264697066735822122059c68be9737fb880ac64539d603ab0560b5cc7fe0a07d6803dfd0bd45f685b6364736f6c634300081c0033","opcodes":"PUSH1 0x80 PUSH1 0x40 MSTORE CALLVALUE DUP1 ISZERO PUSH2 0x10 JUMPI PUSH1 0x0 DUP1 REVERT JUMPDEST POP PUSH1 0x40 MLOAD PUSH2 0x340F CODESIZE SUB DUP1 PUSH2 0x340F DUP4 CODECOPY DUP2 ADD PUSH1 0x40 DUP2 SWAP1 MSTORE PUSH2 0x2F SWAP2 PUSH2 0x245 JUMP JUMPDEST CALLER PUSH1 0x40 MLOAD DUP1 PUSH1 0x40 ADD PUSH1 0x40 MSTORE DUP1 PUSH1 0xD DUP2 MSTORE PUSH1 0x20 ADD PUSH13 0xA0E4DEC8EAC6E84084C2E8C6D PUSH1 0x9B SHL DUP2 MSTORE POP PUSH1 0x40 MLOAD DUP1 PUSH1 0x40 ADD PUSH1 0x40 MSTORE DUP1 PUSH1 0x5 DUP2 MSTORE PUSH1 0x20 ADD PUSH5 0x8482A8869 PUSH1 0xDB SHL DUP2 MSTORE POP DUP2 PUSH1 0x0 SWAP1 DUP2 PUSH2 0x83 SWAP2 SWAP1 PUSH2 0x314 JUMP JUMPDEST POP PUSH1 0x1 PUSH2 0x90 DUP3 DUP3 PUSH2 0x314 JUMP JUMPDEST POP POP POP PUSH1 0x1 PUSH1 0x1 PUSH1 0xA0 SHL SUB DUP2 AND PUSH2 0xC6 JUMPI PUSH1 0x0 PUSH1 0x40 MLOAD PUSH4 0x1E4FBDF7 PUSH1 0xE0 SHL DUP2 MSTORE PUSH1 0x4 ADD PUSH2 0xBD SWAP2 SWAP1 PUSH2 0x3D2 JUMP JUMPDEST PUSH1 0x40 MLOAD DUP1 SWAP2 SUB SWAP1 REVERT JUMPDEST PUSH2 0xCF DUP2 PUSH2 0x1F3 JUMP JUMPDEST POP PUSH1 0x1 PUSH1 0x1 PUSH1 0xA0 SHL SUB DUP2 AND PUSH2 0x132 JUMPI PUSH1 0x40 MLOAD PUSH3 0x461BCD PUSH1 0xE5 SHL DUP2 MSTORE PUSH1 0x20 PUSH1 0x4 DUP3 ADD MSTORE PUSH1 0x24 DUP1 DUP3 ADD MSTORE PUSH32 0x496E76616C696420636572746966696361746520636F6E747261637420616464 PUSH1 0x44 DUP3 ADD MSTORE PUSH4 0x72657373 PUSH1 0xE0 SHL PUSH1 0x64 DUP3 ADD MSTORE PUSH1 0x84 ADD PUSH2 0xBD JUMP JUMPDEST PUSH1 0x9 DUP1 SLOAD PUSH1 0x1 PUSH1 0x1 PUSH1 0xA0 SHL SUB NOT AND PUSH1 0x1 PUSH1 0x1 PUSH1 0xA0 SHL SUB DUP4 AND OR SWAP1 SSTORE CALLER PUSH1 0x0 DUP2 DUP2 MSTORE PUSH1 0xB PUSH1 0x20 SWAP1 DUP2 MSTORE PUSH1 0x40 DUP1 DUP4 KECCAK256 DUP1 SLOAD PUSH1 0xFF NOT SWAP1 DUP2 AND PUSH1 0x1 SWAP1 DUP2 OR SWAP1 SWAP3 SSTORE PUSH1 0xC SWAP1 SWAP4 MSTORE SWAP3 DUP2 SWAP1 KECCAK256 DUP1 SLOAD SWAP1 SWAP3 AND SWAP1 SWAP3 OR SWAP1 SSTORE MLOAD PUSH32 0xA09C6DF0C632A53152BCDBF11806EFA608C66C3EB90020AB6F6A3C0FA10A65A6 SWAP2 PUSH2 0x1AE SWAP2 PUSH2 0x3D2 JUMP JUMPDEST PUSH1 0x40 MLOAD DUP1 SWAP2 SUB SWAP1 LOG1 PUSH32 0x40F8611CB3470E9D255C7EA6D08E5625D635123C46E7C303E5321B1FB69BB8C9 CALLER PUSH1 0x40 MLOAD PUSH2 0x1E5 SWAP2 SWAP1 PUSH2 0x3D2 JUMP JUMPDEST PUSH1 0x40 MLOAD DUP1 SWAP2 SUB SWAP1 LOG1 POP PUSH2 0x3E6 JUMP JUMPDEST PUSH1 0x7 DUP1 SLOAD PUSH1 0x1 PUSH1 0x1 PUSH1 0xA0 SHL SUB DUP4 DUP2 AND PUSH1 0x1 PUSH1 0x1 PUSH1 0xA0 SHL SUB NOT DUP4 AND DUP2 OR SWAP1 SWAP4 SSTORE PUSH1 0x40 MLOAD SWAP2 AND SWAP2 SWAP1 DUP3 SWAP1 PUSH32 0x8BE0079C531659141344CD1FD0A4F28419497F9722A3DAAFE3B4186F6B6457E0 SWAP1 PUSH1 0x0 SWAP1 LOG3 POP POP JUMP JUMPDEST PUSH1 0x0 PUSH1 0x20 DUP3 DUP5 SUB SLT ISZERO PUSH2 0x257 JUMPI PUSH1 0x0 DUP1 REVERT JUMPDEST DUP2 MLOAD PUSH1 0x1 PUSH1 0x1 PUSH1 0xA0 SHL SUB DUP2 AND DUP2 EQ PUSH2 0x26E JUMPI PUSH1 0x0 DUP1 REVERT JUMPDEST SWAP4 SWAP3 POP POP POP JUMP JUMPDEST PUSH4 0x4E487B71 PUSH1 0xE0 SHL PUSH1 0x0 MSTORE PUSH1 0x41 PUSH1 0x4 MSTORE PUSH1 0x24 PUSH1 0x0 REVERT JUMPDEST PUSH1 0x1 DUP2 DUP2 SHR SWAP1 DUP3 AND DUP1 PUSH2 0x29F JUMPI PUSH1 0x7F DUP3 AND SWAP2 POP JUMPDEST PUSH1 0x20 DUP3 LT DUP2 SUB PUSH2 0x2BF JUMPI PUSH4 0x4E487B71 PUSH1 0xE0 SHL PUSH1 0x0 MSTORE PUSH1 0x22 PUSH1 0x4 MSTORE PUSH1 0x24 PUSH1 0x0 REVERT JUMPDEST POP SWAP2 SWAP1 POP JUMP JUMPDEST PUSH1 0x1F DUP3 GT ISZERO PUSH2 0x30F JUMPI DUP1 PUSH1 0x0 MSTORE PUSH1 0x20 PUSH1 0x0 KECCAK256 PUSH1 0x1F DUP5 ADD PUSH1 0x5 SHR DUP2 ADD PUSH1 0x20 DUP6 LT ISZERO PUSH2 0x2EC JUMPI POP DUP1 JUMPDEST PUSH1 0x1F DUP5 ADD PUSH1 0x5 SHR DUP3 ADD SWAP2 POP JUMPDEST DUP2 DUP2 LT ISZERO PUSH2 0x30C JUMPI PUSH1 0x0 DUP2 SSTORE PUSH1 0x1 ADD PUSH2 0x2F8 JUMP JUMPDEST POP POP JUMPDEST POP POP POP JUMP JUMPDEST DUP2 MLOAD PUSH1 0x1 PUSH1 0x1 PUSH1 0x40 SHL SUB DUP2 GT ISZERO PUSH2 0x32D JUMPI PUSH2 0x32D PUSH2 0x275 JUMP JUMPDEST PUSH2 0x341 DUP2 PUSH2 0x33B DUP5 SLOAD PUSH2 0x28B JUMP JUMPDEST DUP5 PUSH2 0x2C5 JUMP JUMPDEST PUSH1 0x20 PUSH1 0x1F DUP3 GT PUSH1 0x1 DUP2 EQ PUSH2 0x375 JUMPI PUSH1 0x0 DUP4 ISZERO PUSH2 0x35D JUMPI POP DUP5 DUP3 ADD MLOAD JUMPDEST PUSH1 0x0 NOT PUSH1 0x3 DUP6 SWAP1 SHL SHR NOT AND PUSH1 0x1 DUP5 SWAP1 SHL OR DUP5 SSTORE PUSH2 0x30C JUMP JUMPDEST PUSH1 0x0 DUP5 DUP2 MSTORE PUSH1 0x20 DUP2 KECCAK256 PUSH1 0x1F NOT DUP6 AND SWAP2 JUMPDEST DUP3 DUP2 LT ISZERO PUSH2 0x3A5 JUMPI DUP8 DUP6 ADD MLOAD DUP3 SSTORE PUSH1 0x20 SWAP5 DUP6 ADD SWAP5 PUSH1 0x1 SWAP1 SWAP3 ADD SWAP2 ADD PUSH2 0x385 JUMP JUMPDEST POP DUP5 DUP3 LT ISZERO PUSH2 0x3C3 JUMPI DUP7 DUP5 ADD MLOAD PUSH1 0x0 NOT PUSH1 0x3 DUP8 SWAP1 SHL PUSH1 0xF8 AND SHR NOT AND DUP2 SSTORE JUMPDEST POP POP POP POP PUSH1 0x1 SWAP1 DUP2 SHL ADD SWAP1 SSTORE POP JUMP JUMPDEST PUSH1 0x1 PUSH1 0x1 PUSH1 0xA0 SHL SUB SWAP2 SWAP1 SWAP2 AND DUP2 MSTORE PUSH1 0x20 ADD SWAP1 JUMP JUMPDEST PUSH2 0x301A DUP1 PUSH2 0x3F5 PUSH1 0x0 CODECOPY PUSH1 0x0 RETURN INVALID PUSH1 0x80 PUSH1 0x40 MSTORE CALLVALUE DUP1 ISZERO PUSH2 0x10 JUMPI PUSH1 0x0 DUP1 REVERT JUMPDEST POP PUSH1 0x4 CALLDATASIZE LT PUSH2 0x16A JUMPI PUSH1 0x0 CALLDATALOAD PUSH1 0xE0 SHR DUP1 PUSH4 0x1FFC9A7 EQ PUSH2 0x16F JUMPI DUP1 PUSH4 0x41BDE78 EQ PUSH2 0x197 JUMPI DUP1 PUSH4 0x5BEAAD5 EQ PUSH2 0x1C3 JUMPI DUP1 PUSH4 0x6FDDE03 EQ PUSH2 0x1D8 JUMPI DUP1 PUSH4 0x81812FC EQ PUSH2 0x1ED JUMPI DUP1 PUSH4 0x95EA7B3 EQ PUSH2 0x20D JUMPI DUP1 PUSH4 0x20AD8CAB EQ PUSH2 0x220 JUMPI DUP1 PUSH4 0x23B872DD EQ PUSH2 0x233 JUMPI DUP1 PUSH4 0x42842E0E EQ PUSH2 0x246 JUMPI DUP1 PUSH4 0x4E61B6B3 EQ PUSH2 0x259 JUMPI DUP1 PUSH4 0x5AC44282 EQ PUSH2 0x27A JUMPI DUP1 PUSH4 0x621F2B0E EQ PUSH2 0x29A JUMPI DUP1 PUSH4 0x6352211E EQ PUSH2 0x2AD JUMPI DUP1 PUSH4 0x6CACBF30 EQ PUSH2 0x2C0 JUMPI DUP1 PUSH4 0x70A08231 EQ PUSH2 0x2EC JUMPI DUP1 PUSH4 0x715018A6 EQ PUSH2 0x2FF JUMPI DUP1 PUSH4 0x8DA5CB5B EQ PUSH2 0x307 JUMPI DUP1 PUSH4 0x95D89B41 EQ PUSH2 0x30F JUMPI DUP1 PUSH4 0xA22CB465 EQ PUSH2 0x317 JUMPI DUP1 PUSH4 0xB2756285 EQ PUSH2 0x32A JUMPI DUP1 PUSH4 0xB88D4FDE EQ PUSH2 0x33D JUMPI DUP1 PUSH4 0xBD02A235 EQ PUSH2 0x350 JUMPI DUP1 PUSH4 0xC87B56DD EQ PUSH2 0x363 JUMPI DUP1 PUSH4 0xD59317D6 EQ PUSH2 0x376 JUMPI DUP1 PUSH4 0xDFE3A3AE EQ PUSH2 0x38B JUMPI DUP1 PUSH4 0xE985E9C5 EQ PUSH2 0x39E JUMPI DUP1 PUSH4 0xF2FDE38B EQ PUSH2 0x3B1 JUMPI DUP1 PUSH4 0xF6A11CEF EQ PUSH2 0x3C4 JUMPI DUP1 PUSH4 0xF98F5C55 EQ PUSH2 0x3D7 JUMPI DUP1 PUSH4 0xF9F8904A EQ PUSH2 0x3EA JUMPI JUMPDEST PUSH1 0x0 DUP1 REVERT JUMPDEST PUSH2 0x182 PUSH2 0x17D CALLDATASIZE PUSH1 0x4 PUSH2 0x2585 JUMP JUMPDEST PUSH2 0x3FD JUMP JUMPDEST PUSH1 0x40 MLOAD SWAP1 ISZERO ISZERO DUP2 MSTORE PUSH1 0x20 ADD JUMPDEST PUSH1 0x40 MLOAD DUP1 SWAP2 SUB SWAP1 RETURN JUMPDEST PUSH2 0x182 PUSH2 0x1A5 CALLDATASIZE PUSH1 0x4 PUSH2 0x25BE JUMP JUMPDEST PUSH1 0x1 PUSH1 0x1 PUSH1 0xA0 SHL SUB AND PUSH1 0x0 SWAP1 DUP2 MSTORE PUSH1 0xB PUSH1 0x20 MSTORE PUSH1 0x40 SWAP1 KECCAK256 SLOAD PUSH1 0xFF AND SWAP1 JUMP JUMPDEST PUSH2 0x1D6 PUSH2 0x1D1 CALLDATASIZE PUSH1 0x4 PUSH2 0x269A JUMP JUMPDEST PUSH2 0x428 JUMP JUMPDEST STOP JUMPDEST PUSH2 0x1E0 PUSH2 0x59C JUMP JUMPDEST PUSH1 0x40 MLOAD PUSH2 0x18E SWAP2 SWAP1 PUSH2 0x2730 JUMP JUMPDEST PUSH2 0x200 PUSH2 0x1FB CALLDATASIZE PUSH1 0x4 PUSH2 0x2743 JUMP JUMPDEST PUSH2 0x62E JUMP JUMPDEST PUSH1 0x40 MLOAD PUSH2 0x18E SWAP2 SWAP1 PUSH2 0x2769 JUMP JUMPDEST PUSH2 0x1D6 PUSH2 0x21B CALLDATASIZE PUSH1 0x4 PUSH2 0x277D JUMP JUMPDEST PUSH2 0x643 JUMP JUMPDEST PUSH2 0x1D6 PUSH2 0x22E CALLDATASIZE PUSH1 0x4 PUSH2 0x25BE JUMP JUMPDEST PUSH2 0x652 JUMP JUMPDEST PUSH2 0x1D6 PUSH2 0x241 CALLDATASIZE PUSH1 0x4 PUSH2 0x27A7 JUMP JUMPDEST PUSH2 0x742 JUMP JUMPDEST PUSH2 0x1D6 PUSH2 0x254 CALLDATASIZE PUSH1 0x4 PUSH2 0x27A7 JUMP JUMPDEST PUSH2 0x7B9 JUMP JUMPDEST PUSH2 0x26C PUSH2 0x267 CALLDATASIZE PUSH1 0x4 PUSH2 0x2866 JUMP JUMPDEST PUSH2 0x7D9 JUMP JUMPDEST PUSH1 0x40 MLOAD SWAP1 DUP2 MSTORE PUSH1 0x20 ADD PUSH2 0x18E JUMP JUMPDEST PUSH2 0x28D PUSH2 0x288 CALLDATASIZE PUSH1 0x4 PUSH2 0x2743 JUMP JUMPDEST PUSH2 0xBA1 JUMP JUMPDEST PUSH1 0x40 MLOAD PUSH2 0x18E SWAP2 SWAP1 PUSH2 0x29FF JUMP JUMPDEST PUSH2 0x1D6 PUSH2 0x2A8 CALLDATASIZE PUSH1 0x4 PUSH2 0x2B1B JUMP JUMPDEST PUSH2 0xF9F JUMP JUMPDEST PUSH2 0x200 PUSH2 0x2BB CALLDATASIZE PUSH1 0x4 PUSH2 0x2743 JUMP JUMPDEST PUSH2 0x1158 JUMP JUMPDEST PUSH2 0x182 PUSH2 0x2CE CALLDATASIZE PUSH1 0x4 PUSH2 0x25BE JUMP JUMPDEST PUSH1 0x1 PUSH1 0x1 PUSH1 0xA0 SHL SUB AND PUSH1 0x0 SWAP1 DUP2 MSTORE PUSH1 0xC PUSH1 0x20 MSTORE PUSH1 0x40 SWAP1 KECCAK256 SLOAD PUSH1 0xFF AND SWAP1 JUMP JUMPDEST PUSH2 0x26C PUSH2 0x2FA CALLDATASIZE PUSH1 0x4 PUSH2 0x25BE JUMP JUMPDEST PUSH2 0x1163 JUMP JUMPDEST PUSH2 0x1D6 PUSH2 0x11AB JUMP JUMPDEST PUSH2 0x200 PUSH2 0x11BF JUMP JUMPDEST PUSH2 0x1E0 PUSH2 0x11CE JUMP JUMPDEST PUSH2 0x1D6 PUSH2 0x325 CALLDATASIZE PUSH1 0x4 PUSH2 0x2B55 JUMP JUMPDEST PUSH2 0x11DD JUMP JUMPDEST PUSH2 0x1D6 PUSH2 0x338 CALLDATASIZE PUSH1 0x4 PUSH2 0x2743 JUMP JUMPDEST PUSH2 0x11E8 JUMP JUMPDEST PUSH2 0x1D6 PUSH2 0x34B CALLDATASIZE PUSH1 0x4 PUSH2 0x2B8C JUMP JUMPDEST PUSH2 0x12B7 JUMP JUMPDEST PUSH2 0x1D6 PUSH2 0x35E CALLDATASIZE PUSH1 0x4 PUSH2 0x25BE JUMP JUMPDEST PUSH2 0x12CF JUMP JUMPDEST PUSH2 0x1E0 PUSH2 0x371 CALLDATASIZE PUSH1 0x4 PUSH2 0x2743 JUMP JUMPDEST PUSH2 0x138C JUMP JUMPDEST PUSH2 0x37E PUSH2 0x149D JUMP JUMPDEST PUSH1 0x40 MLOAD PUSH2 0x18E SWAP2 SWAP1 PUSH2 0x2C07 JUMP JUMPDEST PUSH2 0x1D6 PUSH2 0x399 CALLDATASIZE PUSH1 0x4 PUSH2 0x2743 JUMP JUMPDEST PUSH2 0x15B5 JUMP JUMPDEST PUSH2 0x182 PUSH2 0x3AC CALLDATASIZE PUSH1 0x4 PUSH2 0x2C1A JUMP JUMPDEST PUSH2 0x1767 JUMP JUMPDEST PUSH2 0x1D6 PUSH2 0x3BF CALLDATASIZE PUSH1 0x4 PUSH2 0x25BE JUMP JUMPDEST PUSH2 0x1795 JUMP JUMPDEST PUSH2 0x1D6 PUSH2 0x3D2 CALLDATASIZE PUSH1 0x4 PUSH2 0x2C44 JUMP JUMPDEST PUSH2 0x17D3 JUMP JUMPDEST PUSH2 0x1D6 PUSH2 0x3E5 CALLDATASIZE PUSH1 0x4 PUSH2 0x25BE JUMP JUMPDEST PUSH2 0x19F8 JUMP JUMPDEST PUSH2 0x1D6 PUSH2 0x3F8 CALLDATASIZE PUSH1 0x4 PUSH2 0x25BE JUMP JUMPDEST PUSH2 0x1ADD JUMP JUMPDEST PUSH1 0x0 PUSH1 0x1 PUSH1 0x1 PUSH1 0xE0 SHL SUB NOT DUP3 AND PUSH4 0x24832483 PUSH1 0xE1 SHL EQ DUP1 PUSH2 0x422 JUMPI POP PUSH2 0x422 DUP3 PUSH2 0x1B9A JUMP JUMPDEST SWAP3 SWAP2 POP POP JUMP JUMPDEST PUSH2 0x431 DUP3 PUSH2 0x1BEA JUMP JUMPDEST PUSH2 0x456 JUMPI PUSH1 0x40 MLOAD PUSH3 0x461BCD PUSH1 0xE5 SHL DUP2 MSTORE PUSH1 0x4 ADD PUSH2 0x44D SWAP1 PUSH2 0x2C66 JUMP JUMPDEST PUSH1 0x40 MLOAD DUP1 SWAP2 SUB SWAP1 REVERT JUMPDEST PUSH1 0x0 DUP3 DUP2 MSTORE PUSH1 0xA PUSH1 0x20 MSTORE PUSH1 0x40 SWAP1 KECCAK256 PUSH1 0x1 DUP2 ADD SLOAD PUSH1 0x1 PUSH1 0x1 PUSH1 0xA0 SHL SUB AND CALLER EQ DUP1 PUSH2 0x48B JUMPI POP PUSH1 0xA DUP2 ADD SLOAD PUSH1 0x1 PUSH1 0x1 PUSH1 0xA0 SHL SUB AND CALLER EQ JUMPDEST DUP1 PUSH2 0x4A5 JUMPI POP CALLER PUSH2 0x49A PUSH2 0x11BF JUMP JUMPDEST PUSH1 0x1 PUSH1 0x1 PUSH1 0xA0 SHL SUB AND EQ JUMPDEST PUSH2 0x4EC JUMPI PUSH1 0x40 MLOAD PUSH3 0x461BCD PUSH1 0xE5 SHL DUP2 MSTORE PUSH1 0x20 PUSH1 0x4 DUP3 ADD MSTORE PUSH1 0x18 PUSH1 0x24 DUP3 ADD MSTORE PUSH24 0x139BDD08185D5D1A1BDC9A5E9959081D1BC818D85B98D95B PUSH1 0x42 SHL PUSH1 0x44 DUP3 ADD MSTORE PUSH1 0x64 ADD PUSH2 0x44D JUMP JUMPDEST PUSH1 0x4 PUSH1 0x8 DUP3 ADD SLOAD PUSH1 0xFF AND PUSH1 0x4 DUP2 GT ISZERO PUSH2 0x507 JUMPI PUSH2 0x507 PUSH2 0x298B JUMP JUMPDEST SUB PUSH2 0x54E JUMPI PUSH1 0x40 MLOAD PUSH3 0x461BCD PUSH1 0xE5 SHL DUP2 MSTORE PUSH1 0x20 PUSH1 0x4 DUP3 ADD MSTORE PUSH1 0x17 PUSH1 0x24 DUP3 ADD MSTORE PUSH23 0x10985D18DA08185B1C9958591E4818D85B98D95B1B1959 PUSH1 0x4A SHL PUSH1 0x44 DUP3 ADD MSTORE PUSH1 0x64 ADD PUSH2 0x44D JUMP JUMPDEST PUSH1 0x8 DUP2 ADD DUP1 SLOAD PUSH1 0xFF NOT AND PUSH1 0x4 OR SWAP1 SSTORE PUSH1 0x40 MLOAD PUSH32 0xCCF418ED53819932F1F3042A183D967AAC668AEC6103D5953192C2C08072BF3F SWAP1 PUSH2 0x58F SWAP1 DUP6 SWAP1 DUP6 SWAP1 PUSH2 0x2C94 JUMP JUMPDEST PUSH1 0x40 MLOAD DUP1 SWAP2 SUB SWAP1 LOG1 POP POP POP JUMP JUMPDEST PUSH1 0x60 PUSH1 0x0 DUP1 SLOAD PUSH2 0x5AB SWAP1 PUSH2 0x2CAD JUMP JUMPDEST DUP1 PUSH1 0x1F ADD PUSH1 0x20 DUP1 SWAP2 DIV MUL PUSH1 0x20 ADD PUSH1 0x40 MLOAD SWAP1 DUP2 ADD PUSH1 0x40 MSTORE DUP1 SWAP3 SWAP2 SWAP1 DUP2 DUP2 MSTORE PUSH1 0x20 ADD DUP3 DUP1 SLOAD PUSH2 0x5D7 SWAP1 PUSH2 0x2CAD JUMP JUMPDEST DUP1 ISZERO PUSH2 0x624 JUMPI DUP1 PUSH1 0x1F LT PUSH2 0x5F9 JUMPI PUSH2 0x100 DUP1 DUP4 SLOAD DIV MUL DUP4 MSTORE SWAP2 PUSH1 0x20 ADD SWAP2 PUSH2 0x624 JUMP JUMPDEST DUP3 ADD SWAP2 SWAP1 PUSH1 0x0 MSTORE PUSH1 0x20 PUSH1 0x0 KECCAK256 SWAP1 JUMPDEST DUP2 SLOAD DUP2 MSTORE SWAP1 PUSH1 0x1 ADD SWAP1 PUSH1 0x20 ADD DUP1 DUP4 GT PUSH2 0x607 JUMPI DUP3 SWAP1 SUB PUSH1 0x1F AND DUP3 ADD SWAP2 JUMPDEST POP POP POP POP POP SWAP1 POP SWAP1 JUMP JUMPDEST PUSH1 0x0 PUSH2 0x639 DUP3 PUSH2 0x1C07 JUMP JUMPDEST POP PUSH2 0x422 DUP3 PUSH2 0x1C3F JUMP JUMPDEST PUSH2 0x64E DUP3 DUP3 CALLER PUSH2 0x1C5A JUMP JUMPDEST POP POP JUMP JUMPDEST PUSH2 0x65A PUSH2 0x1C67 JUMP JUMPDEST PUSH1 0x1 PUSH1 0x1 PUSH1 0xA0 SHL SUB DUP2 AND PUSH2 0x6AB JUMPI PUSH1 0x40 MLOAD PUSH3 0x461BCD PUSH1 0xE5 SHL DUP2 MSTORE PUSH1 0x20 PUSH1 0x4 DUP3 ADD MSTORE PUSH1 0x18 PUSH1 0x24 DUP3 ADD MSTORE PUSH24 0x496E76616C69642076657269666965722061646472657373 PUSH1 0x40 SHL PUSH1 0x44 DUP3 ADD MSTORE PUSH1 0x64 ADD PUSH2 0x44D JUMP JUMPDEST PUSH1 0x1 PUSH1 0x1 PUSH1 0xA0 SHL SUB DUP2 AND PUSH1 0x0 SWAP1 DUP2 MSTORE PUSH1 0xC PUSH1 0x20 MSTORE PUSH1 0x40 SWAP1 KECCAK256 SLOAD PUSH1 0xFF AND ISZERO PUSH2 0x6E4 JUMPI PUSH1 0x40 MLOAD PUSH3 0x461BCD PUSH1 0xE5 SHL DUP2 MSTORE PUSH1 0x4 ADD PUSH2 0x44D SWAP1 PUSH2 0x2CE7 JUMP JUMPDEST PUSH1 0x1 PUSH1 0x1 PUSH1 0xA0 SHL SUB DUP2 AND PUSH1 0x0 SWAP1 DUP2 MSTORE PUSH1 0xC PUSH1 0x20 MSTORE PUSH1 0x40 SWAP1 DUP2 SWAP1 KECCAK256 DUP1 SLOAD PUSH1 0xFF NOT AND PUSH1 0x1 OR SWAP1 SSTORE MLOAD PUSH32 0x40F8611CB3470E9D255C7EA6D08E5625D635123C46E7C303E5321B1FB69BB8C9 SWAP1 PUSH2 0x737 SWAP1 DUP4 SWAP1 PUSH2 0x2769 JUMP JUMPDEST PUSH1 0x40 MLOAD DUP1 SWAP2 SUB SWAP1 LOG1 POP JUMP JUMPDEST PUSH1 0x1 PUSH1 0x1 PUSH1 0xA0 SHL SUB DUP3 AND PUSH2 0x76C JUMPI PUSH1 0x0 PUSH1 0x40 MLOAD PUSH4 0x32505749 PUSH1 0xE1 SHL DUP2 MSTORE PUSH1 0x4 ADD PUSH2 0x44D SWAP2 SWAP1 PUSH2 0x2769 JUMP JUMPDEST PUSH1 0x0 PUSH2 0x779 DUP4 DUP4 CALLER PUSH2 0x1C99 JUMP JUMPDEST SWAP1 POP DUP4 PUSH1 0x1 PUSH1 0x1 PUSH1 0xA0 SHL SUB AND DUP2 PUSH1 0x1 PUSH1 0x1 PUSH1 0xA0 SHL SUB AND EQ PUSH2 0x7B3 JUMPI DUP4 DUP3 DUP3 PUSH1 0x40 MLOAD PUSH4 0x64283D7B PUSH1 0xE0 SHL DUP2 MSTORE PUSH1 0x4 ADD PUSH2 0x44D SWAP4 SWAP3 SWAP2 SWAP1 PUSH2 0x2D13 JUMP JUMPDEST POP POP POP POP JUMP JUMPDEST PUSH2 0x7D4 DUP4 DUP4 DUP4 PUSH1 0x40 MLOAD DUP1 PUSH1 0x20 ADD PUSH1 0x40 MSTORE DUP1 PUSH1 0x0 DUP2 MSTORE POP PUSH2 0x12B7 JUMP JUMPDEST POP POP POP JUMP JUMPDEST CALLER PUSH1 0x0 SWAP1 DUP2 MSTORE PUSH1 0xB PUSH1 0x20 MSTORE PUSH1 0x40 DUP2 KECCAK256 SLOAD PUSH1 0xFF AND PUSH2 0x835 JUMPI PUSH1 0x40 MLOAD PUSH3 0x461BCD PUSH1 0xE5 SHL DUP2 MSTORE PUSH1 0x20 PUSH1 0x4 DUP3 ADD MSTORE PUSH1 0x1A PUSH1 0x24 DUP3 ADD MSTORE PUSH26 0x2737BA1030BABA3437B934BD32B21030B990383937B23AB1B2B9 PUSH1 0x31 SHL PUSH1 0x44 DUP3 ADD MSTORE PUSH1 0x64 ADD PUSH2 0x44D JUMP JUMPDEST PUSH1 0x0 DUP10 MLOAD GT PUSH2 0x881 JUMPI PUSH1 0x40 MLOAD PUSH3 0x461BCD PUSH1 0xE5 SHL DUP2 MSTORE PUSH1 0x20 PUSH1 0x4 DUP3 ADD MSTORE PUSH1 0x18 PUSH1 0x24 DUP3 ADD MSTORE PUSH24 0x42617463682049442063616E6E6F7420626520656D707479 PUSH1 0x40 SHL PUSH1 0x44 DUP3 ADD MSTORE PUSH1 0x64 ADD PUSH2 0x44D JUMP JUMPDEST PUSH1 0x0 DUP8 GT PUSH2 0x8D1 JUMPI PUSH1 0x40 MLOAD PUSH3 0x461BCD PUSH1 0xE5 SHL DUP2 MSTORE PUSH1 0x20 PUSH1 0x4 DUP3 ADD MSTORE PUSH1 0x1F PUSH1 0x24 DUP3 ADD MSTORE PUSH32 0x5175616E74697479206D7573742062652067726561746572207468616E203000 PUSH1 0x44 DUP3 ADD MSTORE PUSH1 0x64 ADD PUSH2 0x44D JUMP JUMPDEST PUSH1 0x0 JUMPDEST DUP4 MLOAD DUP2 LT ISZERO PUSH2 0x991 JUMPI PUSH1 0x9 SLOAD DUP5 MLOAD PUSH1 0x1 PUSH1 0x1 PUSH1 0xA0 SHL SUB SWAP1 SWAP2 AND SWAP1 PUSH4 0xF577A500 SWAP1 DUP7 SWAP1 DUP5 SWAP1 DUP2 LT PUSH2 0x906 JUMPI PUSH2 0x906 PUSH2 0x2D36 JUMP JUMPDEST PUSH1 0x20 MUL PUSH1 0x20 ADD ADD MLOAD PUSH1 0x40 MLOAD DUP3 PUSH4 0xFFFFFFFF AND PUSH1 0xE0 SHL DUP2 MSTORE PUSH1 0x4 ADD PUSH2 0x92C SWAP2 DUP2 MSTORE PUSH1 0x20 ADD SWAP1 JUMP JUMPDEST PUSH1 0x20 PUSH1 0x40 MLOAD DUP1 DUP4 SUB DUP2 DUP7 GAS STATICCALL ISZERO DUP1 ISZERO PUSH2 0x949 JUMPI RETURNDATASIZE PUSH1 0x0 DUP1 RETURNDATACOPY RETURNDATASIZE PUSH1 0x0 REVERT JUMPDEST POP POP POP POP PUSH1 0x40 MLOAD RETURNDATASIZE PUSH1 0x1F NOT PUSH1 0x1F DUP3 ADD AND DUP3 ADD DUP1 PUSH1 0x40 MSTORE POP DUP2 ADD SWAP1 PUSH2 0x96D SWAP2 SWAP1 PUSH2 0x2D4C JUMP JUMPDEST PUSH2 0x989 JUMPI PUSH1 0x40 MLOAD PUSH3 0x461BCD PUSH1 0xE5 SHL DUP2 MSTORE PUSH1 0x4 ADD PUSH2 0x44D SWAP1 PUSH2 0x2D69 JUMP JUMPDEST PUSH1 0x1 ADD PUSH2 0x8D4 JUMP JUMPDEST POP PUSH1 0x8 DUP1 SLOAD PUSH1 0x0 SWAP2 DUP3 PUSH2 0x9A3 DUP4 PUSH2 0x2DA0 JUMP JUMPDEST SWAP2 SWAP1 POP SSTORE SWAP1 POP PUSH1 0x40 MLOAD DUP1 PUSH2 0x180 ADD PUSH1 0x40 MSTORE DUP1 DUP12 DUP2 MSTORE PUSH1 0x20 ADD CALLER PUSH1 0x1 PUSH1 0x1 PUSH1 0xA0 SHL SUB AND DUP2 MSTORE PUSH1 0x20 ADD DUP11 DUP2 MSTORE PUSH1 0x20 ADD DUP10 DUP2 MSTORE PUSH1 0x20 ADD DUP9 DUP2 MSTORE PUSH1 0x20 ADD TIMESTAMP DUP2 MSTORE PUSH1 0x20 ADD DUP8 DUP2 MSTORE PUSH1 0x20 ADD DUP7 DUP2 MSTORE PUSH1 0x20 ADD PUSH1 0x0 PUSH1 0x4 DUP2 GT ISZERO PUSH2 0xA01 JUMPI PUSH2 0xA01 PUSH2 0x298B JUMP JUMPDEST DUP2 MSTORE PUSH1 0x20 DUP1 DUP3 ADD DUP8 SWAP1 MSTORE CALLER PUSH1 0x40 DUP1 DUP5 ADD SWAP2 SWAP1 SWAP2 MSTORE PUSH1 0x60 SWAP1 SWAP3 ADD DUP7 SWAP1 MSTORE PUSH1 0x0 DUP5 DUP2 MSTORE PUSH1 0xA SWAP1 SWAP2 MSTORE KECCAK256 DUP2 MLOAD DUP2 SWAP1 PUSH2 0xA36 SWAP1 DUP3 PUSH2 0x2E0E JUMP JUMPDEST POP PUSH1 0x20 DUP3 ADD MLOAD PUSH1 0x1 DUP3 ADD DUP1 SLOAD PUSH1 0x1 PUSH1 0x1 PUSH1 0xA0 SHL SUB NOT AND PUSH1 0x1 PUSH1 0x1 PUSH1 0xA0 SHL SUB SWAP1 SWAP3 AND SWAP2 SWAP1 SWAP2 OR SWAP1 SSTORE PUSH1 0x40 DUP3 ADD MLOAD PUSH1 0x2 DUP3 ADD SWAP1 PUSH2 0xA71 SWAP1 DUP3 PUSH2 0x2E0E JUMP JUMPDEST POP PUSH1 0x60 DUP3 ADD MLOAD PUSH1 0x3 DUP3 ADD SSTORE PUSH1 0x80 DUP3 ADD MLOAD PUSH1 0x4 DUP3 ADD SWAP1 PUSH2 0xA90 SWAP1 DUP3 PUSH2 0x2E0E JUMP JUMPDEST POP PUSH1 0xA0 DUP3 ADD MLOAD PUSH1 0x5 DUP3 ADD SSTORE PUSH1 0xC0 DUP3 ADD MLOAD PUSH1 0x6 DUP3 ADD SSTORE PUSH1 0xE0 DUP3 ADD MLOAD PUSH1 0x7 DUP3 ADD SWAP1 PUSH2 0xAB9 SWAP1 DUP3 PUSH2 0x2E0E JUMP JUMPDEST POP PUSH2 0x100 DUP3 ADD MLOAD PUSH1 0x8 DUP3 ADD DUP1 SLOAD PUSH1 0xFF NOT AND PUSH1 0x1 DUP4 PUSH1 0x4 DUP2 GT ISZERO PUSH2 0xADE JUMPI PUSH2 0xADE PUSH2 0x298B JUMP JUMPDEST MUL OR SWAP1 SSTORE POP PUSH2 0x120 DUP3 ADD MLOAD DUP1 MLOAD PUSH2 0xAFF SWAP2 PUSH1 0x9 DUP5 ADD SWAP2 PUSH1 0x20 SWAP1 SWAP2 ADD SWAP1 PUSH2 0x2496 JUMP JUMPDEST POP PUSH2 0x140 DUP3 ADD MLOAD PUSH1 0xA DUP3 ADD DUP1 SLOAD PUSH1 0x1 PUSH1 0x1 PUSH1 0xA0 SHL SUB NOT AND PUSH1 0x1 PUSH1 0x1 PUSH1 0xA0 SHL SUB SWAP1 SWAP3 AND SWAP2 SWAP1 SWAP2 OR SWAP1 SSTORE PUSH2 0x160 DUP3 ADD MLOAD PUSH1 0xB DUP3 ADD SWAP1 PUSH2 0xB3C SWAP1 DUP3 PUSH2 0x2E0E JUMP JUMPDEST POP POP POP PUSH1 0x0 DUP2 DUP2 MSTORE PUSH1 0xD PUSH1 0x20 MSTORE PUSH1 0x40 SWAP1 DUP2 SWAP1 KECCAK256 DUP1 SLOAD PUSH1 0xFF NOT AND PUSH1 0x1 OR SWAP1 SSTORE MLOAD PUSH32 0x195A26ECF0C9B8FB957ECC3A7C029CE84849279DE600E16F205EE789052052B6 SWAP1 PUSH2 0xB8C SWAP1 DUP4 SWAP1 DUP14 SWAP1 CALLER SWAP1 PUSH2 0x2ECC JUMP JUMPDEST PUSH1 0x40 MLOAD DUP1 SWAP2 SUB SWAP1 LOG1 SWAP10 SWAP9 POP POP POP POP POP POP POP POP POP JUMP JUMPDEST PUSH2 0xBA9 PUSH2 0x24E1 JUMP JUMPDEST PUSH2 0xBB2 DUP3 PUSH2 0x1BEA JUMP JUMPDEST PUSH2 0xBCE JUMPI PUSH1 0x40 MLOAD PUSH3 0x461BCD PUSH1 0xE5 SHL DUP2 MSTORE PUSH1 0x4 ADD PUSH2 0x44D SWAP1 PUSH2 0x2C66 JUMP JUMPDEST PUSH1 0x0 DUP3 DUP2 MSTORE PUSH1 0xA PUSH1 0x20 MSTORE PUSH1 0x40 SWAP1 DUP2 SWAP1 KECCAK256 DUP2 MLOAD PUSH2 0x180 DUP2 ADD SWAP1 SWAP3 MSTORE DUP1 SLOAD DUP3 SWAP1 DUP3 SWAP1 PUSH2 0xBF7 SWAP1 PUSH2 0x2CAD JUMP JUMPDEST DUP1 PUSH1 0x1F ADD PUSH1 0x20 DUP1 SWAP2 DIV MUL PUSH1 0x20 ADD PUSH1 0x40 MLOAD SWAP1 DUP2 ADD PUSH1 0x40 MSTORE DUP1 SWAP3 SWAP2 SWAP1 DUP2 DUP2 MSTORE PUSH1 0x20 ADD DUP3 DUP1 SLOAD PUSH2 0xC23 SWAP1 PUSH2 0x2CAD JUMP JUMPDEST DUP1 ISZERO PUSH2 0xC70 JUMPI DUP1 PUSH1 0x1F LT PUSH2 0xC45 JUMPI PUSH2 0x100 DUP1 DUP4 SLOAD DIV MUL DUP4 MSTORE SWAP2 PUSH1 0x20 ADD SWAP2 PUSH2 0xC70 JUMP JUMPDEST DUP3 ADD SWAP2 SWAP1 PUSH1 0x0 MSTORE PUSH1 0x20 PUSH1 0x0 KECCAK256 SWAP1 JUMPDEST DUP2 SLOAD DUP2 MSTORE SWAP1 PUSH1 0x1 ADD SWAP1 PUSH1 0x20 ADD DUP1 DUP4 GT PUSH2 0xC53 JUMPI DUP3 SWAP1 SUB PUSH1 0x1F AND DUP3 ADD SWAP2 JUMPDEST POP POP POP SWAP2 DUP4 MSTORE POP POP PUSH1 0x1 DUP3 ADD SLOAD PUSH1 0x1 PUSH1 0x1 PUSH1 0xA0 SHL SUB AND PUSH1 0x20 DUP3 ADD MSTORE PUSH1 0x2 DUP3 ADD DUP1 SLOAD PUSH1 0x40 SWAP1 SWAP3 ADD SWAP2 PUSH2 0xCA0 SWAP1 PUSH2 0x2CAD JUMP JUMPDEST DUP1 PUSH1 0x1F ADD PUSH1 0x20 DUP1 SWAP2 DIV MUL PUSH1 0x20 ADD PUSH1 0x40 MLOAD SWAP1 DUP2 ADD PUSH1 0x40 MSTORE DUP1 SWAP3 SWAP2 SWAP1 DUP2 DUP2 MSTORE PUSH1 0x20 ADD DUP3 DUP1 SLOAD PUSH2 0xCCC SWAP1 PUSH2 0x2CAD JUMP JUMPDEST DUP1 ISZERO PUSH2 0xD19 JUMPI DUP1 PUSH1 0x1F LT PUSH2 0xCEE JUMPI PUSH2 0x100 DUP1 DUP4 SLOAD DIV MUL DUP4 MSTORE SWAP2 PUSH1 0x20 ADD SWAP2 PUSH2 0xD19 JUMP JUMPDEST DUP3 ADD SWAP2 SWAP1 PUSH1 0x0 MSTORE PUSH1 0x20 PUSH1 0x0 KECCAK256 SWAP1 JUMPDEST DUP2 SLOAD DUP2 MSTORE SWAP1 PUSH1 0x1 ADD SWAP1 PUSH1 0x20 ADD DUP1 DUP4 GT PUSH2 0xCFC JUMPI DUP3 SWAP1 SUB PUSH1 0x1F AND DUP3 ADD SWAP2 JUMPDEST POP POP POP POP POP DUP2 MSTORE PUSH1 0x20 ADD PUSH1 0x3 DUP3 ADD SLOAD DUP2 MSTORE PUSH1 0x20 ADD PUSH1 0x4 DUP3 ADD DUP1 SLOAD PUSH2 0xD3C SWAP1 PUSH2 0x2CAD JUMP JUMPDEST DUP1 PUSH1 0x1F ADD PUSH1 0x20 DUP1 SWAP2 DIV MUL PUSH1 0x20 ADD PUSH1 0x40 MLOAD SWAP1 DUP2 ADD PUSH1 0x40 MSTORE DUP1 SWAP3 SWAP2 SWAP1 DUP2 DUP2 MSTORE PUSH1 0x20 ADD DUP3 DUP1 SLOAD PUSH2 0xD68 SWAP1 PUSH2 0x2CAD JUMP JUMPDEST DUP1 ISZERO PUSH2 0xDB5 JUMPI DUP1 PUSH1 0x1F LT PUSH2 0xD8A JUMPI PUSH2 0x100 DUP1 DUP4 SLOAD DIV MUL DUP4 MSTORE SWAP2 PUSH1 0x20 ADD SWAP2 PUSH2 0xDB5 JUMP JUMPDEST DUP3 ADD SWAP2 SWAP1 PUSH1 0x0 MSTORE PUSH1 0x20 PUSH1 0x0 KECCAK256 SWAP1 JUMPDEST DUP2 SLOAD DUP2 MSTORE SWAP1 PUSH1 0x1 ADD SWAP1 PUSH1 0x20 ADD DUP1 DUP4 GT PUSH2 0xD98 JUMPI DUP3 SWAP1 SUB PUSH1 0x1F AND DUP3 ADD SWAP2 JUMPDEST POP POP POP POP POP DUP2 MSTORE PUSH1 0x20 ADD PUSH1 0x5 DUP3 ADD SLOAD DUP2 MSTORE PUSH1 0x20 ADD PUSH1 0x6 DUP3 ADD SLOAD DUP2 MSTORE PUSH1 0x20 ADD PUSH1 0x7 DUP3 ADD DUP1 SLOAD PUSH2 0xDE2 SWAP1 PUSH2 0x2CAD JUMP JUMPDEST DUP1 PUSH1 0x1F ADD PUSH1 0x20 DUP1 SWAP2 DIV MUL PUSH1 0x20 ADD PUSH1 0x40 MLOAD SWAP1 DUP2 ADD PUSH1 0x40 MSTORE DUP1 SWAP3 SWAP2 SWAP1 DUP2 DUP2 MSTORE PUSH1 0x20 ADD DUP3 DUP1 SLOAD PUSH2 0xE0E SWAP1 PUSH2 0x2CAD JUMP JUMPDEST DUP1 ISZERO PUSH2 0xE5B JUMPI DUP1 PUSH1 0x1F LT PUSH2 0xE30 JUMPI PUSH2 0x100 DUP1 DUP4 SLOAD DIV MUL DUP4 MSTORE SWAP2 PUSH1 0x20 ADD SWAP2 PUSH2 0xE5B JUMP JUMPDEST DUP3 ADD SWAP2 SWAP1 PUSH1 0x0 MSTORE PUSH1 0x20 PUSH1 0x0 KECCAK256 SWAP1 JUMPDEST DUP2 SLOAD DUP2 MSTORE SWAP1 PUSH1 0x1 ADD SWAP1 PUSH1 0x20 ADD DUP1 DUP4 GT PUSH2 0xE3E JUMPI DUP3 SWAP1 SUB PUSH1 0x1F AND DUP3 ADD SWAP2 JUMPDEST POP POP POP SWAP2 DUP4 MSTORE POP POP PUSH1 0x8 DUP3 ADD SLOAD PUSH1 0x20 SWAP1 SWAP2 ADD SWAP1 PUSH1 0xFF AND PUSH1 0x4 DUP2 GT ISZERO PUSH2 0xE82 JUMPI PUSH2 0xE82 PUSH2 0x298B JUMP JUMPDEST PUSH1 0x4 DUP2 GT ISZERO PUSH2 0xE93 JUMPI PUSH2 0xE93 PUSH2 0x298B JUMP JUMPDEST DUP2 MSTORE PUSH1 0x20 ADD PUSH1 0x9 DUP3 ADD DUP1 SLOAD DUP1 PUSH1 0x20 MUL PUSH1 0x20 ADD PUSH1 0x40 MLOAD SWAP1 DUP2 ADD PUSH1 0x40 MSTORE DUP1 SWAP3 SWAP2 SWAP1 DUP2 DUP2 MSTORE PUSH1 0x20 ADD DUP3 DUP1 SLOAD DUP1 ISZERO PUSH2 0xEE6 JUMPI PUSH1 0x20 MUL DUP3 ADD SWAP2 SWAP1 PUSH1 0x0 MSTORE PUSH1 0x20 PUSH1 0x0 KECCAK256 SWAP1 JUMPDEST DUP2 SLOAD DUP2 MSTORE PUSH1 0x20 ADD SWAP1 PUSH1 0x1 ADD SWAP1 DUP1 DUP4 GT PUSH2 0xED2 JUMPI JUMPDEST POP POP POP SWAP2 DUP4 MSTORE POP POP PUSH1 0xA DUP3 ADD SLOAD PUSH1 0x1 PUSH1 0x1 PUSH1 0xA0 SHL SUB AND PUSH1 0x20 DUP3 ADD MSTORE PUSH1 0xB DUP3 ADD DUP1 SLOAD PUSH1 0x40 SWAP1 SWAP3 ADD SWAP2 PUSH2 0xF16 SWAP1 PUSH2 0x2CAD JUMP JUMPDEST DUP1 PUSH1 0x1F ADD PUSH1 0x20 DUP1 SWAP2 DIV MUL PUSH1 0x20 ADD PUSH1 0x40 MLOAD SWAP1 DUP2 ADD PUSH1 0x40 MSTORE DUP1 SWAP3 SWAP2 SWAP1 DUP2 DUP2 MSTORE PUSH1 0x20 ADD DUP3 DUP1 SLOAD PUSH2 0xF42 SWAP1 PUSH2 0x2CAD JUMP JUMPDEST DUP1 ISZERO PUSH2 0xF8F JUMPI DUP1 PUSH1 0x1F LT PUSH2 0xF64 JUMPI PUSH2 0x100 DUP1 DUP4 SLOAD DIV MUL DUP4 MSTORE SWAP2 PUSH1 0x20 ADD SWAP2 PUSH2 0xF8F JUMP JUMPDEST DUP3 ADD SWAP2 SWAP1 PUSH1 0x0 MSTORE PUSH1 0x20 PUSH1 0x0 KECCAK256 SWAP1 JUMPDEST DUP2 SLOAD DUP2 MSTORE SWAP1 PUSH1 0x1 ADD SWAP1 PUSH1 0x20 ADD DUP1 DUP4 GT PUSH2 0xF72 JUMPI DUP3 SWAP1 SUB PUSH1 0x1F AND DUP3 ADD SWAP2 JUMPDEST POP POP POP POP POP DUP2 MSTORE POP POP SWAP1 POP SWAP2 SWAP1 POP JUMP JUMPDEST PUSH2 0xFA8 DUP3 PUSH2 0x1BEA JUMP JUMPDEST PUSH2 0xFC4 JUMPI PUSH1 0x40 MLOAD PUSH3 0x461BCD PUSH1 0xE5 SHL DUP2 MSTORE PUSH1 0x4 ADD PUSH2 0x44D SWAP1 PUSH2 0x2C66 JUMP JUMPDEST CALLER PUSH2 0xFCE DUP4 PUSH2 0x1158 JUMP JUMPDEST PUSH1 0x1 PUSH1 0x1 PUSH1 0xA0 SHL SUB AND EQ PUSH2 0xFF4 JUMPI PUSH1 0x40 MLOAD PUSH3 0x461BCD PUSH1 0xE5 SHL DUP2 MSTORE PUSH1 0x4 ADD PUSH2 0x44D SWAP1 PUSH2 0x2EFD JUMP JUMPDEST PUSH1 0x1 PUSH1 0x1 PUSH1 0xA0 SHL SUB DUP2 AND PUSH2 0x1046 JUMPI PUSH1 0x40 MLOAD PUSH3 0x461BCD PUSH1 0xE5 SHL DUP2 MSTORE PUSH1 0x20 PUSH1 0x4 DUP3 ADD MSTORE PUSH1 0x19 PUSH1 0x24 DUP3 ADD MSTORE PUSH25 0x496E76616C696420726563697069656E742061646472657373 PUSH1 0x38 SHL PUSH1 0x44 DUP3 ADD MSTORE PUSH1 0x64 ADD PUSH2 0x44D JUMP JUMPDEST PUSH1 0x0 DUP3 DUP2 MSTORE PUSH1 0xA PUSH1 0x20 MSTORE PUSH1 0x40 SWAP1 KECCAK256 PUSH1 0x1 PUSH1 0x8 DUP3 ADD SLOAD PUSH1 0xFF AND PUSH1 0x4 DUP2 GT ISZERO PUSH2 0x106F JUMPI PUSH2 0x106F PUSH2 0x298B JUMP JUMPDEST EQ DUP1 PUSH2 0x1093 JUMPI POP PUSH1 0x2 PUSH1 0x8 DUP3 ADD SLOAD PUSH1 0xFF AND PUSH1 0x4 DUP2 GT ISZERO PUSH2 0x1091 JUMPI PUSH2 0x1091 PUSH2 0x298B JUMP JUMPDEST EQ JUMPDEST PUSH2 0x10DF JUMPI PUSH1 0x40 MLOAD PUSH3 0x461BCD PUSH1 0xE5 SHL DUP2 MSTORE PUSH1 0x20 PUSH1 0x4 DUP3 ADD MSTORE PUSH1 0x1E PUSH1 0x24 DUP3 ADD MSTORE PUSH32 0x4261746368206E6F7420616374697665206F7220696E207472616E7369740000 PUSH1 0x44 DUP3 ADD MSTORE PUSH1 0x64 ADD PUSH2 0x44D JUMP JUMPDEST PUSH2 0x10EA CALLER DUP4 DUP6 PUSH2 0x1D8D JUMP JUMPDEST PUSH1 0x8 DUP2 ADD DUP1 SLOAD PUSH1 0xFF NOT AND PUSH1 0x3 OR SWAP1 SSTORE PUSH1 0xA DUP2 ADD DUP1 SLOAD PUSH1 0x1 PUSH1 0x1 PUSH1 0xA0 SHL SUB DUP5 AND PUSH1 0x1 PUSH1 0x1 PUSH1 0xA0 SHL SUB NOT SWAP1 SWAP2 AND DUP2 OR SWAP1 SWAP2 SSTORE PUSH1 0x40 DUP1 MLOAD DUP6 DUP2 MSTORE CALLER PUSH1 0x20 DUP3 ADD MSTORE SWAP1 DUP2 ADD SWAP2 SWAP1 SWAP2 MSTORE PUSH32 0xB9F31D1B8DB0327A09CDE76DE6662EE23A4ECD72FBB0411CDFA7969FED7ABE44 SWAP1 PUSH1 0x60 ADD PUSH2 0x58F JUMP JUMPDEST PUSH1 0x0 PUSH2 0x422 DUP3 PUSH2 0x1C07 JUMP JUMPDEST PUSH1 0x0 PUSH1 0x1 PUSH1 0x1 PUSH1 0xA0 SHL SUB DUP3 AND PUSH2 0x118F JUMPI PUSH1 0x0 PUSH1 0x40 MLOAD PUSH4 0x22718AD9 PUSH1 0xE2 SHL DUP2 MSTORE PUSH1 0x4 ADD PUSH2 0x44D SWAP2 SWAP1 PUSH2 0x2769 JUMP JUMPDEST POP PUSH1 0x1 PUSH1 0x1 PUSH1 0xA0 SHL SUB AND PUSH1 0x0 SWAP1 DUP2 MSTORE PUSH1 0x3 PUSH1 0x20 MSTORE PUSH1 0x40 SWAP1 KECCAK256 SLOAD SWAP1 JUMP JUMPDEST PUSH2 0x11B3 PUSH2 0x1C67 JUMP JUMPDEST PUSH2 0x11BD PUSH1 0x0 PUSH2 0x1E29 JUMP JUMPDEST JUMP JUMPDEST PUSH1 0x7 SLOAD PUSH1 0x1 PUSH1 0x1 PUSH1 0xA0 SHL SUB AND SWAP1 JUMP JUMPDEST PUSH1 0x60 PUSH1 0x1 DUP1 SLOAD PUSH2 0x5AB SWAP1 PUSH2 0x2CAD JUMP JUMPDEST PUSH2 0x64E CALLER DUP4 DUP4 PUSH2 0x1E7B JUMP JUMPDEST PUSH2 0x11F1 DUP2 PUSH2 0x1BEA JUMP JUMPDEST PUSH2 0x120D JUMPI PUSH1 0x40 MLOAD PUSH3 0x461BCD PUSH1 0xE5 SHL DUP2 MSTORE PUSH1 0x4 ADD PUSH2 0x44D SWAP1 PUSH2 0x2C66 JUMP JUMPDEST CALLER PUSH2 0x1217 DUP3 PUSH2 0x1158 JUMP JUMPDEST PUSH1 0x1 PUSH1 0x1 PUSH1 0xA0 SHL SUB AND EQ PUSH2 0x123D JUMPI PUSH1 0x40 MLOAD PUSH3 0x461BCD PUSH1 0xE5 SHL DUP2 MSTORE PUSH1 0x4 ADD PUSH2 0x44D SWAP1 PUSH2 0x2EFD JUMP JUMPDEST PUSH1 0x0 DUP2 DUP2 MSTORE PUSH1 0xA PUSH1 0x20 MSTORE PUSH1 0x40 SWAP1 KECCAK256 PUSH1 0x1 PUSH1 0x8 DUP3 ADD SLOAD PUSH1 0xFF AND PUSH1 0x4 DUP2 GT ISZERO PUSH2 0x1266 JUMPI PUSH2 0x1266 PUSH2 0x298B JUMP JUMPDEST EQ PUSH2 0x12A6 JUMPI PUSH1 0x40 MLOAD PUSH3 0x461BCD PUSH1 0xE5 SHL DUP2 MSTORE PUSH1 0x20 PUSH1 0x4 DUP3 ADD MSTORE PUSH1 0x10 PUSH1 0x24 DUP3 ADD MSTORE PUSH16 0x4261746368206E6F7420616374697665 PUSH1 0x80 SHL PUSH1 0x44 DUP3 ADD MSTORE PUSH1 0x64 ADD PUSH2 0x44D JUMP JUMPDEST PUSH1 0x8 ADD DUP1 SLOAD PUSH1 0xFF NOT AND PUSH1 0x2 OR SWAP1 SSTORE POP JUMP JUMPDEST PUSH2 0x12C2 DUP5 DUP5 DUP5 PUSH2 0x742 JUMP JUMPDEST PUSH2 0x7B3 CALLER DUP6 DUP6 DUP6 DUP6 PUSH2 0x1F11 JUMP JUMPDEST PUSH2 0x12D7 PUSH2 0x1C67 JUMP JUMPDEST PUSH1 0x1 PUSH1 0x1 PUSH1 0xA0 SHL SUB DUP2 AND PUSH1 0x0 SWAP1 DUP2 MSTORE PUSH1 0xC PUSH1 0x20 MSTORE PUSH1 0x40 SWAP1 KECCAK256 SLOAD PUSH1 0xFF AND PUSH2 0x133C JUMPI PUSH1 0x40 MLOAD PUSH3 0x461BCD PUSH1 0xE5 SHL DUP2 MSTORE PUSH1 0x20 PUSH1 0x4 DUP3 ADD MSTORE PUSH1 0x1A PUSH1 0x24 DUP3 ADD MSTORE PUSH26 0x2737BA1030B71030BABA3437B934BD32B2103B32B934B334B2B9 PUSH1 0x31 SHL PUSH1 0x44 DUP3 ADD MSTORE PUSH1 0x64 ADD PUSH2 0x44D JUMP JUMPDEST PUSH1 0x1 PUSH1 0x1 PUSH1 0xA0 SHL SUB DUP2 AND PUSH1 0x0 SWAP1 DUP2 MSTORE PUSH1 0xC PUSH1 0x20 MSTORE PUSH1 0x40 SWAP1 DUP2 SWAP1 KECCAK256 DUP1 SLOAD PUSH1 0xFF NOT AND SWAP1 SSTORE MLOAD PUSH32 0xB48D1366D07D4AFDD2B73CBB6F7C9C23D71C2C9478252D6B97492DFD3819E7C7 SWAP1 PUSH2 0x737 SWAP1 DUP4 SWAP1 PUSH2 0x2769 JUMP JUMPDEST PUSH1 0x60 PUSH2 0x1397 DUP3 PUSH2 0x1C07 JUMP JUMPDEST POP PUSH1 0x0 DUP3 DUP2 MSTORE PUSH1 0x6 PUSH1 0x20 MSTORE PUSH1 0x40 DUP2 KECCAK256 DUP1 SLOAD PUSH2 0x13B1 SWAP1 PUSH2 0x2CAD JUMP JUMPDEST DUP1 PUSH1 0x1F ADD PUSH1 0x20 DUP1 SWAP2 DIV MUL PUSH1 0x20 ADD PUSH1 0x40 MLOAD SWAP1 DUP2 ADD PUSH1 0x40 MSTORE DUP1 SWAP3 SWAP2 SWAP1 DUP2 DUP2 MSTORE PUSH1 0x20 ADD DUP3 DUP1 SLOAD PUSH2 0x13DD SWAP1 PUSH2 0x2CAD JUMP JUMPDEST DUP1 ISZERO PUSH2 0x142A JUMPI DUP1 PUSH1 0x1F LT PUSH2 0x13FF JUMPI PUSH2 0x100 DUP1 DUP4 SLOAD DIV MUL DUP4 MSTORE SWAP2 PUSH1 0x20 ADD SWAP2 PUSH2 0x142A JUMP JUMPDEST DUP3 ADD SWAP2 SWAP1 PUSH1 0x0 MSTORE PUSH1 0x20 PUSH1 0x0 KECCAK256 SWAP1 JUMPDEST DUP2 SLOAD DUP2 MSTORE SWAP1 PUSH1 0x1 ADD SWAP1 PUSH1 0x20 ADD DUP1 DUP4 GT PUSH2 0x140D JUMPI DUP3 SWAP1 SUB PUSH1 0x1F AND DUP3 ADD SWAP2 JUMPDEST POP POP POP POP POP SWAP1 POP PUSH1 0x0 PUSH2 0x1448 PUSH1 0x40 DUP1 MLOAD PUSH1 0x20 DUP2 ADD SWAP1 SWAP2 MSTORE PUSH1 0x0 DUP2 MSTORE SWAP1 JUMP JUMPDEST SWAP1 POP DUP1 MLOAD PUSH1 0x0 SUB PUSH2 0x145A JUMPI POP SWAP3 SWAP2 POP POP JUMP JUMPDEST DUP2 MLOAD ISZERO PUSH2 0x148C JUMPI DUP1 DUP3 PUSH1 0x40 MLOAD PUSH1 0x20 ADD PUSH2 0x1474 SWAP3 SWAP2 SWAP1 PUSH2 0x2F31 JUMP JUMPDEST PUSH1 0x40 MLOAD PUSH1 0x20 DUP2 DUP4 SUB SUB DUP2 MSTORE SWAP1 PUSH1 0x40 MSTORE SWAP3 POP POP POP SWAP2 SWAP1 POP JUMP JUMPDEST PUSH2 0x1495 DUP5 PUSH2 0x202A JUMP JUMPDEST SWAP5 SWAP4 POP POP POP POP JUMP JUMPDEST CALLER PUSH1 0x0 SWAP1 DUP2 MSTORE PUSH1 0xC PUSH1 0x20 MSTORE PUSH1 0x40 SWAP1 KECCAK256 SLOAD PUSH1 0x60 SWAP1 PUSH1 0xFF AND PUSH2 0x14CF JUMPI PUSH1 0x40 MLOAD PUSH3 0x461BCD PUSH1 0xE5 SHL DUP2 MSTORE PUSH1 0x4 ADD PUSH2 0x44D SWAP1 PUSH2 0x2F60 JUMP JUMPDEST PUSH1 0x0 PUSH1 0x1 JUMPDEST PUSH1 0x8 SLOAD DUP2 LT ISZERO PUSH2 0x150B JUMPI PUSH1 0x0 DUP2 DUP2 MSTORE PUSH1 0xD PUSH1 0x20 MSTORE PUSH1 0x40 SWAP1 KECCAK256 SLOAD PUSH1 0xFF AND ISZERO PUSH2 0x1503 JUMPI DUP2 PUSH2 0x14FF DUP2 PUSH2 0x2DA0 JUMP JUMPDEST SWAP3 POP POP JUMPDEST PUSH1 0x1 ADD PUSH2 0x14D4 JUMP JUMPDEST POP PUSH1 0x0 DUP2 PUSH1 0x1 PUSH1 0x1 PUSH1 0x40 SHL SUB DUP2 GT ISZERO PUSH2 0x1526 JUMPI PUSH2 0x1526 PUSH2 0x25D9 JUMP JUMPDEST PUSH1 0x40 MLOAD SWAP1 DUP1 DUP3 MSTORE DUP1 PUSH1 0x20 MUL PUSH1 0x20 ADD DUP3 ADD PUSH1 0x40 MSTORE DUP1 ISZERO PUSH2 0x154F JUMPI DUP2 PUSH1 0x20 ADD PUSH1 0x20 DUP3 MUL DUP1 CALLDATASIZE DUP4 CALLDATACOPY ADD SWAP1 POP JUMPDEST POP SWAP1 POP PUSH1 0x0 PUSH1 0x1 JUMPDEST PUSH1 0x8 SLOAD DUP2 LT ISZERO PUSH2 0x15AC JUMPI PUSH1 0x0 DUP2 DUP2 MSTORE PUSH1 0xD PUSH1 0x20 MSTORE PUSH1 0x40 SWAP1 KECCAK256 SLOAD PUSH1 0xFF AND ISZERO PUSH2 0x15A4 JUMPI DUP1 DUP4 DUP4 DUP2 MLOAD DUP2 LT PUSH2 0x158B JUMPI PUSH2 0x158B PUSH2 0x2D36 JUMP JUMPDEST PUSH1 0x20 SWAP1 DUP2 MUL SWAP2 SWAP1 SWAP2 ADD ADD MSTORE DUP2 PUSH2 0x15A0 DUP2 PUSH2 0x2DA0 JUMP JUMPDEST SWAP3 POP POP JUMPDEST PUSH1 0x1 ADD PUSH2 0x1557 JUMP JUMPDEST POP SWAP1 SWAP3 POP POP POP SWAP1 JUMP JUMPDEST CALLER PUSH1 0x0 SWAP1 DUP2 MSTORE PUSH1 0xC PUSH1 0x20 MSTORE PUSH1 0x40 SWAP1 KECCAK256 SLOAD PUSH1 0xFF AND PUSH2 0x15E4 JUMPI PUSH1 0x40 MLOAD PUSH3 0x461BCD PUSH1 0xE5 SHL DUP2 MSTORE PUSH1 0x4 ADD PUSH2 0x44D SWAP1 PUSH2 0x2F60 JUMP JUMPDEST PUSH1 0x0 DUP2 DUP2 MSTORE PUSH1 0xD PUSH1 0x20 MSTORE PUSH1 0x40 SWAP1 KECCAK256 SLOAD PUSH1 0xFF AND PUSH2 0x1642 JUMPI PUSH1 0x40 MLOAD PUSH3 0x461BCD PUSH1 0xE5 SHL DUP2 MSTORE PUSH1 0x20 PUSH1 0x4 DUP3 ADD MSTORE PUSH1 0x1E PUSH1 0x24 DUP3 ADD MSTORE PUSH32 0x4261746368206E6F742070656E64696E6720766572696669636174696F6E0000 PUSH1 0x44 DUP3 ADD MSTORE PUSH1 0x64 ADD PUSH2 0x44D JUMP JUMPDEST PUSH1 0x0 DUP2 DUP2 MSTORE PUSH1 0xA PUSH1 0x20 MSTORE PUSH1 0x40 SWAP1 KECCAK256 PUSH1 0x1 DUP2 ADD SLOAD PUSH2 0x1668 SWAP1 PUSH1 0x1 PUSH1 0x1 PUSH1 0xA0 SHL SUB AND DUP4 PUSH2 0x209F JUMP JUMPDEST PUSH2 0x16FE DUP3 DUP3 PUSH1 0xB ADD DUP1 SLOAD PUSH2 0x167B SWAP1 PUSH2 0x2CAD JUMP JUMPDEST DUP1 PUSH1 0x1F ADD PUSH1 0x20 DUP1 SWAP2 DIV MUL PUSH1 0x20 ADD PUSH1 0x40 MLOAD SWAP1 DUP2 ADD PUSH1 0x40 MSTORE DUP1 SWAP3 SWAP2 SWAP1 DUP2 DUP2 MSTORE PUSH1 0x20 ADD DUP3 DUP1 SLOAD PUSH2 0x16A7 SWAP1 PUSH2 0x2CAD JUMP JUMPDEST DUP1 ISZERO PUSH2 0x16F4 JUMPI DUP1 PUSH1 0x1F LT PUSH2 0x16C9 JUMPI PUSH2 0x100 DUP1 DUP4 SLOAD DIV MUL DUP4 MSTORE SWAP2 PUSH1 0x20 ADD SWAP2 PUSH2 0x16F4 JUMP JUMPDEST DUP3 ADD SWAP2 SWAP1 PUSH1 0x0 MSTORE PUSH1 0x20 PUSH1 0x0 KECCAK256 SWAP1 JUMPDEST DUP2 SLOAD DUP2 MSTORE SWAP1 PUSH1 0x1 ADD SWAP1 PUSH1 0x20 ADD DUP1 DUP4 GT PUSH2 0x16D7 JUMPI DUP3 SWAP1 SUB PUSH1 0x1F AND DUP3 ADD SWAP2 JUMPDEST POP POP POP POP POP PUSH2 0x2104 JUMP JUMPDEST PUSH1 0x8 DUP2 ADD DUP1 SLOAD PUSH1 0xFF NOT SWAP1 DUP2 AND PUSH1 0x1 OR SWAP1 SWAP2 SSTORE PUSH1 0x0 DUP4 DUP2 MSTORE PUSH1 0xD PUSH1 0x20 SWAP1 DUP2 MSTORE PUSH1 0x40 SWAP2 DUP3 SWAP1 KECCAK256 DUP1 SLOAD SWAP1 SWAP4 AND SWAP1 SWAP3 SSTORE DUP1 MLOAD DUP5 DUP2 MSTORE CALLER SWAP3 DUP2 ADD SWAP3 SWAP1 SWAP3 MSTORE PUSH32 0x5E4F9A3D8E8D8FC42BBE98104B324B50682AE0E3F892F0294DD16A226D48C21C SWAP2 ADD JUMPDEST PUSH1 0x40 MLOAD DUP1 SWAP2 SUB SWAP1 LOG1 POP POP JUMP JUMPDEST PUSH1 0x1 PUSH1 0x1 PUSH1 0xA0 SHL SUB SWAP2 DUP3 AND PUSH1 0x0 SWAP1 DUP2 MSTORE PUSH1 0x5 PUSH1 0x20 SWAP1 DUP2 MSTORE PUSH1 0x40 DUP1 DUP4 KECCAK256 SWAP4 SWAP1 SWAP5 AND DUP3 MSTORE SWAP2 SWAP1 SWAP2 MSTORE KECCAK256 SLOAD PUSH1 0xFF AND SWAP1 JUMP JUMPDEST PUSH2 0x179D PUSH2 0x1C67 JUMP JUMPDEST PUSH1 0x1 PUSH1 0x1 PUSH1 0xA0 SHL SUB DUP2 AND PUSH2 0x17C7 JUMPI PUSH1 0x0 PUSH1 0x40 MLOAD PUSH4 0x1E4FBDF7 PUSH1 0xE0 SHL DUP2 MSTORE PUSH1 0x4 ADD PUSH2 0x44D SWAP2 SWAP1 PUSH2 0x2769 JUMP JUMPDEST PUSH2 0x17D0 DUP2 PUSH2 0x1E29 JUMP JUMPDEST POP JUMP JUMPDEST PUSH2 0x17DC DUP3 PUSH2 0x1BEA JUMP JUMPDEST PUSH2 0x17F8 JUMPI PUSH1 0x40 MLOAD PUSH3 0x461BCD PUSH1 0xE5 SHL DUP2 MSTORE PUSH1 0x4 ADD PUSH2 0x44D SWAP1 PUSH2 0x2C66 JUMP JUMPDEST PUSH1 0x0 DUP3 DUP2 MSTORE PUSH1 0xA PUSH1 0x20 MSTORE PUSH1 0x40 SWAP1 KECCAK256 PUSH1 0x1 DUP2 ADD SLOAD PUSH1 0x1 PUSH1 0x1 PUSH1 0xA0 SHL SUB AND CALLER EQ DUP1 PUSH2 0x182D JUMPI POP PUSH1 0xA DUP2 ADD SLOAD PUSH1 0x1 PUSH1 0x1 PUSH1 0xA0 SHL SUB AND CALLER EQ JUMPDEST PUSH2 0x1884 JUMPI PUSH1 0x40 MLOAD PUSH3 0x461BCD PUSH1 0xE5 SHL DUP2 MSTORE PUSH1 0x20 PUSH1 0x4 DUP3 ADD MSTORE PUSH1 0x22 PUSH1 0x24 DUP3 ADD MSTORE PUSH32 0x4E6F7420617574686F72697A656420746F206C696E6B20636572746966696361 PUSH1 0x44 DUP3 ADD MSTORE PUSH2 0x7465 PUSH1 0xF0 SHL PUSH1 0x64 DUP3 ADD MSTORE PUSH1 0x84 ADD PUSH2 0x44D JUMP JUMPDEST PUSH1 0x9 SLOAD PUSH1 0x40 MLOAD PUSH3 0xF577A5 PUSH1 0xE8 SHL DUP2 MSTORE PUSH1 0x4 DUP2 ADD DUP5 SWAP1 MSTORE PUSH1 0x1 PUSH1 0x1 PUSH1 0xA0 SHL SUB SWAP1 SWAP2 AND SWAP1 PUSH4 0xF577A500 SWAP1 PUSH1 0x24 ADD PUSH1 0x20 PUSH1 0x40 MLOAD DUP1 DUP4 SUB DUP2 DUP7 GAS STATICCALL ISZERO DUP1 ISZERO PUSH2 0x18CC JUMPI RETURNDATASIZE PUSH1 0x0 DUP1 RETURNDATACOPY RETURNDATASIZE PUSH1 0x0 REVERT JUMPDEST POP POP POP POP PUSH1 0x40 MLOAD RETURNDATASIZE PUSH1 0x1F NOT PUSH1 0x1F DUP3 ADD AND DUP3 ADD DUP1 PUSH1 0x40 MSTORE POP DUP2 ADD SWAP1 PUSH2 0x18F0 SWAP2 SWAP1 PUSH2 0x2D4C JUMP JUMPDEST PUSH2 0x190C JUMPI PUSH1 0x40 MLOAD PUSH3 0x461BCD PUSH1 0xE5 SHL DUP2 MSTORE PUSH1 0x4 ADD PUSH2 0x44D SWAP1 PUSH2 0x2D69 JUMP JUMPDEST PUSH1 0x0 DUP1 JUMPDEST PUSH1 0x9 DUP4 ADD SLOAD DUP2 LT ISZERO PUSH2 0x1953 JUMPI DUP4 DUP4 PUSH1 0x9 ADD DUP3 DUP2 SLOAD DUP2 LT PUSH2 0x1932 JUMPI PUSH2 0x1932 PUSH2 0x2D36 JUMP JUMPDEST SWAP1 PUSH1 0x0 MSTORE PUSH1 0x20 PUSH1 0x0 KECCAK256 ADD SLOAD SUB PUSH2 0x194B JUMPI PUSH1 0x1 SWAP2 POP PUSH2 0x1953 JUMP JUMPDEST PUSH1 0x1 ADD PUSH2 0x1910 JUMP JUMPDEST POP DUP1 ISZERO PUSH2 0x199F JUMPI PUSH1 0x40 MLOAD PUSH3 0x461BCD PUSH1 0xE5 SHL DUP2 MSTORE PUSH1 0x20 PUSH1 0x4 DUP3 ADD MSTORE PUSH1 0x1A PUSH1 0x24 DUP3 ADD MSTORE PUSH26 0x10D95C9D1A599A58D85D1948185B1C9958591E481B1A5B9AD959 PUSH1 0x32 SHL PUSH1 0x44 DUP3 ADD MSTORE PUSH1 0x64 ADD PUSH2 0x44D JUMP JUMPDEST PUSH1 0x9 DUP3 ADD DUP1 SLOAD PUSH1 0x1 DUP2 ADD DUP3 SSTORE PUSH1 0x0 SWAP2 DUP3 MSTORE PUSH1 0x20 SWAP2 DUP3 SWAP1 KECCAK256 ADD DUP5 SWAP1 SSTORE PUSH1 0x40 DUP1 MLOAD DUP7 DUP2 MSTORE SWAP2 DUP3 ADD DUP6 SWAP1 MSTORE PUSH32 0x870AA9A0CCE7D456ADBC65186945FCD60BF61AA63807273DF4BDF886FBD4576 SWAP2 ADD PUSH1 0x40 MLOAD DUP1 SWAP2 SUB SWAP1 LOG1 POP POP POP POP JUMP JUMPDEST PUSH2 0x1A00 PUSH2 0x1C67 JUMP JUMPDEST PUSH1 0x1 PUSH1 0x1 PUSH1 0xA0 SHL SUB DUP2 AND PUSH2 0x1A51 JUMPI PUSH1 0x40 MLOAD PUSH3 0x461BCD PUSH1 0xE5 SHL DUP2 MSTORE PUSH1 0x20 PUSH1 0x4 DUP3 ADD MSTORE PUSH1 0x18 PUSH1 0x24 DUP3 ADD MSTORE PUSH24 0x496E76616C69642070726F64756365722061646472657373 PUSH1 0x40 SHL PUSH1 0x44 DUP3 ADD MSTORE PUSH1 0x64 ADD PUSH2 0x44D JUMP JUMPDEST PUSH1 0x1 PUSH1 0x1 PUSH1 0xA0 SHL SUB DUP2 AND PUSH1 0x0 SWAP1 DUP2 MSTORE PUSH1 0xB PUSH1 0x20 MSTORE PUSH1 0x40 SWAP1 KECCAK256 SLOAD PUSH1 0xFF AND ISZERO PUSH2 0x1A8A JUMPI PUSH1 0x40 MLOAD PUSH3 0x461BCD PUSH1 0xE5 SHL DUP2 MSTORE PUSH1 0x4 ADD PUSH2 0x44D SWAP1 PUSH2 0x2CE7 JUMP JUMPDEST PUSH1 0x1 PUSH1 0x1 PUSH1 0xA0 SHL SUB DUP2 AND PUSH1 0x0 SWAP1 DUP2 MSTORE PUSH1 0xB PUSH1 0x20 MSTORE PUSH1 0x40 SWAP1 DUP2 SWAP1 KECCAK256 DUP1 SLOAD PUSH1 0xFF NOT AND PUSH1 0x1 OR SWAP1 SSTORE MLOAD PUSH32 0xA09C6DF0C632A53152BCDBF11806EFA608C66C3EB90020AB6F6A3C0FA10A65A6 SWAP1 PUSH2 0x737 SWAP1 DUP4 SWAP1 PUSH2 0x2769 JUMP JUMPDEST PUSH2 0x1AE5 PUSH2 0x1C67 JUMP JUMPDEST PUSH1 0x1 PUSH1 0x1 PUSH1 0xA0 SHL SUB DUP2 AND PUSH1 0x0 SWAP1 DUP2 MSTORE PUSH1 0xB PUSH1 0x20 MSTORE PUSH1 0x40 SWAP1 KECCAK256 SLOAD PUSH1 0xFF AND PUSH2 0x1B4A JUMPI PUSH1 0x40 MLOAD PUSH3 0x461BCD PUSH1 0xE5 SHL DUP2 MSTORE PUSH1 0x20 PUSH1 0x4 DUP3 ADD MSTORE PUSH1 0x1A PUSH1 0x24 DUP3 ADD MSTORE PUSH26 0x2737BA1030B71030BABA3437B934BD32B210383937B23AB1B2B9 PUSH1 0x31 SHL PUSH1 0x44 DUP3 ADD MSTORE PUSH1 0x64 ADD PUSH2 0x44D JUMP JUMPDEST PUSH1 0x1 PUSH1 0x1 PUSH1 0xA0 SHL SUB DUP2 AND PUSH1 0x0 SWAP1 DUP2 MSTORE PUSH1 0xB PUSH1 0x20 MSTORE PUSH1 0x40 SWAP1 DUP2 SWAP1 KECCAK256 DUP1 SLOAD PUSH1 0xFF NOT AND SWAP1 SSTORE MLOAD PUSH32 0x290F04B7D7EE3D8E9C131AE3E752B8C881C7155098267E78BFF5F3C88F2F0587 SWAP1 PUSH2 0x737 SWAP1 DUP4 SWAP1 PUSH2 0x2769 JUMP JUMPDEST PUSH1 0x0 PUSH1 0x1 PUSH1 0x1 PUSH1 0xE0 SHL SUB NOT DUP3 AND PUSH4 0x80AC58CD PUSH1 0xE0 SHL EQ DUP1 PUSH2 0x1BCB JUMPI POP PUSH1 0x1 PUSH1 0x1 PUSH1 0xE0 SHL SUB NOT DUP3 AND PUSH4 0x5B5E139F PUSH1 0xE0 SHL EQ JUMPDEST DUP1 PUSH2 0x422 JUMPI POP PUSH4 0x1FFC9A7 PUSH1 0xE0 SHL PUSH1 0x1 PUSH1 0x1 PUSH1 0xE0 SHL SUB NOT DUP4 AND EQ PUSH2 0x422 JUMP JUMPDEST PUSH1 0x0 DUP1 PUSH2 0x1BF6 DUP4 PUSH2 0x214D JUMP JUMPDEST PUSH1 0x1 PUSH1 0x1 PUSH1 0xA0 SHL SUB AND EQ ISZERO SWAP3 SWAP2 POP POP JUMP JUMPDEST PUSH1 0x0 DUP1 PUSH2 0x1C13 DUP4 PUSH2 0x214D JUMP JUMPDEST SWAP1 POP PUSH1 0x1 PUSH1 0x1 PUSH1 0xA0 SHL SUB DUP2 AND PUSH2 0x422 JUMPI PUSH1 0x40 MLOAD PUSH4 0x7E273289 PUSH1 0xE0 SHL DUP2 MSTORE PUSH1 0x4 DUP2 ADD DUP5 SWAP1 MSTORE PUSH1 0x24 ADD PUSH2 0x44D JUMP JUMPDEST PUSH1 0x0 SWAP1 DUP2 MSTORE PUSH1 0x4 PUSH1 0x20 MSTORE PUSH1 0x40 SWAP1 KECCAK256 SLOAD PUSH1 0x1 PUSH1 0x1 PUSH1 0xA0 SHL SUB AND SWAP1 JUMP JUMPDEST PUSH2 0x7D4 DUP4 DUP4 DUP4 PUSH1 0x1 PUSH2 0x2168 JUMP JUMPDEST CALLER PUSH2 0x1C70 PUSH2 0x11BF JUMP JUMPDEST PUSH1 0x1 PUSH1 0x1 PUSH1 0xA0 SHL SUB AND EQ PUSH2 0x11BD JUMPI CALLER PUSH1 0x40 MLOAD PUSH4 0x118CDAA7 PUSH1 0xE0 SHL DUP2 MSTORE PUSH1 0x4 ADD PUSH2 0x44D SWAP2 SWAP1 PUSH2 0x2769 JUMP JUMPDEST PUSH1 0x0 DUP1 PUSH2 0x1CA5 DUP5 PUSH2 0x214D JUMP JUMPDEST SWAP1 POP PUSH1 0x1 PUSH1 0x1 PUSH1 0xA0 SHL SUB DUP4 AND ISZERO PUSH2 0x1CC1 JUMPI PUSH2 0x1CC1 DUP2 DUP5 DUP7 PUSH2 0x2265 JUMP JUMPDEST PUSH1 0x1 PUSH1 0x1 PUSH1 0xA0 SHL SUB DUP2 AND ISZERO PUSH2 0x1CFF JUMPI PUSH2 0x1CDE PUSH1 0x0 DUP6 PUSH1 0x0 DUP1 PUSH2 0x2168 JUMP JUMPDEST PUSH1 0x1 PUSH1 0x1 PUSH1 0xA0 SHL SUB DUP2 AND PUSH1 0x0 SWAP1 DUP2 MSTORE PUSH1 0x3 PUSH1 0x20 MSTORE PUSH1 0x40 SWAP1 KECCAK256 DUP1 SLOAD PUSH1 0x0 NOT ADD SWAP1 SSTORE JUMPDEST PUSH1 0x1 PUSH1 0x1 PUSH1 0xA0 SHL SUB DUP6 AND ISZERO PUSH2 0x1D2E JUMPI PUSH1 0x1 PUSH1 0x1 PUSH1 0xA0 SHL SUB DUP6 AND PUSH1 0x0 SWAP1 DUP2 MSTORE PUSH1 0x3 PUSH1 0x20 MSTORE PUSH1 0x40 SWAP1 KECCAK256 DUP1 SLOAD PUSH1 0x1 ADD SWAP1 SSTORE JUMPDEST PUSH1 0x0 DUP5 DUP2 MSTORE PUSH1 0x2 PUSH1 0x20 MSTORE PUSH1 0x40 DUP1 DUP3 KECCAK256 DUP1 SLOAD PUSH1 0x1 PUSH1 0x1 PUSH1 0xA0 SHL SUB NOT AND PUSH1 0x1 PUSH1 0x1 PUSH1 0xA0 SHL SUB DUP10 DUP2 AND SWAP2 DUP3 OR SWAP1 SWAP3 SSTORE SWAP2 MLOAD DUP8 SWAP4 SWAP2 DUP6 AND SWAP2 PUSH32 0xDDF252AD1BE2C89B69C2B068FC378DAA952BA7F163C4A11628F55A4DF523B3EF SWAP2 LOG4 SWAP5 SWAP4 POP POP POP POP JUMP JUMPDEST PUSH1 0x1 PUSH1 0x1 PUSH1 0xA0 SHL SUB DUP3 AND PUSH2 0x1DB7 JUMPI PUSH1 0x0 PUSH1 0x40 MLOAD PUSH4 0x32505749 PUSH1 0xE1 SHL DUP2 MSTORE PUSH1 0x4 ADD PUSH2 0x44D SWAP2 SWAP1 PUSH2 0x2769 JUMP JUMPDEST PUSH1 0x0 PUSH2 0x1DC5 DUP4 DUP4 PUSH1 0x0 PUSH2 0x1C99 JUMP JUMPDEST SWAP1 POP PUSH1 0x1 PUSH1 0x1 PUSH1 0xA0 SHL SUB DUP2 AND PUSH2 0x1DF1 JUMPI PUSH1 0x40 MLOAD PUSH4 0x7E273289 PUSH1 0xE0 SHL DUP2 MSTORE PUSH1 0x4 DUP2 ADD DUP4 SWAP1 MSTORE PUSH1 0x24 ADD PUSH2 0x44D JUMP JUMPDEST DUP4 PUSH1 0x1 PUSH1 0x1 PUSH1 0xA0 SHL SUB AND DUP2 PUSH1 0x1 PUSH1 0x1 PUSH1 0xA0 SHL SUB AND EQ PUSH2 0x7B3 JUMPI DUP4 DUP3 DUP3 PUSH1 0x40 MLOAD PUSH4 0x64283D7B PUSH1 0xE0 SHL DUP2 MSTORE PUSH1 0x4 ADD PUSH2 0x44D SWAP4 SWAP3 SWAP2 SWAP1 PUSH2 0x2D13 JUMP JUMPDEST PUSH1 0x7 DUP1 SLOAD PUSH1 0x1 PUSH1 0x1 PUSH1 0xA0 SHL SUB DUP4 DUP2 AND PUSH1 0x1 PUSH1 0x1 PUSH1 0xA0 SHL SUB NOT DUP4 AND DUP2 OR SWAP1 SWAP4 SSTORE PUSH1 0x40 MLOAD SWAP2 AND SWAP2 SWAP1 DUP3 SWAP1 PUSH32 0x8BE0079C531659141344CD1FD0A4F28419497F9722A3DAAFE3B4186F6B6457E0 SWAP1 PUSH1 0x0 SWAP1 LOG3 POP POP JUMP JUMPDEST PUSH1 0x1 PUSH1 0x1 PUSH1 0xA0 SHL SUB DUP3 AND PUSH2 0x1EA4 JUMPI DUP2 PUSH1 0x40 MLOAD PUSH4 0xB611743 PUSH1 0xE3 SHL DUP2 MSTORE PUSH1 0x4 ADD PUSH2 0x44D SWAP2 SWAP1 PUSH2 0x2769 JUMP JUMPDEST PUSH1 0x1 PUSH1 0x1 PUSH1 0xA0 SHL SUB DUP4 DUP2 AND PUSH1 0x0 DUP2 DUP2 MSTORE PUSH1 0x5 PUSH1 0x20 SWAP1 DUP2 MSTORE PUSH1 0x40 DUP1 DUP4 KECCAK256 SWAP5 DUP8 AND DUP1 DUP5 MSTORE SWAP5 DUP3 MSTORE SWAP2 DUP3 SWAP1 KECCAK256 DUP1 SLOAD PUSH1 0xFF NOT AND DUP7 ISZERO ISZERO SWAP1 DUP2 OR SWAP1 SWAP2 SSTORE SWAP2 MLOAD SWAP2 DUP3 MSTORE PUSH32 0x17307EAB39AB6107E8899845AD3D59BD9653F200F220920489CA2B5937696C31 SWAP2 ADD PUSH1 0x40 MLOAD DUP1 SWAP2 SUB SWAP1 LOG3 POP POP POP JUMP JUMPDEST PUSH1 0x1 PUSH1 0x1 PUSH1 0xA0 SHL SUB DUP4 AND EXTCODESIZE ISZERO PUSH2 0x2023 JUMPI PUSH1 0x40 MLOAD PUSH4 0xA85BD01 PUSH1 0xE1 SHL DUP2 MSTORE PUSH1 0x1 PUSH1 0x1 PUSH1 0xA0 SHL SUB DUP5 AND SWAP1 PUSH4 0x150B7A02 SWAP1 PUSH2 0x1F53 SWAP1 DUP9 SWAP1 DUP9 SWAP1 DUP8 SWAP1 DUP8 SWAP1 PUSH1 0x4 ADD PUSH2 0x2F94 JUMP JUMPDEST PUSH1 0x20 PUSH1 0x40 MLOAD DUP1 DUP4 SUB DUP2 PUSH1 0x0 DUP8 GAS CALL SWAP3 POP POP POP DUP1 ISZERO PUSH2 0x1F8E JUMPI POP PUSH1 0x40 DUP1 MLOAD PUSH1 0x1F RETURNDATASIZE SWAP1 DUP2 ADD PUSH1 0x1F NOT AND DUP3 ADD SWAP1 SWAP3 MSTORE PUSH2 0x1F8B SWAP2 DUP2 ADD SWAP1 PUSH2 0x2FC7 JUMP JUMPDEST PUSH1 0x1 JUMPDEST PUSH2 0x1FEE JUMPI RETURNDATASIZE DUP1 DUP1 ISZERO PUSH2 0x1FBC JUMPI PUSH1 0x40 MLOAD SWAP2 POP PUSH1 0x1F NOT PUSH1 0x3F RETURNDATASIZE ADD AND DUP3 ADD PUSH1 0x40 MSTORE RETURNDATASIZE DUP3 MSTORE RETURNDATASIZE PUSH1 0x0 PUSH1 0x20 DUP5 ADD RETURNDATACOPY PUSH2 0x1FC1 JUMP JUMPDEST PUSH1 0x60 SWAP2 POP JUMPDEST POP DUP1 MLOAD PUSH1 0x0 SUB PUSH2 0x1FE6 JUMPI DUP4 PUSH1 0x40 MLOAD PUSH4 0x32505749 PUSH1 0xE1 SHL DUP2 MSTORE PUSH1 0x4 ADD PUSH2 0x44D SWAP2 SWAP1 PUSH2 0x2769 JUMP JUMPDEST DUP1 MLOAD DUP2 PUSH1 0x20 ADD REVERT JUMPDEST PUSH1 0x1 PUSH1 0x1 PUSH1 0xE0 SHL SUB NOT DUP2 AND PUSH4 0xA85BD01 PUSH1 0xE1 SHL EQ PUSH2 0x2021 JUMPI DUP4 PUSH1 0x40 MLOAD PUSH4 0x32505749 PUSH1 0xE1 SHL DUP2 MSTORE PUSH1 0x4 ADD PUSH2 0x44D SWAP2 SWAP1 PUSH2 0x2769 JUMP JUMPDEST POP JUMPDEST POP POP POP POP POP JUMP JUMPDEST PUSH1 0x60 PUSH2 0x2035 DUP3 PUSH2 0x1C07 JUMP JUMPDEST POP PUSH1 0x0 PUSH2 0x204D PUSH1 0x40 DUP1 MLOAD PUSH1 0x20 DUP2 ADD SWAP1 SWAP2 MSTORE PUSH1 0x0 DUP2 MSTORE SWAP1 JUMP JUMPDEST SWAP1 POP PUSH1 0x0 DUP2 MLOAD GT PUSH2 0x206D JUMPI PUSH1 0x40 MLOAD DUP1 PUSH1 0x20 ADD PUSH1 0x40 MSTORE DUP1 PUSH1 0x0 DUP2 MSTORE POP PUSH2 0x2098 JUMP JUMPDEST DUP1 PUSH2 0x2077 DUP5 PUSH2 0x22C9 JUMP JUMPDEST PUSH1 0x40 MLOAD PUSH1 0x20 ADD PUSH2 0x2088 SWAP3 SWAP2 SWAP1 PUSH2 0x2F31 JUMP JUMPDEST PUSH1 0x40 MLOAD PUSH1 0x20 DUP2 DUP4 SUB SUB DUP2 MSTORE SWAP1 PUSH1 0x40 MSTORE JUMPDEST SWAP4 SWAP3 POP POP POP JUMP JUMPDEST PUSH1 0x1 PUSH1 0x1 PUSH1 0xA0 SHL SUB DUP3 AND PUSH2 0x20C9 JUMPI PUSH1 0x0 PUSH1 0x40 MLOAD PUSH4 0x32505749 PUSH1 0xE1 SHL DUP2 MSTORE PUSH1 0x4 ADD PUSH2 0x44D SWAP2 SWAP1 PUSH2 0x2769 JUMP JUMPDEST PUSH1 0x0 PUSH2 0x20D7 DUP4 DUP4 PUSH1 0x0 PUSH2 0x1C99 JUMP JUMPDEST SWAP1 POP PUSH1 0x1 PUSH1 0x1 PUSH1 0xA0 SHL SUB DUP2 AND ISZERO PUSH2 0x7D4 JUMPI PUSH1 0x0 PUSH1 0x40 MLOAD PUSH4 0x39E35637 PUSH1 0xE1 SHL DUP2 MSTORE PUSH1 0x4 ADD PUSH2 0x44D SWAP2 SWAP1 PUSH2 0x2769 JUMP JUMPDEST PUSH1 0x0 DUP3 DUP2 MSTORE PUSH1 0x6 PUSH1 0x20 MSTORE PUSH1 0x40 SWAP1 KECCAK256 PUSH2 0x211C DUP3 DUP3 PUSH2 0x2E0E JUMP JUMPDEST POP PUSH1 0x40 MLOAD DUP3 DUP2 MSTORE PUSH32 0xF8E1A15ABA9398E019F0B49DF1A4FDE98EE17AE345CB5F6B5E2C27F5033E8CE7 SWAP1 PUSH1 0x20 ADD PUSH2 0x175B JUMP JUMPDEST PUSH1 0x0 SWAP1 DUP2 MSTORE PUSH1 0x2 PUSH1 0x20 MSTORE PUSH1 0x40 SWAP1 KECCAK256 SLOAD PUSH1 0x1 PUSH1 0x1 PUSH1 0xA0 SHL SUB AND SWAP1 JUMP JUMPDEST DUP1 DUP1 PUSH2 0x217C JUMPI POP PUSH1 0x1 PUSH1 0x1 PUSH1 0xA0 SHL SUB DUP3 AND ISZERO ISZERO JUMPDEST ISZERO PUSH2 0x2235 JUMPI PUSH1 0x0 PUSH2 0x218C DUP5 PUSH2 0x1C07 JUMP JUMPDEST SWAP1 POP PUSH1 0x1 PUSH1 0x1 PUSH1 0xA0 SHL SUB DUP4 AND ISZERO DUP1 ISZERO SWAP1 PUSH2 0x21B8 JUMPI POP DUP3 PUSH1 0x1 PUSH1 0x1 PUSH1 0xA0 SHL SUB AND DUP2 PUSH1 0x1 PUSH1 0x1 PUSH1 0xA0 SHL SUB AND EQ ISZERO JUMPDEST DUP1 ISZERO PUSH2 0x21CB JUMPI POP PUSH2 0x21C9 DUP2 DUP5 PUSH2 0x1767 JUMP JUMPDEST ISZERO JUMPDEST ISZERO PUSH2 0x21EB JUMPI DUP3 PUSH1 0x40 MLOAD PUSH4 0xA9FBF51F PUSH1 0xE0 SHL DUP2 MSTORE PUSH1 0x4 ADD PUSH2 0x44D SWAP2 SWAP1 PUSH2 0x2769 JUMP JUMPDEST DUP2 ISZERO PUSH2 0x2233 JUMPI DUP4 DUP6 PUSH1 0x1 PUSH1 0x1 PUSH1 0xA0 SHL SUB AND DUP3 PUSH1 0x1 PUSH1 0x1 PUSH1 0xA0 SHL SUB AND PUSH32 0x8C5BE1E5EBEC7D5BD14F71427D1E84F3DD0314C0F7B2291E5B200AC8C7C3B925 PUSH1 0x40 MLOAD PUSH1 0x40 MLOAD DUP1 SWAP2 SUB SWAP1 LOG4 JUMPDEST POP JUMPDEST POP POP PUSH1 0x0 SWAP1 DUP2 MSTORE PUSH1 0x4 PUSH1 0x20 MSTORE PUSH1 0x40 SWAP1 KECCAK256 DUP1 SLOAD PUSH1 0x1 PUSH1 0x1 PUSH1 0xA0 SHL SUB NOT AND PUSH1 0x1 PUSH1 0x1 PUSH1 0xA0 SHL SUB SWAP3 SWAP1 SWAP3 AND SWAP2 SWAP1 SWAP2 OR SWAP1 SSTORE JUMP JUMPDEST PUSH2 0x2270 DUP4 DUP4 DUP4 PUSH2 0x235B JUMP JUMPDEST PUSH2 0x7D4 JUMPI PUSH1 0x1 PUSH1 0x1 PUSH1 0xA0 SHL SUB DUP4 AND PUSH2 0x229E JUMPI PUSH1 0x40 MLOAD PUSH4 0x7E273289 PUSH1 0xE0 SHL DUP2 MSTORE PUSH1 0x4 DUP2 ADD DUP3 SWAP1 MSTORE PUSH1 0x24 ADD PUSH2 0x44D JUMP JUMPDEST PUSH1 0x40 MLOAD PUSH4 0x177E802F PUSH1 0xE0 SHL DUP2 MSTORE PUSH1 0x1 PUSH1 0x1 PUSH1 0xA0 SHL SUB DUP4 AND PUSH1 0x4 DUP3 ADD MSTORE PUSH1 0x24 DUP2 ADD DUP3 SWAP1 MSTORE PUSH1 0x44 ADD PUSH2 0x44D JUMP JUMPDEST PUSH1 0x60 PUSH1 0x0 PUSH2 0x22D6 DUP4 PUSH2 0x23C0 JUMP JUMPDEST PUSH1 0x1 ADD SWAP1 POP PUSH1 0x0 DUP2 PUSH1 0x1 PUSH1 0x1 PUSH1 0x40 SHL SUB DUP2 GT ISZERO PUSH2 0x22F5 JUMPI PUSH2 0x22F5 PUSH2 0x25D9 JUMP JUMPDEST PUSH1 0x40 MLOAD SWAP1 DUP1 DUP3 MSTORE DUP1 PUSH1 0x1F ADD PUSH1 0x1F NOT AND PUSH1 0x20 ADD DUP3 ADD PUSH1 0x40 MSTORE DUP1 ISZERO PUSH2 0x231F JUMPI PUSH1 0x20 DUP3 ADD DUP2 DUP1 CALLDATASIZE DUP4 CALLDATACOPY ADD SWAP1 POP JUMPDEST POP SWAP1 POP DUP2 DUP2 ADD PUSH1 0x20 ADD JUMPDEST PUSH1 0x0 NOT ADD PUSH16 0x181899199A1A9B1B9C1CB0B131B232B3 PUSH1 0x81 SHL PUSH1 0xA DUP7 MOD BYTE DUP2 MSTORE8 PUSH1 0xA DUP6 DIV SWAP5 POP DUP5 PUSH2 0x2329 JUMPI POP SWAP4 SWAP3 POP POP POP JUMP JUMPDEST PUSH1 0x0 PUSH1 0x1 PUSH1 0x1 PUSH1 0xA0 SHL SUB DUP4 AND ISZERO DUP1 ISZERO SWAP1 PUSH2 0x1495 JUMPI POP DUP3 PUSH1 0x1 PUSH1 0x1 PUSH1 0xA0 SHL SUB AND DUP5 PUSH1 0x1 PUSH1 0x1 PUSH1 0xA0 SHL SUB AND EQ DUP1 PUSH2 0x2395 JUMPI POP PUSH2 0x2395 DUP5 DUP5 PUSH2 0x1767 JUMP JUMPDEST DUP1 PUSH2 0x1495 JUMPI POP DUP3 PUSH1 0x1 PUSH1 0x1 PUSH1 0xA0 SHL SUB AND PUSH2 0x23AE DUP4 PUSH2 0x1C3F JUMP JUMPDEST PUSH1 0x1 PUSH1 0x1 PUSH1 0xA0 SHL SUB AND EQ SWAP5 SWAP4 POP POP POP POP JUMP JUMPDEST PUSH1 0x0 DUP1 PUSH19 0x184F03E93FF9F4DAA797ED6E38ED64BF6A1F01 PUSH1 0x40 SHL DUP4 LT PUSH2 0x23FF JUMPI PUSH19 0x184F03E93FF9F4DAA797ED6E38ED64BF6A1F01 PUSH1 0x40 SHL DUP4 DIV SWAP3 POP PUSH1 0x40 ADD JUMPDEST PUSH10 0x4EE2D6D415B85ACEF81 PUSH1 0x20 SHL DUP4 LT PUSH2 0x2429 JUMPI PUSH10 0x4EE2D6D415B85ACEF81 PUSH1 0x20 SHL DUP4 DIV SWAP3 POP PUSH1 0x20 ADD JUMPDEST PUSH7 0x2386F26FC10000 DUP4 LT PUSH2 0x2447 JUMPI PUSH7 0x2386F26FC10000 DUP4 DIV SWAP3 POP PUSH1 0x10 ADD JUMPDEST PUSH4 0x5F5E100 DUP4 LT PUSH2 0x245F JUMPI PUSH4 0x5F5E100 DUP4 DIV SWAP3 POP PUSH1 0x8 ADD JUMPDEST PUSH2 0x2710 DUP4 LT PUSH2 0x2473 JUMPI PUSH2 0x2710 DUP4 DIV SWAP3 POP PUSH1 0x4 ADD JUMPDEST PUSH1 0x64 DUP4 LT PUSH2 0x2485 JUMPI PUSH1 0x64 DUP4 DIV SWAP3 POP PUSH1 0x2 ADD JUMPDEST PUSH1 0xA DUP4 LT PUSH2 0x422 JUMPI PUSH1 0x1 ADD SWAP3 SWAP2 POP POP JUMP JUMPDEST DUP3 DUP1 SLOAD DUP3 DUP3 SSTORE SWAP1 PUSH1 0x0 MSTORE PUSH1 0x20 PUSH1 0x0 KECCAK256 SWAP1 DUP2 ADD SWAP3 DUP3 ISZERO PUSH2 0x24D1 JUMPI SWAP2 PUSH1 0x20 MUL DUP3 ADD JUMPDEST DUP3 DUP2 GT ISZERO PUSH2 0x24D1 JUMPI DUP3 MLOAD DUP3 SSTORE SWAP2 PUSH1 0x20 ADD SWAP2 SWAP1 PUSH1 0x1 ADD SWAP1 PUSH2 0x24B6 JUMP JUMPDEST POP PUSH2 0x24DD SWAP3 SWAP2 POP PUSH2 0x255A JUMP JUMPDEST POP SWAP1 JUMP JUMPDEST PUSH1 0x40 MLOAD DUP1 PUSH2 0x180 ADD PUSH1 0x40 MSTORE DUP1 PUSH1 0x60 DUP2 MSTORE PUSH1 0x20 ADD PUSH1 0x0 PUSH1 0x1 PUSH1 0x1 PUSH1 0xA0 SHL SUB AND DUP2 MSTORE PUSH1 0x20 ADD PUSH1 0x60 DUP2 MSTORE PUSH1 0x20 ADD PUSH1 0x0 DUP2 MSTORE PUSH1 0x20 ADD PUSH1 0x60 DUP2 MSTORE PUSH1 0x20 ADD PUSH1 0x0 DUP2 MSTORE PUSH1 0x20 ADD PUSH1 0x0 DUP2 MSTORE PUSH1 0x20 ADD PUSH1 0x60 DUP2 MSTORE PUSH1 0x20 ADD PUSH1 0x0 PUSH1 0x4 DUP2 GT ISZERO PUSH2 0x2541 JUMPI PUSH2 0x2541 PUSH2 0x298B JUMP JUMPDEST DUP2 MSTORE PUSH1 0x60 PUSH1 0x20 DUP3 ADD DUP2 SWAP1 MSTORE PUSH1 0x0 PUSH1 0x40 DUP4 ADD MSTORE SWAP1 DUP2 ADD MSTORE SWAP1 JUMP JUMPDEST JUMPDEST DUP1 DUP3 GT ISZERO PUSH2 0x24DD JUMPI PUSH1 0x0 DUP2 SSTORE PUSH1 0x1 ADD PUSH2 0x255B JUMP JUMPDEST PUSH1 0x1 PUSH1 0x1 PUSH1 0xE0 SHL SUB NOT DUP2 AND DUP2 EQ PUSH2 0x17D0 JUMPI PUSH1 0x0 DUP1 REVERT JUMPDEST PUSH1 0x0 PUSH1 0x20 DUP3 DUP5 SUB SLT ISZERO PUSH2 0x2597 JUMPI PUSH1 0x0 DUP1 REVERT JUMPDEST DUP2 CALLDATALOAD PUSH2 0x2098 DUP2 PUSH2 0x256F JUMP JUMPDEST DUP1 CALLDATALOAD PUSH1 0x1 PUSH1 0x1 PUSH1 0xA0 SHL SUB DUP2 AND DUP2 EQ PUSH2 0x25B9 JUMPI PUSH1 0x0 DUP1 REVERT JUMPDEST SWAP2 SWAP1 POP JUMP JUMPDEST PUSH1 0x0 PUSH1 0x20 DUP3 DUP5 SUB SLT ISZERO PUSH2 0x25D0 JUMPI PUSH1 0x0 DUP1 REVERT JUMPDEST PUSH2 0x2098 DUP3 PUSH2 0x25A2 JUMP JUMPDEST PUSH4 0x4E487B71 PUSH1 0xE0 SHL PUSH1 0x0 MSTORE PUSH1 0x41 PUSH1 0x4 MSTORE PUSH1 0x24 PUSH1 0x0 REVERT JUMPDEST PUSH1 0x40 MLOAD PUSH1 0x1F DUP3 ADD PUSH1 0x1F NOT AND DUP2 ADD PUSH1 0x1 PUSH1 0x1 PUSH1 0x40 SHL SUB DUP2 GT DUP3 DUP3 LT OR ISZERO PUSH2 0x2617 JUMPI PUSH2 0x2617 PUSH2 0x25D9 JUMP JUMPDEST PUSH1 0x40 MSTORE SWAP2 SWAP1 POP JUMP JUMPDEST PUSH1 0x0 DUP1 PUSH1 0x1 PUSH1 0x1 PUSH1 0x40 SHL SUB DUP5 GT ISZERO PUSH2 0x2639 JUMPI PUSH2 0x2639 PUSH2 0x25D9 JUMP JUMPDEST POP PUSH1 0x1F DUP4 ADD PUSH1 0x1F NOT AND PUSH1 0x20 ADD PUSH2 0x264E DUP2 PUSH2 0x25EF JUMP JUMPDEST SWAP2 POP POP DUP3 DUP2 MSTORE DUP4 DUP4 DUP4 ADD GT ISZERO PUSH2 0x2663 JUMPI PUSH1 0x0 DUP1 REVERT JUMPDEST DUP3 DUP3 PUSH1 0x20 DUP4 ADD CALLDATACOPY PUSH1 0x0 PUSH1 0x20 DUP5 DUP4 ADD ADD MSTORE SWAP4 SWAP3 POP POP POP JUMP JUMPDEST PUSH1 0x0 DUP3 PUSH1 0x1F DUP4 ADD SLT PUSH2 0x268B JUMPI PUSH1 0x0 DUP1 REVERT JUMPDEST PUSH2 0x2098 DUP4 DUP4 CALLDATALOAD PUSH1 0x20 DUP6 ADD PUSH2 0x261F JUMP JUMPDEST PUSH1 0x0 DUP1 PUSH1 0x40 DUP4 DUP6 SUB SLT ISZERO PUSH2 0x26AD JUMPI PUSH1 0x0 DUP1 REVERT JUMPDEST DUP3 CALLDATALOAD SWAP2 POP PUSH1 0x20 DUP4 ADD CALLDATALOAD PUSH1 0x1 PUSH1 0x1 PUSH1 0x40 SHL SUB DUP2 GT ISZERO PUSH2 0x26CA JUMPI PUSH1 0x0 DUP1 REVERT JUMPDEST PUSH2 0x26D6 DUP6 DUP3 DUP7 ADD PUSH2 0x267A JUMP JUMPDEST SWAP2 POP POP SWAP3 POP SWAP3 SWAP1 POP JUMP JUMPDEST PUSH1 0x0 JUMPDEST DUP4 DUP2 LT ISZERO PUSH2 0x26FB JUMPI DUP2 DUP2 ADD MLOAD DUP4 DUP3 ADD MSTORE PUSH1 0x20 ADD PUSH2 0x26E3 JUMP JUMPDEST POP POP PUSH1 0x0 SWAP2 ADD MSTORE JUMP JUMPDEST PUSH1 0x0 DUP2 MLOAD DUP1 DUP5 MSTORE PUSH2 0x271C DUP2 PUSH1 0x20 DUP7 ADD PUSH1 0x20 DUP7 ADD PUSH2 0x26E0 JUMP JUMPDEST PUSH1 0x1F ADD PUSH1 0x1F NOT AND SWAP3 SWAP1 SWAP3 ADD PUSH1 0x20 ADD SWAP3 SWAP2 POP POP JUMP JUMPDEST PUSH1 0x20 DUP2 MSTORE PUSH1 0x0 PUSH2 0x2098 PUSH1 0x20 DUP4 ADD DUP5 PUSH2 0x2704 JUMP JUMPDEST PUSH1 0x0 PUSH1 0x20 DUP3 DUP5 SUB SLT ISZERO PUSH2 0x2755 JUMPI PUSH1 0x0 DUP1 REVERT JUMPDEST POP CALLDATALOAD SWAP2 SWAP1 POP JUMP JUMPDEST PUSH1 0x1 PUSH1 0x1 PUSH1 0xA0 SHL SUB AND SWAP1 MSTORE JUMP JUMPDEST PUSH1 0x1 PUSH1 0x1 PUSH1 0xA0 SHL SUB SWAP2 SWAP1 SWAP2 AND DUP2 MSTORE PUSH1 0x20 ADD SWAP1 JUMP JUMPDEST PUSH1 0x0 DUP1 PUSH1 0x40 DUP4 DUP6 SUB SLT ISZERO PUSH2 0x2790 JUMPI PUSH1 0x0 DUP1 REVERT JUMPDEST PUSH2 0x2799 DUP4 PUSH2 0x25A2 JUMP JUMPDEST SWAP5 PUSH1 0x20 SWAP4 SWAP1 SWAP4 ADD CALLDATALOAD SWAP4 POP POP POP JUMP JUMPDEST PUSH1 0x0 DUP1 PUSH1 0x0 PUSH1 0x60 DUP5 DUP7 SUB SLT ISZERO PUSH2 0x27BC JUMPI PUSH1 0x0 DUP1 REVERT JUMPDEST PUSH2 0x27C5 DUP5 PUSH2 0x25A2 JUMP JUMPDEST SWAP3 POP PUSH2 0x27D3 PUSH1 0x20 DUP6 ADD PUSH2 0x25A2 JUMP JUMPDEST SWAP3 SWAP6 SWAP3 SWAP5 POP POP POP PUSH1 0x40 SWAP2 SWAP1 SWAP2 ADD CALLDATALOAD SWAP1 JUMP JUMPDEST PUSH1 0x0 DUP3 PUSH1 0x1F DUP4 ADD SLT PUSH2 0x27F5 JUMPI PUSH1 0x0 DUP1 REVERT JUMPDEST DUP2 CALLDATALOAD PUSH1 0x1 PUSH1 0x1 PUSH1 0x40 SHL SUB DUP2 GT ISZERO PUSH2 0x280E JUMPI PUSH2 0x280E PUSH2 0x25D9 JUMP JUMPDEST DUP1 PUSH1 0x5 SHL PUSH2 0x281E PUSH1 0x20 DUP3 ADD PUSH2 0x25EF JUMP JUMPDEST SWAP2 DUP3 MSTORE PUSH1 0x20 DUP2 DUP6 ADD DUP2 ADD SWAP3 SWAP1 DUP2 ADD SWAP1 DUP7 DUP5 GT ISZERO PUSH2 0x283A JUMPI PUSH1 0x0 DUP1 REVERT JUMPDEST PUSH1 0x20 DUP7 ADD SWAP3 POP JUMPDEST DUP4 DUP4 LT ISZERO PUSH2 0x285C JUMPI DUP3 CALLDATALOAD DUP3 MSTORE PUSH1 0x20 SWAP3 DUP4 ADD SWAP3 SWAP1 SWAP2 ADD SWAP1 PUSH2 0x2841 JUMP JUMPDEST SWAP7 SWAP6 POP POP POP POP POP POP JUMP JUMPDEST PUSH1 0x0 DUP1 PUSH1 0x0 DUP1 PUSH1 0x0 DUP1 PUSH1 0x0 DUP1 PUSH2 0x100 DUP10 DUP12 SUB SLT ISZERO PUSH2 0x2883 JUMPI PUSH1 0x0 DUP1 REVERT JUMPDEST DUP9 CALLDATALOAD PUSH1 0x1 PUSH1 0x1 PUSH1 0x40 SHL SUB DUP2 GT ISZERO PUSH2 0x2899 JUMPI PUSH1 0x0 DUP1 REVERT JUMPDEST PUSH2 0x28A5 DUP12 DUP3 DUP13 ADD PUSH2 0x267A JUMP JUMPDEST SWAP9 POP POP PUSH1 0x20 DUP10 ADD CALLDATALOAD PUSH1 0x1 PUSH1 0x1 PUSH1 0x40 SHL SUB DUP2 GT ISZERO PUSH2 0x28C1 JUMPI PUSH1 0x0 DUP1 REVERT JUMPDEST PUSH2 0x28CD DUP12 DUP3 DUP13 ADD PUSH2 0x267A JUMP JUMPDEST SWAP8 POP POP PUSH1 0x40 DUP10 ADD CALLDATALOAD SWAP6 POP PUSH1 0x60 DUP10 ADD CALLDATALOAD PUSH1 0x1 PUSH1 0x1 PUSH1 0x40 SHL SUB DUP2 GT ISZERO PUSH2 0x28F0 JUMPI PUSH1 0x0 DUP1 REVERT JUMPDEST PUSH2 0x28FC DUP12 DUP3 DUP13 ADD PUSH2 0x267A JUMP JUMPDEST SWAP6 POP POP PUSH1 0x80 DUP10 ADD CALLDATALOAD SWAP4 POP PUSH1 0xA0 DUP10 ADD CALLDATALOAD PUSH1 0x1 PUSH1 0x1 PUSH1 0x40 SHL SUB DUP2 GT ISZERO PUSH2 0x291F JUMPI PUSH1 0x0 DUP1 REVERT JUMPDEST PUSH2 0x292B DUP12 DUP3 DUP13 ADD PUSH2 0x267A JUMP JUMPDEST SWAP4 POP POP PUSH1 0xC0 DUP10 ADD CALLDATALOAD PUSH1 0x1 PUSH1 0x1 PUSH1 0x40 SHL SUB DUP2 GT ISZERO PUSH2 0x2947 JUMPI PUSH1 0x0 DUP1 REVERT JUMPDEST PUSH2 0x2953 DUP12 DUP3 DUP13 ADD PUSH2 0x27E4 JUMP JUMPDEST SWAP3 POP POP PUSH1 0xE0 DUP10 ADD CALLDATALOAD PUSH1 0x1 PUSH1 0x1 PUSH1 0x40 SHL SUB DUP2 GT ISZERO PUSH2 0x296F JUMPI PUSH1 0x0 DUP1 REVERT JUMPDEST PUSH2 0x297B DUP12 DUP3 DUP13 ADD PUSH2 0x267A JUMP JUMPDEST SWAP2 POP POP SWAP3 SWAP6 SWAP9 POP SWAP3 SWAP6 SWAP9 SWAP1 SWAP4 SWAP7 POP JUMP JUMPDEST PUSH4 0x4E487B71 PUSH1 0xE0 SHL PUSH1 0x0 MSTORE PUSH1 0x21 PUSH1 0x4 MSTORE PUSH1 0x24 PUSH1 0x0 REVERT JUMPDEST PUSH1 0x5 DUP2 LT PUSH2 0x29BF JUMPI PUSH4 0x4E487B71 PUSH1 0xE0 SHL PUSH1 0x0 MSTORE PUSH1 0x21 PUSH1 0x4 MSTORE PUSH1 0x24 PUSH1 0x0 REVERT JUMPDEST SWAP1 MSTORE JUMP JUMPDEST PUSH1 0x0 DUP2 MLOAD DUP1 DUP5 MSTORE PUSH1 0x20 DUP5 ADD SWAP4 POP PUSH1 0x20 DUP4 ADD PUSH1 0x0 JUMPDEST DUP3 DUP2 LT ISZERO PUSH2 0x29F5 JUMPI DUP2 MLOAD DUP7 MSTORE PUSH1 0x20 SWAP6 DUP7 ADD SWAP6 SWAP1 SWAP2 ADD SWAP1 PUSH1 0x1 ADD PUSH2 0x29D7 JUMP JUMPDEST POP SWAP4 SWAP5 SWAP4 POP POP POP POP JUMP JUMPDEST PUSH1 0x20 DUP2 MSTORE PUSH1 0x0 DUP3 MLOAD PUSH2 0x180 PUSH1 0x20 DUP5 ADD MSTORE PUSH2 0x2A1D PUSH2 0x1A0 DUP5 ADD DUP3 PUSH2 0x2704 JUMP JUMPDEST SWAP1 POP PUSH1 0x20 DUP5 ADD MLOAD PUSH2 0x2A31 PUSH1 0x40 DUP6 ADD DUP3 PUSH2 0x275C JUMP JUMPDEST POP PUSH1 0x40 DUP5 ADD MLOAD DUP4 DUP3 SUB PUSH1 0x1F NOT ADD PUSH1 0x60 DUP6 ADD MSTORE PUSH2 0x2A4D DUP3 DUP3 PUSH2 0x2704 JUMP JUMPDEST SWAP2 POP POP PUSH1 0x60 DUP5 ADD MLOAD PUSH1 0x80 DUP5 ADD MSTORE PUSH1 0x80 DUP5 ADD MLOAD PUSH1 0x1F NOT DUP5 DUP4 SUB ADD PUSH1 0xA0 DUP6 ADD MSTORE PUSH2 0x2A75 DUP3 DUP3 PUSH2 0x2704 JUMP JUMPDEST SWAP2 POP POP PUSH1 0xA0 DUP5 ADD MLOAD PUSH1 0xC0 DUP5 ADD MSTORE PUSH1 0xC0 DUP5 ADD MLOAD PUSH1 0xE0 DUP5 ADD MSTORE PUSH1 0xE0 DUP5 ADD MLOAD PUSH1 0x1F NOT DUP5 DUP4 SUB ADD PUSH2 0x100 DUP6 ADD MSTORE PUSH2 0x2AA8 DUP3 DUP3 PUSH2 0x2704 JUMP JUMPDEST SWAP2 POP POP PUSH2 0x100 DUP5 ADD MLOAD PUSH2 0x2ABF PUSH2 0x120 DUP6 ADD DUP3 PUSH2 0x29A1 JUMP JUMPDEST POP PUSH2 0x120 DUP5 ADD MLOAD DUP4 DUP3 SUB PUSH1 0x1F NOT ADD PUSH2 0x140 DUP6 ADD MSTORE PUSH2 0x2ADD DUP3 DUP3 PUSH2 0x29C3 JUMP JUMPDEST SWAP2 POP POP PUSH2 0x140 DUP5 ADD MLOAD PUSH2 0x2AF4 PUSH2 0x160 DUP6 ADD DUP3 PUSH2 0x275C JUMP JUMPDEST POP PUSH2 0x160 DUP5 ADD MLOAD DUP4 DUP3 SUB PUSH1 0x1F NOT ADD PUSH2 0x180 DUP6 ADD MSTORE PUSH2 0x2B12 DUP3 DUP3 PUSH2 0x2704 JUMP JUMPDEST SWAP6 SWAP5 POP POP POP POP POP JUMP JUMPDEST PUSH1 0x0 DUP1 PUSH1 0x40 DUP4 DUP6 SUB SLT ISZERO PUSH2 0x2B2E JUMPI PUSH1 0x0 DUP1 REVERT JUMPDEST DUP3 CALLDATALOAD SWAP2 POP PUSH2 0x2B3E PUSH1 0x20 DUP5 ADD PUSH2 0x25A2 JUMP JUMPDEST SWAP1 POP SWAP3 POP SWAP3 SWAP1 POP JUMP JUMPDEST DUP1 ISZERO ISZERO DUP2 EQ PUSH2 0x17D0 JUMPI PUSH1 0x0 DUP1 REVERT JUMPDEST PUSH1 0x0 DUP1 PUSH1 0x40 DUP4 DUP6 SUB SLT ISZERO PUSH2 0x2B68 JUMPI PUSH1 0x0 DUP1 REVERT JUMPDEST PUSH2 0x2B71 DUP4 PUSH2 0x25A2 JUMP JUMPDEST SWAP2 POP PUSH1 0x20 DUP4 ADD CALLDATALOAD PUSH2 0x2B81 DUP2 PUSH2 0x2B47 JUMP JUMPDEST DUP1 SWAP2 POP POP SWAP3 POP SWAP3 SWAP1 POP JUMP JUMPDEST PUSH1 0x0 DUP1 PUSH1 0x0 DUP1 PUSH1 0x80 DUP6 DUP8 SUB SLT ISZERO PUSH2 0x2BA2 JUMPI PUSH1 0x0 DUP1 REVERT JUMPDEST PUSH2 0x2BAB DUP6 PUSH2 0x25A2 JUMP JUMPDEST SWAP4 POP PUSH2 0x2BB9 PUSH1 0x20 DUP7 ADD PUSH2 0x25A2 JUMP JUMPDEST SWAP3 POP PUSH1 0x40 DUP6 ADD CALLDATALOAD SWAP2 POP PUSH1 0x60 DUP6 ADD CALLDATALOAD PUSH1 0x1 PUSH1 0x1 PUSH1 0x40 SHL SUB DUP2 GT ISZERO PUSH2 0x2BDB JUMPI PUSH1 0x0 DUP1 REVERT JUMPDEST DUP6 ADD PUSH1 0x1F DUP2 ADD DUP8 SGT PUSH2 0x2BEC JUMPI PUSH1 0x0 DUP1 REVERT JUMPDEST PUSH2 0x2BFB DUP8 DUP3 CALLDATALOAD PUSH1 0x20 DUP5 ADD PUSH2 0x261F JUMP JUMPDEST SWAP2 POP POP SWAP3 SWAP6 SWAP2 SWAP5 POP SWAP3 POP JUMP JUMPDEST PUSH1 0x20 DUP2 MSTORE PUSH1 0x0 PUSH2 0x2098 PUSH1 0x20 DUP4 ADD DUP5 PUSH2 0x29C3 JUMP JUMPDEST PUSH1 0x0 DUP1 PUSH1 0x40 DUP4 DUP6 SUB SLT ISZERO PUSH2 0x2C2D JUMPI PUSH1 0x0 DUP1 REVERT JUMPDEST PUSH2 0x2C36 DUP4 PUSH2 0x25A2 JUMP JUMPDEST SWAP2 POP PUSH2 0x2B3E PUSH1 0x20 DUP5 ADD PUSH2 0x25A2 JUMP JUMPDEST PUSH1 0x0 DUP1 PUSH1 0x40 DUP4 DUP6 SUB SLT ISZERO PUSH2 0x2C57 JUMPI PUSH1 0x0 DUP1 REVERT JUMPDEST POP POP DUP1 CALLDATALOAD SWAP3 PUSH1 0x20 SWAP1 SWAP2 ADD CALLDATALOAD SWAP2 POP JUMP JUMPDEST PUSH1 0x20 DUP1 DUP3 MSTORE PUSH1 0x14 SWAP1 DUP3 ADD MSTORE PUSH20 0x10985D18DA08191BD95CC81B9BDD08195E1A5CDD PUSH1 0x62 SHL PUSH1 0x40 DUP3 ADD MSTORE PUSH1 0x60 ADD SWAP1 JUMP JUMPDEST DUP3 DUP2 MSTORE PUSH1 0x40 PUSH1 0x20 DUP3 ADD MSTORE PUSH1 0x0 PUSH2 0x1495 PUSH1 0x40 DUP4 ADD DUP5 PUSH2 0x2704 JUMP JUMPDEST PUSH1 0x1 DUP2 DUP2 SHR SWAP1 DUP3 AND DUP1 PUSH2 0x2CC1 JUMPI PUSH1 0x7F DUP3 AND SWAP2 POP JUMPDEST PUSH1 0x20 DUP3 LT DUP2 SUB PUSH2 0x2CE1 JUMPI PUSH4 0x4E487B71 PUSH1 0xE0 SHL PUSH1 0x0 MSTORE PUSH1 0x22 PUSH1 0x4 MSTORE PUSH1 0x24 PUSH1 0x0 REVERT JUMPDEST POP SWAP2 SWAP1 POP JUMP JUMPDEST PUSH1 0x20 DUP1 DUP3 MSTORE PUSH1 0x12 SWAP1 DUP3 ADD MSTORE PUSH18 0x105B1C9958591E48185D5D1A1BDC9A5E9959 PUSH1 0x72 SHL PUSH1 0x40 DUP3 ADD MSTORE PUSH1 0x60 ADD SWAP1 JUMP JUMPDEST PUSH1 0x1 PUSH1 0x1 PUSH1 0xA0 SHL SUB SWAP4 DUP5 AND DUP2 MSTORE PUSH1 0x20 DUP2 ADD SWAP3 SWAP1 SWAP3 MSTORE SWAP1 SWAP2 AND PUSH1 0x40 DUP3 ADD MSTORE PUSH1 0x60 ADD SWAP1 JUMP JUMPDEST PUSH4 0x4E487B71 PUSH1 0xE0 SHL PUSH1 0x0 MSTORE PUSH1 0x32 PUSH1 0x4 MSTORE PUSH1 0x24 PUSH1 0x0 REVERT JUMPDEST PUSH1 0x0 PUSH1 0x20 DUP3 DUP5 SUB SLT ISZERO PUSH2 0x2D5E JUMPI PUSH1 0x0 DUP1 REVERT JUMPDEST DUP2 MLOAD PUSH2 0x2098 DUP2 PUSH2 0x2B47 JUMP JUMPDEST PUSH1 0x20 DUP1 DUP3 MSTORE PUSH1 0x1E SWAP1 DUP3 ADD MSTORE PUSH32 0x496E76616C6964206F7220657870697265642063657274696669636174650000 PUSH1 0x40 DUP3 ADD MSTORE PUSH1 0x60 ADD SWAP1 JUMP JUMPDEST PUSH1 0x0 PUSH1 0x1 DUP3 ADD PUSH2 0x2DC0 JUMPI PUSH4 0x4E487B71 PUSH1 0xE0 SHL PUSH1 0x0 MSTORE PUSH1 0x11 PUSH1 0x4 MSTORE PUSH1 0x24 PUSH1 0x0 REVERT JUMPDEST POP PUSH1 0x1 ADD SWAP1 JUMP JUMPDEST PUSH1 0x1F DUP3 GT ISZERO PUSH2 0x7D4 JUMPI DUP1 PUSH1 0x0 MSTORE PUSH1 0x20 PUSH1 0x0 KECCAK256 PUSH1 0x1F DUP5 ADD PUSH1 0x5 SHR DUP2 ADD PUSH1 0x20 DUP6 LT ISZERO PUSH2 0x2DEE JUMPI POP DUP1 JUMPDEST PUSH1 0x1F DUP5 ADD PUSH1 0x5 SHR DUP3 ADD SWAP2 POP JUMPDEST DUP2 DUP2 LT ISZERO PUSH2 0x2023 JUMPI PUSH1 0x0 DUP2 SSTORE PUSH1 0x1 ADD PUSH2 0x2DFA JUMP JUMPDEST DUP2 MLOAD PUSH1 0x1 PUSH1 0x1 PUSH1 0x40 SHL SUB DUP2 GT ISZERO PUSH2 0x2E27 JUMPI PUSH2 0x2E27 PUSH2 0x25D9 JUMP JUMPDEST PUSH2 0x2E3B DUP2 PUSH2 0x2E35 DUP5 SLOAD PUSH2 0x2CAD JUMP JUMPDEST DUP5 PUSH2 0x2DC7 JUMP JUMPDEST PUSH1 0x20 PUSH1 0x1F DUP3 GT PUSH1 0x1 DUP2 EQ PUSH2 0x2E6F JUMPI PUSH1 0x0 DUP4 ISZERO PUSH2 0x2E57 JUMPI POP DUP5 DUP3 ADD MLOAD JUMPDEST PUSH1 0x0 NOT PUSH1 0x3 DUP6 SWAP1 SHL SHR NOT AND PUSH1 0x1 DUP5 SWAP1 SHL OR DUP5 SSTORE PUSH2 0x2023 JUMP JUMPDEST PUSH1 0x0 DUP5 DUP2 MSTORE PUSH1 0x20 DUP2 KECCAK256 PUSH1 0x1F NOT DUP6 AND SWAP2 JUMPDEST DUP3 DUP2 LT ISZERO PUSH2 0x2E9F JUMPI DUP8 DUP6 ADD MLOAD DUP3 SSTORE PUSH1 0x20 SWAP5 DUP6 ADD SWAP5 PUSH1 0x1 SWAP1 SWAP3 ADD SWAP2 ADD PUSH2 0x2E7F JUMP JUMPDEST POP DUP5 DUP3 LT ISZERO PUSH2 0x2EBD JUMPI DUP7 DUP5 ADD MLOAD PUSH1 0x0 NOT PUSH1 0x3 DUP8 SWAP1 SHL PUSH1 0xF8 AND SHR NOT AND DUP2 SSTORE JUMPDEST POP POP POP POP PUSH1 0x1 SWAP1 DUP2 SHL ADD SWAP1 SSTORE POP JUMP JUMPDEST DUP4 DUP2 MSTORE PUSH1 0x60 PUSH1 0x20 DUP3 ADD MSTORE PUSH1 0x0 PUSH2 0x2EE5 PUSH1 0x60 DUP4 ADD DUP6 PUSH2 0x2704 JUMP JUMPDEST SWAP1 POP PUSH1 0x1 DUP1 PUSH1 0xA0 SHL SUB DUP4 AND PUSH1 0x40 DUP4 ADD MSTORE SWAP5 SWAP4 POP POP POP POP JUMP JUMPDEST PUSH1 0x20 DUP1 DUP3 MSTORE PUSH1 0x1A SWAP1 DUP3 ADD MSTORE PUSH26 0x9CDEE840E8D0CA40DEEEDCCAE440DECC40E8D0CA40C4C2E8C6D PUSH1 0x33 SHL PUSH1 0x40 DUP3 ADD MSTORE PUSH1 0x60 ADD SWAP1 JUMP JUMPDEST PUSH1 0x0 DUP4 MLOAD PUSH2 0x2F43 DUP2 DUP5 PUSH1 0x20 DUP9 ADD PUSH2 0x26E0 JUMP JUMPDEST DUP4 MLOAD SWAP1 DUP4 ADD SWAP1 PUSH2 0x2F57 DUP2 DUP4 PUSH1 0x20 DUP9 ADD PUSH2 0x26E0 JUMP JUMPDEST ADD SWAP5 SWAP4 POP POP POP POP JUMP JUMPDEST PUSH1 0x20 DUP1 DUP3 MSTORE PUSH1 0x1A SWAP1 DUP3 ADD MSTORE PUSH26 0x2737BA1030BABA3437B934BD32B21030B9903B32B934B334B2B9 PUSH1 0x31 SHL PUSH1 0x40 DUP3 ADD MSTORE PUSH1 0x60 ADD SWAP1 JUMP JUMPDEST PUSH1 0x1 PUSH1 0x1 PUSH1 0xA0 SHL SUB DUP6 DUP2 AND DUP3 MSTORE DUP5 AND PUSH1 0x20 DUP3 ADD MSTORE PUSH1 0x40 DUP2 ADD DUP4 SWAP1 MSTORE PUSH1 0x80 PUSH1 0x60 DUP3 ADD DUP2 SWAP1 MSTORE PUSH1 0x0 SWAP1 PUSH2 0x285C SWAP1 DUP4 ADD DUP5 PUSH2 0x2704 JUMP JUMPDEST PUSH1 0x0 PUSH1 0x20 DUP3 DUP5 SUB SLT ISZERO PUSH2 0x2FD9 JUMPI PUSH1 0x0 DUP1 REVERT JUMPDEST DUP2 MLOAD PUSH2 0x2098 DUP2 PUSH2 0x256F JUMP INVALID LOG2 PUSH5 0x6970667358 0x22 SLT KECCAK256 MSIZE 0xC6 DUP12 0xE9 PUSH20 0x7FB880AC64539D603AB0560B5CC7FE0A07D6803D REVERT SIGNEXTEND 0xD4 PUSH0 PUSH9 0x5B6364736F6C634300 ADDMOD SHR STOP CALLER "},"methodIdentifiers":{"approve(address,uint256)":"095ea7b3","authorizeProducer(address)":"f98f5c55","authorizeVerifier(address)":"20ad8cab","balanceOf(address)":"70a08231","cancelBatch(uint256,string)":"05beaad5","createBatch(string,string,uint256,string,uint256,string,uint256[],string)":"4e61b6b3","getApproved(uint256)":"081812fc","getBatch(uint256)":"5ac44282","getPendingBatches()":"d59317d6","isApprovedForAll(address,address)":"e985e9c5","isAuthorizedProducer(address)":"041bde78","isAuthorizedVerifier(address)":"6cacbf30","linkCertificate(uint256,uint256)":"f6a11cef","markAsInTransit(uint256)":"b2756285","name()":"06fdde03","owner()":"8da5cb5b","ownerOf(uint256)":"6352211e","renounceOwnership()":"715018a6","revokeProducer(address)":"f9f8904a","revokeVerifier(address)":"bd02a235","safeTransferFrom(address,address,uint256)":"42842e0e","safeTransferFrom(address,address,uint256,bytes)":"b88d4fde","setApprovalForAll(address,bool)":"a22cb465","supportsInterface(bytes4)":"01ffc9a7","symbol()":"95d89b41","tokenURI(uint256)":"c87b56dd","transferBatch(uint256,address)":"621f2b0e","transferFrom(address,address,uint256)":"23b872dd","transferOwnership(address)":"f2fde38b","verifyBatch(uint256)":"dfe3a3ae"}}}}}