{
  "_format": "hh-sol-artifact-1",
  "contractName": "CertificateNFT",
  "sourceName": "contracts/CertificateNFT.sol",
  "abi": [
    {
      "inputs": [],
      "stateMutability": "nonpayable",
      "type": "constructor"
    },
    {
      "inputs": [
        {
          "internalType": "address",
          "name": "sender",
          "type": "address"
        },
        {
          "internalType": "uint256",
          "name": "tokenId",
          "type": "uint256"
        },
        {
          "internalType": "address",
          "name": "owner",
          "type": "address"
        }
      ],
      "name": "ERC721IncorrectOwner",
      "type": "error"
    },
    {
      "inputs": [
        {
          "internalType": "address",
          "name": "operator",
          "type": "address"
        },
        {
          "internalType": "uint256",
          "name": "tokenId",
          "type": "uint256"
        }
      ],
      "name": "ERC721InsufficientApproval",
      "type": "error"
    },
    {
      "inputs": [
        {
          "internalType": "address",
          "name": "approver",
          "type": "address"
        }
      ],
      "name": "ERC721InvalidApprover",
      "type": "error"
    },
    {
      "inputs": [
        {
          "internalType": "address",
          "name": "operator",
          "type": "address"
        }
      ],
      "name": "ERC721InvalidOperator",
      "type": "error"
    },
    {
      "inputs": [
        {
          "internalType": "address",
          "name": "owner",
          "type": "address"
        }
      ],
      "name": "ERC721InvalidOwner",
      "type": "error"
    },
    {
      "inputs": [
        {
          "internalType": "address",
          "name": "receiver",
          "type": "address"
        }
      ],
      "name": "ERC721InvalidReceiver",
      "type": "error"
    },
    {
      "inputs": [
        {
          "internalType": "address",
          "name": "sender",
          "type": "address"
        }
      ],
      "name": "ERC721InvalidSender",
      "type": "error"
    },
    {
      "inputs": [
        {
          "internalType": "uint256",
          "name": "tokenId",
          "type": "uint256"
        }
      ],
      "name": "ERC721NonexistentToken",
      "type": "error"
    },
    {
      "inputs": [
        {
          "internalType": "address",
          "name": "owner",
          "type": "address"
        }
      ],
      "name": "OwnableInvalidOwner",
      "type": "error"
    },
    {
      "inputs": [
        {
          "internalType": "address",
          "name": "account",
          "type": "address"
        }
      ],
      "name": "OwnableUnauthorizedAccount",
      "type": "error"
    },
    {
      "anonymous": false,
      "inputs": [
        {
          "indexed": true,
          "internalType": "address",
          "name": "owner",
          "type": "address"
        },
        {
          "indexed": true,
          "internalType": "address",
          "name": "approved",
          "type": "address"
        },
        {
          "indexed": true,
          "internalType": "uint256",
          "name": "tokenId",
          "type": "uint256"
        }
      ],
      "name": "Approval",
      "type": "event"
    },
    {
      "anonymous": false,
      "inputs": [
        {
          "indexed": true,
          "internalType": "address",
          "name": "owner",
          "type": "address"
        },
        {
          "indexed": true,
          "internalType": "address",
          "name": "operator",
          "type": "address"
        },
        {
          "indexed": false,
          "internalType": "bool",
          "name": "approved",
          "type": "bool"
        }
      ],
      "name": "ApprovalForAll",
      "type": "event"
    },
    {
      "anonymous": false,
      "inputs": [
        {
          "indexed": false,
          "internalType": "uint256",
          "name": "_fromTokenId",
          "type": "uint256"
        },
        {
          "indexed": false,
          "internalType": "uint256",
          "name": "_toTokenId",
          "type": "uint256"
        }
      ],
      "name": "BatchMetadataUpdate",
      "type": "event"
    },
    {
      "anonymous": false,
      "inputs": [
        {
          "indexed": false,
          "internalType": "uint256",
          "name": "tokenId",
          "type": "uint256"
        },
        {
          "indexed": false,
          "internalType": "string",
          "name": "certIdString",
          "type": "string"
        },
        {
          "indexed": false,
          "internalType": "address",
          "name": "issuer",
          "type": "address"
        },
        {
          "indexed": false,
          "internalType": "address",
          "name": "certifiedEntity",
          "type": "address"
        }
      ],
      "name": "CertificateCreated",
      "type": "event"
    },
    {
      "anonymous": false,
      "inputs": [
        {
          "indexed": false,
          "internalType": "uint256",
          "name": "tokenId",
          "type": "uint256"
        },
        {
          "indexed": false,
          "internalType": "string",
          "name": "reason",
          "type": "string"
        }
      ],
      "name": "CertificateRevoked",
      "type": "event"
    },
    {
      "anonymous": false,
      "inputs": [
        {
          "indexed": false,
          "internalType": "address",
          "name": "certifier",
          "type": "address"
        }
      ],
      "name": "CertifierAuthorized",
      "type": "event"
    },
    {
      "anonymous": false,
      "inputs": [
        {
          "indexed": false,
          "internalType": "address",
          "name": "certifier",
          "type": "address"
        }
      ],
      "name": "CertifierRevoked",
      "type": "event"
    },
    {
      "anonymous": false,
      "inputs": [
        {
          "indexed": false,
          "internalType": "uint256",
          "name": "_tokenId",
          "type": "uint256"
        }
      ],
      "name": "MetadataUpdate",
      "type": "event"
    },
    {
      "anonymous": false,
      "inputs": [
        {
          "indexed": true,
          "internalType": "address",
          "name": "previousOwner",
          "type": "address"
        },
        {
          "indexed": true,
          "internalType": "address",
          "name": "newOwner",
          "type": "address"
        }
      ],
      "name": "OwnershipTransferred",
      "type": "event"
    },
    {
      "anonymous": false,
      "inputs": [
        {
          "indexed": true,
          "internalType": "address",
          "name": "from",
          "type": "address"
        },
        {
          "indexed": true,
          "internalType": "address",
          "name": "to",
          "type": "address"
        },
        {
          "indexed": true,
          "internalType": "uint256",
          "name": "tokenId",
          "type": "uint256"
        }
      ],
      "name": "Transfer",
      "type": "event"
    },
    {
      "inputs": [
        {
          "internalType": "address",
          "name": "to",
          "type": "address"
        },
        {
          "internalType": "uint256",
          "name": "tokenId",
          "type": "uint256"
        }
      ],
      "name": "approve",
      "outputs": [],
      "stateMutability": "nonpayable",
      "type": "function"
    },
    {
      "inputs": [
        {
          "internalType": "address",
          "name": "certifier",
          "type": "address"
        }
      ],
      "name": "authorizeCertifier",
      "outputs": [],
      "stateMutability": "nonpayable",
      "type": "function"
    },
    {
      "inputs": [
        {
          "internalType": "address",
          "name": "owner",
          "type": "address"
        }
      ],
      "name": "balanceOf",
      "outputs": [
        {
          "internalType": "uint256",
          "name": "",
          "type": "uint256"
        }
      ],
      "stateMutability": "view",
      "type": "function"
    },
    {
      "inputs": [
        {
          "internalType": "uint256",
          "name": "tokenId",
          "type": "uint256"
        }
      ],
      "name": "getApproved",
      "outputs": [
        {
          "internalType": "address",
          "name": "",
          "type": "address"
        }
      ],
      "stateMutability": "view",
      "type": "function"
    },
    {
      "inputs": [
        {
          "internalType": "uint256",
          "name": "tokenId",
          "type": "uint256"
        }
      ],
      "name": "getCertificate",
      "outputs": [
        {
          "components": [
            {
              "internalType": "string",
              "name": "certIdString",
              "type": "string"
            },
            {
              "internalType": "string",
              "name": "certType",
              "type": "string"
            },
            {
              "internalType": "address",
              "name": "issuer",
              "type": "address"
            },
            {
              "internalType": "address",
              "name": "certifiedEntityAddress",
              "type": "address"
            },
            {
              "internalType": "uint256",
              "name": "issueTimestamp",
              "type": "uint256"
            },
            {
              "internalType": "uint256",
              "name": "expiryTimestamp",
              "type": "uint256"
            },
            {
              "internalType": "enum CertificateNFT.CertificateStatus",
              "name": "status",
              "type": "uint8"
            },
            {
              "internalType": "string",
              "name": "metadataURI",
              "type": "string"
            }
          ],
          "internalType": "struct CertificateNFT.Certificate",
          "name": "",
          "type": "tuple"
        }
      ],
      "stateMutability": "view",
      "type": "function"
    },
    {
      "inputs": [
        {
          "internalType": "address",
          "name": "owner",
          "type": "address"
        },
        {
          "internalType": "address",
          "name": "operator",
          "type": "address"
        }
      ],
      "name": "isApprovedForAll",
      "outputs": [
        {
          "internalType": "bool",
          "name": "",
          "type": "bool"
        }
      ],
      "stateMutability": "view",
      "type": "function"
    },
    {
      "inputs": [
        {
          "internalType": "address",
          "name": "certifier",
          "type": "address"
        }
      ],
      "name": "isAuthorizedCertifier",
      "outputs": [
        {
          "internalType": "bool",
          "name": "",
          "type": "bool"
        }
      ],
      "stateMutability": "view",
      "type": "function"
    },
    {
      "inputs": [
        {
          "internalType": "uint256",
          "name": "tokenId",
          "type": "uint256"
        }
      ],
      "name": "isValid",
      "outputs": [
        {
          "internalType": "bool",
          "name": "",
          "type": "bool"
        }
      ],
      "stateMutability": "view",
      "type": "function"
    },
    {
      "inputs": [
        {
          "internalType": "string",
          "name": "certIdString",
          "type": "string"
        },
        {
          "internalType": "string",
          "name": "certType",
          "type": "string"
        },
        {
          "internalType": "address",
          "name": "certifiedEntityAddress",
          "type": "address"
        },
        {
          "internalType": "uint256",
          "name": "validityPeriod",
          "type": "uint256"
        },
        {
          "internalType": "string",
          "name": "metadataURI",
          "type": "string"
        }
      ],
      "name": "mintCertificate",
      "outputs": [
        {
          "internalType": "uint256",
          "name": "",
          "type": "uint256"
        }
      ],
      "stateMutability": "nonpayable",
      "type": "function"
    },
    {
      "inputs": [],
      "name": "name",
      "outputs": [
        {
          "internalType": "string",
          "name": "",
          "type": "string"
        }
      ],
      "stateMutability": "view",
      "type": "function"
    },
    {
      "inputs": [],
      "name": "owner",
      "outputs": [
        {
          "internalType": "address",
          "name": "",
          "type": "address"
        }
      ],
      "stateMutability": "view",
      "type": "function"
    },
    {
      "inputs": [
        {
          "internalType": "uint256",
          "name": "tokenId",
          "type": "uint256"
        }
      ],
      "name": "ownerOf",
      "outputs": [
        {
          "internalType": "address",
          "name": "",
          "type": "address"
        }
      ],
      "stateMutability": "view",
      "type": "function"
    },
    {
      "inputs": [],
      "name": "renounceOwnership",
      "outputs": [],
      "stateMutability": "nonpayable",
      "type": "function"
    },
    {
      "inputs": [
        {
          "internalType": "uint256",
          "name": "tokenId",
          "type": "uint256"
        },
        {
          "internalType": "string",
          "name": "reason",
          "type": "string"
        }
      ],
      "name": "revokeCertificate",
      "outputs": [],
      "stateMutability": "nonpayable",
      "type": "function"
    },
    {
      "inputs": [
        {
          "internalType": "address",
          "name": "certifier",
          "type": "address"
        }
      ],
      "name": "revokeCertifier",
      "outputs": [],
      "stateMutability": "nonpayable",
      "type": "function"
    },
    {
      "inputs": [
        {
          "internalType": "address",
          "name": "from",
          "type": "address"
        },
        {
          "internalType": "address",
          "name": "to",
          "type": "address"
        },
        {
          "internalType": "uint256",
          "name": "tokenId",
          "type": "uint256"
        }
      ],
      "name": "safeTransferFrom",
      "outputs": [],
      "stateMutability": "nonpayable",
      "type": "function"
    },
    {
      "inputs": [
        {
          "internalType": "address",
          "name": "from",
          "type": "address"
        },
        {
          "internalType": "address",
          "name": "to",
          "type": "address"
        },
        {
          "internalType": "uint256",
          "name": "tokenId",
          "type": "uint256"
        },
        {
          "internalType": "bytes",
          "name": "data",
          "type": "bytes"
        }
      ],
      "name": "safeTransferFrom",
      "outputs": [],
      "stateMutability": "nonpayable",
      "type": "function"
    },
    {
      "inputs": [
        {
          "internalType": "address",
          "name": "operator",
          "type": "address"
        },
        {
          "internalType": "bool",
          "name": "approved",
          "type": "bool"
        }
      ],
      "name": "setApprovalForAll",
      "outputs": [],
      "stateMutability": "nonpayable",
      "type": "function"
    },
    {
      "inputs": [
        {
          "internalType": "bytes4",
          "name": "interfaceId",
          "type": "bytes4"
        }
      ],
      "name": "supportsInterface",
      "outputs": [
        {
          "internalType": "bool",
          "name": "",
          "type": "bool"
        }
      ],
      "stateMutability": "view",
      "type": "function"
    },
    {
      "inputs": [],
      "name": "symbol",
      "outputs": [
        {
          "internalType": "string",
          "name": "",
          "type": "string"
        }
      ],
      "stateMutability": "view",
      "type": "function"
    },
    {
      "inputs": [
        {
          "internalType": "uint256",
          "name": "tokenId",
          "type": "uint256"
        }
      ],
      "name": "tokenURI",
      "outputs": [
        {
          "internalType": "string",
          "name": "",
          "type": "string"
        }
      ],
      "stateMutability": "view",
      "type": "function"
    },
    {
      "inputs": [
        {
          "internalType": "address",
          "name": "from",
          "type": "address"
        },
        {
          "internalType": "address",
          "name": "to",
          "type": "address"
        },
        {
          "internalType": "uint256",
          "name": "tokenId",
          "type": "uint256"
        }
      ],
      "name": "transferFrom",
      "outputs": [],
      "stateMutability": "nonpayable",
      "type": "function"
    },
    {
      "inputs": [
        {
          "internalType": "address",
          "name": "newOwner",
          "type": "address"
        }
      ],
      "name": "transferOwnership",
      "outputs": [],
      "stateMutability": "nonpayable",
      "type": "function"
    }
  ],
  "bytecode": "0x608060405234801561001057600080fd5b50336040518060400160405280601181526020017048616c616c20436572746966696361746560781b81525060405180604001604052806005815260200164121053105360da1b815250816000908161006991906101fc565b50600161007682826101fc565b5050506001600160a01b0381166100ac576000604051631e4fbdf760e01b81526004016100a391906102ba565b60405180910390fd5b6100b58161010b565b50336000818152600a602052604090819020805460ff19166001179055517fcbcf22dcb2331e843873a8ef89eab2451c503015fb28d984e14c4acc9f762771916100fe916102ba565b60405180910390a16102ce565b600780546001600160a01b038381166001600160a01b0319831681179093556040519116919082907f8be0079c531659141344cd1fd0a4f28419497f9722a3daafe3b4186f6b6457e090600090a35050565b634e487b7160e01b600052604160045260246000fd5b600181811c9082168061018757607f821691505b6020821081036101a757634e487b7160e01b600052602260045260246000fd5b50919050565b601f8211156101f757806000526020600020601f840160051c810160208510156101d45750805b601f840160051c820191505b818110156101f457600081556001016101e0565b50505b505050565b81516001600160401b038111156102155761021561015d565b610229816102238454610173565b846101ad565b6020601f82116001811461025d57600083156102455750848201515b600019600385901b1c1916600184901b1784556101f4565b600084815260208120601f198516915b8281101561028d578785015182556020948501946001909201910161026d565b50848210156102ab5786840151600019600387901b60f8161c191681555b50505050600190811b01905550565b6001600160a01b0391909116815260200190565b612217806102dd6000396000f3fe608060405234801561001057600080fd5b506004361061011d5760003560e01c806301ffc9a71461012257806306fdde031461014a578063081812fc1461015f578063095ea7b31461017f57806323b872dd146101945780633e72171f146101a757806342842e0e146101d357806351640fee146101e65780636352211e1461020657806370a0823114610219578063715018a61461023a5780638da5cb5b1461024257806395d89b411461024a578063a22cb46514610252578063aeb05a2114610265578063b1466d1d14610278578063b88d4fde1461028b578063be7201471461029e578063c86de368146102b1578063c87b56dd146102c4578063e985e9c5146102d7578063f2fde38b146102ea578063f577a500146102fd575b600080fd5b610135610130366004611aba565b610310565b60405190151581526020015b60405180910390f35b61015261033b565b6040516101419190611b27565b61017261016d366004611b3a565b6103cd565b6040516101419190611b60565b61019261018d366004611b90565b6103e2565b005b6101926101a2366004611bba565b6103f1565b6101356101b5366004611bf7565b6001600160a01b03166000908152600a602052604090205460ff1690565b6101926101e1366004611bba565b610485565b6101f96101f4366004611b3a565b6104a5565b6040516101419190611c4a565b610172610214366004611b3a565b61073c565b61022c610227366004611bf7565b610747565b604051908152602001610141565b61019261078f565b6101726107a3565b6101526107b2565b610192610260366004611cfa565b6107c1565b61022c610273366004611de4565b6107cc565b610192610286366004611e90565b610abe565b610192610299366004611ed6565b610bf1565b6101926102ac366004611bf7565b610c09565b6101926102bf366004611bf7565b610d1f565b6101526102d2366004611b3a565b610ddd565b6101356102e5366004611f51565b610eee565b6101926102f8366004611bf7565b610f1c565b61013561030b366004611b3a565b610f5a565b60006001600160e01b03198216632483248360e11b14806103355750610335826111d6565b92915050565b60606000805461034a90611f84565b80601f016020809104026020016040519081016040528092919081815260200182805461037690611f84565b80156103c35780601f10610398576101008083540402835291602001916103c3565b820191906000526020600020905b8154815290600101906020018083116103a657829003601f168201915b5050505050905090565b60006103d882611226565b506103358261125e565b6103ed828233611279565b5050565b6001600160a01b038216610424576000604051633250574960e11b815260040161041b9190611b60565b60405180910390fd5b6000610431838333611286565b9050836001600160a01b0316816001600160a01b03161461047f576040516364283d7b60e01b81526001600160a01b038086166004830152602482018490528216604482015260640161041b565b50505050565b6104a083838360405180602001604052806000815250610bf1565b505050565b6104ad611a3c565b6104b68261137a565b6104ff5760405162461bcd60e51b815260206004820152601a60248201527910d95c9d1a599a58d85d1948191bd95cc81b9bdd08195e1a5cdd60321b604482015260640161041b565b600082815260096020526040908190208151610100810190925280548290829061052890611f84565b80601f016020809104026020016040519081016040528092919081815260200182805461055490611f84565b80156105a15780601f10610576576101008083540402835291602001916105a1565b820191906000526020600020905b81548152906001019060200180831161058457829003601f168201915b505050505081526020016001820180546105ba90611f84565b80601f01602080910402602001604051908101604052809291908181526020018280546105e690611f84565b80156106335780601f1061060857610100808354040283529160200191610633565b820191906000526020600020905b81548152906001019060200180831161061657829003601f168201915b50505091835250506002828101546001600160a01b03908116602084015260038401541660408301526004830154606083015260058301546080830152600683015460a09092019160ff169081111561068e5761068e611c12565b600281111561069f5761069f611c12565b81526020016007820180546106b390611f84565b80601f01602080910402602001604051908101604052809291908181526020018280546106df90611f84565b801561072c5780601f106107015761010080835404028352916020019161072c565b820191906000526020600020905b81548152906001019060200180831161070f57829003601f168201915b5050505050815250509050919050565b600061033582611226565b60006001600160a01b0382166107735760006040516322718ad960e21b815260040161041b9190611b60565b506001600160a01b031660009081526003602052604090205490565b610797611397565b6107a160006113c9565b565b6007546001600160a01b031690565b60606001805461034a90611f84565b6103ed33838361141b565b336000908152600a602052604081205460ff166108295760405162461bcd60e51b815260206004820152601b60248201527a2737ba1030baba3437b934bd32b21030b99031b2b93a34b334b2b960291b604482015260640161041b565b600086511161087a5760405162461bcd60e51b815260206004820152601e60248201527f43657274696669636174652049442063616e6e6f7420626520656d7074790000604482015260640161041b565b6001600160a01b0384166108d05760405162461bcd60e51b815260206004820181905260248201527f496e76616c69642063657274696669656420656e746974792061646472657373604482015260640161041b565b6000831161092f5760405162461bcd60e51b815260206004820152602660248201527f56616c696469747920706572696f64206d75737420626520677265617465722060448201526507468616e20360d41b606482015260840161041b565b600880546000918261094083611fd4565b91905055905061095085826114b1565b61095a8184611516565b604051806101000160405280888152602001878152602001336001600160a01b03168152602001866001600160a01b0316815260200142815260200185426109a29190611fed565b81526000602080830182905260409283018790528482526009905220815181906109cc9082612047565b50602082015160018201906109e19082612047565b506040820151600280830180546001600160a01b039384166001600160a01b0319918216179091556060850151600385018054919094169116179091556080830151600483015560a0830151600583015560c08301516006830180549192909160ff1916906001908490811115610a5a57610a5a611c12565b021790555060e08201516007820190610a739082612047565b509050507f60469ec7c6ee62537e37b986f9f7be5bb53b61f0d662dd0e088fb274421e3c6d81883388604051610aac9493929190612105565b60405180910390a19695505050505050565b600082815260096020526040902060028101546001600160a01b0316331480610af6575033610aeb6107a3565b6001600160a01b0316145b610b425760405162461bcd60e51b815260206004820152601f60248201527f4f6e6c7920697373756572206f72206f776e65722063616e207265766f6b6500604482015260640161041b565b6000600682015460ff166002811115610b5d57610b5d611c12565b14610ba35760405162461bcd60e51b81526020600482015260166024820152754365727469666963617465206e6f742061637469766560501b604482015260640161041b565b60068101805460ff191660021790556040517f65032d3cc955c731f4c2a4178f663dbcc6c08e5163bad5a3149773f3894548d390610be4908590859061213f565b60405180910390a1505050565b610bfc8484846103f1565b61047f3385858585611566565b610c11611397565b6001600160a01b038116610c635760405162461bcd60e51b8152602060048201526019602482015278496e76616c696420636572746966696572206164647265737360381b604482015260640161041b565b6001600160a01b0381166000908152600a602052604090205460ff1615610cc15760405162461bcd60e51b8152602060048201526012602482015271105b1c9958591e48185d5d1a1bdc9a5e995960721b604482015260640161041b565b6001600160a01b0381166000908152600a602052604090819020805460ff19166001179055517fcbcf22dcb2331e843873a8ef89eab2451c503015fb28d984e14c4acc9f76277190610d14908390611b60565b60405180910390a150565b610d27611397565b6001600160a01b0381166000908152600a602052604090205460ff16610d8d5760405162461bcd60e51b815260206004820152601b60248201527a2737ba1030b71030baba3437b934bd32b21031b2b93a34b334b2b960291b604482015260640161041b565b6001600160a01b0381166000908152600a602052604090819020805460ff19169055517facb594097a8aa89d56ff24dffeb0a4669090559f677cc6842ff41d20a142621990610d14908390611b60565b6060610de882611226565b5060008281526006602052604081208054610e0290611f84565b80601f0160208091040260200160405190810160405280929190818152602001828054610e2e90611f84565b8015610e7b5780601f10610e5057610100808354040283529160200191610e7b565b820191906000526020600020905b815481529060010190602001808311610e5e57829003601f168201915b505050505090506000610e9960408051602081019091526000815290565b90508051600003610eab575092915050565b815115610edd578082604051602001610ec5929190612158565b60405160208183030381529060405292505050919050565b610ee68461167f565b949350505050565b6001600160a01b03918216600090815260056020908152604080832093909416825291909152205460ff1690565b610f24611397565b6001600160a01b038116610f4e576000604051631e4fbdf760e01b815260040161041b9190611b60565b610f57816113c9565b50565b6000818152600960205260408082208151610100810190925280548392919082908290610f8690611f84565b80601f0160208091040260200160405190810160405280929190818152602001828054610fb290611f84565b8015610fff5780601f10610fd457610100808354040283529160200191610fff565b820191906000526020600020905b815481529060010190602001808311610fe257829003601f168201915b5050505050815260200160018201805461101890611f84565b80601f016020809104026020016040519081016040528092919081815260200182805461104490611f84565b80156110915780601f1061106657610100808354040283529160200191611091565b820191906000526020600020905b81548152906001019060200180831161107457829003601f168201915b50505091835250506002828101546001600160a01b03908116602084015260038401541660408301526004830154606083015260058301546080830152600683015460a09092019160ff16908111156110ec576110ec611c12565b60028111156110fd576110fd611c12565b815260200160078201805461111190611f84565b80601f016020809104026020016040519081016040528092919081815260200182805461113d90611f84565b801561118a5780601f1061115f5761010080835404028352916020019161118a565b820191906000526020600020905b81548152906001019060200180831161116d57829003601f168201915b5050505050815250509050600060028111156111a8576111a8611c12565b8160c0015160028111156111be576111be611c12565b1480156111cf57508060a001514211155b9392505050565b60006001600160e01b031982166380ac58cd60e01b148061120757506001600160e01b03198216635b5e139f60e01b145b8061033557506301ffc9a760e01b6001600160e01b0319831614610335565b600080611232836116f3565b90506001600160a01b03811661033557604051637e27328960e01b81526004810184905260240161041b565b6000908152600460205260409020546001600160a01b031690565b6104a0838383600161170e565b600080611292846116f3565b90506001600160a01b038316156112ae576112ae81848661180b565b6001600160a01b038116156112ec576112cb60008560008061170e565b6001600160a01b038116600090815260036020526040902080546000190190555b6001600160a01b0385161561131b576001600160a01b0385166000908152600360205260409020805460010190555b60008481526002602052604080822080546001600160a01b0319166001600160a01b0389811691821790925591518793918516917fddf252ad1be2c89b69c2b068fc378daa952ba7f163c4a11628f55a4df523b3ef91a4949350505050565b600080611386836116f3565b6001600160a01b0316141592915050565b336113a06107a3565b6001600160a01b0316146107a1573360405163118cdaa760e01b815260040161041b9190611b60565b600780546001600160a01b038381166001600160a01b0319831681179093556040519116919082907f8be0079c531659141344cd1fd0a4f28419497f9722a3daafe3b4186f6b6457e090600090a35050565b6001600160a01b0382166114445781604051630b61174360e31b815260040161041b9190611b60565b6001600160a01b03838116600081815260056020908152604080832094871680845294825291829020805460ff191686151590811790915591519182527f17307eab39ab6107e8899845ad3d59bd9653f200f220920489ca2b5937696c31910160405180910390a3505050565b6001600160a01b0382166114db576000604051633250574960e11b815260040161041b9190611b60565b60006114e983836000611286565b90506001600160a01b038116156104a05760006040516339e3563760e11b815260040161041b9190611b60565b600082815260066020526040902061152e8282612047565b506040518281527ff8e1a15aba9398e019f0b49df1a4fde98ee17ae345cb5f6b5e2c27f5033e8ce79060200160405180910390a15050565b6001600160a01b0383163b1561167857604051630a85bd0160e11b81526001600160a01b0384169063150b7a02906115a8908890889087908790600401612187565b6020604051808303816000875af19250505080156115e3575060408051601f3d908101601f191682019092526115e0918101906121c4565b60015b611643573d808015611611576040519150601f19603f3d011682016040523d82523d6000602084013e611616565b606091505b50805160000361163b5783604051633250574960e11b815260040161041b9190611b60565b805181602001fd5b6001600160e01b03198116630a85bd0160e11b146116765783604051633250574960e11b815260040161041b9190611b60565b505b5050505050565b606061168a82611226565b5060006116a260408051602081019091526000815290565b905060008151116116c257604051806020016040528060008152506111cf565b806116cc8461186f565b6040516020016116dd929190612158565b6040516020818303038152906040529392505050565b6000908152600260205260409020546001600160a01b031690565b808061172257506001600160a01b03821615155b156117db57600061173284611226565b90506001600160a01b0383161580159061175e5750826001600160a01b0316816001600160a01b031614155b8015611771575061176f8184610eee565b155b15611791578260405163a9fbf51f60e01b815260040161041b9190611b60565b81156117d95783856001600160a01b0316826001600160a01b03167f8c5be1e5ebec7d5bd14f71427d1e84f3dd0314c0f7b2291e5b200ac8c7c3b92560405160405180910390a45b505b5050600090815260046020526040902080546001600160a01b0319166001600160a01b0392909216919091179055565b611816838383611901565b6104a0576001600160a01b03831661184457604051637e27328960e01b81526004810182905260240161041b565b60405163177e802f60e01b81526001600160a01b03831660048201526024810182905260440161041b565b6060600061187c83611966565b60010190506000816001600160401b0381111561189b5761189b611d36565b6040519080825280601f01601f1916602001820160405280156118c5576020820181803683370190505b5090508181016020015b600019016f181899199a1a9b1b9c1cb0b131b232b360811b600a86061a8153600a85049450846118cf57509392505050565b60006001600160a01b03831615801590610ee65750826001600160a01b0316846001600160a01b0316148061193b575061193b8484610eee565b80610ee65750826001600160a01b03166119548361125e565b6001600160a01b031614949350505050565b60008072184f03e93ff9f4daa797ed6e38ed64bf6a1f0160401b83106119a55772184f03e93ff9f4daa797ed6e38ed64bf6a1f0160401b830492506040015b6904ee2d6d415b85acef8160201b83106119cf576904ee2d6d415b85acef8160201b830492506020015b662386f26fc1000083106119ed57662386f26fc10000830492506010015b6305f5e1008310611a05576305f5e100830492506008015b6127108310611a1957612710830492506004015b60648310611a2b576064830492506002015b600a83106103355760010192915050565b604051806101000160405280606081526020016060815260200160006001600160a01b0316815260200160006001600160a01b03168152602001600081526020016000815260200160006002811115611a9757611a97611c12565b8152602001606081525090565b6001600160e01b031981168114610f5757600080fd5b600060208284031215611acc57600080fd5b81356111cf81611aa4565b60005b83811015611af2578181015183820152602001611ada565b50506000910152565b60008151808452611b13816020860160208601611ad7565b601f01601f19169290920160200192915050565b6020815260006111cf6020830184611afb565b600060208284031215611b4c57600080fd5b5035919050565b6001600160a01b03169052565b6001600160a01b0391909116815260200190565b80356001600160a01b0381168114611b8b57600080fd5b919050565b60008060408385031215611ba357600080fd5b611bac83611b74565b946020939093013593505050565b600080600060608486031215611bcf57600080fd5b611bd884611b74565b9250611be660208501611b74565b929592945050506040919091013590565b600060208284031215611c0957600080fd5b6111cf82611b74565b634e487b7160e01b600052602160045260246000fd5b60038110611c4657634e487b7160e01b600052602160045260246000fd5b9052565b60208152600082516101006020840152611c68610120840182611afb565b90506020840151601f19848303016040850152611c858282611afb565b9150506040840151611c9a6060850182611b53565b506060840151611cad6080850182611b53565b50608084015160a084015260a084015160c084015260c0840151611cd460e0850182611c28565b5060e0840151838203601f1901610100850152611cf18282611afb565b95945050505050565b60008060408385031215611d0d57600080fd5b611d1683611b74565b915060208301358015158114611d2b57600080fd5b809150509250929050565b634e487b7160e01b600052604160045260246000fd5b6000806001600160401b03841115611d6657611d66611d36565b50604051601f19601f85018116603f011681018181106001600160401b0382111715611d9457611d94611d36565b604052838152905080828401851015611dac57600080fd5b83836020830137600060208583010152509392505050565b600082601f830112611dd557600080fd5b6111cf83833560208501611d4c565b600080600080600060a08688031215611dfc57600080fd5b85356001600160401b03811115611e1257600080fd5b611e1e88828901611dc4565b95505060208601356001600160401b03811115611e3a57600080fd5b611e4688828901611dc4565b945050611e5560408701611b74565b92506060860135915060808601356001600160401b03811115611e7757600080fd5b611e8388828901611dc4565b9150509295509295909350565b60008060408385031215611ea357600080fd5b8235915060208301356001600160401b03811115611ec057600080fd5b611ecc85828601611dc4565b9150509250929050565b60008060008060808587031215611eec57600080fd5b611ef585611b74565b9350611f0360208601611b74565b92506040850135915060608501356001600160401b03811115611f2557600080fd5b8501601f81018713611f3657600080fd5b611f4587823560208401611d4c565b91505092959194509250565b60008060408385031215611f6457600080fd5b611f6d83611b74565b9150611f7b60208401611b74565b90509250929050565b600181811c90821680611f9857607f821691505b602082108103611fb857634e487b7160e01b600052602260045260246000fd5b50919050565b634e487b7160e01b600052601160045260246000fd5b600060018201611fe657611fe6611fbe565b5060010190565b8082018082111561033557610335611fbe565b601f8211156104a057806000526020600020601f840160051c810160208510156120275750805b601f840160051c820191505b818110156116785760008155600101612033565b81516001600160401b0381111561206057612060611d36565b6120748161206e8454611f84565b84612000565b6020601f8211600181146120a857600083156120905750848201515b600019600385901b1c1916600184901b178455611678565b600084815260208120601f198516915b828110156120d857878501518255602094850194600190920191016120b8565b50848210156120f65786840151600019600387901b60f8161c191681555b50505050600190811b01905550565b84815260806020820152600061211e6080830186611afb565b6001600160a01b039485166040840152929093166060909101529392505050565b828152604060208201526000610ee66040830184611afb565b6000835161216a818460208801611ad7565b83519083019061217e818360208801611ad7565b01949350505050565b6001600160a01b03858116825284166020820152604081018390526080606082018190526000906121ba90830184611afb565b9695505050505050565b6000602082840312156121d657600080fd5b81516111cf81611aa456fea2646970667358221220102fb3d55f486775b5326bade5e488d9a39c5daa2e0ac2628d5d1eada533615964736f6c634300081c0033",
  "linkReferences": {},
  "deployedLinkReferences": {}
}