{
  "_format": "hh-sol-artifact-1",
  "contractName": "CertificateNFT",
  "sourceName": "contracts/CertificateNFT.sol",
  "abi": [
    {
      "inputs": [],
      "stateMutability": "nonpayable",
      "type": "constructor"
    },
    {
      "inputs": [
        {
          "internalType": "address",
          "name": "sender",
          "type": "address"
        },
        {
          "internalType": "uint256",
          "name": "tokenId",
          "type": "uint256"
        },
        {
          "internalType": "address",
          "name": "owner",
          "type": "address"
        }
      ],
      "name": "ERC721IncorrectOwner",
      "type": "error"
    },
    {
      "inputs": [
        {
          "internalType": "address",
          "name": "operator",
          "type": "address"
        },
        {
          "internalType": "uint256",
          "name": "tokenId",
          "type": "uint256"
        }
      ],
      "name": "ERC721InsufficientApproval",
      "type": "error"
    },
    {
      "inputs": [
        {
          "internalType": "address",
          "name": "approver",
          "type": "address"
        }
      ],
      "name": "ERC721InvalidApprover",
      "type": "error"
    },
    {
      "inputs": [
        {
          "internalType": "address",
          "name": "operator",
          "type": "address"
        }
      ],
      "name": "ERC721InvalidOperator",
      "type": "error"
    },
    {
      "inputs": [
        {
          "internalType": "address",
          "name": "owner",
          "type": "address"
        }
      ],
      "name": "ERC721InvalidOwner",
      "type": "error"
    },
    {
      "inputs": [
        {
          "internalType": "address",
          "name": "receiver",
          "type": "address"
        }
      ],
      "name": "ERC721InvalidReceiver",
      "type": "error"
    },
    {
      "inputs": [
        {
          "internalType": "address",
          "name": "sender",
          "type": "address"
        }
      ],
      "name": "ERC721InvalidSender",
      "type": "error"
    },
    {
      "inputs": [
        {
          "internalType": "uint256",
          "name": "tokenId",
          "type": "uint256"
        }
      ],
      "name": "ERC721NonexistentToken",
      "type": "error"
    },
    {
      "inputs": [
        {
          "internalType": "address",
          "name": "owner",
          "type": "address"
        }
      ],
      "name": "OwnableInvalidOwner",
      "type": "error"
    },
    {
      "inputs": [
        {
          "internalType": "address",
          "name": "account",
          "type": "address"
        }
      ],
      "name": "OwnableUnauthorizedAccount",
      "type": "error"
    },
    {
      "anonymous": false,
      "inputs": [
        {
          "indexed": true,
          "internalType": "address",
          "name": "owner",
          "type": "address"
        },
        {
          "indexed": true,
          "internalType": "address",
          "name": "approved",
          "type": "address"
        },
        {
          "indexed": true,
          "internalType": "uint256",
          "name": "tokenId",
          "type": "uint256"
        }
      ],
      "name": "Approval",
      "type": "event"
    },
    {
      "anonymous": false,
      "inputs": [
        {
          "indexed": true,
          "internalType": "address",
          "name": "owner",
          "type": "address"
        },
        {
          "indexed": true,
          "internalType": "address",
          "name": "operator",
          "type": "address"
        },
        {
          "indexed": false,
          "internalType": "bool",
          "name": "approved",
          "type": "bool"
        }
      ],
      "name": "ApprovalForAll",
      "type": "event"
    },
    {
      "anonymous": false,
      "inputs": [
        {
          "indexed": false,
          "internalType": "uint256",
          "name": "_fromTokenId",
          "type": "uint256"
        },
        {
          "indexed": false,
          "internalType": "uint256",
          "name": "_toTokenId",
          "type": "uint256"
        }
      ],
      "name": "BatchMetadataUpdate",
      "type": "event"
    },
    {
      "anonymous": false,
      "inputs": [
        {
          "indexed": false,
          "internalType": "uint256",
          "name": "tokenId",
          "type": "uint256"
        },
        {
          "indexed": false,
          "internalType": "string",
          "name": "certIdString",
          "type": "string"
        },
        {
          "indexed": false,
          "internalType": "address",
          "name": "issuer",
          "type": "address"
        },
        {
          "indexed": false,
          "internalType": "address",
          "name": "certifiedEntity",
          "type": "address"
        }
      ],
      "name": "CertificateCreated",
      "type": "event"
    },
    {
      "anonymous": false,
      "inputs": [
        {
          "indexed": false,
          "internalType": "uint256",
          "name": "tokenId",
          "type": "uint256"
        },
        {
          "indexed": false,
          "internalType": "string",
          "name": "reason",
          "type": "string"
        }
      ],
      "name": "CertificateRevoked",
      "type": "event"
    },
    {
      "anonymous": false,
      "inputs": [
        {
          "indexed": false,
          "internalType": "address",
          "name": "certifier",
          "type": "address"
        }
      ],
      "name": "CertifierAuthorized",
      "type": "event"
    },
    {
      "anonymous": false,
      "inputs": [
        {
          "indexed": false,
          "internalType": "address",
          "name": "certifier",
          "type": "address"
        }
      ],
      "name": "CertifierRevoked",
      "type": "event"
    },
    {
      "anonymous": false,
      "inputs": [
        {
          "indexed": false,
          "internalType": "uint256",
          "name": "_tokenId",
          "type": "uint256"
        }
      ],
      "name": "MetadataUpdate",
      "type": "event"
    },
    {
      "anonymous": false,
      "inputs": [
        {
          "indexed": true,
          "internalType": "address",
          "name": "previousOwner",
          "type": "address"
        },
        {
          "indexed": true,
          "internalType": "address",
          "name": "newOwner",
          "type": "address"
        }
      ],
      "name": "OwnershipTransferred",
      "type": "event"
    },
    {
      "anonymous": false,
      "inputs": [
        {
          "indexed": true,
          "internalType": "address",
          "name": "from",
          "type": "address"
        },
        {
          "indexed": true,
          "internalType": "address",
          "name": "to",
          "type": "address"
        },
        {
          "indexed": true,
          "internalType": "uint256",
          "name": "tokenId",
          "type": "uint256"
        }
      ],
      "name": "Transfer",
      "type": "event"
    },
    {
      "inputs": [
        {
          "internalType": "address",
          "name": "to",
          "type": "address"
        },
        {
          "internalType": "uint256",
          "name": "tokenId",
          "type": "uint256"
        }
      ],
      "name": "approve",
      "outputs": [],
      "stateMutability": "nonpayable",
      "type": "function"
    },
    {
      "inputs": [
        {
          "internalType": "address",
          "name": "certifier",
          "type": "address"
        }
      ],
      "name": "authorizeCertifier",
      "outputs": [],
      "stateMutability": "nonpayable",
      "type": "function"
    },
    {
      "inputs": [
        {
          "internalType": "address",
          "name": "owner",
          "type": "address"
        }
      ],
      "name": "balanceOf",
      "outputs": [
        {
          "internalType": "uint256",
          "name": "",
          "type": "uint256"
        }
      ],
      "stateMutability": "view",
      "type": "function"
    },
    {
      "inputs": [
        {
          "internalType": "uint256",
          "name": "tokenId",
          "type": "uint256"
        }
      ],
      "name": "getApproved",
      "outputs": [
        {
          "internalType": "address",
          "name": "",
          "type": "address"
        }
      ],
      "stateMutability": "view",
      "type": "function"
    },
    {
      "inputs": [
        {
          "internalType": "uint256",
          "name": "tokenId",
          "type": "uint256"
        }
      ],
      "name": "getCertificate",
      "outputs": [
        {
          "components": [
            {
              "internalType": "string",
              "name": "certIdString",
              "type": "string"
            },
            {
              "internalType": "string",
              "name": "certType",
              "type": "string"
            },
            {
              "internalType": "address",
              "name": "issuer",
              "type": "address"
            },
            {
              "internalType": "address",
              "name": "certifiedEntityAddress",
              "type": "address"
            },
            {
              "internalType": "uint256",
              "name": "issueTimestamp",
              "type": "uint256"
            },
            {
              "internalType": "uint256",
              "name": "expiryTimestamp",
              "type": "uint256"
            },
            {
              "internalType": "enum CertificateNFT.CertificateStatus",
              "name": "status",
              "type": "uint8"
            },
            {
              "internalType": "string",
              "name": "metadataURI",
              "type": "string"
            }
          ],
          "internalType": "struct CertificateNFT.Certificate",
          "name": "",
          "type": "tuple"
        }
      ],
      "stateMutability": "view",
      "type": "function"
    },
    {
      "inputs": [
        {
          "internalType": "address",
          "name": "owner",
          "type": "address"
        },
        {
          "internalType": "address",
          "name": "operator",
          "type": "address"
        }
      ],
      "name": "isApprovedForAll",
      "outputs": [
        {
          "internalType": "bool",
          "name": "",
          "type": "bool"
        }
      ],
      "stateMutability": "view",
      "type": "function"
    },
    {
      "inputs": [
        {
          "internalType": "address",
          "name": "certifier",
          "type": "address"
        }
      ],
      "name": "isAuthorizedCertifier",
      "outputs": [
        {
          "internalType": "bool",
          "name": "",
          "type": "bool"
        }
      ],
      "stateMutability": "view",
      "type": "function"
    },
    {
      "inputs": [
        {
          "internalType": "uint256",
          "name": "tokenId",
          "type": "uint256"
        }
      ],
      "name": "isValid",
      "outputs": [
        {
          "internalType": "bool",
          "name": "",
          "type": "bool"
        }
      ],
      "stateMutability": "view",
      "type": "function"
    },
    {
      "inputs": [
        {
          "internalType": "string",
          "name": "certIdString",
          "type": "string"
        },
        {
          "internalType": "string",
          "name": "certType",
          "type": "string"
        },
        {
          "internalType": "address",
          "name": "certifiedEntityAddress",
          "type": "address"
        },
        {
          "internalType": "uint256",
          "name": "validityPeriod",
          "type": "uint256"
        },
        {
          "internalType": "string",
          "name": "metadataURI",
          "type": "string"
        }
      ],
      "name": "mintCertificate",
      "outputs": [
        {
          "internalType": "uint256",
          "name": "",
          "type": "uint256"
        }
      ],
      "stateMutability": "nonpayable",
      "type": "function"
    },
    {
      "inputs": [],
      "name": "name",
      "outputs": [
        {
          "internalType": "string",
          "name": "",
          "type": "string"
        }
      ],
      "stateMutability": "view",
      "type": "function"
    },
    {
      "inputs": [],
      "name": "owner",
      "outputs": [
        {
          "internalType": "address",
          "name": "",
          "type": "address"
        }
      ],
      "stateMutability": "view",
      "type": "function"
    },
    {
      "inputs": [
        {
          "internalType": "uint256",
          "name": "tokenId",
          "type": "uint256"
        }
      ],
      "name": "ownerOf",
      "outputs": [
        {
          "internalType": "address",
          "name": "",
          "type": "address"
        }
      ],
      "stateMutability": "view",
      "type": "function"
    },
    {
      "inputs": [],
      "name": "renounceOwnership",
      "outputs": [],
      "stateMutability": "nonpayable",
      "type": "function"
    },
    {
      "inputs": [
        {
          "internalType": "uint256",
          "name": "tokenId",
          "type": "uint256"
        },
        {
          "internalType": "string",
          "name": "reason",
          "type": "string"
        }
      ],
      "name": "revokeCertificate",
      "outputs": [],
      "stateMutability": "nonpayable",
      "type": "function"
    },
    {
      "inputs": [
        {
          "internalType": "address",
          "name": "certifier",
          "type": "address"
        }
      ],
      "name": "revokeCertifier",
      "outputs": [],
      "stateMutability": "nonpayable",
      "type": "function"
    },
    {
      "inputs": [
        {
          "internalType": "address",
          "name": "from",
          "type": "address"
        },
        {
          "internalType": "address",
          "name": "to",
          "type": "address"
        },
        {
          "internalType": "uint256",
          "name": "tokenId",
          "type": "uint256"
        }
      ],
      "name": "safeTransferFrom",
      "outputs": [],
      "stateMutability": "nonpayable",
      "type": "function"
    },
    {
      "inputs": [
        {
          "internalType": "address",
          "name": "from",
          "type": "address"
        },
        {
          "internalType": "address",
          "name": "to",
          "type": "address"
        },
        {
          "internalType": "uint256",
          "name": "tokenId",
          "type": "uint256"
        },
        {
          "internalType": "bytes",
          "name": "data",
          "type": "bytes"
        }
      ],
      "name": "safeTransferFrom",
      "outputs": [],
      "stateMutability": "nonpayable",
      "type": "function"
    },
    {
      "inputs": [
        {
          "internalType": "address",
          "name": "operator",
          "type": "address"
        },
        {
          "internalType": "bool",
          "name": "approved",
          "type": "bool"
        }
      ],
      "name": "setApprovalForAll",
      "outputs": [],
      "stateMutability": "nonpayable",
      "type": "function"
    },
    {
      "inputs": [
        {
          "internalType": "bytes4",
          "name": "interfaceId",
          "type": "bytes4"
        }
      ],
      "name": "supportsInterface",
      "outputs": [
        {
          "internalType": "bool",
          "name": "",
          "type": "bool"
        }
      ],
      "stateMutability": "view",
      "type": "function"
    },
    {
      "inputs": [],
      "name": "symbol",
      "outputs": [
        {
          "internalType": "string",
          "name": "",
          "type": "string"
        }
      ],
      "stateMutability": "view",
      "type": "function"
    },
    {
      "inputs": [
        {
          "internalType": "uint256",
          "name": "tokenId",
          "type": "uint256"
        }
      ],
      "name": "tokenURI",
      "outputs": [
        {
          "internalType": "string",
          "name": "",
          "type": "string"
        }
      ],
      "stateMutability": "view",
      "type": "function"
    },
    {
      "inputs": [
        {
          "internalType": "address",
          "name": "from",
          "type": "address"
        },
        {
          "internalType": "address",
          "name": "to",
          "type": "address"
        },
        {
          "internalType": "uint256",
          "name": "tokenId",
          "type": "uint256"
        }
      ],
      "name": "transferFrom",
      "outputs": [],
      "stateMutability": "nonpayable",
      "type": "function"
    },
    {
      "inputs": [
        {
          "internalType": "address",
          "name": "newOwner",
          "type": "address"
        }
      ],
      "name": "transferOwnership",
      "outputs": [],
      "stateMutability": "nonpayable",
      "type": "function"
    }
  ],
  "bytecode": "0x608060405234801561001057600080fd5b50336040518060400160405280601181526020017f48616c616c2043657274696669636174650000000000000000000000000000008152506040518060400160405280600581526020017f48414c414c000000000000000000000000000000000000000000000000000000815250816000908161008d91906104cc565b50806001908161009d91906104cc565b505050600073ffffffffffffffffffffffffffffffffffffffff168173ffffffffffffffffffffffffffffffffffffffff16036101125760006040517f1e4fbdf700000000000000000000000000000000000000000000000000000000815260040161010991906105df565b60405180910390fd5b610121816101b660201b60201c565b506001600a60003373ffffffffffffffffffffffffffffffffffffffff1673ffffffffffffffffffffffffffffffffffffffff16815260200190815260200160002060006101000a81548160ff0219169083151502179055507fcbcf22dcb2331e843873a8ef89eab2451c503015fb28d984e14c4acc9f762771336040516101a991906105df565b60405180910390a16105fa565b6000600760009054906101000a900473ffffffffffffffffffffffffffffffffffffffff16905081600760006101000a81548173ffffffffffffffffffffffffffffffffffffffff021916908373ffffffffffffffffffffffffffffffffffffffff1602179055508173ffffffffffffffffffffffffffffffffffffffff168173ffffffffffffffffffffffffffffffffffffffff167f8be0079c531659141344cd1fd0a4f28419497f9722a3daafe3b4186f6b6457e060405160405180910390a35050565b600081519050919050565b7f4e487b7100000000000000000000000000000000000000000000000000000000600052604160045260246000fd5b7f4e487b7100000000000000000000000000000000000000000000000000000000600052602260045260246000fd5b600060028204905060018216806102fd57607f821691505b6020821081036103105761030f6102b6565b5b50919050565b60008190508160005260206000209050919050565b60006020601f8301049050919050565b600082821b905092915050565b6000600883026103787fffffffffffffffffffffffffffffffffffffffffffffffffffffffffffffffff8261033b565b610382868361033b565b95508019841693508086168417925050509392505050565b6000819050919050565b6000819050919050565b60006103c96103c46103bf8461039a565b6103a4565b61039a565b9050919050565b6000819050919050565b6103e3836103ae565b6103f76103ef826103d0565b848454610348565b825550505050565b600090565b61040c6103ff565b6104178184846103da565b505050565b5b8181101561043b57610430600082610404565b60018101905061041d565b5050565b601f8211156104805761045181610316565b61045a8461032b565b81016020851015610469578190505b61047d6104758561032b565b83018261041c565b50505b505050565b600082821c905092915050565b60006104a360001984600802610485565b1980831691505092915050565b60006104bc8383610492565b9150826002028217905092915050565b6104d58261027c565b67ffffffffffffffff8111156104ee576104ed610287565b5b6104f882546102e5565b61050382828561043f565b600060209050601f8311600181146105365760008415610524578287015190505b61052e85826104b0565b865550610596565b601f19841661054486610316565b60005b8281101561056c57848901518255600182019150602085019450602081019050610547565b868310156105895784890151610585601f891682610492565b8355505b6001600288020188555050505b505050505050565b600073ffffffffffffffffffffffffffffffffffffffff82169050919050565b60006105c98261059e565b9050919050565b6105d9816105be565b82525050565b60006020820190506105f460008301846105d0565b92915050565b613e46806106096000396000f3fe608060405234801561001057600080fd5b506004361061014d5760003560e01c80638da5cb5b116100c3578063be7201471161007c578063be720147146103ae578063c86de368146103ca578063c87b56dd146103e6578063e985e9c514610416578063f2fde38b14610446578063f577a500146104625761014d565b80638da5cb5b146102ee57806395d89b411461030c578063a22cb4651461032a578063aeb05a2114610346578063b1466d1d14610376578063b88d4fde146103925761014d565b80633e72171f116101155780633e72171f1461020857806342842e0e1461023857806351640fee146102545780636352211e1461028457806370a08231146102b4578063715018a6146102e45761014d565b806301ffc9a71461015257806306fdde0314610182578063081812fc146101a0578063095ea7b3146101d057806323b872dd146101ec575b600080fd5b61016c60048036038101906101679190612b02565b610492565b6040516101799190612b4a565b60405180910390f35b61018a6104f3565b6040516101979190612bf5565b60405180910390f35b6101ba60048036038101906101b59190612c4d565b610585565b6040516101c79190612cbb565b60405180910390f35b6101ea60048036038101906101e59190612d02565b6105a1565b005b61020660048036038101906102019190612d42565b6105b7565b005b610222600480360381019061021d9190612d95565b6106b9565b60405161022f9190612b4a565b60405180910390f35b610252600480360381019061024d9190612d42565b61070f565b005b61026e60048036038101906102699190612c4d565b61072f565b60405161027b9190612f5f565b60405180910390f35b61029e60048036038101906102999190612c4d565b610a56565b6040516102ab9190612cbb565b60405180910390f35b6102ce60048036038101906102c99190612d95565b610a68565b6040516102db9190612f90565b60405180910390f35b6102ec610b22565b005b6102f6610b36565b6040516103039190612cbb565b60405180910390f35b610314610b60565b6040516103219190612bf5565b60405180910390f35b610344600480360381019061033f9190612fd7565b610bf2565b005b610360600480360381019061035b919061314c565b610c08565b60405161036d9190612f90565b60405180910390f35b610390600480360381019061038b919061321b565b610fb3565b005b6103ac60048036038101906103a79190613318565b61117c565b005b6103c860048036038101906103c39190612d95565b6111a1565b005b6103e460048036038101906103df9190612d95565b611337565b005b61040060048036038101906103fb9190612c4d565b61145d565b60405161040d9190612bf5565b60405180910390f35b610430600480360381019061042b919061339b565b611570565b60405161043d9190612b4a565b60405180910390f35b610460600480360381019061045b9190612d95565b611604565b005b61047c60048036038101906104779190612c4d565b61168a565b6040516104899190612b4a565b60405180910390f35b6000634906490660e01b7bffffffffffffffffffffffffffffffffffffffffffffffffffffffff1916827bffffffffffffffffffffffffffffffffffffffffffffffffffffffff191614806104ec57506104eb826119a3565b5b9050919050565b6060600080546105029061340a565b80601f016020809104026020016040519081016040528092919081815260200182805461052e9061340a565b801561057b5780601f106105505761010080835404028352916020019161057b565b820191906000526020600020905b81548152906001019060200180831161055e57829003601f168201915b5050505050905090565b600061059082611a85565b5061059a82611b0d565b9050919050565b6105b382826105ae611b4a565b611b52565b5050565b600073ffffffffffffffffffffffffffffffffffffffff168273ffffffffffffffffffffffffffffffffffffffff16036106295760006040517f64a0ae920000000000000000000000000000000000000000000000000000000081526004016106209190612cbb565b60405180910390fd5b600061063d8383610638611b4a565b611b64565b90508373ffffffffffffffffffffffffffffffffffffffff168173ffffffffffffffffffffffffffffffffffffffff16146106b3578382826040517f64283d7b0000000000000000000000000000000000000000000000000000000081526004016106aa9392919061343b565b60405180910390fd5b50505050565b6000600a60008373ffffffffffffffffffffffffffffffffffffffff1673ffffffffffffffffffffffffffffffffffffffff16815260200190815260200160002060009054906101000a900460ff169050919050565b61072a8383836040518060200160405280600081525061117c565b505050565b610737612a13565b61074082611d7e565b61077f576040517f08c379a0000000000000000000000000000000000000000000000000000000008152600401610776906134be565b60405180910390fd5b60096000838152602001908152602001600020604051806101000160405290816000820180546107ae9061340a565b80601f01602080910402602001604051908101604052809291908181526020018280546107da9061340a565b80156108275780601f106107fc57610100808354040283529160200191610827565b820191906000526020600020905b81548152906001019060200180831161080a57829003601f168201915b505050505081526020016001820180546108409061340a565b80601f016020809104026020016040519081016040528092919081815260200182805461086c9061340a565b80156108b95780601f1061088e576101008083540402835291602001916108b9565b820191906000526020600020905b81548152906001019060200180831161089c57829003601f168201915b505050505081526020016002820160009054906101000a900473ffffffffffffffffffffffffffffffffffffffff1673ffffffffffffffffffffffffffffffffffffffff1673ffffffffffffffffffffffffffffffffffffffff1681526020016003820160009054906101000a900473ffffffffffffffffffffffffffffffffffffffff1673ffffffffffffffffffffffffffffffffffffffff1673ffffffffffffffffffffffffffffffffffffffff16815260200160048201548152602001600582015481526020016006820160009054906101000a900460ff1660028111156109a7576109a6612e2a565b5b60028111156109b9576109b8612e2a565b5b81526020016007820180546109cd9061340a565b80601f01602080910402602001604051908101604052809291908181526020018280546109f99061340a565b8015610a465780601f10610a1b57610100808354040283529160200191610a46565b820191906000526020600020905b815481529060010190602001808311610a2957829003601f168201915b5050505050815250509050919050565b6000610a6182611a85565b9050919050565b60008073ffffffffffffffffffffffffffffffffffffffff168273ffffffffffffffffffffffffffffffffffffffff1603610adb5760006040517f89c62b64000000000000000000000000000000000000000000000000000000008152600401610ad29190612cbb565b60405180910390fd5b600360008373ffffffffffffffffffffffffffffffffffffffff1673ffffffffffffffffffffffffffffffffffffffff168152602001908152602001600020549050919050565b610b2a611dbf565b610b346000611e46565b565b6000600760009054906101000a900473ffffffffffffffffffffffffffffffffffffffff16905090565b606060018054610b6f9061340a565b80601f0160208091040260200160405190810160405280929190818152602001828054610b9b9061340a565b8015610be85780601f10610bbd57610100808354040283529160200191610be8565b820191906000526020600020905b815481529060010190602001808311610bcb57829003601f168201915b5050505050905090565b610c04610bfd611b4a565b8383611f0c565b5050565b6000600a60003373ffffffffffffffffffffffffffffffffffffffff1673ffffffffffffffffffffffffffffffffffffffff16815260200190815260200160002060009054906101000a900460ff16610c96576040517f08c379a0000000000000000000000000000000000000000000000000000000008152600401610c8d9061352a565b60405180910390fd5b6000865111610cda576040517f08c379a0000000000000000000000000000000000000000000000000000000008152600401610cd190613596565b60405180910390fd5b600073ffffffffffffffffffffffffffffffffffffffff168473ffffffffffffffffffffffffffffffffffffffff1603610d49576040517f08c379a0000000000000000000000000000000000000000000000000000000008152600401610d4090613602565b60405180910390fd5b60008311610d8c576040517f08c379a0000000000000000000000000000000000000000000000000000000008152600401610d8390613694565b60405180910390fd5b600060086000815480929190610da1906136e3565b919050559050610db1858261207b565b610dbb8184612174565b6040518061010001604052808881526020018781526020013373ffffffffffffffffffffffffffffffffffffffff1681526020018673ffffffffffffffffffffffffffffffffffffffff1681526020014281526020018542610e1d919061372b565b815260200160006002811115610e3657610e35612e2a565b5b815260200184815250600960008381526020019081526020016000206000820151816000019081610e67919061390b565b506020820151816001019081610e7d919061390b565b5060408201518160020160006101000a81548173ffffffffffffffffffffffffffffffffffffffff021916908373ffffffffffffffffffffffffffffffffffffffff16021790555060608201518160030160006101000a81548173ffffffffffffffffffffffffffffffffffffffff021916908373ffffffffffffffffffffffffffffffffffffffff1602179055506080820151816004015560a0820151816005015560c08201518160060160006101000a81548160ff02191690836002811115610f4b57610f4a612e2a565b5b021790555060e0820151816007019081610f65919061390b565b509050507f60469ec7c6ee62537e37b986f9f7be5bb53b61f0d662dd0e088fb274421e3c6d81883388604051610f9e94939291906139dd565b60405180910390a18091505095945050505050565b60006009600084815260200190815260200160002090503373ffffffffffffffffffffffffffffffffffffffff168160020160009054906101000a900473ffffffffffffffffffffffffffffffffffffffff1673ffffffffffffffffffffffffffffffffffffffff16148061105a57503373ffffffffffffffffffffffffffffffffffffffff16611042610b36565b73ffffffffffffffffffffffffffffffffffffffff16145b611099576040517f08c379a000000000000000000000000000000000000000000000000000000000815260040161109090613a75565b60405180910390fd5b600060028111156110ad576110ac612e2a565b5b8160060160009054906101000a900460ff1660028111156110d1576110d0612e2a565b5b14611111576040517f08c379a000000000000000000000000000000000000000000000000000000000815260040161110890613ae1565b60405180910390fd5b60028160060160006101000a81548160ff0219169083600281111561113957611138612e2a565b5b02179055507f65032d3cc955c731f4c2a4178f663dbcc6c08e5163bad5a3149773f3894548d3838360405161116f929190613b01565b60405180910390a1505050565b6111878484846105b7565b61119b611192611b4a565b858585856121d0565b50505050565b6111a9611dbf565b600073ffffffffffffffffffffffffffffffffffffffff168173ffffffffffffffffffffffffffffffffffffffff1603611218576040517f08c379a000000000000000000000000000000000000000000000000000000000815260040161120f90613b7d565b60405180910390fd5b600a60008273ffffffffffffffffffffffffffffffffffffffff1673ffffffffffffffffffffffffffffffffffffffff16815260200190815260200160002060009054906101000a900460ff16156112a5576040517f08c379a000000000000000000000000000000000000000000000000000000000815260040161129c90613be9565b60405180910390fd5b6001600a60008373ffffffffffffffffffffffffffffffffffffffff1673ffffffffffffffffffffffffffffffffffffffff16815260200190815260200160002060006101000a81548160ff0219169083151502179055507fcbcf22dcb2331e843873a8ef89eab2451c503015fb28d984e14c4acc9f7627718160405161132c9190612cbb565b60405180910390a150565b61133f611dbf565b600a60008273ffffffffffffffffffffffffffffffffffffffff1673ffffffffffffffffffffffffffffffffffffffff16815260200190815260200160002060009054906101000a900460ff166113cb576040517f08c379a00000000000000000000000000000000000000000000000000000000081526004016113c290613c55565b60405180910390fd5b6000600a60008373ffffffffffffffffffffffffffffffffffffffff1673ffffffffffffffffffffffffffffffffffffffff16815260200190815260200160002060006101000a81548160ff0219169083151502179055507facb594097a8aa89d56ff24dffeb0a4669090559f677cc6842ff41d20a1426219816040516114529190612cbb565b60405180910390a150565b606061146882611a85565b5060006006600084815260200190815260200160002080546114899061340a565b80601f01602080910402602001604051908101604052809291908181526020018280546114b59061340a565b80156115025780601f106114d757610100808354040283529160200191611502565b820191906000526020600020905b8154815290600101906020018083116114e557829003601f168201915b505050505090506000611513612381565b9050600081510361152857819250505061156b565b60008251111561155d578082604051602001611545929190613cb1565b6040516020818303038152906040529250505061156b565b61156684612398565b925050505b919050565b6000600560008473ffffffffffffffffffffffffffffffffffffffff1673ffffffffffffffffffffffffffffffffffffffff16815260200190815260200160002060008373ffffffffffffffffffffffffffffffffffffffff1673ffffffffffffffffffffffffffffffffffffffff16815260200190815260200160002060009054906101000a900460ff16905092915050565b61160c611dbf565b600073ffffffffffffffffffffffffffffffffffffffff168173ffffffffffffffffffffffffffffffffffffffff160361167e5760006040517f1e4fbdf70000000000000000000000000000000000000000000000000000000081526004016116759190612cbb565b60405180910390fd5b61168781611e46565b50565b60008060096000848152602001908152602001600020604051806101000160405290816000820180546116bc9061340a565b80601f01602080910402602001604051908101604052809291908181526020018280546116e89061340a565b80156117355780601f1061170a57610100808354040283529160200191611735565b820191906000526020600020905b81548152906001019060200180831161171857829003601f168201915b5050505050815260200160018201805461174e9061340a565b80601f016020809104026020016040519081016040528092919081815260200182805461177a9061340a565b80156117c75780601f1061179c576101008083540402835291602001916117c7565b820191906000526020600020905b8154815290600101906020018083116117aa57829003601f168201915b505050505081526020016002820160009054906101000a900473ffffffffffffffffffffffffffffffffffffffff1673ffffffffffffffffffffffffffffffffffffffff1673ffffffffffffffffffffffffffffffffffffffff1681526020016003820160009054906101000a900473ffffffffffffffffffffffffffffffffffffffff1673ffffffffffffffffffffffffffffffffffffffff1673ffffffffffffffffffffffffffffffffffffffff16815260200160048201548152602001600582015481526020016006820160009054906101000a900460ff1660028111156118b5576118b4612e2a565b5b60028111156118c7576118c6612e2a565b5b81526020016007820180546118db9061340a565b80601f01602080910402602001604051908101604052809291908181526020018280546119079061340a565b80156119545780601f1061192957610100808354040283529160200191611954565b820191906000526020600020905b81548152906001019060200180831161193757829003601f168201915b50505050508152505090506000600281111561197357611972612e2a565b5b8160c00151600281111561198a57611989612e2a565b5b14801561199b57508060a001514211155b915050919050565b60007f80ac58cd000000000000000000000000000000000000000000000000000000007bffffffffffffffffffffffffffffffffffffffffffffffffffffffff1916827bffffffffffffffffffffffffffffffffffffffffffffffffffffffff19161480611a6e57507f5b5e139f000000000000000000000000000000000000000000000000000000007bffffffffffffffffffffffffffffffffffffffffffffffffffffffff1916827bffffffffffffffffffffffffffffffffffffffffffffffffffffffff1916145b80611a7e5750611a7d82612401565b5b9050919050565b600080611a918361246b565b9050600073ffffffffffffffffffffffffffffffffffffffff168173ffffffffffffffffffffffffffffffffffffffff1603611b0457826040517f7e273289000000000000000000000000000000000000000000000000000000008152600401611afb9190612f90565b60405180910390fd5b80915050919050565b60006004600083815260200190815260200160002060009054906101000a900473ffffffffffffffffffffffffffffffffffffffff169050919050565b600033905090565b611b5f83838360016124a8565b505050565b600080611b708461246b565b9050600073ffffffffffffffffffffffffffffffffffffffff168373ffffffffffffffffffffffffffffffffffffffff1614611bb257611bb181848661266d565b5b600073ffffffffffffffffffffffffffffffffffffffff168173ffffffffffffffffffffffffffffffffffffffff1614611c4357611bf46000856000806124a8565b6001600360008373ffffffffffffffffffffffffffffffffffffffff1673ffffffffffffffffffffffffffffffffffffffff168152602001908152602001600020600082825403925050819055505b600073ffffffffffffffffffffffffffffffffffffffff168573ffffffffffffffffffffffffffffffffffffffff1614611cc6576001600360008773ffffffffffffffffffffffffffffffffffffffff1673ffffffffffffffffffffffffffffffffffffffff168152602001908152602001600020600082825401925050819055505b846002600086815260200190815260200160002060006101000a81548173ffffffffffffffffffffffffffffffffffffffff021916908373ffffffffffffffffffffffffffffffffffffffff160217905550838573ffffffffffffffffffffffffffffffffffffffff168273ffffffffffffffffffffffffffffffffffffffff167fddf252ad1be2c89b69c2b068fc378daa952ba7f163c4a11628f55a4df523b3ef60405160405180910390a4809150509392505050565b60008073ffffffffffffffffffffffffffffffffffffffff16611da08361246b565b73ffffffffffffffffffffffffffffffffffffffff1614159050919050565b611dc7611b4a565b73ffffffffffffffffffffffffffffffffffffffff16611de5610b36565b73ffffffffffffffffffffffffffffffffffffffff1614611e4457611e08611b4a565b6040517f118cdaa7000000000000000000000000000000000000000000000000000000008152600401611e3b9190612cbb565b60405180910390fd5b565b6000600760009054906101000a900473ffffffffffffffffffffffffffffffffffffffff16905081600760006101000a81548173ffffffffffffffffffffffffffffffffffffffff021916908373ffffffffffffffffffffffffffffffffffffffff1602179055508173ffffffffffffffffffffffffffffffffffffffff168173ffffffffffffffffffffffffffffffffffffffff167f8be0079c531659141344cd1fd0a4f28419497f9722a3daafe3b4186f6b6457e060405160405180910390a35050565b600073ffffffffffffffffffffffffffffffffffffffff168273ffffffffffffffffffffffffffffffffffffffff1603611f7d57816040517f5b08ba18000000000000000000000000000000000000000000000000000000008152600401611f749190612cbb565b60405180910390fd5b80600560008573ffffffffffffffffffffffffffffffffffffffff1673ffffffffffffffffffffffffffffffffffffffff16815260200190815260200160002060008473ffffffffffffffffffffffffffffffffffffffff1673ffffffffffffffffffffffffffffffffffffffff16815260200190815260200160002060006101000a81548160ff0219169083151502179055508173ffffffffffffffffffffffffffffffffffffffff168373ffffffffffffffffffffffffffffffffffffffff167f17307eab39ab6107e8899845ad3d59bd9653f200f220920489ca2b5937696c318360405161206e9190612b4a565b60405180910390a3505050565b600073ffffffffffffffffffffffffffffffffffffffff168273ffffffffffffffffffffffffffffffffffffffff16036120ed5760006040517f64a0ae920000000000000000000000000000000000000000000000000000000081526004016120e49190612cbb565b60405180910390fd5b60006120fb83836000611b64565b9050600073ffffffffffffffffffffffffffffffffffffffff168173ffffffffffffffffffffffffffffffffffffffff161461216f5760006040517f73c6ac6e0000000000000000000000000000000000000000000000000000000081526004016121669190612cbb565b60405180910390fd5b505050565b80600660008481526020019081526020016000209081612194919061390b565b507ff8e1a15aba9398e019f0b49df1a4fde98ee17ae345cb5f6b5e2c27f5033e8ce7826040516121c49190612f90565b60405180910390a15050565b60008373ffffffffffffffffffffffffffffffffffffffff163b111561237a578273ffffffffffffffffffffffffffffffffffffffff1663150b7a02868685856040518563ffffffff1660e01b815260040161222f9493929190613d2a565b6020604051808303816000875af192505050801561226b57506040513d601f19601f820116820180604052508101906122689190613d8b565b60015b6122ef573d806000811461229b576040519150601f19603f3d011682016040523d82523d6000602084013e6122a0565b606091505b5060008151036122e757836040517f64a0ae920000000000000000000000000000000000000000000000000000000081526004016122de9190612cbb565b60405180910390fd5b805181602001fd5b63150b7a0260e01b7bffffffffffffffffffffffffffffffffffffffffffffffffffffffff1916817bffffffffffffffffffffffffffffffffffffffffffffffffffffffff19161461237857836040517f64a0ae9200000000000000000000000000000000000000000000000000000000815260040161236f9190612cbb565b60405180910390fd5b505b5050505050565b606060405180602001604052806000815250905090565b60606123a382611a85565b5060006123ae612381565b905060008151116123ce57604051806020016040528060008152506123f9565b806123d884612731565b6040516020016123e9929190613cb1565b6040516020818303038152906040525b915050919050565b60007f01ffc9a7000000000000000000000000000000000000000000000000000000007bffffffffffffffffffffffffffffffffffffffffffffffffffffffff1916827bffffffffffffffffffffffffffffffffffffffffffffffffffffffff1916149050919050565b60006002600083815260200190815260200160002060009054906101000a900473ffffffffffffffffffffffffffffffffffffffff169050919050565b80806124e15750600073ffffffffffffffffffffffffffffffffffffffff168273ffffffffffffffffffffffffffffffffffffffff1614155b156126155760006124f184611a85565b9050600073ffffffffffffffffffffffffffffffffffffffff168373ffffffffffffffffffffffffffffffffffffffff161415801561255c57508273ffffffffffffffffffffffffffffffffffffffff168173ffffffffffffffffffffffffffffffffffffffff1614155b801561256f575061256d8184611570565b155b156125b157826040517fa9fbf51f0000000000000000000000000000000000000000000000000000000081526004016125a89190612cbb565b60405180910390fd5b811561261357838573ffffffffffffffffffffffffffffffffffffffff168273ffffffffffffffffffffffffffffffffffffffff167f8c5be1e5ebec7d5bd14f71427d1e84f3dd0314c0f7b2291e5b200ac8c7c3b92560405160405180910390a45b505b836004600085815260200190815260200160002060006101000a81548173ffffffffffffffffffffffffffffffffffffffff021916908373ffffffffffffffffffffffffffffffffffffffff16021790555050505050565b6126788383836127ff565b61272c57600073ffffffffffffffffffffffffffffffffffffffff168373ffffffffffffffffffffffffffffffffffffffff16036126ed57806040517f7e2732890000000000000000000000000000000000000000000000000000000081526004016126e49190612f90565b60405180910390fd5b81816040517f177e802f000000000000000000000000000000000000000000000000000000008152600401612723929190613db8565b60405180910390fd5b505050565b606060006001612740846128c0565b01905060008167ffffffffffffffff81111561275f5761275e613021565b5b6040519080825280601f01601f1916602001820160405280156127915781602001600182028036833780820191505090505b509050600082602001820190505b6001156127f4578080600190039150507f3031323334353637383961626364656600000000000000000000000000000000600a86061a8153600a85816127e8576127e7613de1565b5b0494506000850361279f575b819350505050919050565b60008073ffffffffffffffffffffffffffffffffffffffff168373ffffffffffffffffffffffffffffffffffffffff16141580156128b757508273ffffffffffffffffffffffffffffffffffffffff168473ffffffffffffffffffffffffffffffffffffffff16148061287857506128778484611570565b5b806128b657508273ffffffffffffffffffffffffffffffffffffffff1661289e83611b0d565b73ffffffffffffffffffffffffffffffffffffffff16145b5b90509392505050565b600080600090507a184f03e93ff9f4daa797ed6e38ed64bf6a1f010000000000000000831061291e577a184f03e93ff9f4daa797ed6e38ed64bf6a1f010000000000000000838161291457612913613de1565b5b0492506040810190505b6d04ee2d6d415b85acef8100000000831061295b576d04ee2d6d415b85acef8100000000838161295157612950613de1565b5b0492506020810190505b662386f26fc10000831061298a57662386f26fc1000083816129805761297f613de1565b5b0492506010810190505b6305f5e10083106129b3576305f5e10083816129a9576129a8613de1565b5b0492506008810190505b61271083106129d85761271083816129ce576129cd613de1565b5b0492506004810190505b606483106129fb57606483816129f1576129f0613de1565b5b0492506002810190505b600a8310612a0a576001810190505b80915050919050565b6040518061010001604052806060815260200160608152602001600073ffffffffffffffffffffffffffffffffffffffff168152602001600073ffffffffffffffffffffffffffffffffffffffff168152602001600081526020016000815260200160006002811115612a8957612a88612e2a565b5b8152602001606081525090565b6000604051905090565b600080fd5b600080fd5b60007fffffffff0000000000000000000000000000000000000000000000000000000082169050919050565b612adf81612aaa565b8114612aea57600080fd5b50565b600081359050612afc81612ad6565b92915050565b600060208284031215612b1857612b17612aa0565b5b6000612b2684828501612aed565b91505092915050565b60008115159050919050565b612b4481612b2f565b82525050565b6000602082019050612b5f6000830184612b3b565b92915050565b600081519050919050565b600082825260208201905092915050565b60005b83811015612b9f578082015181840152602081019050612b84565b60008484015250505050565b6000601f19601f8301169050919050565b6000612bc782612b65565b612bd18185612b70565b9350612be1818560208601612b81565b612bea81612bab565b840191505092915050565b60006020820190508181036000830152612c0f8184612bbc565b905092915050565b6000819050919050565b612c2a81612c17565b8114612c3557600080fd5b50565b600081359050612c4781612c21565b92915050565b600060208284031215612c6357612c62612aa0565b5b6000612c7184828501612c38565b91505092915050565b600073ffffffffffffffffffffffffffffffffffffffff82169050919050565b6000612ca582612c7a565b9050919050565b612cb581612c9a565b82525050565b6000602082019050612cd06000830184612cac565b92915050565b612cdf81612c9a565b8114612cea57600080fd5b50565b600081359050612cfc81612cd6565b92915050565b60008060408385031215612d1957612d18612aa0565b5b6000612d2785828601612ced565b9250506020612d3885828601612c38565b9150509250929050565b600080600060608486031215612d5b57612d5a612aa0565b5b6000612d6986828701612ced565b9350506020612d7a86828701612ced565b9250506040612d8b86828701612c38565b9150509250925092565b600060208284031215612dab57612daa612aa0565b5b6000612db984828501612ced565b91505092915050565b600082825260208201905092915050565b6000612dde82612b65565b612de88185612dc2565b9350612df8818560208601612b81565b612e0181612bab565b840191505092915050565b612e1581612c9a565b82525050565b612e2481612c17565b82525050565b7f4e487b7100000000000000000000000000000000000000000000000000000000600052602160045260246000fd5b60038110612e6a57612e69612e2a565b5b50565b6000819050612e7b82612e59565b919050565b6000612e8b82612e6d565b9050919050565b612e9b81612e80565b82525050565b6000610100830160008301518482036000860152612ebf8282612dd3565b91505060208301518482036020860152612ed98282612dd3565b9150506040830151612eee6040860182612e0c565b506060830151612f016060860182612e0c565b506080830151612f146080860182612e1b565b5060a0830151612f2760a0860182612e1b565b5060c0830151612f3a60c0860182612e92565b5060e083015184820360e0860152612f528282612dd3565b9150508091505092915050565b60006020820190508181036000830152612f798184612ea1565b905092915050565b612f8a81612c17565b82525050565b6000602082019050612fa56000830184612f81565b92915050565b612fb481612b2f565b8114612fbf57600080fd5b50565b600081359050612fd181612fab565b92915050565b60008060408385031215612fee57612fed612aa0565b5b6000612ffc85828601612ced565b925050602061300d85828601612fc2565b9150509250929050565b600080fd5b600080fd5b7f4e487b7100000000000000000000000000000000000000000000000000000000600052604160045260246000fd5b61305982612bab565b810181811067ffffffffffffffff8211171561307857613077613021565b5b80604052505050565b600061308b612a96565b90506130978282613050565b919050565b600067ffffffffffffffff8211156130b7576130b6613021565b5b6130c082612bab565b9050602081019050919050565b82818337600083830152505050565b60006130ef6130ea8461309c565b613081565b90508281526020810184848401111561310b5761310a61301c565b5b6131168482856130cd565b509392505050565b600082601f83011261313357613132613017565b5b81356131438482602086016130dc565b91505092915050565b600080600080600060a0868803121561316857613167612aa0565b5b600086013567ffffffffffffffff81111561318657613185612aa5565b5b6131928882890161311e565b955050602086013567ffffffffffffffff8111156131b3576131b2612aa5565b5b6131bf8882890161311e565b94505060406131d088828901612ced565b93505060606131e188828901612c38565b925050608086013567ffffffffffffffff81111561320257613201612aa5565b5b61320e8882890161311e565b9150509295509295909350565b6000806040838503121561323257613231612aa0565b5b600061324085828601612c38565b925050602083013567ffffffffffffffff81111561326157613260612aa5565b5b61326d8582860161311e565b9150509250929050565b600067ffffffffffffffff82111561329257613291613021565b5b61329b82612bab565b9050602081019050919050565b60006132bb6132b684613277565b613081565b9050828152602081018484840111156132d7576132d661301c565b5b6132e28482856130cd565b509392505050565b600082601f8301126132ff576132fe613017565b5b813561330f8482602086016132a8565b91505092915050565b6000806000806080858703121561333257613331612aa0565b5b600061334087828801612ced565b945050602061335187828801612ced565b935050604061336287828801612c38565b925050606085013567ffffffffffffffff81111561338357613382612aa5565b5b61338f878288016132ea565b91505092959194509250565b600080604083850312156133b2576133b1612aa0565b5b60006133c085828601612ced565b92505060206133d185828601612ced565b9150509250929050565b7f4e487b7100000000000000000000000000000000000000000000000000000000600052602260045260246000fd5b6000600282049050600182168061342257607f821691505b602082108103613435576134346133db565b5b50919050565b60006060820190506134506000830186612cac565b61345d6020830185612f81565b61346a6040830184612cac565b949350505050565b7f436572746966696361746520646f6573206e6f74206578697374000000000000600082015250565b60006134a8601a83612b70565b91506134b382613472565b602082019050919050565b600060208201905081810360008301526134d78161349b565b9050919050565b7f4e6f7420617574686f72697a6564206173206365727469666965720000000000600082015250565b6000613514601b83612b70565b915061351f826134de565b602082019050919050565b6000602082019050818103600083015261354381613507565b9050919050565b7f43657274696669636174652049442063616e6e6f7420626520656d7074790000600082015250565b6000613580601e83612b70565b915061358b8261354a565b602082019050919050565b600060208201905081810360008301526135af81613573565b9050919050565b7f496e76616c69642063657274696669656420656e746974792061646472657373600082015250565b60006135ec602083612b70565b91506135f7826135b6565b602082019050919050565b6000602082019050818103600083015261361b816135df565b9050919050565b7f56616c696469747920706572696f64206d75737420626520677265617465722060008201527f7468616e20300000000000000000000000000000000000000000000000000000602082015250565b600061367e602683612b70565b915061368982613622565b604082019050919050565b600060208201905081810360008301526136ad81613671565b9050919050565b7f4e487b7100000000000000000000000000000000000000000000000000000000600052601160045260246000fd5b60006136ee82612c17565b91507fffffffffffffffffffffffffffffffffffffffffffffffffffffffffffffffff82036137205761371f6136b4565b5b600182019050919050565b600061373682612c17565b915061374183612c17565b9250828201905080821115613759576137586136b4565b5b92915050565b60008190508160005260206000209050919050565b60006020601f8301049050919050565b600082821b905092915050565b6000600883026137c17fffffffffffffffffffffffffffffffffffffffffffffffffffffffffffffffff82613784565b6137cb8683613784565b95508019841693508086168417925050509392505050565b6000819050919050565b60006138086138036137fe84612c17565b6137e3565b612c17565b9050919050565b6000819050919050565b613822836137ed565b61383661382e8261380f565b848454613791565b825550505050565b600090565b61384b61383e565b613856818484613819565b505050565b5b8181101561387a5761386f600082613843565b60018101905061385c565b5050565b601f8211156138bf576138908161375f565b61389984613774565b810160208510156138a8578190505b6138bc6138b485613774565b83018261385b565b50505b505050565b600082821c905092915050565b60006138e2600019846008026138c4565b1980831691505092915050565b60006138fb83836138d1565b9150826002028217905092915050565b61391482612b65565b67ffffffffffffffff81111561392d5761392c613021565b5b613937825461340a565b61394282828561387e565b600060209050601f8311600181146139755760008415613963578287015190505b61396d85826138ef565b8655506139d5565b601f1984166139838661375f565b60005b828110156139ab57848901518255600182019150602085019450602081019050613986565b868310156139c857848901516139c4601f8916826138d1565b8355505b6001600288020188555050505b505050505050565b60006080820190506139f26000830187612f81565b8181036020830152613a048186612bbc565b9050613a136040830185612cac565b613a206060830184612cac565b95945050505050565b7f4f6e6c7920697373756572206f72206f776e65722063616e207265766f6b6500600082015250565b6000613a5f601f83612b70565b9150613a6a82613a29565b602082019050919050565b60006020820190508181036000830152613a8e81613a52565b9050919050565b7f4365727469666963617465206e6f742061637469766500000000000000000000600082015250565b6000613acb601683612b70565b9150613ad682613a95565b602082019050919050565b60006020820190508181036000830152613afa81613abe565b9050919050565b6000604082019050613b166000830185612f81565b8181036020830152613b288184612bbc565b90509392505050565b7f496e76616c696420636572746966696572206164647265737300000000000000600082015250565b6000613b67601983612b70565b9150613b7282613b31565b602082019050919050565b60006020820190508181036000830152613b9681613b5a565b9050919050565b7f416c726561647920617574686f72697a65640000000000000000000000000000600082015250565b6000613bd3601283612b70565b9150613bde82613b9d565b602082019050919050565b60006020820190508181036000830152613c0281613bc6565b9050919050565b7f4e6f7420616e20617574686f72697a6564206365727469666965720000000000600082015250565b6000613c3f601b83612b70565b9150613c4a82613c09565b602082019050919050565b60006020820190508181036000830152613c6e81613c32565b9050919050565b600081905092915050565b6000613c8b82612b65565b613c958185613c75565b9350613ca5818560208601612b81565b80840191505092915050565b6000613cbd8285613c80565b9150613cc98284613c80565b91508190509392505050565b600081519050919050565b600082825260208201905092915050565b6000613cfc82613cd5565b613d068185613ce0565b9350613d16818560208601612b81565b613d1f81612bab565b840191505092915050565b6000608082019050613d3f6000830187612cac565b613d4c6020830186612cac565b613d596040830185612f81565b8181036060830152613d6b8184613cf1565b905095945050505050565b600081519050613d8581612ad6565b92915050565b600060208284031215613da157613da0612aa0565b5b6000613daf84828501613d76565b91505092915050565b6000604082019050613dcd6000830185612cac565b613dda6020830184612f81565b9392505050565b7f4e487b7100000000000000000000000000000000000000000000000000000000600052601260045260246000fdfea2646970667358221220dfbc1f21a0e85fa5c1eb15cbf113fec92f6859e0c2ade160947941ca618b5ce364736f6c634300081c0033",
  "linkReferences": {},
  "deployedLinkReferences": {}
}