{
  "_format": "hh-sol-artifact-1",
  "contractName": "Registry",
  "sourceName": "contracts/Registry.sol",
  "abi": [
    {
      "inputs": [],
      "stateMutability": "nonpayable",
      "type": "constructor"
    },
    {
      "inputs": [
        {
          "internalType": "address",
          "name": "owner",
          "type": "address"
        }
      ],
      "name": "OwnableInvalidOwner",
      "type": "error"
    },
    {
      "inputs": [
        {
          "internalType": "address",
          "name": "account",
          "type": "address"
        }
      ],
      "name": "OwnableUnauthorizedAccount",
      "type": "error"
    },
    {
      "anonymous": false,
      "inputs": [
        {
          "indexed": false,
          "internalType": "address",
          "name": "certifier",
          "type": "address"
        }
      ],
      "name": "CertifierRegistered",
      "type": "event"
    },
    {
      "anonymous": false,
      "inputs": [
        {
          "indexed": false,
          "internalType": "address",
          "name": "certifier",
          "type": "address"
        }
      ],
      "name": "CertifierRemoved",
      "type": "event"
    },
    {
      "anonymous": false,
      "inputs": [
        {
          "indexed": false,
          "internalType": "address",
          "name": "certificateContract",
          "type": "address"
        },
        {
          "indexed": false,
          "internalType": "address",
          "name": "batchContract",
          "type": "address"
        }
      ],
      "name": "ContractsDeployed",
      "type": "event"
    },
    {
      "anonymous": false,
      "inputs": [
        {
          "indexed": true,
          "internalType": "address",
          "name": "previousOwner",
          "type": "address"
        },
        {
          "indexed": true,
          "internalType": "address",
          "name": "newOwner",
          "type": "address"
        }
      ],
      "name": "OwnershipTransferred",
      "type": "event"
    },
    {
      "anonymous": false,
      "inputs": [
        {
          "indexed": false,
          "internalType": "address",
          "name": "producer",
          "type": "address"
        }
      ],
      "name": "ProducerRegistered",
      "type": "event"
    },
    {
      "anonymous": false,
      "inputs": [
        {
          "indexed": false,
          "internalType": "address",
          "name": "producer",
          "type": "address"
        }
      ],
      "name": "ProducerRemoved",
      "type": "event"
    },
    {
      "anonymous": false,
      "inputs": [
        {
          "indexed": false,
          "internalType": "address",
          "name": "verifier",
          "type": "address"
        }
      ],
      "name": "VerifierRegistered",
      "type": "event"
    },
    {
      "anonymous": false,
      "inputs": [
        {
          "indexed": false,
          "internalType": "address",
          "name": "verifier",
          "type": "address"
        }
      ],
      "name": "VerifierRemoved",
      "type": "event"
    },
    {
      "inputs": [],
      "name": "batchContract",
      "outputs": [
        {
          "internalType": "contract BatchNFT",
          "name": "",
          "type": "address"
        }
      ],
      "stateMutability": "view",
      "type": "function"
    },
    {
      "inputs": [],
      "name": "certificateContract",
      "outputs": [
        {
          "internalType": "contract CertificateNFT",
          "name": "",
          "type": "address"
        }
      ],
      "stateMutability": "view",
      "type": "function"
    },
    {
      "inputs": [
        {
          "internalType": "address",
          "name": "",
          "type": "address"
        }
      ],
      "name": "certifiers",
      "outputs": [
        {
          "internalType": "bool",
          "name": "",
          "type": "bool"
        }
      ],
      "stateMutability": "view",
      "type": "function"
    },
    {
      "inputs": [],
      "name": "deployContracts",
      "outputs": [],
      "stateMutability": "nonpayable",
      "type": "function"
    },
    {
      "inputs": [
        {
          "internalType": "address",
          "name": "certifier",
          "type": "address"
        }
      ],
      "name": "isCertifier",
      "outputs": [
        {
          "internalType": "bool",
          "name": "",
          "type": "bool"
        }
      ],
      "stateMutability": "view",
      "type": "function"
    },
    {
      "inputs": [
        {
          "internalType": "address",
          "name": "producer",
          "type": "address"
        }
      ],
      "name": "isProducer",
      "outputs": [
        {
          "internalType": "bool",
          "name": "",
          "type": "bool"
        }
      ],
      "stateMutability": "view",
      "type": "function"
    },
    {
      "inputs": [
        {
          "internalType": "address",
          "name": "verifier",
          "type": "address"
        }
      ],
      "name": "isVerifier",
      "outputs": [
        {
          "internalType": "bool",
          "name": "",
          "type": "bool"
        }
      ],
      "stateMutability": "view",
      "type": "function"
    },
    {
      "inputs": [],
      "name": "owner",
      "outputs": [
        {
          "internalType": "address",
          "name": "",
          "type": "address"
        }
      ],
      "stateMutability": "view",
      "type": "function"
    },
    {
      "inputs": [
        {
          "internalType": "address",
          "name": "",
          "type": "address"
        }
      ],
      "name": "producers",
      "outputs": [
        {
          "internalType": "bool",
          "name": "",
          "type": "bool"
        }
      ],
      "stateMutability": "view",
      "type": "function"
    },
    {
      "inputs": [
        {
          "internalType": "address",
          "name": "certifier",
          "type": "address"
        }
      ],
      "name": "registerCertifier",
      "outputs": [],
      "stateMutability": "nonpayable",
      "type": "function"
    },
    {
      "inputs": [
        {
          "internalType": "address",
          "name": "producer",
          "type": "address"
        }
      ],
      "name": "registerProducer",
      "outputs": [],
      "stateMutability": "nonpayable",
      "type": "function"
    },
    {
      "inputs": [
        {
          "internalType": "address",
          "name": "verifier",
          "type": "address"
        }
      ],
      "name": "registerVerifier",
      "outputs": [],
      "stateMutability": "nonpayable",
      "type": "function"
    },
    {
      "inputs": [
        {
          "internalType": "address",
          "name": "certifier",
          "type": "address"
        }
      ],
      "name": "removeCertifier",
      "outputs": [],
      "stateMutability": "nonpayable",
      "type": "function"
    },
    {
      "inputs": [
        {
          "internalType": "address",
          "name": "producer",
          "type": "address"
        }
      ],
      "name": "removeProducer",
      "outputs": [],
      "stateMutability": "nonpayable",
      "type": "function"
    },
    {
      "inputs": [
        {
          "internalType": "address",
          "name": "verifier",
          "type": "address"
        }
      ],
      "name": "removeVerifier",
      "outputs": [],
      "stateMutability": "nonpayable",
      "type": "function"
    },
    {
      "inputs": [],
      "name": "renounceOwnership",
      "outputs": [],
      "stateMutability": "nonpayable",
      "type": "function"
    },
    {
      "inputs": [
        {
          "internalType": "address",
          "name": "certificateContractAddress",
          "type": "address"
        },
        {
          "internalType": "address",
          "name": "batchContractAddress",
          "type": "address"
        }
      ],
      "name": "setContractAddresses",
      "outputs": [],
      "stateMutability": "nonpayable",
      "type": "function"
    },
    {
      "inputs": [
        {
          "internalType": "address",
          "name": "newOwner",
          "type": "address"
        }
      ],
      "name": "transferOwnership",
      "outputs": [],
      "stateMutability": "nonpayable",
      "type": "function"
    },
    {
      "inputs": [
        {
          "internalType": "address",
          "name": "",
          "type": "address"
        }
      ],
      "name": "verifiers",
      "outputs": [
        {
          "internalType": "bool",
          "name": "",
          "type": "bool"
        }
      ],
      "stateMutability": "view",
      "type": "function"
    }
  ],
  "bytecode": "0x608060405234801561001057600080fd5b5033600073ffffffffffffffffffffffffffffffffffffffff168173ffffffffffffffffffffffffffffffffffffffff16036100845760006040517f1e4fbdf700000000000000000000000000000000000000000000000000000000815260040161007b919061034b565b60405180910390fd5b6100938161024660201b60201c565b506001600360003373ffffffffffffffffffffffffffffffffffffffff1673ffffffffffffffffffffffffffffffffffffffff16815260200190815260200160002060006101000a81548160ff0219169083151502179055506001600460003373ffffffffffffffffffffffffffffffffffffffff1673ffffffffffffffffffffffffffffffffffffffff16815260200190815260200160002060006101000a81548160ff0219169083151502179055506001600560003373ffffffffffffffffffffffffffffffffffffffff1673ffffffffffffffffffffffffffffffffffffffff16815260200190815260200160002060006101000a81548160ff0219169083151502179055507f26b4ddc612b545eaf2e27e00fc39d52919e1126e663d8619ecd71580ddcffd52336040516101cb919061034b565b60405180910390a17f523dd2bfefd64323042504bb6d7886a60e66bef86e7379de81fc45837853c3fa33604051610202919061034b565b60405180910390a17f85cf819da48b7e3c138cca9531adae41f25faeff5801e9e096eb2c1fb3cbbab733604051610239919061034b565b60405180910390a1610366565b60008060009054906101000a900473ffffffffffffffffffffffffffffffffffffffff169050816000806101000a81548173ffffffffffffffffffffffffffffffffffffffff021916908373ffffffffffffffffffffffffffffffffffffffff1602179055508173ffffffffffffffffffffffffffffffffffffffff168173ffffffffffffffffffffffffffffffffffffffff167f8be0079c531659141344cd1fd0a4f28419497f9722a3daafe3b4186f6b6457e060405160405180910390a35050565b600073ffffffffffffffffffffffffffffffffffffffff82169050919050565b60006103358261030a565b9050919050565b6103458161032a565b82525050565b6000602082019050610360600083018461033c565b92915050565b61c59a806103756000396000f3fe608060405234801561001057600080fd5b50600436106101205760003560e01c80636c824487116100ad578063c639e8c511610071578063c639e8c5146102f3578063ca2dfd0a1461030f578063cd931e401461032b578063f2fde38b14610347578063f55210221461036357610120565b80636c82448714610261578063715018a614610291578063779c7ac31461029b5780638da5cb5b146102b9578063a8f06193146102d757610120565b806333105218116100f457806333105218146101ab5780633c530ace146101db5780633f185b6c146101f75780635d42b2b9146102135780635e66bdb31461024357610120565b806266753e146101255780631081259e146101415780631c2353e11461014b57806326324eff1461017b575b600080fd5b61013f600480360381019061013a919061191c565b610393565b005b61014961059d565b005b6101656004803603810190610160919061191c565b6107b4565b6040516101729190611964565b60405180910390f35b6101956004803603810190610190919061191c565b61080a565b6040516101a29190611964565b60405180910390f35b6101c560048036038101906101c0919061191c565b61082a565b6040516101d29190611964565b60405180910390f35b6101f560048036038101906101f0919061191c565b610880565b005b610211600480360381019061020c919061191c565b610afa565b005b61022d6004803603810190610228919061191c565b610d04565b60405161023a9190611964565b60405180910390f35b61024b610d24565b60405161025891906119de565b60405180910390f35b61027b6004803603810190610276919061191c565b610d4a565b6040516102889190611964565b60405180910390f35b610299610d6a565b005b6102a3610d7e565b6040516102b09190611a1a565b60405180910390f35b6102c1610da4565b6040516102ce9190611a44565b60405180910390f35b6102f160048036038101906102ec919061191c565b610dcd565b005b61030d6004803603810190610308919061191c565b611047565b005b6103296004803603810190610324919061191c565b6112c1565b005b61034560048036038101906103409190611a5f565b6114cb565b005b610361600480360381019061035c919061191c565b611670565b005b61037d6004803603810190610378919061191c565b6116f6565b60405161038a9190611964565b60405180910390f35b61039b61174c565b600360008273ffffffffffffffffffffffffffffffffffffffff1673ffffffffffffffffffffffffffffffffffffffff16815260200190815260200160002060009054906101000a900460ff16610427576040517f08c379a000000000000000000000000000000000000000000000000000000000815260040161041e90611afc565b60405180910390fd5b6000600360008373ffffffffffffffffffffffffffffffffffffffff1673ffffffffffffffffffffffffffffffffffffffff16815260200190815260200160002060006101000a81548160ff021916908315150217905550600073ffffffffffffffffffffffffffffffffffffffff16600160009054906101000a900473ffffffffffffffffffffffffffffffffffffffff1673ffffffffffffffffffffffffffffffffffffffff161461056357600160009054906101000a900473ffffffffffffffffffffffffffffffffffffffff1673ffffffffffffffffffffffffffffffffffffffff1663c86de368826040518263ffffffff1660e01b81526004016105309190611a44565b600060405180830381600087803b15801561054a57600080fd5b505af115801561055e573d6000803e3d6000fd5b505050505b7f45cee538c02c2ddcdfc31b5b9ab913c23f938f81483c880884d94694b2985a33816040516105929190611a44565b60405180910390a150565b6105a561174c565b600073ffffffffffffffffffffffffffffffffffffffff16600160009054906101000a900473ffffffffffffffffffffffffffffffffffffffff1673ffffffffffffffffffffffffffffffffffffffff1614610636576040517f08c379a000000000000000000000000000000000000000000000000000000000815260040161062d90611b68565b60405180910390fd5b6040516106429061189f565b604051809103906000f08015801561065e573d6000803e3d6000fd5b50600160006101000a81548173ffffffffffffffffffffffffffffffffffffffff021916908373ffffffffffffffffffffffffffffffffffffffff160217905550600160009054906101000a900473ffffffffffffffffffffffffffffffffffffffff166040516106ce906118ac565b6106d89190611a44565b604051809103906000f0801580156106f4573d6000803e3d6000fd5b50600260006101000a81548173ffffffffffffffffffffffffffffffffffffffff021916908373ffffffffffffffffffffffffffffffffffffffff1602179055507fe465fea41ee621d19c8553bf4782d6aa9f4eb649f66a8229b494ce59e0cc1166600160009054906101000a900473ffffffffffffffffffffffffffffffffffffffff16600260009054906101000a900473ffffffffffffffffffffffffffffffffffffffff166040516107aa929190611b88565b60405180910390a1565b6000600360008373ffffffffffffffffffffffffffffffffffffffff1673ffffffffffffffffffffffffffffffffffffffff16815260200190815260200160002060009054906101000a900460ff169050919050565b60046020528060005260406000206000915054906101000a900460ff1681565b6000600560008373ffffffffffffffffffffffffffffffffffffffff1673ffffffffffffffffffffffffffffffffffffffff16815260200190815260200160002060009054906101000a900460ff169050919050565b61088861174c565b600073ffffffffffffffffffffffffffffffffffffffff168173ffffffffffffffffffffffffffffffffffffffff16036108f7576040517f08c379a00000000000000000000000000000000000000000000000000000000081526004016108ee90611bfd565b60405180910390fd5b600460008273ffffffffffffffffffffffffffffffffffffffff1673ffffffffffffffffffffffffffffffffffffffff16815260200190815260200160002060009054906101000a900460ff1615610984576040517f08c379a000000000000000000000000000000000000000000000000000000000815260040161097b90611c69565b60405180910390fd5b6001600460008373ffffffffffffffffffffffffffffffffffffffff1673ffffffffffffffffffffffffffffffffffffffff16815260200190815260200160002060006101000a81548160ff021916908315150217905550600073ffffffffffffffffffffffffffffffffffffffff16600260009054906101000a900473ffffffffffffffffffffffffffffffffffffffff1673ffffffffffffffffffffffffffffffffffffffff1614610ac057600260009054906101000a900473ffffffffffffffffffffffffffffffffffffffff1673ffffffffffffffffffffffffffffffffffffffff1663f98f5c55826040518263ffffffff1660e01b8152600401610a8d9190611a44565b600060405180830381600087803b158015610aa757600080fd5b505af1158015610abb573d6000803e3d6000fd5b505050505b7f523dd2bfefd64323042504bb6d7886a60e66bef86e7379de81fc45837853c3fa81604051610aef9190611a44565b60405180910390a150565b610b0261174c565b600460008273ffffffffffffffffffffffffffffffffffffffff1673ffffffffffffffffffffffffffffffffffffffff16815260200190815260200160002060009054906101000a900460ff16610b8e576040517f08c379a0000000000000000000000000000000000000000000000000000000008152600401610b8590611cd5565b60405180910390fd5b6000600460008373ffffffffffffffffffffffffffffffffffffffff1673ffffffffffffffffffffffffffffffffffffffff16815260200190815260200160002060006101000a81548160ff021916908315150217905550600073ffffffffffffffffffffffffffffffffffffffff16600260009054906101000a900473ffffffffffffffffffffffffffffffffffffffff1673ffffffffffffffffffffffffffffffffffffffff1614610cca57600260009054906101000a900473ffffffffffffffffffffffffffffffffffffffff1673ffffffffffffffffffffffffffffffffffffffff1663f9f8904a826040518263ffffffff1660e01b8152600401610c979190611a44565b600060405180830381600087803b158015610cb157600080fd5b505af1158015610cc5573d6000803e3d6000fd5b505050505b7fb78e9906c5bae930ccf756a5214c9855b1782f0eb30f9566de2384f034af48f381604051610cf99190611a44565b60405180910390a150565b60036020528060005260406000206000915054906101000a900460ff1681565b600260009054906101000a900473ffffffffffffffffffffffffffffffffffffffff1681565b60056020528060005260406000206000915054906101000a900460ff1681565b610d7261174c565b610d7c60006117d3565b565b600160009054906101000a900473ffffffffffffffffffffffffffffffffffffffff1681565b60008060009054906101000a900473ffffffffffffffffffffffffffffffffffffffff16905090565b610dd561174c565b600073ffffffffffffffffffffffffffffffffffffffff168173ffffffffffffffffffffffffffffffffffffffff1603610e44576040517f08c379a0000000000000000000000000000000000000000000000000000000008152600401610e3b90611d41565b60405180910390fd5b600360008273ffffffffffffffffffffffffffffffffffffffff1673ffffffffffffffffffffffffffffffffffffffff16815260200190815260200160002060009054906101000a900460ff1615610ed1576040517f08c379a0000000000000000000000000000000000000000000000000000000008152600401610ec890611dad565b60405180910390fd5b6001600360008373ffffffffffffffffffffffffffffffffffffffff1673ffffffffffffffffffffffffffffffffffffffff16815260200190815260200160002060006101000a81548160ff021916908315150217905550600073ffffffffffffffffffffffffffffffffffffffff16600160009054906101000a900473ffffffffffffffffffffffffffffffffffffffff1673ffffffffffffffffffffffffffffffffffffffff161461100d57600160009054906101000a900473ffffffffffffffffffffffffffffffffffffffff1673ffffffffffffffffffffffffffffffffffffffff1663be720147826040518263ffffffff1660e01b8152600401610fda9190611a44565b600060405180830381600087803b158015610ff457600080fd5b505af1158015611008573d6000803e3d6000fd5b505050505b7f26b4ddc612b545eaf2e27e00fc39d52919e1126e663d8619ecd71580ddcffd528160405161103c9190611a44565b60405180910390a150565b61104f61174c565b600073ffffffffffffffffffffffffffffffffffffffff168173ffffffffffffffffffffffffffffffffffffffff16036110be576040517f08c379a00000000000000000000000000000000000000000000000000000000081526004016110b590611e19565b60405180910390fd5b600560008273ffffffffffffffffffffffffffffffffffffffff1673ffffffffffffffffffffffffffffffffffffffff16815260200190815260200160002060009054906101000a900460ff161561114b576040517f08c379a000000000000000000000000000000000000000000000000000000000815260040161114290611e85565b60405180910390fd5b6001600560008373ffffffffffffffffffffffffffffffffffffffff1673ffffffffffffffffffffffffffffffffffffffff16815260200190815260200160002060006101000a81548160ff021916908315150217905550600073ffffffffffffffffffffffffffffffffffffffff16600260009054906101000a900473ffffffffffffffffffffffffffffffffffffffff1673ffffffffffffffffffffffffffffffffffffffff161461128757600260009054906101000a900473ffffffffffffffffffffffffffffffffffffffff1673ffffffffffffffffffffffffffffffffffffffff166320ad8cab826040518263ffffffff1660e01b81526004016112549190611a44565b600060405180830381600087803b15801561126e57600080fd5b505af1158015611282573d6000803e3d6000fd5b505050505b7f85cf819da48b7e3c138cca9531adae41f25faeff5801e9e096eb2c1fb3cbbab7816040516112b69190611a44565b60405180910390a150565b6112c961174c565b600560008273ffffffffffffffffffffffffffffffffffffffff1673ffffffffffffffffffffffffffffffffffffffff16815260200190815260200160002060009054906101000a900460ff16611355576040517f08c379a000000000000000000000000000000000000000000000000000000000815260040161134c90611ef1565b60405180910390fd5b6000600560008373ffffffffffffffffffffffffffffffffffffffff1673ffffffffffffffffffffffffffffffffffffffff16815260200190815260200160002060006101000a81548160ff021916908315150217905550600073ffffffffffffffffffffffffffffffffffffffff16600260009054906101000a900473ffffffffffffffffffffffffffffffffffffffff1673ffffffffffffffffffffffffffffffffffffffff161461149157600260009054906101000a900473ffffffffffffffffffffffffffffffffffffffff1673ffffffffffffffffffffffffffffffffffffffff1663bd02a235826040518263ffffffff1660e01b815260040161145e9190611a44565b600060405180830381600087803b15801561147857600080fd5b505af115801561148c573d6000803e3d6000fd5b505050505b7f44a3cd4eb5cc5748f6169df057b1cb2ae4c383e87cd94663c430e095d4cba424816040516114c09190611a44565b60405180910390a150565b6114d361174c565b600073ffffffffffffffffffffffffffffffffffffffff168273ffffffffffffffffffffffffffffffffffffffff1603611542576040517f08c379a000000000000000000000000000000000000000000000000000000000815260040161153990611f83565b60405180910390fd5b600073ffffffffffffffffffffffffffffffffffffffff168173ffffffffffffffffffffffffffffffffffffffff16036115b1576040517f08c379a00000000000000000000000000000000000000000000000000000000081526004016115a890611fef565b60405180910390fd5b81600160006101000a81548173ffffffffffffffffffffffffffffffffffffffff021916908373ffffffffffffffffffffffffffffffffffffffff16021790555080600260006101000a81548173ffffffffffffffffffffffffffffffffffffffff021916908373ffffffffffffffffffffffffffffffffffffffff1602179055507fe465fea41ee621d19c8553bf4782d6aa9f4eb649f66a8229b494ce59e0cc11668282604051611664929190611b88565b60405180910390a15050565b61167861174c565b600073ffffffffffffffffffffffffffffffffffffffff168173ffffffffffffffffffffffffffffffffffffffff16036116ea5760006040517f1e4fbdf70000000000000000000000000000000000000000000000000000000081526004016116e19190611a44565b60405180910390fd5b6116f3816117d3565b50565b6000600460008373ffffffffffffffffffffffffffffffffffffffff1673ffffffffffffffffffffffffffffffffffffffff16815260200190815260200160002060009054906101000a900460ff169050919050565b611754611897565b73ffffffffffffffffffffffffffffffffffffffff16611772610da4565b73ffffffffffffffffffffffffffffffffffffffff16146117d157611795611897565b6040517f118cdaa70000000000000000000000000000000000000000000000000000000081526004016117c89190611a44565b60405180910390fd5b565b60008060009054906101000a900473ffffffffffffffffffffffffffffffffffffffff169050816000806101000a81548173ffffffffffffffffffffffffffffffffffffffff021916908373ffffffffffffffffffffffffffffffffffffffff1602179055508173ffffffffffffffffffffffffffffffffffffffff168173ffffffffffffffffffffffffffffffffffffffff167f8be0079c531659141344cd1fd0a4f28419497f9722a3daafe3b4186f6b6457e060405160405180910390a35050565b600033905090565b61444f8061201083390190565b6161068061645f83390190565b600080fd5b600073ffffffffffffffffffffffffffffffffffffffff82169050919050565b60006118e9826118be565b9050919050565b6118f9816118de565b811461190457600080fd5b50565b600081359050611916816118f0565b92915050565b600060208284031215611932576119316118b9565b5b600061194084828501611907565b91505092915050565b60008115159050919050565b61195e81611949565b82525050565b60006020820190506119796000830184611955565b92915050565b6000819050919050565b60006119a461199f61199a846118be565b61197f565b6118be565b9050919050565b60006119b682611989565b9050919050565b60006119c8826119ab565b9050919050565b6119d8816119bd565b82525050565b60006020820190506119f360008301846119cf565b92915050565b6000611a04826119ab565b9050919050565b611a14816119f9565b82525050565b6000602082019050611a2f6000830184611a0b565b92915050565b611a3e816118de565b82525050565b6000602082019050611a596000830184611a35565b92915050565b60008060408385031215611a7657611a756118b9565b5b6000611a8485828601611907565b9250506020611a9585828601611907565b9150509250929050565b600082825260208201905092915050565b7f4e6f742072656769737465726564206173206365727469666965720000000000600082015250565b6000611ae6601b83611a9f565b9150611af182611ab0565b602082019050919050565b60006020820190508181036000830152611b1581611ad9565b9050919050565b7f436f6e74726163747320616c7265616479206465706c6f796564000000000000600082015250565b6000611b52601a83611a9f565b9150611b5d82611b1c565b602082019050919050565b60006020820190508181036000830152611b8181611b45565b9050919050565b6000604082019050611b9d6000830185611a35565b611baa6020830184611a35565b9392505050565b7f496e76616c69642070726f647563657220616464726573730000000000000000600082015250565b6000611be7601883611a9f565b9150611bf282611bb1565b602082019050919050565b60006020820190508181036000830152611c1681611bda565b9050919050565b7f416c726561647920726567697374657265642061732070726f64756365720000600082015250565b6000611c53601e83611a9f565b9150611c5e82611c1d565b602082019050919050565b60006020820190508181036000830152611c8281611c46565b9050919050565b7f4e6f7420726567697374657265642061732070726f6475636572000000000000600082015250565b6000611cbf601a83611a9f565b9150611cca82611c89565b602082019050919050565b60006020820190508181036000830152611cee81611cb2565b9050919050565b7f496e76616c696420636572746966696572206164647265737300000000000000600082015250565b6000611d2b601983611a9f565b9150611d3682611cf5565b602082019050919050565b60006020820190508181036000830152611d5a81611d1e565b9050919050565b7f416c726561647920726567697374657265642061732063657274696669657200600082015250565b6000611d97601f83611a9f565b9150611da282611d61565b602082019050919050565b60006020820190508181036000830152611dc681611d8a565b9050919050565b7f496e76616c696420766572696669657220616464726573730000000000000000600082015250565b6000611e03601883611a9f565b9150611e0e82611dcd565b602082019050919050565b60006020820190508181036000830152611e3281611df6565b9050919050565b7f416c726561647920726567697374657265642061732076657269666965720000600082015250565b6000611e6f601e83611a9f565b9150611e7a82611e39565b602082019050919050565b60006020820190508181036000830152611e9e81611e62565b9050919050565b7f4e6f742072656769737465726564206173207665726966696572000000000000600082015250565b6000611edb601a83611a9f565b9150611ee682611ea5565b602082019050919050565b60006020820190508181036000830152611f0a81611ece565b9050919050565b7f496e76616c696420636572746966696361746520636f6e74726163742061646460008201527f7265737300000000000000000000000000000000000000000000000000000000602082015250565b6000611f6d602483611a9f565b9150611f7882611f11565b604082019050919050565b60006020820190508181036000830152611f9c81611f60565b9050919050565b7f496e76616c696420626174636820636f6e747261637420616464726573730000600082015250565b6000611fd9601e83611a9f565b9150611fe482611fa3565b602082019050919050565b6000602082019050818103600083015261200881611fcc565b905091905056fe608060405234801561001057600080fd5b50336040518060400160405280601181526020017f48616c616c2043657274696669636174650000000000000000000000000000008152506040518060400160405280600581526020017f48414c414c000000000000000000000000000000000000000000000000000000815250816000908161008d91906104cc565b50806001908161009d91906104cc565b505050600073ffffffffffffffffffffffffffffffffffffffff168173ffffffffffffffffffffffffffffffffffffffff16036101125760006040517f1e4fbdf700000000000000000000000000000000000000000000000000000000815260040161010991906105df565b60405180910390fd5b610121816101b660201b60201c565b506001600a60003373ffffffffffffffffffffffffffffffffffffffff1673ffffffffffffffffffffffffffffffffffffffff16815260200190815260200160002060006101000a81548160ff0219169083151502179055507fcbcf22dcb2331e843873a8ef89eab2451c503015fb28d984e14c4acc9f762771336040516101a991906105df565b60405180910390a16105fa565b6000600760009054906101000a900473ffffffffffffffffffffffffffffffffffffffff16905081600760006101000a81548173ffffffffffffffffffffffffffffffffffffffff021916908373ffffffffffffffffffffffffffffffffffffffff1602179055508173ffffffffffffffffffffffffffffffffffffffff168173ffffffffffffffffffffffffffffffffffffffff167f8be0079c531659141344cd1fd0a4f28419497f9722a3daafe3b4186f6b6457e060405160405180910390a35050565b600081519050919050565b7f4e487b7100000000000000000000000000000000000000000000000000000000600052604160045260246000fd5b7f4e487b7100000000000000000000000000000000000000000000000000000000600052602260045260246000fd5b600060028204905060018216806102fd57607f821691505b6020821081036103105761030f6102b6565b5b50919050565b60008190508160005260206000209050919050565b60006020601f8301049050919050565b600082821b905092915050565b6000600883026103787fffffffffffffffffffffffffffffffffffffffffffffffffffffffffffffffff8261033b565b610382868361033b565b95508019841693508086168417925050509392505050565b6000819050919050565b6000819050919050565b60006103c96103c46103bf8461039a565b6103a4565b61039a565b9050919050565b6000819050919050565b6103e3836103ae565b6103f76103ef826103d0565b848454610348565b825550505050565b600090565b61040c6103ff565b6104178184846103da565b505050565b5b8181101561043b57610430600082610404565b60018101905061041d565b5050565b601f8211156104805761045181610316565b61045a8461032b565b81016020851015610469578190505b61047d6104758561032b565b83018261041c565b50505b505050565b600082821c905092915050565b60006104a360001984600802610485565b1980831691505092915050565b60006104bc8383610492565b9150826002028217905092915050565b6104d58261027c565b67ffffffffffffffff8111156104ee576104ed610287565b5b6104f882546102e5565b61050382828561043f565b600060209050601f8311600181146105365760008415610524578287015190505b61052e85826104b0565b865550610596565b601f19841661054486610316565b60005b8281101561056c57848901518255600182019150602085019450602081019050610547565b868310156105895784890151610585601f891682610492565b8355505b6001600288020188555050505b505050505050565b600073ffffffffffffffffffffffffffffffffffffffff82169050919050565b60006105c98261059e565b9050919050565b6105d9816105be565b82525050565b60006020820190506105f460008301846105d0565b92915050565b613e46806106096000396000f3fe608060405234801561001057600080fd5b506004361061014d5760003560e01c80638da5cb5b116100c3578063be7201471161007c578063be720147146103ae578063c86de368146103ca578063c87b56dd146103e6578063e985e9c514610416578063f2fde38b14610446578063f577a500146104625761014d565b80638da5cb5b146102ee57806395d89b411461030c578063a22cb4651461032a578063aeb05a2114610346578063b1466d1d14610376578063b88d4fde146103925761014d565b80633e72171f116101155780633e72171f1461020857806342842e0e1461023857806351640fee146102545780636352211e1461028457806370a08231146102b4578063715018a6146102e45761014d565b806301ffc9a71461015257806306fdde0314610182578063081812fc146101a0578063095ea7b3146101d057806323b872dd146101ec575b600080fd5b61016c60048036038101906101679190612b02565b610492565b6040516101799190612b4a565b60405180910390f35b61018a6104f3565b6040516101979190612bf5565b60405180910390f35b6101ba60048036038101906101b59190612c4d565b610585565b6040516101c79190612cbb565b60405180910390f35b6101ea60048036038101906101e59190612d02565b6105a1565b005b61020660048036038101906102019190612d42565b6105b7565b005b610222600480360381019061021d9190612d95565b6106b9565b60405161022f9190612b4a565b60405180910390f35b610252600480360381019061024d9190612d42565b61070f565b005b61026e60048036038101906102699190612c4d565b61072f565b60405161027b9190612f5f565b60405180910390f35b61029e60048036038101906102999190612c4d565b610a56565b6040516102ab9190612cbb565b60405180910390f35b6102ce60048036038101906102c99190612d95565b610a68565b6040516102db9190612f90565b60405180910390f35b6102ec610b22565b005b6102f6610b36565b6040516103039190612cbb565b60405180910390f35b610314610b60565b6040516103219190612bf5565b60405180910390f35b610344600480360381019061033f9190612fd7565b610bf2565b005b610360600480360381019061035b919061314c565b610c08565b60405161036d9190612f90565b60405180910390f35b610390600480360381019061038b919061321b565b610fb3565b005b6103ac60048036038101906103a79190613318565b61117c565b005b6103c860048036038101906103c39190612d95565b6111a1565b005b6103e460048036038101906103df9190612d95565b611337565b005b61040060048036038101906103fb9190612c4d565b61145d565b60405161040d9190612bf5565b60405180910390f35b610430600480360381019061042b919061339b565b611570565b60405161043d9190612b4a565b60405180910390f35b610460600480360381019061045b9190612d95565b611604565b005b61047c60048036038101906104779190612c4d565b61168a565b6040516104899190612b4a565b60405180910390f35b6000634906490660e01b7bffffffffffffffffffffffffffffffffffffffffffffffffffffffff1916827bffffffffffffffffffffffffffffffffffffffffffffffffffffffff191614806104ec57506104eb826119a3565b5b9050919050565b6060600080546105029061340a565b80601f016020809104026020016040519081016040528092919081815260200182805461052e9061340a565b801561057b5780601f106105505761010080835404028352916020019161057b565b820191906000526020600020905b81548152906001019060200180831161055e57829003601f168201915b5050505050905090565b600061059082611a85565b5061059a82611b0d565b9050919050565b6105b382826105ae611b4a565b611b52565b5050565b600073ffffffffffffffffffffffffffffffffffffffff168273ffffffffffffffffffffffffffffffffffffffff16036106295760006040517f64a0ae920000000000000000000000000000000000000000000000000000000081526004016106209190612cbb565b60405180910390fd5b600061063d8383610638611b4a565b611b64565b90508373ffffffffffffffffffffffffffffffffffffffff168173ffffffffffffffffffffffffffffffffffffffff16146106b3578382826040517f64283d7b0000000000000000000000000000000000000000000000000000000081526004016106aa9392919061343b565b60405180910390fd5b50505050565b6000600a60008373ffffffffffffffffffffffffffffffffffffffff1673ffffffffffffffffffffffffffffffffffffffff16815260200190815260200160002060009054906101000a900460ff169050919050565b61072a8383836040518060200160405280600081525061117c565b505050565b610737612a13565b61074082611d7e565b61077f576040517f08c379a0000000000000000000000000000000000000000000000000000000008152600401610776906134be565b60405180910390fd5b60096000838152602001908152602001600020604051806101000160405290816000820180546107ae9061340a565b80601f01602080910402602001604051908101604052809291908181526020018280546107da9061340a565b80156108275780601f106107fc57610100808354040283529160200191610827565b820191906000526020600020905b81548152906001019060200180831161080a57829003601f168201915b505050505081526020016001820180546108409061340a565b80601f016020809104026020016040519081016040528092919081815260200182805461086c9061340a565b80156108b95780601f1061088e576101008083540402835291602001916108b9565b820191906000526020600020905b81548152906001019060200180831161089c57829003601f168201915b505050505081526020016002820160009054906101000a900473ffffffffffffffffffffffffffffffffffffffff1673ffffffffffffffffffffffffffffffffffffffff1673ffffffffffffffffffffffffffffffffffffffff1681526020016003820160009054906101000a900473ffffffffffffffffffffffffffffffffffffffff1673ffffffffffffffffffffffffffffffffffffffff1673ffffffffffffffffffffffffffffffffffffffff16815260200160048201548152602001600582015481526020016006820160009054906101000a900460ff1660028111156109a7576109a6612e2a565b5b60028111156109b9576109b8612e2a565b5b81526020016007820180546109cd9061340a565b80601f01602080910402602001604051908101604052809291908181526020018280546109f99061340a565b8015610a465780601f10610a1b57610100808354040283529160200191610a46565b820191906000526020600020905b815481529060010190602001808311610a2957829003601f168201915b5050505050815250509050919050565b6000610a6182611a85565b9050919050565b60008073ffffffffffffffffffffffffffffffffffffffff168273ffffffffffffffffffffffffffffffffffffffff1603610adb5760006040517f89c62b64000000000000000000000000000000000000000000000000000000008152600401610ad29190612cbb565b60405180910390fd5b600360008373ffffffffffffffffffffffffffffffffffffffff1673ffffffffffffffffffffffffffffffffffffffff168152602001908152602001600020549050919050565b610b2a611dbf565b610b346000611e46565b565b6000600760009054906101000a900473ffffffffffffffffffffffffffffffffffffffff16905090565b606060018054610b6f9061340a565b80601f0160208091040260200160405190810160405280929190818152602001828054610b9b9061340a565b8015610be85780601f10610bbd57610100808354040283529160200191610be8565b820191906000526020600020905b815481529060010190602001808311610bcb57829003601f168201915b5050505050905090565b610c04610bfd611b4a565b8383611f0c565b5050565b6000600a60003373ffffffffffffffffffffffffffffffffffffffff1673ffffffffffffffffffffffffffffffffffffffff16815260200190815260200160002060009054906101000a900460ff16610c96576040517f08c379a0000000000000000000000000000000000000000000000000000000008152600401610c8d9061352a565b60405180910390fd5b6000865111610cda576040517f08c379a0000000000000000000000000000000000000000000000000000000008152600401610cd190613596565b60405180910390fd5b600073ffffffffffffffffffffffffffffffffffffffff168473ffffffffffffffffffffffffffffffffffffffff1603610d49576040517f08c379a0000000000000000000000000000000000000000000000000000000008152600401610d4090613602565b60405180910390fd5b60008311610d8c576040517f08c379a0000000000000000000000000000000000000000000000000000000008152600401610d8390613694565b60405180910390fd5b600060086000815480929190610da1906136e3565b919050559050610db1858261207b565b610dbb8184612174565b6040518061010001604052808881526020018781526020013373ffffffffffffffffffffffffffffffffffffffff1681526020018673ffffffffffffffffffffffffffffffffffffffff1681526020014281526020018542610e1d919061372b565b815260200160006002811115610e3657610e35612e2a565b5b815260200184815250600960008381526020019081526020016000206000820151816000019081610e67919061390b565b506020820151816001019081610e7d919061390b565b5060408201518160020160006101000a81548173ffffffffffffffffffffffffffffffffffffffff021916908373ffffffffffffffffffffffffffffffffffffffff16021790555060608201518160030160006101000a81548173ffffffffffffffffffffffffffffffffffffffff021916908373ffffffffffffffffffffffffffffffffffffffff1602179055506080820151816004015560a0820151816005015560c08201518160060160006101000a81548160ff02191690836002811115610f4b57610f4a612e2a565b5b021790555060e0820151816007019081610f65919061390b565b509050507f60469ec7c6ee62537e37b986f9f7be5bb53b61f0d662dd0e088fb274421e3c6d81883388604051610f9e94939291906139dd565b60405180910390a18091505095945050505050565b60006009600084815260200190815260200160002090503373ffffffffffffffffffffffffffffffffffffffff168160020160009054906101000a900473ffffffffffffffffffffffffffffffffffffffff1673ffffffffffffffffffffffffffffffffffffffff16148061105a57503373ffffffffffffffffffffffffffffffffffffffff16611042610b36565b73ffffffffffffffffffffffffffffffffffffffff16145b611099576040517f08c379a000000000000000000000000000000000000000000000000000000000815260040161109090613a75565b60405180910390fd5b600060028111156110ad576110ac612e2a565b5b8160060160009054906101000a900460ff1660028111156110d1576110d0612e2a565b5b14611111576040517f08c379a000000000000000000000000000000000000000000000000000000000815260040161110890613ae1565b60405180910390fd5b60028160060160006101000a81548160ff0219169083600281111561113957611138612e2a565b5b02179055507f65032d3cc955c731f4c2a4178f663dbcc6c08e5163bad5a3149773f3894548d3838360405161116f929190613b01565b60405180910390a1505050565b6111878484846105b7565b61119b611192611b4a565b858585856121d0565b50505050565b6111a9611dbf565b600073ffffffffffffffffffffffffffffffffffffffff168173ffffffffffffffffffffffffffffffffffffffff1603611218576040517f08c379a000000000000000000000000000000000000000000000000000000000815260040161120f90613b7d565b60405180910390fd5b600a60008273ffffffffffffffffffffffffffffffffffffffff1673ffffffffffffffffffffffffffffffffffffffff16815260200190815260200160002060009054906101000a900460ff16156112a5576040517f08c379a000000000000000000000000000000000000000000000000000000000815260040161129c90613be9565b60405180910390fd5b6001600a60008373ffffffffffffffffffffffffffffffffffffffff1673ffffffffffffffffffffffffffffffffffffffff16815260200190815260200160002060006101000a81548160ff0219169083151502179055507fcbcf22dcb2331e843873a8ef89eab2451c503015fb28d984e14c4acc9f7627718160405161132c9190612cbb565b60405180910390a150565b61133f611dbf565b600a60008273ffffffffffffffffffffffffffffffffffffffff1673ffffffffffffffffffffffffffffffffffffffff16815260200190815260200160002060009054906101000a900460ff166113cb576040517f08c379a00000000000000000000000000000000000000000000000000000000081526004016113c290613c55565b60405180910390fd5b6000600a60008373ffffffffffffffffffffffffffffffffffffffff1673ffffffffffffffffffffffffffffffffffffffff16815260200190815260200160002060006101000a81548160ff0219169083151502179055507facb594097a8aa89d56ff24dffeb0a4669090559f677cc6842ff41d20a1426219816040516114529190612cbb565b60405180910390a150565b606061146882611a85565b5060006006600084815260200190815260200160002080546114899061340a565b80601f01602080910402602001604051908101604052809291908181526020018280546114b59061340a565b80156115025780601f106114d757610100808354040283529160200191611502565b820191906000526020600020905b8154815290600101906020018083116114e557829003601f168201915b505050505090506000611513612381565b9050600081510361152857819250505061156b565b60008251111561155d578082604051602001611545929190613cb1565b6040516020818303038152906040529250505061156b565b61156684612398565b925050505b919050565b6000600560008473ffffffffffffffffffffffffffffffffffffffff1673ffffffffffffffffffffffffffffffffffffffff16815260200190815260200160002060008373ffffffffffffffffffffffffffffffffffffffff1673ffffffffffffffffffffffffffffffffffffffff16815260200190815260200160002060009054906101000a900460ff16905092915050565b61160c611dbf565b600073ffffffffffffffffffffffffffffffffffffffff168173ffffffffffffffffffffffffffffffffffffffff160361167e5760006040517f1e4fbdf70000000000000000000000000000000000000000000000000000000081526004016116759190612cbb565b60405180910390fd5b61168781611e46565b50565b60008060096000848152602001908152602001600020604051806101000160405290816000820180546116bc9061340a565b80601f01602080910402602001604051908101604052809291908181526020018280546116e89061340a565b80156117355780601f1061170a57610100808354040283529160200191611735565b820191906000526020600020905b81548152906001019060200180831161171857829003601f168201915b5050505050815260200160018201805461174e9061340a565b80601f016020809104026020016040519081016040528092919081815260200182805461177a9061340a565b80156117c75780601f1061179c576101008083540402835291602001916117c7565b820191906000526020600020905b8154815290600101906020018083116117aa57829003601f168201915b505050505081526020016002820160009054906101000a900473ffffffffffffffffffffffffffffffffffffffff1673ffffffffffffffffffffffffffffffffffffffff1673ffffffffffffffffffffffffffffffffffffffff1681526020016003820160009054906101000a900473ffffffffffffffffffffffffffffffffffffffff1673ffffffffffffffffffffffffffffffffffffffff1673ffffffffffffffffffffffffffffffffffffffff16815260200160048201548152602001600582015481526020016006820160009054906101000a900460ff1660028111156118b5576118b4612e2a565b5b60028111156118c7576118c6612e2a565b5b81526020016007820180546118db9061340a565b80601f01602080910402602001604051908101604052809291908181526020018280546119079061340a565b80156119545780601f1061192957610100808354040283529160200191611954565b820191906000526020600020905b81548152906001019060200180831161193757829003601f168201915b50505050508152505090506000600281111561197357611972612e2a565b5b8160c00151600281111561198a57611989612e2a565b5b14801561199b57508060a001514211155b915050919050565b60007f80ac58cd000000000000000000000000000000000000000000000000000000007bffffffffffffffffffffffffffffffffffffffffffffffffffffffff1916827bffffffffffffffffffffffffffffffffffffffffffffffffffffffff19161480611a6e57507f5b5e139f000000000000000000000000000000000000000000000000000000007bffffffffffffffffffffffffffffffffffffffffffffffffffffffff1916827bffffffffffffffffffffffffffffffffffffffffffffffffffffffff1916145b80611a7e5750611a7d82612401565b5b9050919050565b600080611a918361246b565b9050600073ffffffffffffffffffffffffffffffffffffffff168173ffffffffffffffffffffffffffffffffffffffff1603611b0457826040517f7e273289000000000000000000000000000000000000000000000000000000008152600401611afb9190612f90565b60405180910390fd5b80915050919050565b60006004600083815260200190815260200160002060009054906101000a900473ffffffffffffffffffffffffffffffffffffffff169050919050565b600033905090565b611b5f83838360016124a8565b505050565b600080611b708461246b565b9050600073ffffffffffffffffffffffffffffffffffffffff168373ffffffffffffffffffffffffffffffffffffffff1614611bb257611bb181848661266d565b5b600073ffffffffffffffffffffffffffffffffffffffff168173ffffffffffffffffffffffffffffffffffffffff1614611c4357611bf46000856000806124a8565b6001600360008373ffffffffffffffffffffffffffffffffffffffff1673ffffffffffffffffffffffffffffffffffffffff168152602001908152602001600020600082825403925050819055505b600073ffffffffffffffffffffffffffffffffffffffff168573ffffffffffffffffffffffffffffffffffffffff1614611cc6576001600360008773ffffffffffffffffffffffffffffffffffffffff1673ffffffffffffffffffffffffffffffffffffffff168152602001908152602001600020600082825401925050819055505b846002600086815260200190815260200160002060006101000a81548173ffffffffffffffffffffffffffffffffffffffff021916908373ffffffffffffffffffffffffffffffffffffffff160217905550838573ffffffffffffffffffffffffffffffffffffffff168273ffffffffffffffffffffffffffffffffffffffff167fddf252ad1be2c89b69c2b068fc378daa952ba7f163c4a11628f55a4df523b3ef60405160405180910390a4809150509392505050565b60008073ffffffffffffffffffffffffffffffffffffffff16611da08361246b565b73ffffffffffffffffffffffffffffffffffffffff1614159050919050565b611dc7611b4a565b73ffffffffffffffffffffffffffffffffffffffff16611de5610b36565b73ffffffffffffffffffffffffffffffffffffffff1614611e4457611e08611b4a565b6040517f118cdaa7000000000000000000000000000000000000000000000000000000008152600401611e3b9190612cbb565b60405180910390fd5b565b6000600760009054906101000a900473ffffffffffffffffffffffffffffffffffffffff16905081600760006101000a81548173ffffffffffffffffffffffffffffffffffffffff021916908373ffffffffffffffffffffffffffffffffffffffff1602179055508173ffffffffffffffffffffffffffffffffffffffff168173ffffffffffffffffffffffffffffffffffffffff167f8be0079c531659141344cd1fd0a4f28419497f9722a3daafe3b4186f6b6457e060405160405180910390a35050565b600073ffffffffffffffffffffffffffffffffffffffff168273ffffffffffffffffffffffffffffffffffffffff1603611f7d57816040517f5b08ba18000000000000000000000000000000000000000000000000000000008152600401611f749190612cbb565b60405180910390fd5b80600560008573ffffffffffffffffffffffffffffffffffffffff1673ffffffffffffffffffffffffffffffffffffffff16815260200190815260200160002060008473ffffffffffffffffffffffffffffffffffffffff1673ffffffffffffffffffffffffffffffffffffffff16815260200190815260200160002060006101000a81548160ff0219169083151502179055508173ffffffffffffffffffffffffffffffffffffffff168373ffffffffffffffffffffffffffffffffffffffff167f17307eab39ab6107e8899845ad3d59bd9653f200f220920489ca2b5937696c318360405161206e9190612b4a565b60405180910390a3505050565b600073ffffffffffffffffffffffffffffffffffffffff168273ffffffffffffffffffffffffffffffffffffffff16036120ed5760006040517f64a0ae920000000000000000000000000000000000000000000000000000000081526004016120e49190612cbb565b60405180910390fd5b60006120fb83836000611b64565b9050600073ffffffffffffffffffffffffffffffffffffffff168173ffffffffffffffffffffffffffffffffffffffff161461216f5760006040517f73c6ac6e0000000000000000000000000000000000000000000000000000000081526004016121669190612cbb565b60405180910390fd5b505050565b80600660008481526020019081526020016000209081612194919061390b565b507ff8e1a15aba9398e019f0b49df1a4fde98ee17ae345cb5f6b5e2c27f5033e8ce7826040516121c49190612f90565b60405180910390a15050565b60008373ffffffffffffffffffffffffffffffffffffffff163b111561237a578273ffffffffffffffffffffffffffffffffffffffff1663150b7a02868685856040518563ffffffff1660e01b815260040161222f9493929190613d2a565b6020604051808303816000875af192505050801561226b57506040513d601f19601f820116820180604052508101906122689190613d8b565b60015b6122ef573d806000811461229b576040519150601f19603f3d011682016040523d82523d6000602084013e6122a0565b606091505b5060008151036122e757836040517f64a0ae920000000000000000000000000000000000000000000000000000000081526004016122de9190612cbb565b60405180910390fd5b805181602001fd5b63150b7a0260e01b7bffffffffffffffffffffffffffffffffffffffffffffffffffffffff1916817bffffffffffffffffffffffffffffffffffffffffffffffffffffffff19161461237857836040517f64a0ae9200000000000000000000000000000000000000000000000000000000815260040161236f9190612cbb565b60405180910390fd5b505b5050505050565b606060405180602001604052806000815250905090565b60606123a382611a85565b5060006123ae612381565b905060008151116123ce57604051806020016040528060008152506123f9565b806123d884612731565b6040516020016123e9929190613cb1565b6040516020818303038152906040525b915050919050565b60007f01ffc9a7000000000000000000000000000000000000000000000000000000007bffffffffffffffffffffffffffffffffffffffffffffffffffffffff1916827bffffffffffffffffffffffffffffffffffffffffffffffffffffffff1916149050919050565b60006002600083815260200190815260200160002060009054906101000a900473ffffffffffffffffffffffffffffffffffffffff169050919050565b80806124e15750600073ffffffffffffffffffffffffffffffffffffffff168273ffffffffffffffffffffffffffffffffffffffff1614155b156126155760006124f184611a85565b9050600073ffffffffffffffffffffffffffffffffffffffff168373ffffffffffffffffffffffffffffffffffffffff161415801561255c57508273ffffffffffffffffffffffffffffffffffffffff168173ffffffffffffffffffffffffffffffffffffffff1614155b801561256f575061256d8184611570565b155b156125b157826040517fa9fbf51f0000000000000000000000000000000000000000000000000000000081526004016125a89190612cbb565b60405180910390fd5b811561261357838573ffffffffffffffffffffffffffffffffffffffff168273ffffffffffffffffffffffffffffffffffffffff167f8c5be1e5ebec7d5bd14f71427d1e84f3dd0314c0f7b2291e5b200ac8c7c3b92560405160405180910390a45b505b836004600085815260200190815260200160002060006101000a81548173ffffffffffffffffffffffffffffffffffffffff021916908373ffffffffffffffffffffffffffffffffffffffff16021790555050505050565b6126788383836127ff565b61272c57600073ffffffffffffffffffffffffffffffffffffffff168373ffffffffffffffffffffffffffffffffffffffff16036126ed57806040517f7e2732890000000000000000000000000000000000000000000000000000000081526004016126e49190612f90565b60405180910390fd5b81816040517f177e802f000000000000000000000000000000000000000000000000000000008152600401612723929190613db8565b60405180910390fd5b505050565b606060006001612740846128c0565b01905060008167ffffffffffffffff81111561275f5761275e613021565b5b6040519080825280601f01601f1916602001820160405280156127915781602001600182028036833780820191505090505b509050600082602001820190505b6001156127f4578080600190039150507f3031323334353637383961626364656600000000000000000000000000000000600a86061a8153600a85816127e8576127e7613de1565b5b0494506000850361279f575b819350505050919050565b60008073ffffffffffffffffffffffffffffffffffffffff168373ffffffffffffffffffffffffffffffffffffffff16141580156128b757508273ffffffffffffffffffffffffffffffffffffffff168473ffffffffffffffffffffffffffffffffffffffff16148061287857506128778484611570565b5b806128b657508273ffffffffffffffffffffffffffffffffffffffff1661289e83611b0d565b73ffffffffffffffffffffffffffffffffffffffff16145b5b90509392505050565b600080600090507a184f03e93ff9f4daa797ed6e38ed64bf6a1f010000000000000000831061291e577a184f03e93ff9f4daa797ed6e38ed64bf6a1f010000000000000000838161291457612913613de1565b5b0492506040810190505b6d04ee2d6d415b85acef8100000000831061295b576d04ee2d6d415b85acef8100000000838161295157612950613de1565b5b0492506020810190505b662386f26fc10000831061298a57662386f26fc1000083816129805761297f613de1565b5b0492506010810190505b6305f5e10083106129b3576305f5e10083816129a9576129a8613de1565b5b0492506008810190505b61271083106129d85761271083816129ce576129cd613de1565b5b0492506004810190505b606483106129fb57606483816129f1576129f0613de1565b5b0492506002810190505b600a8310612a0a576001810190505b80915050919050565b6040518061010001604052806060815260200160608152602001600073ffffffffffffffffffffffffffffffffffffffff168152602001600073ffffffffffffffffffffffffffffffffffffffff168152602001600081526020016000815260200160006002811115612a8957612a88612e2a565b5b8152602001606081525090565b6000604051905090565b600080fd5b600080fd5b60007fffffffff0000000000000000000000000000000000000000000000000000000082169050919050565b612adf81612aaa565b8114612aea57600080fd5b50565b600081359050612afc81612ad6565b92915050565b600060208284031215612b1857612b17612aa0565b5b6000612b2684828501612aed565b91505092915050565b60008115159050919050565b612b4481612b2f565b82525050565b6000602082019050612b5f6000830184612b3b565b92915050565b600081519050919050565b600082825260208201905092915050565b60005b83811015612b9f578082015181840152602081019050612b84565b60008484015250505050565b6000601f19601f8301169050919050565b6000612bc782612b65565b612bd18185612b70565b9350612be1818560208601612b81565b612bea81612bab565b840191505092915050565b60006020820190508181036000830152612c0f8184612bbc565b905092915050565b6000819050919050565b612c2a81612c17565b8114612c3557600080fd5b50565b600081359050612c4781612c21565b92915050565b600060208284031215612c6357612c62612aa0565b5b6000612c7184828501612c38565b91505092915050565b600073ffffffffffffffffffffffffffffffffffffffff82169050919050565b6000612ca582612c7a565b9050919050565b612cb581612c9a565b82525050565b6000602082019050612cd06000830184612cac565b92915050565b612cdf81612c9a565b8114612cea57600080fd5b50565b600081359050612cfc81612cd6565b92915050565b60008060408385031215612d1957612d18612aa0565b5b6000612d2785828601612ced565b9250506020612d3885828601612c38565b9150509250929050565b600080600060608486031215612d5b57612d5a612aa0565b5b6000612d6986828701612ced565b9350506020612d7a86828701612ced565b9250506040612d8b86828701612c38565b9150509250925092565b600060208284031215612dab57612daa612aa0565b5b6000612db984828501612ced565b91505092915050565b600082825260208201905092915050565b6000612dde82612b65565b612de88185612dc2565b9350612df8818560208601612b81565b612e0181612bab565b840191505092915050565b612e1581612c9a565b82525050565b612e2481612c17565b82525050565b7f4e487b7100000000000000000000000000000000000000000000000000000000600052602160045260246000fd5b60038110612e6a57612e69612e2a565b5b50565b6000819050612e7b82612e59565b919050565b6000612e8b82612e6d565b9050919050565b612e9b81612e80565b82525050565b6000610100830160008301518482036000860152612ebf8282612dd3565b91505060208301518482036020860152612ed98282612dd3565b9150506040830151612eee6040860182612e0c565b506060830151612f016060860182612e0c565b506080830151612f146080860182612e1b565b5060a0830151612f2760a0860182612e1b565b5060c0830151612f3a60c0860182612e92565b5060e083015184820360e0860152612f528282612dd3565b9150508091505092915050565b60006020820190508181036000830152612f798184612ea1565b905092915050565b612f8a81612c17565b82525050565b6000602082019050612fa56000830184612f81565b92915050565b612fb481612b2f565b8114612fbf57600080fd5b50565b600081359050612fd181612fab565b92915050565b60008060408385031215612fee57612fed612aa0565b5b6000612ffc85828601612ced565b925050602061300d85828601612fc2565b9150509250929050565b600080fd5b600080fd5b7f4e487b7100000000000000000000000000000000000000000000000000000000600052604160045260246000fd5b61305982612bab565b810181811067ffffffffffffffff8211171561307857613077613021565b5b80604052505050565b600061308b612a96565b90506130978282613050565b919050565b600067ffffffffffffffff8211156130b7576130b6613021565b5b6130c082612bab565b9050602081019050919050565b82818337600083830152505050565b60006130ef6130ea8461309c565b613081565b90508281526020810184848401111561310b5761310a61301c565b5b6131168482856130cd565b509392505050565b600082601f83011261313357613132613017565b5b81356131438482602086016130dc565b91505092915050565b600080600080600060a0868803121561316857613167612aa0565b5b600086013567ffffffffffffffff81111561318657613185612aa5565b5b6131928882890161311e565b955050602086013567ffffffffffffffff8111156131b3576131b2612aa5565b5b6131bf8882890161311e565b94505060406131d088828901612ced565b93505060606131e188828901612c38565b925050608086013567ffffffffffffffff81111561320257613201612aa5565b5b61320e8882890161311e565b9150509295509295909350565b6000806040838503121561323257613231612aa0565b5b600061324085828601612c38565b925050602083013567ffffffffffffffff81111561326157613260612aa5565b5b61326d8582860161311e565b9150509250929050565b600067ffffffffffffffff82111561329257613291613021565b5b61329b82612bab565b9050602081019050919050565b60006132bb6132b684613277565b613081565b9050828152602081018484840111156132d7576132d661301c565b5b6132e28482856130cd565b509392505050565b600082601f8301126132ff576132fe613017565b5b813561330f8482602086016132a8565b91505092915050565b6000806000806080858703121561333257613331612aa0565b5b600061334087828801612ced565b945050602061335187828801612ced565b935050604061336287828801612c38565b925050606085013567ffffffffffffffff81111561338357613382612aa5565b5b61338f878288016132ea565b91505092959194509250565b600080604083850312156133b2576133b1612aa0565b5b60006133c085828601612ced565b92505060206133d185828601612ced565b9150509250929050565b7f4e487b7100000000000000000000000000000000000000000000000000000000600052602260045260246000fd5b6000600282049050600182168061342257607f821691505b602082108103613435576134346133db565b5b50919050565b60006060820190506134506000830186612cac565b61345d6020830185612f81565b61346a6040830184612cac565b949350505050565b7f436572746966696361746520646f6573206e6f74206578697374000000000000600082015250565b60006134a8601a83612b70565b91506134b382613472565b602082019050919050565b600060208201905081810360008301526134d78161349b565b9050919050565b7f4e6f7420617574686f72697a6564206173206365727469666965720000000000600082015250565b6000613514601b83612b70565b915061351f826134de565b602082019050919050565b6000602082019050818103600083015261354381613507565b9050919050565b7f43657274696669636174652049442063616e6e6f7420626520656d7074790000600082015250565b6000613580601e83612b70565b915061358b8261354a565b602082019050919050565b600060208201905081810360008301526135af81613573565b9050919050565b7f496e76616c69642063657274696669656420656e746974792061646472657373600082015250565b60006135ec602083612b70565b91506135f7826135b6565b602082019050919050565b6000602082019050818103600083015261361b816135df565b9050919050565b7f56616c696469747920706572696f64206d75737420626520677265617465722060008201527f7468616e20300000000000000000000000000000000000000000000000000000602082015250565b600061367e602683612b70565b915061368982613622565b604082019050919050565b600060208201905081810360008301526136ad81613671565b9050919050565b7f4e487b7100000000000000000000000000000000000000000000000000000000600052601160045260246000fd5b60006136ee82612c17565b91507fffffffffffffffffffffffffffffffffffffffffffffffffffffffffffffffff82036137205761371f6136b4565b5b600182019050919050565b600061373682612c17565b915061374183612c17565b9250828201905080821115613759576137586136b4565b5b92915050565b60008190508160005260206000209050919050565b60006020601f8301049050919050565b600082821b905092915050565b6000600883026137c17fffffffffffffffffffffffffffffffffffffffffffffffffffffffffffffffff82613784565b6137cb8683613784565b95508019841693508086168417925050509392505050565b6000819050919050565b60006138086138036137fe84612c17565b6137e3565b612c17565b9050919050565b6000819050919050565b613822836137ed565b61383661382e8261380f565b848454613791565b825550505050565b600090565b61384b61383e565b613856818484613819565b505050565b5b8181101561387a5761386f600082613843565b60018101905061385c565b5050565b601f8211156138bf576138908161375f565b61389984613774565b810160208510156138a8578190505b6138bc6138b485613774565b83018261385b565b50505b505050565b600082821c905092915050565b60006138e2600019846008026138c4565b1980831691505092915050565b60006138fb83836138d1565b9150826002028217905092915050565b61391482612b65565b67ffffffffffffffff81111561392d5761392c613021565b5b613937825461340a565b61394282828561387e565b600060209050601f8311600181146139755760008415613963578287015190505b61396d85826138ef565b8655506139d5565b601f1984166139838661375f565b60005b828110156139ab57848901518255600182019150602085019450602081019050613986565b868310156139c857848901516139c4601f8916826138d1565b8355505b6001600288020188555050505b505050505050565b60006080820190506139f26000830187612f81565b8181036020830152613a048186612bbc565b9050613a136040830185612cac565b613a206060830184612cac565b95945050505050565b7f4f6e6c7920697373756572206f72206f776e65722063616e207265766f6b6500600082015250565b6000613a5f601f83612b70565b9150613a6a82613a29565b602082019050919050565b60006020820190508181036000830152613a8e81613a52565b9050919050565b7f4365727469666963617465206e6f742061637469766500000000000000000000600082015250565b6000613acb601683612b70565b9150613ad682613a95565b602082019050919050565b60006020820190508181036000830152613afa81613abe565b9050919050565b6000604082019050613b166000830185612f81565b8181036020830152613b288184612bbc565b90509392505050565b7f496e76616c696420636572746966696572206164647265737300000000000000600082015250565b6000613b67601983612b70565b9150613b7282613b31565b602082019050919050565b60006020820190508181036000830152613b9681613b5a565b9050919050565b7f416c726561647920617574686f72697a65640000000000000000000000000000600082015250565b6000613bd3601283612b70565b9150613bde82613b9d565b602082019050919050565b60006020820190508181036000830152613c0281613bc6565b9050919050565b7f4e6f7420616e20617574686f72697a6564206365727469666965720000000000600082015250565b6000613c3f601b83612b70565b9150613c4a82613c09565b602082019050919050565b60006020820190508181036000830152613c6e81613c32565b9050919050565b600081905092915050565b6000613c8b82612b65565b613c958185613c75565b9350613ca5818560208601612b81565b80840191505092915050565b6000613cbd8285613c80565b9150613cc98284613c80565b91508190509392505050565b600081519050919050565b600082825260208201905092915050565b6000613cfc82613cd5565b613d068185613ce0565b9350613d16818560208601612b81565b613d1f81612bab565b840191505092915050565b6000608082019050613d3f6000830187612cac565b613d4c6020830186612cac565b613d596040830185612f81565b8181036060830152613d6b8184613cf1565b905095945050505050565b600081519050613d8581612ad6565b92915050565b600060208284031215613da157613da0612aa0565b5b6000613daf84828501613d76565b91505092915050565b6000604082019050613dcd6000830185612cac565b613dda6020830184612f81565b9392505050565b7f4e487b7100000000000000000000000000000000000000000000000000000000600052601260045260246000fdfea2646970667358221220dfbc1f21a0e85fa5c1eb15cbf113fec92f6859e0c2ade160947941ca618b5ce364736f6c634300081c0033608060405234801561001057600080fd5b5060405161610638038061610683398181016040528101906100329190610440565b336040518060400160405280600d81526020017f50726f64756374204261746368000000000000000000000000000000000000008152506040518060400160405280600581526020017f424154434800000000000000000000000000000000000000000000000000000081525081600090816100ae91906106bd565b5080600190816100be91906106bd565b505050600073ffffffffffffffffffffffffffffffffffffffff168173ffffffffffffffffffffffffffffffffffffffff16036101335760006040517f1e4fbdf700000000000000000000000000000000000000000000000000000000815260040161012a919061079e565b60405180910390fd5b6101428161031760201b60201c565b50600073ffffffffffffffffffffffffffffffffffffffff168173ffffffffffffffffffffffffffffffffffffffff16036101b2576040517f08c379a00000000000000000000000000000000000000000000000000000000081526004016101a99061083c565b60405180910390fd5b80600960006101000a81548173ffffffffffffffffffffffffffffffffffffffff021916908373ffffffffffffffffffffffffffffffffffffffff1602179055506001600b60003373ffffffffffffffffffffffffffffffffffffffff1673ffffffffffffffffffffffffffffffffffffffff16815260200190815260200160002060006101000a81548160ff0219169083151502179055506001600c60003373ffffffffffffffffffffffffffffffffffffffff1673ffffffffffffffffffffffffffffffffffffffff16815260200190815260200160002060006101000a81548160ff0219169083151502179055507fa09c6df0c632a53152bcdbf11806efa608c66c3eb90020ab6f6a3c0fa10a65a6336040516102d2919061079e565b60405180910390a17f40f8611cb3470e9d255c7ea6d08e5625d635123c46e7c303e5321b1fb69bb8c933604051610309919061079e565b60405180910390a15061085c565b6000600760009054906101000a900473ffffffffffffffffffffffffffffffffffffffff16905081600760006101000a81548173ffffffffffffffffffffffffffffffffffffffff021916908373ffffffffffffffffffffffffffffffffffffffff1602179055508173ffffffffffffffffffffffffffffffffffffffff168173ffffffffffffffffffffffffffffffffffffffff167f8be0079c531659141344cd1fd0a4f28419497f9722a3daafe3b4186f6b6457e060405160405180910390a35050565b600080fd5b600073ffffffffffffffffffffffffffffffffffffffff82169050919050565b600061040d826103e2565b9050919050565b61041d81610402565b811461042857600080fd5b50565b60008151905061043a81610414565b92915050565b600060208284031215610456576104556103dd565b5b60006104648482850161042b565b91505092915050565b600081519050919050565b7f4e487b7100000000000000000000000000000000000000000000000000000000600052604160045260246000fd5b7f4e487b7100000000000000000000000000000000000000000000000000000000600052602260045260246000fd5b600060028204905060018216806104ee57607f821691505b602082108103610501576105006104a7565b5b50919050565b60008190508160005260206000209050919050565b60006020601f8301049050919050565b600082821b905092915050565b6000600883026105697fffffffffffffffffffffffffffffffffffffffffffffffffffffffffffffffff8261052c565b610573868361052c565b95508019841693508086168417925050509392505050565b6000819050919050565b6000819050919050565b60006105ba6105b56105b08461058b565b610595565b61058b565b9050919050565b6000819050919050565b6105d48361059f565b6105e86105e0826105c1565b848454610539565b825550505050565b600090565b6105fd6105f0565b6106088184846105cb565b505050565b5b8181101561062c576106216000826105f5565b60018101905061060e565b5050565b601f8211156106715761064281610507565b61064b8461051c565b8101602085101561065a578190505b61066e6106668561051c565b83018261060d565b50505b505050565b600082821c905092915050565b600061069460001984600802610676565b1980831691505092915050565b60006106ad8383610683565b9150826002028217905092915050565b6106c68261046d565b67ffffffffffffffff8111156106df576106de610478565b5b6106e982546104d6565b6106f4828285610630565b600060209050601f8311600181146107275760008415610715578287015190505b61071f85826106a1565b865550610787565b601f19841661073586610507565b60005b8281101561075d57848901518255600182019150602085019450602081019050610738565b8683101561077a5784890151610776601f891682610683565b8355505b6001600288020188555050505b505050505050565b61079881610402565b82525050565b60006020820190506107b3600083018461078f565b92915050565b600082825260208201905092915050565b7f496e76616c696420636572746966696361746520636f6e74726163742061646460008201527f7265737300000000000000000000000000000000000000000000000000000000602082015250565b60006108266024836107b9565b9150610831826107ca565b604082019050919050565b6000602082019050818103600083015261085581610819565b9050919050565b61589b8061086b6000396000f3fe608060405234801561001057600080fd5b50600436106101da5760003560e01c8063715018a611610104578063c87b56dd116100a2578063f2fde38b11610071578063f2fde38b14610575578063f6a11cef14610591578063f98f5c55146105ad578063f9f8904a146105c9576101da565b8063c87b56dd146104db578063d59317d61461050b578063dfe3a3ae14610529578063e985e9c514610545576101da565b8063a22cb465116100de578063a22cb4651461046b578063b275628514610487578063b88d4fde146104a3578063bd02a235146104bf576101da565b8063715018a6146104255780638da5cb5b1461042f57806395d89b411461044d576101da565b806323b872dd1161017c578063621f2b0e1161014b578063621f2b0e146103795780636352211e146103955780636cacbf30146103c557806370a08231146103f5576101da565b806323b872dd146102e157806342842e0e146102fd5780634e61b6b3146103195780635ac4428214610349576101da565b806306fdde03116101b857806306fdde031461025b578063081812fc14610279578063095ea7b3146102a957806320ad8cab146102c5576101da565b806301ffc9a7146101df578063041bde781461020f57806305beaad51461023f575b600080fd5b6101f960048036038101906101f49190613ce7565b6105e5565b6040516102069190613d2f565b60405180910390f35b61022960048036038101906102249190613da8565b610646565b6040516102369190613d2f565b60405180910390f35b61025960048036038101906102549190613f51565b61069c565b005b610263610906565b604051610270919061402c565b60405180910390f35b610293600480360381019061028e919061404e565b610998565b6040516102a0919061408a565b60405180910390f35b6102c360048036038101906102be91906140a5565b6109b4565b005b6102df60048036038101906102da9190613da8565b6109ca565b005b6102fb60048036038101906102f691906140e5565b610b60565b005b610317600480360381019061031291906140e5565b610c62565b005b610333600480360381019061032e9190614200565b610c82565b604051610340919061436d565b60405180910390f35b610363600480360381019061035e919061404e565b61114a565b604051610370919061463d565b60405180910390f35b610393600480360381019061038e919061465f565b6115f7565b005b6103af60048036038101906103aa919061404e565b6118ae565b6040516103bc919061408a565b60405180910390f35b6103df60048036038101906103da9190613da8565b6118c0565b6040516103ec9190613d2f565b60405180910390f35b61040f600480360381019061040a9190613da8565b611916565b60405161041c919061436d565b60405180910390f35b61042d6119d0565b005b6104376119e4565b604051610444919061408a565b60405180910390f35b610455611a0e565b604051610462919061402c565b60405180910390f35b610485600480360381019061048091906146cb565b611aa0565b005b6104a1600480360381019061049c919061404e565b611ab6565b005b6104bd60048036038101906104b891906147ac565b611c34565b005b6104d960048036038101906104d49190613da8565b611c59565b005b6104f560048036038101906104f0919061404e565b611d7f565b604051610502919061402c565b60405180910390f35b610513611e92565b604051610520919061489e565b60405180910390f35b610543600480360381019061053e919061404e565b612040565b005b61055f600480360381019061055a91906148c0565b61229d565b60405161056c9190613d2f565b60405180910390f35b61058f600480360381019061058a9190613da8565b612331565b005b6105ab60048036038101906105a69190614900565b6123b7565b005b6105c760048036038101906105c29190613da8565b6126d9565b005b6105e360048036038101906105de9190613da8565b61286f565b005b6000634906490660e01b7bffffffffffffffffffffffffffffffffffffffffffffffffffffffff1916827bffffffffffffffffffffffffffffffffffffffffffffffffffffffff1916148061063f575061063e82612995565b5b9050919050565b6000600b60008373ffffffffffffffffffffffffffffffffffffffff1673ffffffffffffffffffffffffffffffffffffffff16815260200190815260200160002060009054906101000a900460ff169050919050565b6106a582612a77565b6106e4576040517f08c379a00000000000000000000000000000000000000000000000000000000081526004016106db9061498c565b60405180910390fd5b6000600a600084815260200190815260200160002090503373ffffffffffffffffffffffffffffffffffffffff168160010160009054906101000a900473ffffffffffffffffffffffffffffffffffffffff1673ffffffffffffffffffffffffffffffffffffffff1614806107a857503373ffffffffffffffffffffffffffffffffffffffff1681600a0160009054906101000a900473ffffffffffffffffffffffffffffffffffffffff1673ffffffffffffffffffffffffffffffffffffffff16145b806107e557503373ffffffffffffffffffffffffffffffffffffffff166107cd6119e4565b73ffffffffffffffffffffffffffffffffffffffff16145b610824576040517f08c379a000000000000000000000000000000000000000000000000000000000815260040161081b906149f8565b60405180910390fd5b600480811115610837576108366143f0565b5b8160080160009054906101000a900460ff16600481111561085b5761085a6143f0565b5b0361089b576040517f08c379a000000000000000000000000000000000000000000000000000000000815260040161089290614a64565b60405180910390fd5b60048160080160006101000a81548160ff021916908360048111156108c3576108c26143f0565b5b02179055507fccf418ed53819932f1f3042a183d967aac668aec6103d5953192c2c08072bf3f83836040516108f9929190614a84565b60405180910390a1505050565b60606000805461091590614ae3565b80601f016020809104026020016040519081016040528092919081815260200182805461094190614ae3565b801561098e5780601f106109635761010080835404028352916020019161098e565b820191906000526020600020905b81548152906001019060200180831161097157829003601f168201915b5050505050905090565b60006109a382612ab8565b506109ad82612b40565b9050919050565b6109c682826109c1612b7d565b612b85565b5050565b6109d2612b97565b600073ffffffffffffffffffffffffffffffffffffffff168173ffffffffffffffffffffffffffffffffffffffff1603610a41576040517f08c379a0000000000000000000000000000000000000000000000000000000008152600401610a3890614b60565b60405180910390fd5b600c60008273ffffffffffffffffffffffffffffffffffffffff1673ffffffffffffffffffffffffffffffffffffffff16815260200190815260200160002060009054906101000a900460ff1615610ace576040517f08c379a0000000000000000000000000000000000000000000000000000000008152600401610ac590614bcc565b60405180910390fd5b6001600c60008373ffffffffffffffffffffffffffffffffffffffff1673ffffffffffffffffffffffffffffffffffffffff16815260200190815260200160002060006101000a81548160ff0219169083151502179055507f40f8611cb3470e9d255c7ea6d08e5625d635123c46e7c303e5321b1fb69bb8c981604051610b55919061408a565b60405180910390a150565b600073ffffffffffffffffffffffffffffffffffffffff168273ffffffffffffffffffffffffffffffffffffffff1603610bd25760006040517f64a0ae92000000000000000000000000000000000000000000000000000000008152600401610bc9919061408a565b60405180910390fd5b6000610be68383610be1612b7d565b612c1e565b90508373ffffffffffffffffffffffffffffffffffffffff168173ffffffffffffffffffffffffffffffffffffffff1614610c5c578382826040517f64283d7b000000000000000000000000000000000000000000000000000000008152600401610c5393929190614bec565b60405180910390fd5b50505050565b610c7d83838360405180602001604052806000815250611c34565b505050565b6000600b60003373ffffffffffffffffffffffffffffffffffffffff1673ffffffffffffffffffffffffffffffffffffffff16815260200190815260200160002060009054906101000a900460ff16610d10576040517f08c379a0000000000000000000000000000000000000000000000000000000008152600401610d0790614c6f565b60405180910390fd5b6000895111610d54576040517f08c379a0000000000000000000000000000000000000000000000000000000008152600401610d4b90614cdb565b60405180910390fd5b60008711610d97576040517f08c379a0000000000000000000000000000000000000000000000000000000008152600401610d8e90614d47565b60405180910390fd5b60005b8351811015610ea557600960009054906101000a900473ffffffffffffffffffffffffffffffffffffffff1673ffffffffffffffffffffffffffffffffffffffff1663f577a500858381518110610df457610df3614d67565b5b60200260200101516040518263ffffffff1660e01b8152600401610e18919061436d565b602060405180830381865afa158015610e35573d6000803e3d6000fd5b505050506040513d601f19601f82011682018060405250810190610e599190614dab565b610e98576040517f08c379a0000000000000000000000000000000000000000000000000000000008152600401610e8f90614e24565b60405180910390fd5b8080600101915050610d9a565b50600060086000815480929190610ebb90614e73565b9190505590506040518061018001604052808b81526020013373ffffffffffffffffffffffffffffffffffffffff1681526020018a815260200189815260200188815260200142815260200187815260200186815260200160006004811115610f2757610f266143f0565b5b81526020018581526020013373ffffffffffffffffffffffffffffffffffffffff16815260200184815250600a60008381526020019081526020016000206000820151816000019081610f7a9190615067565b5060208201518160010160006101000a81548173ffffffffffffffffffffffffffffffffffffffff021916908373ffffffffffffffffffffffffffffffffffffffff1602179055506040820151816002019081610fd79190615067565b50606082015181600301556080820151816004019081610ff79190615067565b5060a0820151816005015560c0820151816006015560e08201518160070190816110219190615067565b506101008201518160080160006101000a81548160ff0219169083600481111561104e5761104d6143f0565b5b0217905550610120820151816009019080519060200190611070929190613b72565b5061014082015181600a0160006101000a81548173ffffffffffffffffffffffffffffffffffffffff021916908373ffffffffffffffffffffffffffffffffffffffff16021790555061016082015181600b0190816110cf9190615067565b509050506001600d600083815260200190815260200160002060006101000a81548160ff0219169083151502179055507f195a26ecf0c9b8fb957ecc3a7c029ce84849279de600e16f205ee789052052b6818b3360405161113293929190615139565b60405180910390a18091505098975050505050505050565b611152613bbf565b61115b82612a77565b61119a576040517f08c379a00000000000000000000000000000000000000000000000000000000081526004016111919061498c565b60405180910390fd5b600a6000838152602001908152602001600020604051806101800160405290816000820180546111c990614ae3565b80601f01602080910402602001604051908101604052809291908181526020018280546111f590614ae3565b80156112425780601f1061121757610100808354040283529160200191611242565b820191906000526020600020905b81548152906001019060200180831161122557829003601f168201915b505050505081526020016001820160009054906101000a900473ffffffffffffffffffffffffffffffffffffffff1673ffffffffffffffffffffffffffffffffffffffff1673ffffffffffffffffffffffffffffffffffffffff1681526020016002820180546112b190614ae3565b80601f01602080910402602001604051908101604052809291908181526020018280546112dd90614ae3565b801561132a5780601f106112ff5761010080835404028352916020019161132a565b820191906000526020600020905b81548152906001019060200180831161130d57829003601f168201915b505050505081526020016003820154815260200160048201805461134d90614ae3565b80601f016020809104026020016040519081016040528092919081815260200182805461137990614ae3565b80156113c65780601f1061139b576101008083540402835291602001916113c6565b820191906000526020600020905b8154815290600101906020018083116113a957829003601f168201915b5050505050815260200160058201548152602001600682015481526020016007820180546113f390614ae3565b80601f016020809104026020016040519081016040528092919081815260200182805461141f90614ae3565b801561146c5780601f106114415761010080835404028352916020019161146c565b820191906000526020600020905b81548152906001019060200180831161144f57829003601f168201915b505050505081526020016008820160009054906101000a900460ff16600481111561149a576114996143f0565b5b60048111156114ac576114ab6143f0565b5b8152602001600982018054806020026020016040519081016040528092919081815260200182805480156114ff57602002820191906000526020600020905b8154815260200190600101908083116114eb575b50505050508152602001600a820160009054906101000a900473ffffffffffffffffffffffffffffffffffffffff1673ffffffffffffffffffffffffffffffffffffffff1673ffffffffffffffffffffffffffffffffffffffff168152602001600b8201805461156e90614ae3565b80601f016020809104026020016040519081016040528092919081815260200182805461159a90614ae3565b80156115e75780601f106115bc576101008083540402835291602001916115e7565b820191906000526020600020905b8154815290600101906020018083116115ca57829003601f168201915b5050505050815250509050919050565b61160082612a77565b61163f576040517f08c379a00000000000000000000000000000000000000000000000000000000081526004016116369061498c565b60405180910390fd5b3373ffffffffffffffffffffffffffffffffffffffff1661165f836118ae565b73ffffffffffffffffffffffffffffffffffffffff16146116b5576040517f08c379a00000000000000000000000000000000000000000000000000000000081526004016116ac906151c3565b60405180910390fd5b600073ffffffffffffffffffffffffffffffffffffffff168173ffffffffffffffffffffffffffffffffffffffff1603611724576040517f08c379a000000000000000000000000000000000000000000000000000000000815260040161171b9061522f565b60405180910390fd5b6000600a600084815260200190815260200160002090506001600481111561174f5761174e6143f0565b5b8160080160009054906101000a900460ff166004811115611773576117726143f0565b5b14806117b457506002600481111561178e5761178d6143f0565b5b8160080160009054906101000a900460ff1660048111156117b2576117b16143f0565b5b145b6117f3576040517f08c379a00000000000000000000000000000000000000000000000000000000081526004016117ea9061529b565b60405180910390fd5b6117fe338385612e38565b60038160080160006101000a81548160ff02191690836004811115611826576118256143f0565b5b02179055508181600a0160006101000a81548173ffffffffffffffffffffffffffffffffffffffff021916908373ffffffffffffffffffffffffffffffffffffffff1602179055507fb9f31d1b8db0327a09cde76de6662ee23a4ecd72fbb0411cdfa7969fed7abe448333846040516118a1939291906152bb565b60405180910390a1505050565b60006118b982612ab8565b9050919050565b6000600c60008373ffffffffffffffffffffffffffffffffffffffff1673ffffffffffffffffffffffffffffffffffffffff16815260200190815260200160002060009054906101000a900460ff169050919050565b60008073ffffffffffffffffffffffffffffffffffffffff168273ffffffffffffffffffffffffffffffffffffffff16036119895760006040517f89c62b64000000000000000000000000000000000000000000000000000000008152600401611980919061408a565b60405180910390fd5b600360008373ffffffffffffffffffffffffffffffffffffffff1673ffffffffffffffffffffffffffffffffffffffff168152602001908152602001600020549050919050565b6119d8612b97565b6119e26000612fa5565b565b6000600760009054906101000a900473ffffffffffffffffffffffffffffffffffffffff16905090565b606060018054611a1d90614ae3565b80601f0160208091040260200160405190810160405280929190818152602001828054611a4990614ae3565b8015611a965780601f10611a6b57610100808354040283529160200191611a96565b820191906000526020600020905b815481529060010190602001808311611a7957829003601f168201915b5050505050905090565b611ab2611aab612b7d565b838361306b565b5050565b611abf81612a77565b611afe576040517f08c379a0000000000000000000000000000000000000000000000000000000008152600401611af59061498c565b60405180910390fd5b3373ffffffffffffffffffffffffffffffffffffffff16611b1e826118ae565b73ffffffffffffffffffffffffffffffffffffffff1614611b74576040517f08c379a0000000000000000000000000000000000000000000000000000000008152600401611b6b906151c3565b60405180910390fd5b6000600a6000838152602001908152602001600020905060016004811115611b9f57611b9e6143f0565b5b8160080160009054906101000a900460ff166004811115611bc357611bc26143f0565b5b14611c03576040517f08c379a0000000000000000000000000000000000000000000000000000000008152600401611bfa9061533e565b60405180910390fd5b60028160080160006101000a81548160ff02191690836004811115611c2b57611c2a6143f0565b5b02179055505050565b611c3f848484610b60565b611c53611c4a612b7d565b858585856131da565b50505050565b611c61612b97565b600c60008273ffffffffffffffffffffffffffffffffffffffff1673ffffffffffffffffffffffffffffffffffffffff16815260200190815260200160002060009054906101000a900460ff16611ced576040517f08c379a0000000000000000000000000000000000000000000000000000000008152600401611ce4906153aa565b60405180910390fd5b6000600c60008373ffffffffffffffffffffffffffffffffffffffff1673ffffffffffffffffffffffffffffffffffffffff16815260200190815260200160002060006101000a81548160ff0219169083151502179055507fb48d1366d07d4afdd2b73cbb6f7c9c23d71c2c9478252d6b97492dfd3819e7c781604051611d74919061408a565b60405180910390a150565b6060611d8a82612ab8565b506000600660008481526020019081526020016000208054611dab90614ae3565b80601f0160208091040260200160405190810160405280929190818152602001828054611dd790614ae3565b8015611e245780601f10611df957610100808354040283529160200191611e24565b820191906000526020600020905b815481529060010190602001808311611e0757829003601f168201915b505050505090506000611e3561338b565b90506000815103611e4a578192505050611e8d565b600082511115611e7f578082604051602001611e67929190615406565b60405160208183030381529060405292505050611e8d565b611e88846133a2565b925050505b919050565b6060600c60003373ffffffffffffffffffffffffffffffffffffffff1673ffffffffffffffffffffffffffffffffffffffff16815260200190815260200160002060009054906101000a900460ff16611f20576040517f08c379a0000000000000000000000000000000000000000000000000000000008152600401611f1790615476565b60405180910390fd5b600080600190505b600854811015611f7457600d600082815260200190815260200160002060009054906101000a900460ff1615611f67578180611f6390614e73565b9250505b8080600101915050611f28565b5060008167ffffffffffffffff811115611f9157611f90613e26565b5b604051908082528060200260200182016040528015611fbf5781602001602082028036833780820191505090505b509050600080600190505b60085481101561203657600d600082815260200190815260200160002060009054906101000a900460ff1615612029578083838151811061200e5761200d614d67565b5b602002602001018181525050818061202590614e73565b9250505b8080600101915050611fca565b5081935050505090565b600c60003373ffffffffffffffffffffffffffffffffffffffff1673ffffffffffffffffffffffffffffffffffffffff16815260200190815260200160002060009054906101000a900460ff166120cc576040517f08c379a00000000000000000000000000000000000000000000000000000000081526004016120c390615476565b60405180910390fd5b600d600082815260200190815260200160002060009054906101000a900460ff1661212c576040517f08c379a0000000000000000000000000000000000000000000000000000000008152600401612123906154e2565b60405180910390fd5b6000600a600083815260200190815260200160002090506121718160010160009054906101000a900473ffffffffffffffffffffffffffffffffffffffff168361340b565b6122078282600b01805461218490614ae3565b80601f01602080910402602001604051908101604052809291908181526020018280546121b090614ae3565b80156121fd5780601f106121d2576101008083540402835291602001916121fd565b820191906000526020600020905b8154815290600101906020018083116121e057829003601f168201915b5050505050613504565b60018160080160006101000a81548160ff0219169083600481111561222f5761222e6143f0565b5b02179055506000600d600084815260200190815260200160002060006101000a81548160ff0219169083151502179055507f5e4f9a3d8e8d8fc42bbe98104b324b50682ae0e3f892f0294dd16a226d48c21c8233604051612291929190615502565b60405180910390a15050565b6000600560008473ffffffffffffffffffffffffffffffffffffffff1673ffffffffffffffffffffffffffffffffffffffff16815260200190815260200160002060008373ffffffffffffffffffffffffffffffffffffffff1673ffffffffffffffffffffffffffffffffffffffff16815260200190815260200160002060009054906101000a900460ff16905092915050565b612339612b97565b600073ffffffffffffffffffffffffffffffffffffffff168173ffffffffffffffffffffffffffffffffffffffff16036123ab5760006040517f1e4fbdf70000000000000000000000000000000000000000000000000000000081526004016123a2919061408a565b60405180910390fd5b6123b481612fa5565b50565b6123c082612a77565b6123ff576040517f08c379a00000000000000000000000000000000000000000000000000000000081526004016123f69061498c565b60405180910390fd5b6000600a600084815260200190815260200160002090503373ffffffffffffffffffffffffffffffffffffffff168160010160009054906101000a900473ffffffffffffffffffffffffffffffffffffffff1673ffffffffffffffffffffffffffffffffffffffff1614806124c357503373ffffffffffffffffffffffffffffffffffffffff1681600a0160009054906101000a900473ffffffffffffffffffffffffffffffffffffffff1673ffffffffffffffffffffffffffffffffffffffff16145b612502576040517f08c379a00000000000000000000000000000000000000000000000000000000081526004016124f99061559d565b60405180910390fd5b600960009054906101000a900473ffffffffffffffffffffffffffffffffffffffff1673ffffffffffffffffffffffffffffffffffffffff1663f577a500836040518263ffffffff1660e01b815260040161255d919061436d565b602060405180830381865afa15801561257a573d6000803e3d6000fd5b505050506040513d601f19601f8201168201806040525081019061259e9190614dab565b6125dd576040517f08c379a00000000000000000000000000000000000000000000000000000000081526004016125d490614e24565b60405180910390fd5b6000805b826009018054905081101561262d578383600901828154811061260757612606614d67565b5b906000526020600020015403612620576001915061262d565b80806001019150506125e1565b50801561266f576040517f08c379a000000000000000000000000000000000000000000000000000000000815260040161266690615609565b60405180910390fd5b816009018390806001815401808255809150506001900390600052602060002001600090919091909150557f0870aa9a0cce7d456adbc65186945fcd60bf61aa63807273df4bdf886fbd457684846040516126cb929190615629565b60405180910390a150505050565b6126e1612b97565b600073ffffffffffffffffffffffffffffffffffffffff168173ffffffffffffffffffffffffffffffffffffffff1603612750576040517f08c379a00000000000000000000000000000000000000000000000000000000081526004016127479061569e565b60405180910390fd5b600b60008273ffffffffffffffffffffffffffffffffffffffff1673ffffffffffffffffffffffffffffffffffffffff16815260200190815260200160002060009054906101000a900460ff16156127dd576040517f08c379a00000000000000000000000000000000000000000000000000000000081526004016127d490614bcc565b60405180910390fd5b6001600b60008373ffffffffffffffffffffffffffffffffffffffff1673ffffffffffffffffffffffffffffffffffffffff16815260200190815260200160002060006101000a81548160ff0219169083151502179055507fa09c6df0c632a53152bcdbf11806efa608c66c3eb90020ab6f6a3c0fa10a65a681604051612864919061408a565b60405180910390a150565b612877612b97565b600b60008273ffffffffffffffffffffffffffffffffffffffff1673ffffffffffffffffffffffffffffffffffffffff16815260200190815260200160002060009054906101000a900460ff16612903576040517f08c379a00000000000000000000000000000000000000000000000000000000081526004016128fa9061570a565b60405180910390fd5b6000600b60008373ffffffffffffffffffffffffffffffffffffffff1673ffffffffffffffffffffffffffffffffffffffff16815260200190815260200160002060006101000a81548160ff0219169083151502179055507f290f04b7d7ee3d8e9c131ae3e752b8c881c7155098267e78bff5f3c88f2f05878160405161298a919061408a565b60405180910390a150565b60007f80ac58cd000000000000000000000000000000000000000000000000000000007bffffffffffffffffffffffffffffffffffffffffffffffffffffffff1916827bffffffffffffffffffffffffffffffffffffffffffffffffffffffff19161480612a6057507f5b5e139f000000000000000000000000000000000000000000000000000000007bffffffffffffffffffffffffffffffffffffffffffffffffffffffff1916827bffffffffffffffffffffffffffffffffffffffffffffffffffffffff1916145b80612a705750612a6f82613560565b5b9050919050565b60008073ffffffffffffffffffffffffffffffffffffffff16612a99836135ca565b73ffffffffffffffffffffffffffffffffffffffff1614159050919050565b600080612ac4836135ca565b9050600073ffffffffffffffffffffffffffffffffffffffff168173ffffffffffffffffffffffffffffffffffffffff1603612b3757826040517f7e273289000000000000000000000000000000000000000000000000000000008152600401612b2e919061436d565b60405180910390fd5b80915050919050565b60006004600083815260200190815260200160002060009054906101000a900473ffffffffffffffffffffffffffffffffffffffff169050919050565b600033905090565b612b928383836001613607565b505050565b612b9f612b7d565b73ffffffffffffffffffffffffffffffffffffffff16612bbd6119e4565b73ffffffffffffffffffffffffffffffffffffffff1614612c1c57612be0612b7d565b6040517f118cdaa7000000000000000000000000000000000000000000000000000000008152600401612c13919061408a565b60405180910390fd5b565b600080612c2a846135ca565b9050600073ffffffffffffffffffffffffffffffffffffffff168373ffffffffffffffffffffffffffffffffffffffff1614612c6c57612c6b8184866137cc565b5b600073ffffffffffffffffffffffffffffffffffffffff168173ffffffffffffffffffffffffffffffffffffffff1614612cfd57612cae600085600080613607565b6001600360008373ffffffffffffffffffffffffffffffffffffffff1673ffffffffffffffffffffffffffffffffffffffff168152602001908152602001600020600082825403925050819055505b600073ffffffffffffffffffffffffffffffffffffffff168573ffffffffffffffffffffffffffffffffffffffff1614612d80576001600360008773ffffffffffffffffffffffffffffffffffffffff1673ffffffffffffffffffffffffffffffffffffffff168152602001908152602001600020600082825401925050819055505b846002600086815260200190815260200160002060006101000a81548173ffffffffffffffffffffffffffffffffffffffff021916908373ffffffffffffffffffffffffffffffffffffffff160217905550838573ffffffffffffffffffffffffffffffffffffffff168273ffffffffffffffffffffffffffffffffffffffff167fddf252ad1be2c89b69c2b068fc378daa952ba7f163c4a11628f55a4df523b3ef60405160405180910390a4809150509392505050565b600073ffffffffffffffffffffffffffffffffffffffff168273ffffffffffffffffffffffffffffffffffffffff1603612eaa5760006040517f64a0ae92000000000000000000000000000000000000000000000000000000008152600401612ea1919061408a565b60405180910390fd5b6000612eb883836000612c1e565b9050600073ffffffffffffffffffffffffffffffffffffffff168173ffffffffffffffffffffffffffffffffffffffff1603612f2b57816040517f7e273289000000000000000000000000000000000000000000000000000000008152600401612f22919061436d565b60405180910390fd5b8373ffffffffffffffffffffffffffffffffffffffff168173ffffffffffffffffffffffffffffffffffffffff1614612f9f578382826040517f64283d7b000000000000000000000000000000000000000000000000000000008152600401612f9693929190614bec565b60405180910390fd5b50505050565b6000600760009054906101000a900473ffffffffffffffffffffffffffffffffffffffff16905081600760006101000a81548173ffffffffffffffffffffffffffffffffffffffff021916908373ffffffffffffffffffffffffffffffffffffffff1602179055508173ffffffffffffffffffffffffffffffffffffffff168173ffffffffffffffffffffffffffffffffffffffff167f8be0079c531659141344cd1fd0a4f28419497f9722a3daafe3b4186f6b6457e060405160405180910390a35050565b600073ffffffffffffffffffffffffffffffffffffffff168273ffffffffffffffffffffffffffffffffffffffff16036130dc57816040517f5b08ba180000000000000000000000000000000000000000000000000000000081526004016130d3919061408a565b60405180910390fd5b80600560008573ffffffffffffffffffffffffffffffffffffffff1673ffffffffffffffffffffffffffffffffffffffff16815260200190815260200160002060008473ffffffffffffffffffffffffffffffffffffffff1673ffffffffffffffffffffffffffffffffffffffff16815260200190815260200160002060006101000a81548160ff0219169083151502179055508173ffffffffffffffffffffffffffffffffffffffff168373ffffffffffffffffffffffffffffffffffffffff167f17307eab39ab6107e8899845ad3d59bd9653f200f220920489ca2b5937696c31836040516131cd9190613d2f565b60405180910390a3505050565b60008373ffffffffffffffffffffffffffffffffffffffff163b1115613384578273ffffffffffffffffffffffffffffffffffffffff1663150b7a02868685856040518563ffffffff1660e01b8152600401613239949392919061577f565b6020604051808303816000875af192505050801561327557506040513d601f19601f8201168201806040525081019061327291906157e0565b60015b6132f9573d80600081146132a5576040519150601f19603f3d011682016040523d82523d6000602084013e6132aa565b606091505b5060008151036132f157836040517f64a0ae920000000000000000000000000000000000000000000000000000000081526004016132e8919061408a565b60405180910390fd5b805181602001fd5b63150b7a0260e01b7bffffffffffffffffffffffffffffffffffffffffffffffffffffffff1916817bffffffffffffffffffffffffffffffffffffffffffffffffffffffff19161461338257836040517f64a0ae92000000000000000000000000000000000000000000000000000000008152600401613379919061408a565b60405180910390fd5b505b5050505050565b606060405180602001604052806000815250905090565b60606133ad82612ab8565b5060006133b861338b565b905060008151116133d85760405180602001604052806000815250613403565b806133e284613890565b6040516020016133f3929190615406565b6040516020818303038152906040525b915050919050565b600073ffffffffffffffffffffffffffffffffffffffff168273ffffffffffffffffffffffffffffffffffffffff160361347d5760006040517f64a0ae92000000000000000000000000000000000000000000000000000000008152600401613474919061408a565b60405180910390fd5b600061348b83836000612c1e565b9050600073ffffffffffffffffffffffffffffffffffffffff168173ffffffffffffffffffffffffffffffffffffffff16146134ff5760006040517f73c6ac6e0000000000000000000000000000000000000000000000000000000081526004016134f6919061408a565b60405180910390fd5b505050565b806006600084815260200190815260200160002090816135249190615067565b507ff8e1a15aba9398e019f0b49df1a4fde98ee17ae345cb5f6b5e2c27f5033e8ce782604051613554919061436d565b60405180910390a15050565b60007f01ffc9a7000000000000000000000000000000000000000000000000000000007bffffffffffffffffffffffffffffffffffffffffffffffffffffffff1916827bffffffffffffffffffffffffffffffffffffffffffffffffffffffff1916149050919050565b60006002600083815260200190815260200160002060009054906101000a900473ffffffffffffffffffffffffffffffffffffffff169050919050565b80806136405750600073ffffffffffffffffffffffffffffffffffffffff168273ffffffffffffffffffffffffffffffffffffffff1614155b1561377457600061365084612ab8565b9050600073ffffffffffffffffffffffffffffffffffffffff168373ffffffffffffffffffffffffffffffffffffffff16141580156136bb57508273ffffffffffffffffffffffffffffffffffffffff168173ffffffffffffffffffffffffffffffffffffffff1614155b80156136ce57506136cc818461229d565b155b1561371057826040517fa9fbf51f000000000000000000000000000000000000000000000000000000008152600401613707919061408a565b60405180910390fd5b811561377257838573ffffffffffffffffffffffffffffffffffffffff168273ffffffffffffffffffffffffffffffffffffffff167f8c5be1e5ebec7d5bd14f71427d1e84f3dd0314c0f7b2291e5b200ac8c7c3b92560405160405180910390a45b505b836004600085815260200190815260200160002060006101000a81548173ffffffffffffffffffffffffffffffffffffffff021916908373ffffffffffffffffffffffffffffffffffffffff16021790555050505050565b6137d783838361395e565b61388b57600073ffffffffffffffffffffffffffffffffffffffff168373ffffffffffffffffffffffffffffffffffffffff160361384c57806040517f7e273289000000000000000000000000000000000000000000000000000000008152600401613843919061436d565b60405180910390fd5b81816040517f177e802f00000000000000000000000000000000000000000000000000000000815260040161388292919061580d565b60405180910390fd5b505050565b60606000600161389f84613a1f565b01905060008167ffffffffffffffff8111156138be576138bd613e26565b5b6040519080825280601f01601f1916602001820160405280156138f05781602001600182028036833780820191505090505b509050600082602001820190505b600115613953578080600190039150507f3031323334353637383961626364656600000000000000000000000000000000600a86061a8153600a858161394757613946615836565b5b049450600085036138fe575b819350505050919050565b60008073ffffffffffffffffffffffffffffffffffffffff168373ffffffffffffffffffffffffffffffffffffffff1614158015613a1657508273ffffffffffffffffffffffffffffffffffffffff168473ffffffffffffffffffffffffffffffffffffffff1614806139d757506139d6848461229d565b5b80613a1557508273ffffffffffffffffffffffffffffffffffffffff166139fd83612b40565b73ffffffffffffffffffffffffffffffffffffffff16145b5b90509392505050565b600080600090507a184f03e93ff9f4daa797ed6e38ed64bf6a1f0100000000000000008310613a7d577a184f03e93ff9f4daa797ed6e38ed64bf6a1f0100000000000000008381613a7357613a72615836565b5b0492506040810190505b6d04ee2d6d415b85acef81000000008310613aba576d04ee2d6d415b85acef81000000008381613ab057613aaf615836565b5b0492506020810190505b662386f26fc100008310613ae957662386f26fc100008381613adf57613ade615836565b5b0492506010810190505b6305f5e1008310613b12576305f5e1008381613b0857613b07615836565b5b0492506008810190505b6127108310613b37576127108381613b2d57613b2c615836565b5b0492506004810190505b60648310613b5a5760648381613b5057613b4f615836565b5b0492506002810190505b600a8310613b69576001810190505b80915050919050565b828054828255906000526020600020908101928215613bae579160200282015b82811115613bad578251825591602001919060010190613b92565b5b509050613bbb9190613c5e565b5090565b60405180610180016040528060608152602001600073ffffffffffffffffffffffffffffffffffffffff16815260200160608152602001600081526020016060815260200160008152602001600081526020016060815260200160006004811115613c2d57613c2c6143f0565b5b815260200160608152602001600073ffffffffffffffffffffffffffffffffffffffff168152602001606081525090565b5b80821115613c77576000816000905550600101613c5f565b5090565b6000604051905090565b600080fd5b600080fd5b60007fffffffff0000000000000000000000000000000000000000000000000000000082169050919050565b613cc481613c8f565b8114613ccf57600080fd5b50565b600081359050613ce181613cbb565b92915050565b600060208284031215613cfd57613cfc613c85565b5b6000613d0b84828501613cd2565b91505092915050565b60008115159050919050565b613d2981613d14565b82525050565b6000602082019050613d446000830184613d20565b92915050565b600073ffffffffffffffffffffffffffffffffffffffff82169050919050565b6000613d7582613d4a565b9050919050565b613d8581613d6a565b8114613d9057600080fd5b50565b600081359050613da281613d7c565b92915050565b600060208284031215613dbe57613dbd613c85565b5b6000613dcc84828501613d93565b91505092915050565b6000819050919050565b613de881613dd5565b8114613df357600080fd5b50565b600081359050613e0581613ddf565b92915050565b600080fd5b600080fd5b6000601f19601f8301169050919050565b7f4e487b7100000000000000000000000000000000000000000000000000000000600052604160045260246000fd5b613e5e82613e15565b810181811067ffffffffffffffff82111715613e7d57613e7c613e26565b5b80604052505050565b6000613e90613c7b565b9050613e9c8282613e55565b919050565b600067ffffffffffffffff821115613ebc57613ebb613e26565b5b613ec582613e15565b9050602081019050919050565b82818337600083830152505050565b6000613ef4613eef84613ea1565b613e86565b905082815260208101848484011115613f1057613f0f613e10565b5b613f1b848285613ed2565b509392505050565b600082601f830112613f3857613f37613e0b565b5b8135613f48848260208601613ee1565b91505092915050565b60008060408385031215613f6857613f67613c85565b5b6000613f7685828601613df6565b925050602083013567ffffffffffffffff811115613f9757613f96613c8a565b5b613fa385828601613f23565b9150509250929050565b600081519050919050565b600082825260208201905092915050565b60005b83811015613fe7578082015181840152602081019050613fcc565b60008484015250505050565b6000613ffe82613fad565b6140088185613fb8565b9350614018818560208601613fc9565b61402181613e15565b840191505092915050565b600060208201905081810360008301526140468184613ff3565b905092915050565b60006020828403121561406457614063613c85565b5b600061407284828501613df6565b91505092915050565b61408481613d6a565b82525050565b600060208201905061409f600083018461407b565b92915050565b600080604083850312156140bc576140bb613c85565b5b60006140ca85828601613d93565b92505060206140db85828601613df6565b9150509250929050565b6000806000606084860312156140fe576140fd613c85565b5b600061410c86828701613d93565b935050602061411d86828701613d93565b925050604061412e86828701613df6565b9150509250925092565b600067ffffffffffffffff82111561415357614152613e26565b5b602082029050602081019050919050565b600080fd5b600061417c61417784614138565b613e86565b9050808382526020820190506020840283018581111561419f5761419e614164565b5b835b818110156141c857806141b48882613df6565b8452602084019350506020810190506141a1565b5050509392505050565b600082601f8301126141e7576141e6613e0b565b5b81356141f7848260208601614169565b91505092915050565b600080600080600080600080610100898b03121561422157614220613c85565b5b600089013567ffffffffffffffff81111561423f5761423e613c8a565b5b61424b8b828c01613f23565b985050602089013567ffffffffffffffff81111561426c5761426b613c8a565b5b6142788b828c01613f23565b97505060406142898b828c01613df6565b965050606089013567ffffffffffffffff8111156142aa576142a9613c8a565b5b6142b68b828c01613f23565b95505060806142c78b828c01613df6565b94505060a089013567ffffffffffffffff8111156142e8576142e7613c8a565b5b6142f48b828c01613f23565b93505060c089013567ffffffffffffffff81111561431557614314613c8a565b5b6143218b828c016141d2565b92505060e089013567ffffffffffffffff81111561434257614341613c8a565b5b61434e8b828c01613f23565b9150509295985092959890939650565b61436781613dd5565b82525050565b6000602082019050614382600083018461435e565b92915050565b600082825260208201905092915050565b60006143a482613fad565b6143ae8185614388565b93506143be818560208601613fc9565b6143c781613e15565b840191505092915050565b6143db81613d6a565b82525050565b6143ea81613dd5565b82525050565b7f4e487b7100000000000000000000000000000000000000000000000000000000600052602160045260246000fd5b600581106144305761442f6143f0565b5b50565b60008190506144418261441f565b919050565b600061445182614433565b9050919050565b61446181614446565b82525050565b600081519050919050565b600082825260208201905092915050565b6000819050602082019050919050565b600061449f83836143e1565b60208301905092915050565b6000602082019050919050565b60006144c382614467565b6144cd8185614472565b93506144d883614483565b8060005b838110156145095781516144f08882614493565b97506144fb836144ab565b9250506001810190506144dc565b5085935050505092915050565b60006101808301600083015184820360008601526145348282614399565b915050602083015161454960208601826143d2565b50604083015184820360408601526145618282614399565b915050606083015161457660608601826143e1565b506080830151848203608086015261458e8282614399565b91505060a08301516145a360a08601826143e1565b5060c08301516145b660c08601826143e1565b5060e083015184820360e08601526145ce8282614399565b9150506101008301516145e5610100860182614458565b506101208301518482036101208601526145ff82826144b8565b9150506101408301516146166101408601826143d2565b506101608301518482036101608601526146308282614399565b9150508091505092915050565b600060208201905081810360008301526146578184614516565b905092915050565b6000806040838503121561467657614675613c85565b5b600061468485828601613df6565b925050602061469585828601613d93565b9150509250929050565b6146a881613d14565b81146146b357600080fd5b50565b6000813590506146c58161469f565b92915050565b600080604083850312156146e2576146e1613c85565b5b60006146f085828601613d93565b9250506020614701858286016146b6565b9150509250929050565b600067ffffffffffffffff82111561472657614725613e26565b5b61472f82613e15565b9050602081019050919050565b600061474f61474a8461470b565b613e86565b90508281526020810184848401111561476b5761476a613e10565b5b614776848285613ed2565b509392505050565b600082601f83011261479357614792613e0b565b5b81356147a384826020860161473c565b91505092915050565b600080600080608085870312156147c6576147c5613c85565b5b60006147d487828801613d93565b94505060206147e587828801613d93565b93505060406147f687828801613df6565b925050606085013567ffffffffffffffff81111561481757614816613c8a565b5b6148238782880161477e565b91505092959194509250565b600082825260208201905092915050565b600061484b82614467565b614855818561482f565b935061486083614483565b8060005b838110156148915781516148788882614493565b9750614883836144ab565b925050600181019050614864565b5085935050505092915050565b600060208201905081810360008301526148b88184614840565b905092915050565b600080604083850312156148d7576148d6613c85565b5b60006148e585828601613d93565b92505060206148f685828601613d93565b9150509250929050565b6000806040838503121561491757614916613c85565b5b600061492585828601613df6565b925050602061493685828601613df6565b9150509250929050565b7f426174636820646f6573206e6f74206578697374000000000000000000000000600082015250565b6000614976601483613fb8565b915061498182614940565b602082019050919050565b600060208201905081810360008301526149a581614969565b9050919050565b7f4e6f7420617574686f72697a656420746f2063616e63656c0000000000000000600082015250565b60006149e2601883613fb8565b91506149ed826149ac565b602082019050919050565b60006020820190508181036000830152614a11816149d5565b9050919050565b7f426174636820616c72656164792063616e63656c6c6564000000000000000000600082015250565b6000614a4e601783613fb8565b9150614a5982614a18565b602082019050919050565b60006020820190508181036000830152614a7d81614a41565b9050919050565b6000604082019050614a99600083018561435e565b8181036020830152614aab8184613ff3565b90509392505050565b7f4e487b7100000000000000000000000000000000000000000000000000000000600052602260045260246000fd5b60006002820490506001821680614afb57607f821691505b602082108103614b0e57614b0d614ab4565b5b50919050565b7f496e76616c696420766572696669657220616464726573730000000000000000600082015250565b6000614b4a601883613fb8565b9150614b5582614b14565b602082019050919050565b60006020820190508181036000830152614b7981614b3d565b9050919050565b7f416c726561647920617574686f72697a65640000000000000000000000000000600082015250565b6000614bb6601283613fb8565b9150614bc182614b80565b602082019050919050565b60006020820190508181036000830152614be581614ba9565b9050919050565b6000606082019050614c01600083018661407b565b614c0e602083018561435e565b614c1b604083018461407b565b949350505050565b7f4e6f7420617574686f72697a65642061732070726f6475636572000000000000600082015250565b6000614c59601a83613fb8565b9150614c6482614c23565b602082019050919050565b60006020820190508181036000830152614c8881614c4c565b9050919050565b7f42617463682049442063616e6e6f7420626520656d7074790000000000000000600082015250565b6000614cc5601883613fb8565b9150614cd082614c8f565b602082019050919050565b60006020820190508181036000830152614cf481614cb8565b9050919050565b7f5175616e74697479206d7573742062652067726561746572207468616e203000600082015250565b6000614d31601f83613fb8565b9150614d3c82614cfb565b602082019050919050565b60006020820190508181036000830152614d6081614d24565b9050919050565b7f4e487b7100000000000000000000000000000000000000000000000000000000600052603260045260246000fd5b600081519050614da58161469f565b92915050565b600060208284031215614dc157614dc0613c85565b5b6000614dcf84828501614d96565b91505092915050565b7f496e76616c6964206f7220657870697265642063657274696669636174650000600082015250565b6000614e0e601e83613fb8565b9150614e1982614dd8565b602082019050919050565b60006020820190508181036000830152614e3d81614e01565b9050919050565b7f4e487b7100000000000000000000000000000000000000000000000000000000600052601160045260246000fd5b6000614e7e82613dd5565b91507fffffffffffffffffffffffffffffffffffffffffffffffffffffffffffffffff8203614eb057614eaf614e44565b5b600182019050919050565b60008190508160005260206000209050919050565b60006020601f8301049050919050565b600082821b905092915050565b600060088302614f1d7fffffffffffffffffffffffffffffffffffffffffffffffffffffffffffffffff82614ee0565b614f278683614ee0565b95508019841693508086168417925050509392505050565b6000819050919050565b6000614f64614f5f614f5a84613dd5565b614f3f565b613dd5565b9050919050565b6000819050919050565b614f7e83614f49565b614f92614f8a82614f6b565b848454614eed565b825550505050565b600090565b614fa7614f9a565b614fb2818484614f75565b505050565b5b81811015614fd657614fcb600082614f9f565b600181019050614fb8565b5050565b601f82111561501b57614fec81614ebb565b614ff584614ed0565b81016020851015615004578190505b61501861501085614ed0565b830182614fb7565b50505b505050565b600082821c905092915050565b600061503e60001984600802615020565b1980831691505092915050565b6000615057838361502d565b9150826002028217905092915050565b61507082613fad565b67ffffffffffffffff81111561508957615088613e26565b5b6150938254614ae3565b61509e828285614fda565b600060209050601f8311600181146150d157600084156150bf578287015190505b6150c9858261504b565b865550615131565b601f1984166150df86614ebb565b60005b82811015615107578489015182556001820191506020850194506020810190506150e2565b868310156151245784890151615120601f89168261502d565b8355505b6001600288020188555050505b505050505050565b600060608201905061514e600083018661435e565b81810360208301526151608185613ff3565b905061516f604083018461407b565b949350505050565b7f4e6f7420746865206f776e6572206f6620746865206261746368000000000000600082015250565b60006151ad601a83613fb8565b91506151b882615177565b602082019050919050565b600060208201905081810360008301526151dc816151a0565b9050919050565b7f496e76616c696420726563697069656e74206164647265737300000000000000600082015250565b6000615219601983613fb8565b9150615224826151e3565b602082019050919050565b600060208201905081810360008301526152488161520c565b9050919050565b7f4261746368206e6f7420616374697665206f7220696e207472616e7369740000600082015250565b6000615285601e83613fb8565b91506152908261524f565b602082019050919050565b600060208201905081810360008301526152b481615278565b9050919050565b60006060820190506152d0600083018661435e565b6152dd602083018561407b565b6152ea604083018461407b565b949350505050565b7f4261746368206e6f742061637469766500000000000000000000000000000000600082015250565b6000615328601083613fb8565b9150615333826152f2565b602082019050919050565b600060208201905081810360008301526153578161531b565b9050919050565b7f4e6f7420616e20617574686f72697a6564207665726966696572000000000000600082015250565b6000615394601a83613fb8565b915061539f8261535e565b602082019050919050565b600060208201905081810360008301526153c381615387565b9050919050565b600081905092915050565b60006153e082613fad565b6153ea81856153ca565b93506153fa818560208601613fc9565b80840191505092915050565b600061541282856153d5565b915061541e82846153d5565b91508190509392505050565b7f4e6f7420617574686f72697a6564206173207665726966696572000000000000600082015250565b6000615460601a83613fb8565b915061546b8261542a565b602082019050919050565b6000602082019050818103600083015261548f81615453565b9050919050565b7f4261746368206e6f742070656e64696e6720766572696669636174696f6e0000600082015250565b60006154cc601e83613fb8565b91506154d782615496565b602082019050919050565b600060208201905081810360008301526154fb816154bf565b9050919050565b6000604082019050615517600083018561435e565b615524602083018461407b565b9392505050565b7f4e6f7420617574686f72697a656420746f206c696e6b2063657274696669636160008201527f7465000000000000000000000000000000000000000000000000000000000000602082015250565b6000615587602283613fb8565b91506155928261552b565b604082019050919050565b600060208201905081810360008301526155b68161557a565b9050919050565b7f436572746966696361746520616c7265616479206c696e6b6564000000000000600082015250565b60006155f3601a83613fb8565b91506155fe826155bd565b602082019050919050565b60006020820190508181036000830152615622816155e6565b9050919050565b600060408201905061563e600083018561435e565b61564b602083018461435e565b9392505050565b7f496e76616c69642070726f647563657220616464726573730000000000000000600082015250565b6000615688601883613fb8565b915061569382615652565b602082019050919050565b600060208201905081810360008301526156b78161567b565b9050919050565b7f4e6f7420616e20617574686f72697a65642070726f6475636572000000000000600082015250565b60006156f4601a83613fb8565b91506156ff826156be565b602082019050919050565b60006020820190508181036000830152615723816156e7565b9050919050565b600081519050919050565b600082825260208201905092915050565b60006157518261572a565b61575b8185615735565b935061576b818560208601613fc9565b61577481613e15565b840191505092915050565b6000608082019050615794600083018761407b565b6157a1602083018661407b565b6157ae604083018561435e565b81810360608301526157c08184615746565b905095945050505050565b6000815190506157da81613cbb565b92915050565b6000602082840312156157f6576157f5613c85565b5b6000615804848285016157cb565b91505092915050565b6000604082019050615822600083018561407b565b61582f602083018461435e565b9392505050565b7f4e487b7100000000000000000000000000000000000000000000000000000000600052601260045260246000fdfea2646970667358221220b06c0264165988332688afab5431a8b2160fb8e72602a85466d231cc78b70bda64736f6c634300081c0033a26469706673582212201a5be76c4ff5ec6336665ec52c0943795e9b9fe70acd97c58b690146fa8d422b64736f6c634300081c0033",
  "linkReferences": {},
  "deployedLinkReferences": {}
}